:100000000C9434000C9451000C9451000C9419067B
:100010000C9451000C9451000C9451000C9451001C
:100020000C9451000C9451000C9451000C9451000C
:100030000C9451000C9451000C9451000C945100FC
:100040000C9451000C9451000C9451000C945100EC
:100050000C9451000C9451000C9451000C945100DC
:100060000C9451000C94510011241FBECFEFD4E02A
:10007000DEBFCDBF11E0A0E0B1E0E2E2F5E202C0F8
:1000800005900D92AA33B107D9F711E0AAE3B1E0C8
:1000900001C01D92A63CB107E1F70E941C0F0C9411
:1000A0008F120C9400009C01F999FECF32BD21BD46
:1000B000F89A80B508959C01F999FECF1FBA32BD18
:1000C00021BD60BD0FB6F894FA9AF99A0FBE089553
:1000D000CF93DF93E0E0F0E020E030E040E050E05C
:1000E000A0E5B3EC1BC080917A00806480937A0015
:1000F00080917A0086FDFCCF909178008091790004
:10010000782F60E0EB01C90FD11DEC0FFD1FCD0171
:100110000197F1F72F5F3F4F4F4F5F4F243131056C
:100120004105510504F3CF0164E170E00E943F12E4
:10013000709335016093340160E070E020E030E0BE
:1001400040E050E0C4EFD1E015C080918E01909165
:100150008F01A0919001B0919101680F791F88ECF7
:1001600090E0FE013197F1F70197D9F72F5F3F4FEC
:100170004F4F5F4F243131054105510534F3209332
:100180006401309365014093660150936701CB0190
:1001900064E170E00E943F1270930B0160930A01CA
:1001A000DF91CF910895AF92BF92CF92DF92EF92FD
:1001B000FF920F931F93CF93DF93A090B201B09063
:1001C000B301C090B401D090B501C601B50120E0E3
:1001D00030E048E452E40E94FF0F88230CF0B7C0DF
:1001E0001092A3011092A20120918E0130918F01F3
:1001F0004091900150919101C0910A01D0910B0161
:1002000080910C0190910D018C0F9D1FAA2797FDE5
:10021000A095BA2F82179307A407B50724F5E0909D
:100220002C01F0902D0100912E0110912F01C80199
:10023000B70126EA3BE944E45BE30E9452119B01CB
:10024000AC01C801B7010E949B0F60932C01709311
:100250002D0180932E0190932F0181E090E09093E7
:10026000A3018093A20120918E0130918F014091D2
:1002700090015091910180910E0190910F01C80F52
:10028000D91FCE01AA2797FDA095BA2F28173907A5
:100290004A075B0724F5E0902C01F0902D010091B6
:1002A0002E0110912F01C801B70126EA3BE944E471
:1002B0005BEB0E9452119B01AC01C801B7010E9487
:1002C0009B0F60932C0170932D0180932E019093CE
:1002D0002F0181E090E09093A3018093A2016091AF
:1002E0002C0170912D0180912E0190912F012DEC08
:1002F0003CEC4CEC5DE30E94FF0F882364F48DEC32
:100300009CECACECBDE380932C0190932D01A09369
:100310002E01B0932F0160912C0170912D018091DD
:100320002E0190912F0120E030E040E251E40E9444
:100330004E11181664F480E090E0A0E2B1E48093DE
:100340002C0190932D01A0932E01B0932F01C60193
:10035000B50120E030E048E452E40E944E118823C9
:100360000CF4B0C0C601B50120E030E044EB52E42B
:100370000E94FF0F88230CF0A5C081E090E09093CD
:10038000A3018093A20120918E0130918F014091B1
:10039000900150919101C0910A01D0910B0180917F
:1003A0000C0190910D018C0F9D1FAA2797FDA09520
:1003B000BA2F82179307A407B507D4F460913001D0
:1003C00070913101809132019091330120E030E051
:1003D00040E85FE30E949B0F60933001709331010E
:1003E00080933201909333011092A3011092A201E5
:1003F00020918E0130918F01409190015091910197
:1004000080910E0190910F01C80FD91FCE01AA272C
:1004100097FDA095BA2F281739074A075B07D4F430
:1004200060913001709131018091320190913301DE
:1004300020E030E040E85FE30E949A0F60933001D3
:100440007093310180933201909333011092A30194
:100450001092A201609130017091310180913201BE
:100460009091330120E030E040E050E00E94FF0F27
:10047000882364F480E090E0A8ECB2E4809330013B
:1004800090933101A0933201B09333016091300118
:1004900070913101809132019091330120E030E080
:1004A00048EC52E40E944E11181664F480E090E08B
:1004B000A0E0B0E08093300190933101A09332012D
:1004C000B0933301DF91CF911F910F91FF90EF9087
:1004D000DF90CF90BF90AF90089510927B0086E898
:1004E00080937A0084E080937C0020982198229861
:1004F0003C98509A589A559A529A549A5D9A8FEF0E
:1005000080936B0081E0809368001092800083E00C
:10051000809381005A985C9821E030E040E050E000
:10052000E0E268E873E10AC08BB18E278BB9CB019A
:100530000197F1F72F5F3F4F4F4F5F4F2B3F310533
:10054000410551058CF321E030E040E050E0A0E2AD
:1005500064EF71E00EC08BB18A278BB986E990E019
:10056000FB013197F1F70197D9F72F5F3F4F4F4FBD
:100570005F4F20313105410551056CF32093640133
:100580003093650140936601509367011092860194
:1005900010928701109288011092890108952F927C
:1005A0003F924F925F926F927F928F929F92AF9203
:1005B000BF92CF92DF92EF92FF920F931F93DF9340
:1005C000CF93CDB7DEB7A2970FB6F894DEBF0FBEBC
:1005D000CDBF5C0120918A0130918B0140918C014B
:1005E00050918D0129833A834B835C838091C201B2
:1005F0009091C301A091C401B091C5018D8F9E8FD0
:10060000AF8FB8A320919201309193014091940152
:1006100050919501298F3A8F4B8F5C8F80916801A3
:1006200090916901A0916A01B0916B018D8B9E8BB5
:10063000AF8BB88FA091A001B091A101BC8BAB8B07
:10064000E091B001F091B101FA8BE98B20913E016C
:1006500030913F01388B2F878091820190918301E7
:10066000A0918401B09185018B879C87AD87BE875F
:1006700020917A0130917B0140917C0150917D0164
:100680002F83388749875A872090960130909701A9
:1006900040909801509099016090B8017090B90114
:1006A0008090BA019090BB014091A2015091A301AA
:1006B0005E834D83C0907201D0907301E09074010D
:1006C000F090750180917001909171019AA389A3B6
:1006D00001E031C1609184007091850080E090E07C
:1006E0000E949C102D8D3E8D4F8D58A10E94FF0FB2
:1006F000882314F45A9A5C9A609184007091850062
:1007000080E090E00E949C10298D3A8D4B8D5C8D8D
:100710000E944E11181614F45A9A5C9A6091840043
:100720007091850080E090E02D893E894F89588D39
:10073000620F731F841F951F0E949E106B017C0126
:10074000609184007091850080E090E00E949C1090
:100750002D8D3E8D4F8D58A10E944E1118160CF014
:1007600056C0609184007091850080E090E00E9406
:100770009C10298D3A8D4B8D5C8D0E94FF0F882334
:100780000CF045C04B895C89452BF9F489899A891D
:10079000892B61F5AF85B889AB2B49F4B1E0AB1675
:1007A000B104D9F0E2E0AE16B10401F51DC02F8509
:1007B000388921303105D1F431E0A316B104A1F01C
:1007C00042E0A416B10491F408C08B899C8901977A
:1007D00069F491E0A916B10419F45A9A5C9806C01C
:1007E000A2E0AA16B10411F45A985C9AE989FA8930
:1007F000319769F4F1E0AF16B10419F45A985C9A94
:1008000006C022E0A216B10411F45A9A5C986091D5
:1008100084007091850080E090E00E949C10298DFA
:100820003A8D4B8D5C8D0E944E11181614F45A9A15
:100830005C9A609184007091850080E090E00E9455
:100840009C102B853C854D855E850E94FF0F88237B
:1008500014F45A985C98609184007091850080E04F
:1008600090E00E949C102F81388549855A850E940E
:100870004E11181614F45A985C98C201B101A401E3
:1008800093010E944E111816DCF410E0C701B60166
:10089000A40193010E944E1118160CF411E01027C8
:1008A000412F50E05AA349A3C701B601A20191010B
:1008B0000E944E11181624F481E090E09AA389A3B7
:1008C000C401B301A20191010E944E111816C4F493
:1008D0001AA219A2C701B601A20191010E944E11EC
:1008E000181624F4A1E0B0E0BAA3A9A3C701B60189
:1008F000A40193010E944E11181614F41AA219A211
:1009000029A13AA12130310589F44D815E81413020
:10091000510551F4809184009091850060EA70E067
:100920000E942B1260FD06C05D9A05C089A19AA1A4
:10093000892B09F45D98609184007091850080E0B6
:1009400090E00E949C1029813A814B815C810E9439
:10095000FF0F87FDBFCEC0927201D0927301E0926B
:100960007401F0927501A9A1BAA1B0937101A0938D
:100970007001A2960FB6F894DEBF0FBECDBFCF9127
:10098000DF911F910F91FF90EF90DF90CF90BF907C
:10099000AF909F908F907F906F905F904F903F901F
:1009A0002F9008955A985C9808955A9A5C9A0895E1
:1009B0005A9A5C9808955A985C9A089510924A0140
:1009C00010924B0110924C0110924D011092520165
:1009D00010925301109254011092550110924E0141
:1009E00010924F0110925001109251010895EF9210
:1009F000FF920F931F93189B0EC0809184009091DB
:100A00008500A0E0B0E080934A0190934B01A09351
:100A10004C01B0934D01189959C0E0904A01F090F3
:100A20004B0100914C0110914D01E114F1040105BD
:100A3000110509F44BC08091840090918500A0E0DD
:100A4000B0E0E816F9060A071B070CF03FC06091FA
:100A50008601709187018091880190918901209190
:100A600084003091850040E050E02E193F09400B92
:100A7000510B79018A01E4E0EE0CFF1C001F111FED
:100A8000EA95D1F7E21AF30A040B150B25E530E0DD
:100A900040E050E00E940C12E60EF71E081F191FDE
:100AA000C801B70124E630E040E050E00E94521255
:100AB000C901DA018093860190938701A093880190
:100AC000B0938901109243011092420183B190E0EA
:100AD000817090709093BF018093BE011F910F9120
:100AE000FF90EF900895EF92FF920F931F93199B41
:100AF0000EC08091840090918500A0E0B0E08093CA
:100B0000520190935301A0935401B0935501199948
:100B10003EC0E0905201F0905301009154011091B9
:100B20005501E114F1040105110589F1809184005A
:100B300090918500A0E0B0E0E816F9060A071B07CF
:100B400034F520918E0130918F01409190015091A8
:100B50009101609184007091850080E090E06E19B1
:100B60007F09800B910B620F731F841F951F22E07A
:100B700030E040E050E00E945212C901DA01809357
:100B80008E0190938F01A0939001B093910183B156
:100B900090E08270907090935B0180935A011F9156
:100BA0000F91FF90EF9008951A9B0EC080918400E2
:100BB00090918500A0E0B0E080934E0190934F01AA
:100BC000A0935001B09351011A992AC020914E016F
:100BD00030914F0140915001509151012115310543
:100BE00041055105E9F08091840090918500A0E0D5
:100BF000B0E0281739074A075B0794F48091840016
:100C000090918500A0E0B0E0821B930BA40BB50B84
:100C100080936C0190936D01A0936E01B0936F016E
:100C200083B190E0847090709093B7018093B60187
:100C300008951F920F920FB60F9211242F933F9396
:100C40004F935F936F937F938F939F93AF93BF93D4
:100C5000EF93FF9383B190E0817090702091BE017B
:100C60003091BF012817390711F00E94F70483B1B2
:100C700090E08270907020915A0130915B012817AA
:100C8000390711F00E94730583B190E08470907071
:100C90002091B6013091B7012817390711F00E9451
:100CA000D405FF91EF91BF91AF919F918F917F916B
:100CB0006F915F914F913F912F910F900FBE0F90C9
:100CC0001F9018951092800083E080938100089512
:100CD00010927B0086E880937A0084E080937C0009
:100CE000089580917A00806480937A0080917A00E0
:100CF00086FDFCCF9091780080917900382F20E01C
:100D0000290F311DC90108952F923F924F925F9292
:100D10006F927F928F929F92AF92BF92CF92DF920B
:100D2000EF92FF920F931F93DF93CF9300D000D0E9
:100D300000D0CDB7DEB710924A0110924B0110924D
:100D40004C0110924D0110925201109253011092D9
:100D500054011092550110924E0110924F011092C1
:100D60005001109251011092850010928400F89465
:100D700020916C0130916D0140916E0150916F0195
:100D80006091040170910501809106019091070125
:100D9000860F971FAA2797FDA095BA2F8217930752
:100DA000A407B5073CF481E090E09093A101809303
:100DB000A00104C01092A1011092A00120916C0129
:100DC00030916D0140916E0150916F018091080149
:100DD00090910901680F791FCB01AA2797FDA09573
:100DE000BA2F281739074A075B073CF481E090E0E7
:100DF0009093B1018093B00104C01092B1011092A0
:100E0000B0011092A3011092A20180917A00806437
:100E100080937A0080917A0086FDFCCF3091780033
:100E200020917900722F60E0630F711D70939F0114
:100E300060939E0180E090E00E949C107B018C01F9
:100E40006091340170913501882777FD8095982F46
:100E50000E949E109B01AC01C801B7010E949A0F2D
:100E600060939A0170939B0180939C0190939D01E4
:100E700020912001309121014091220150912301C4
:100E80000E9452113B014C016093760170937701EF
:100E9000809378019093790120E832EB4EEA57E491
:100EA0000E94521120911C0130911D0140911E01A0
:100EB00050911F010E9403100E94B9117B018C0107
:100EC00017012801E092A401F092A5010093A60168
:100ED0001093A701609146017091470180914801EC
:100EE000909149010E949E109B01AC01C801B7017D
:100EF0000E944E11181664F4C801B7010E946B10CD
:100F00006093460170934701809348019093490193
:100F1000C201B10120E030E040E752E40E9403103A
:100F200060935C0170935D0180935E0190935F011B
:100F300020E030E040E050E00E94FF0F882361F4A1
:100F400080E090E0A0E8BFE380935C0190935D01B6
:100F5000A0935E01B0935F0160E070E080E89FE3E2
:100F600020915C0130915D0140915E0150915F01E3
:100F70000E94031020E030E04AE754E40E9452113E
:100F800020912C0130912D0140912E0150912F0183
:100F90000E9452119B01AC0160935C0170935D0152
:100FA00080935E0190935F018091A0019091A101D7
:100FB0000197A1F4CA01B9012091240130912501C2
:100FC00040912601509127010E94521160935C01CB
:100FD00070935D0180935E0190935F018091B001F9
:100FE0009091B1010197D1F460915C0170915D0124
:100FF00080915E0190915F0120912801309129013B
:1010000040912A0150912B010E94521160935C0182
:1010100070935D0180935E0190935F016091860102
:101020007091870180918801909189010091000160
:10103000109101019801442737FD4095542F621B00
:10104000730B840B950B24E630E040E050E00E94E7
:101050000C122091020130910301201B310B442717
:1010600037FD4095542F0E945212CA01B9010E94C7
:101070009E106093AC017093AD018093AE0190938C
:10108000AF0120E030E040E451E40E94FF0F8823EC
:1010900064F480E090E0A0E4B1E48093AC0190932C
:1010A000AD01A093AE01B093AF016091AC0170911E
:1010B000AD018091AE019091AF0120E030E048ECAD
:1010C00052E40E944E11181664F480E090E0A8ECFF
:1010D000B2E48093AC019093AD01A093AE01B093C4
:1010E000AF012091AC013091AD014091AE01509122
:1010F000AF012093B2013093B3014093B4015093F8
:10110000B5018091C0019091C1019E838D830197AB
:1011100069F480E090E0A8E4B2E48093AC0190939D
:10112000AD01A093AE01B093AF0104C0AD81BE810B
:10113000AB2B59F0CA01B90120E030E044EB52E496
:101140000E944E1118160CF044C020918E0130916F
:101150008F01409190015091910160910A0170912D
:101160000B01882777FD8095982F621B730B840BEA
:10117000950B0E949E1020913601309137014091CD
:101180003801509139010E9452119B01AC0160E07D
:1011900070E080E89FE30E949A0F9B01AC0160938E
:1011A00056017093570180935801909359016091B3
:1011B0005C0170915D0180915E0190915F010E94E0
:1011C000521160935C0170935D0180935E01909376
:1011D0005F01A0905C01B0905D01C0905E01D09075
:1011E0005F01C601B50120E030E040E05FE30E940E
:1011F000521160938A0170938B0180938C019093BC
:101200008D0120E030E048E453E40E944E111816AE
:1012100064F480E090E0A8E4B3E480938A019093C2
:101220008B01A0938C01B0938D0160918A01709124
:101230008B0180918C0190918D0120E030E040EA9B
:1012400050E40E94FF0F882364F480E090E0A0EA5D
:10125000B0E480938A0190938B01A0938C01B093AA
:101260008D01C601B50120913001309131014091CD
:101270003201509133010E94521120E030E048ECDD
:1012800052E40E9403107B018C01609396017093DD
:1012900097018093980190939901C601B50120E0D0
:1012A00030E040E450E40E940310A80197010E943E
:1012B0009B0F7B018C016093B8017093B9018093FF
:1012C000BA019093BB01A60195010E944E1188239B
:1012D00074F0C801B701A60195010E949A0F6093AE
:1012E000B8017093B9018093BA019093BB01E0906B
:1012F000B801F090B9010091BA011091BB01C80189
:10130000B70120E030E040E85FE30E94FF0F882350
:1013100074F4C801B701A60195010E949B0F609368
:10132000B8017093B9018093BA019093BB011092F8
:10133000BD011092BC01C201B10120911001309198
:10134000110140911201509113010E94FF0F882357
:1013500034F481E090E09093BD018093BC01C4011E
:10136000B301209118013091190140911A01509157
:101370001B010E944E11181674F0C201B101209198
:1013800014013091150140911601509117010E94EE
:101390004E11181664F480E090E0A0E2B1E480936E
:1013A000AC019093AD01A093AE01B093AF018091D9
:1013B000AC019091AD01A091AE01B091AF018983D4
:1013C0009A83AB83BC83BC01CD0120E030E048E4CC
:1013D00052E40E944E1118160CF076C081E090E0A5
:1013E0009093A3018093A20120908A0130908B01F9
:1013F00040908C0150908D01C201B10120E030E09D
:1014000048EC51E40E94521129813A814B815C8160
:101410000E9403107B018C01609360017093610155
:101420008093620190936301C201B10120E030E03A
:1014300040E05FE30E9452115B016C01A80197013B
:101440000E949A0F3B014C016093C2017093C3014B
:101450008093C4019093C501C601B501A80197010D
:101460000E949B0F6093920170939301809394016B
:1014700090939501C401B30120E030E040E85FE3C0
:101480000E94FF0F882364F480E090E0A0E8BFE3AF
:101490008093C2019093C301A093C401B093C5018E
:1014A00080E090E0A0E0B0E080938201909383011F
:1014B000A0938401B093850120927A0130927B0140
:1014C00040927C0150927D0169817A818B819C815F
:1014D00020E030E048E452E40E94FF0F18160CF4BC
:1014E0004EC080E090E0A0E8BFE38093C2019093FB
:1014F000C301A093C401B093C501E0908A01F090AC
:101500008B0100918C0110918D01E0929201F0927B
:101510009301009394011093950160E070E088E4DA
:1015200092E429813A814B815C810E949A0FA80143
:1015300097010E94521120E030E046E153E40E94FE
:1015400003109B01AC016093A8017093A9018093E3
:10155000AA019093AB016093820170938301809301
:10156000840190938501C801B7010E949A0F60938E
:101570007A0170937B0180937C0190937D0180912F
:10158000BC019091BD01019781F580E090E0A0E859
:10159000BFE38093920190939301A0939401B09341
:1015A000950180E090E0A0E0B0E08093C2019093CC
:1015B000C301A093C401B093C501809382019093AD
:1015C0008301A0938401B093850180918A01909159
:1015D0008B01A0918C01B0918D0180937A01909341
:1015E0007B01A0937C01B0937D01AD81BE811197F9
:1015F00011F40E94D300609196017091970180913F
:1016000098019091990120E030E44CE953E40E9464
:101610005211609396017093970180939801909373
:1016200099016091B8017091B9018091BA019091CE
:10163000BB0120E030E44CE953E40E945211609376
:10164000B8017093B9018093BA019093BB01609186
:101650008A0170918B0180918C0190918D0120E025
:1016600030E44CE953E40E94521160938A01709374
:101670008B0180938C0190938D0160918201709118
:101680008301809184019091850120E030E44CE950
:1016900053E40E94521160938201709383018093FE
:1016A00084019093850160917A0170917B01809112
:1016B0007C0190917D0120E030E44CE953E40E94EC
:1016C000521160937A0170937B0180937C01909317
:1016D0007D016091C2017091C3018091C40190911C
:1016E000C50120E030E44CE953E40E9452116093BC
:1016F000C2017093C3018093C4019093C5016091AE
:10170000920170919301809194019091950120E054
:1017100030E44CE953E40E945211609392017093BB
:1017200093018093940190939501789426960FB637
:10173000F894DEBF0FBECDBFCF91DF911F910F9107
:10174000FF90EF90DF90CF90BF90AF909F908F90E1
:101750007F906F905F904F903F902F9008956F9281
:101760007F928F929F92AF92BF92CF92DF92EF9231
:10177000FF920F931F9360912C0170912D01809126
:101780002E0190912F0120E030E04AE754E40E94BE
:1017900052117B018C010E946B105B016C010E9455
:1017A0009E109B01AC01C801B7010E949A0F3B013A
:1017B0004C010BE510E080E090E060E870E0A801EB
:1017C0000E94850F6091300170913101809132014A
:1017D000909133010E9470109B01AC0182E090E077
:1017E000B901A8010E94850F84E090E0B501A8012D
:1017F0000E94850FC401B30120E030E44CE156E4BF
:101800000E9452110E9470109B01AC0186E090E092
:10181000B901A8010E94850F60910A0170910B0126
:1018200088E090E0A8010E94850F609134017091DA
:1018300035018AE090E0A8010E94850F1F910F9169
:10184000FF90EF90DF90CF90BF90AF909F908F90E0
:101850007F906F9008952F923F924F925F926F9278
:101860007F928F929F92AF92BF92CF92DF92EF9230
:10187000FF920F931F93CF93DF937894C4EFD1E03F
:10188000A0E54A2EA3EC5A2EF1E02F2E312CFBC1FD
:101890005A985C988091860190918701A091880167
:1018A000B09189018E159F05A007B107BCF020916A
:1018B0008601309187014091880150918901809182
:1018C0000201909103018C599F4FAA2797FDA09583
:1018D000BA2F82179307A407B50724F41092450185
:1018E000109244018091860190918701A091880116
:1018F000B0918901E816F9060A071B0704F5209143
:101900008601309187014091880150918901809131
:101910000201909103018C599F4FAA2797FDA09532
:10192000BA2F281739074A075B074CF48091440106
:101930009091450101969093450180934401209137
:101940008E0130918F0140919001509191016091F1
:101950000A0170910B0180910C0190910D01860F8D
:10196000971FAA2797FDA095BA2F82179307A40760
:10197000B50744F45D9A80ED97E0FE013197F1F7E9
:101980000197D9F720918E0130918F0140919001FC
:101990005091910180910E0190910F01680F791F74
:1019A000CB01AA2797FDA095BA2F281739074A0718
:1019B0005B0744F45D9A80ED97E0FE013197F1F703
:1019C0000197D9F78BB190E289278BB98CE291E02E
:1019D000FE013197F1F70197D9F78090C0019090FF
:1019E000C10181E08816910441F45D9880ED97E093
:1019F000FE013197F1F70197D9F720916C013091F1
:101A00006D0140916E0150916F01609104017091E0
:101A100005018091080190910901860F971F7C01B3
:101A20000027F7FC0095102FE216F30604071507B0
:101A3000CCF520916C0130916D0140916E01509177
:101A40006F018091060190910701680F791F5B017A
:101A5000CC24B7FCC094DC2C2A153B054C055D0555
:101A60000CF5C2010197F1F780916C0190916D0125
:101A7000A0916E01B0916F01E816F9060A071B07E5
:101A80008CF480916C0190916D01A0916E01B091E8
:101A90006F018A159B05AC05BD0524F43092410108
:101AA0002092400180916C0190916D01A0916E0196
:101AB000B0916F018E159F05A007B1070CF098C07B
:101AC0008091400190914101019709F091C080E11E
:101AD00097E2FE013197F1F70197D9F780916C01F8
:101AE00090916D01A0916E01B0916F018E159F05CF
:101AF000A007B1070CF07CC020E030E0892811F489
:101B000021E030E03093C1012093C00188E99AE3DD
:101B1000FE013197F1F70197D9F7F894213031059B
:101B200011F40E9468008091C0019091C101892B3D
:101B300011F40E94AF0B78945BC05D98E114F1043E
:101B400001051105A1F420E030E05D9A88EA91E6F4
:101B50000197F1F75D988CE291E0FE013197F1F782
:101B60000197D9F72F5F3F4F2F30310571F780E490
:101B70009FE1FE013197F1F70197D9F721E330E0BA
:101B800040E050E014C02C593F4F4F4F5F4F5D9ADB
:101B900084EF91E0FE013197F1F70197D9F75D9855
:101BA00080EA9FE0FE013197F1F70197D9F72E15F2
:101BB0003F05400751070CF043C080916C019091A4
:101BC0006D01A0916E01B0916F01681679068A06C9
:101BD0009B06B4F58091860190918701A0918801C0
:101BE000B09189018A159B05AC05BD054CF5CBCF9D
:101BF0008091060190910701209104013091050127
:101C0000820F931F3C01882477FC8094982C80914C
:101C10000001909101015C01CC24B7FCC094DC2C44
:101C2000E0904601F0904701009148011091490170
:101C300020916401309165014091660150916701E6
:101C400080916C0190916D01A0916E01B0916F0136
:101C5000681679068A069B0674F480918601909135
:101C60008701A0918801B09189018A159B05AC0577
:101C7000BD050CF462CF209364013093650140935D
:101C80006601509367012091860130918701409150
:101C900088015091890180910001909101017C019E
:101CA0000027F7FC0095102F2E153F054007510720
:101CB0000CF4EECD2091860130918701409188018E
:101CC0005091890180910201909103018C599F4F9D
:101CD000AA2797FDA095BA2F82179307A407B507E7
:101CE0000CF4D6CD80914201909143010C970CF0F9
:101CF000CFCD809144019091450104970CF4C8CD5B
:101D0000DF91CF911F910F91FF90EF90DF90CF90D7
:101D1000BF90AF909F908F907F906F905F904F900B
:101D20003F902F900895AF92BF92CF92DF92EF92A3
:101D3000FF920F931F9380E090E063E570E00E94B4
:101D40006F0F8038910509F06EC082E090E063E586
:101D500070E00E946F0FA0E0B0E0BC01CD010E94D6
:101D60009C10609330017093310180933201909305
:101D7000330184E090E063E570E00E946F0FA0E023
:101D8000B0E0BC01CD010E949C105B016C0186E0BB
:101D900090E063E570E00E946F0FA0E0B0E0BC014E
:101DA000CD010E949C107B018C0188E090E063E5EE
:101DB00070E00E946F0F90930B0180930A018AE0FC
:101DC00090E063E570E00E946F0F9093350180937F
:101DD0003401C801B70120E030E04AE754E40E9432
:101DE00003107B018C01C601B50120E030E04AE719
:101DF00054E40E9403105B016C01C801B70120E0AC
:101E000030E44CE156E40E9403109B01AC01C60192
:101E1000B5010E949B0F60932C0170932D0180935C
:101E20002E0190932F011F910F91FF90EF90DF9063
:101E3000CF90BF90AF9008950E946D020E94930EC4
:101E400080914201909143010196909343018093C8
:101E5000420180913A0190913B01A0913C01B091E7
:101E60003D010196A11DB11D80933A0190933B0164
:101E7000A0933C01B0933D010E942B0C20E030E088
:101E800080913E0190913F01892B11F421E030E0D7
:101E900030933F0120933E01109268011092690136
:101EA00010926A0110926B010E94840681E090E01A
:101EB0000E94CF028091840090918500A0E0B0E064
:101EC0008093680190936901A0936A01B0936B01BC
:101ED0000E94840682E090E00E94CF02B1CFDF92A0
:101EE000EF92FF920F931F937B018C01FB010995E9
:101EF000D82EC8010196F7010995982F8D2D1F91B5
:101F00000F91FF90EF90DF900895DF92EF92FF9294
:101F10000F931F93D72E7A018C01FA010995C801FE
:101F200001966D2DF70109951F910F91FF90EF908C
:101F3000DF9008955058BB27AA270ED075C166D1EF
:101F400030F06BD120F031F49F3F11F41EF45BC1EF
:101F50000EF4E095E7FB51C1E92F77D180F3BA1772
:101F6000620773078407950718F071F49EF58FC117
:101F70000EF4E0950B2EBA2FA02D0B01B9019001A4
:101F80000C01CA01A0011124FF27591B99F0593FE8
:101F900050F4503E68F11A16F040A22F232F342F30
:101FA0004427585FF3CF469537952795A795F0407E
:101FB0005395C9F77EF41F16BA0B620B730B840B93
:101FC000BAF09150A1F0FF0FBB1F661F771F881F4B
:101FD000C2F70EC0BA0F621F731F841F48F48795A3
:101FE00077956795B795F7959E3F08F0B3CF939592
:101FF000880F08F09927EE0F979587950895D9D007
:1020000008F481E008950CD00FC107D140F0FED054
:1020100030F021F45F3F19F0F0C0511139C1F3C025
:1020200014D198F39923C9F35523B1F3951B550B9C
:10203000BB27AA2762177307840738F09F5F5F4F9B
:10204000220F331F441FAA1FA9F333D00E2E3AF0DC
:10205000E0E830D091505040E695001CCAF729D0F6
:10206000FE2F27D0660F771F881FBB1F2617370745
:102070004807AB07B0E809F0BB0B802DBF01FF2775
:1020800093585F4F2AF09E3F510568F0B6C000C1DB
:102090005F3FECF3983EDCF3869577956795B795AF
:1020A000F7959F5FC9F7880F911D9695879597F9CA
:1020B0000895E1E0660F771F881FBB1F6217730743
:1020C0008407BA0720F0621B730B840BBA0BEE1F58
:1020D00088F7E095089504D06894B111D9C00895A7
:1020E000BCD088F09F5790F0B92F9927B751A0F036
:1020F000D1F0660F771F881F991F1AF0BA95C9F79C
:1021000012C0B13081F0C3D0B1E00895C0C0672FD4
:10211000782F8827B85F39F0B93FCCF3869577954B
:102120006795B395D9F73EF4909580957095619534
:102130007F4F8F4F9F4F0895E89409C097FB3EF45F
:1021400090958095709561957F4F8F4F9F4F992304
:10215000A9F0F92F96E9BB279395F6958795779582
:102160006795B795F111F8CFFAF4BB0F11F460FF42
:102170001BC06F5F7F4F8F4F9F4F16C0882311F09A
:1021800096E911C0772321F09EE8872F762F05C0AE
:10219000662371F096E8862F70E060E02AF09A9549
:1021A000660F771F881FDAF7880F9695879597F93E
:1021B0000895990F0008550FAA0BE0E8FEEF1616D8
:1021C0001706E807F907C0F012161306E407F5072B
:1021D00098F0621B730B840B950B39F40A2661F09F
:1021E000232B242B252B21F408950A2609F4A14042
:1021F000A6958FEF811D811D089597F99F6780E84F
:1022000070E060E008959FEF80EC089500240A9448
:102210001616170618060906089500240A941216C1
:102220001306140605060895092E0394000C11F4F4
:10223000882352F0BB0F40F4BF2B11F460FF04C0A1
:102240006F5F7F4F8F4F9F4F089557FD9058440FFA
:10225000551F59F05F3F71F04795880F97FB991F05
:1022600061F09F3F79F087950895121613061406C2
:10227000551FF2CF4695F1DF08C01616170618064F
:10228000991FF1CF86957105610508940895E8942A
:10229000BB2766277727CB0197F908958ADF08F4D3
:1022A0008FEF08950BD0C0CFB1DF28F0B6DF18F064
:1022B000952309F0A2CFA7CF1124EACFC6DFA0F360
:1022C000959FD1F3950F50E0551F629FF001729FCB
:1022D000BB27F00DB11D639FAA27F00DB11DAA1FEA
:1022E000649F6627B00DA11D661F829F2227B00D37
:1022F000A11D621F739FB00DA11D621F839FA00DC2
:10230000611D221F749F3327A00D611D231F849F11
:10231000600D211D822F762F6A2F11249F57504068
:102320008AF0E1F088234AF0EE0FFF1FBB1F661F03
:10233000771F881F91505040A9F79E3F510570F0BC
:102340005CCFA6CF5F3FECF3983EDCF386957795A4
:102350006795B795F795E7959F5FC1F7FE2B880FB7
:10236000911D9695879597F9089511F40EF44BCF2A
:102370003EC073DFD0F39923D9F3CEF39F57550BAB
:1023800087FF43D00024A0E640EA9001805856958C
:10239000979528F4805C660F771F881F20F026171A
:1023A0003707480730F4621B730B840B202931294F
:1023B0004A2BA69517940794202531254A2758F7CC
:1023C000660F771F881F20F026173707480730F45D
:1023D000620B730B840B200D311D411DA09581F7FD
:1023E000B901842F9158880F9695879508959F3F3E
:1023F00031F0915020F4879577956795B795880FC0
:10240000911D9695879597F9089591505040660FC4
:10241000771F881FD2F70895629FD001739FF00144
:10242000829FE00DF11D649FE00DF11D929FF00D64
:10243000839FF00D749FF00D659FF00D9927729F9B
:10244000B00DE11DF91F639FB00DE11DF91FBD0126
:10245000CF0111240895AA1BBB1B51E107C0AA1F7D
:10246000BB1FA617B70710F0A61BB70B881F991F35
:102470005A95A9F780959095BC01CD01089597FBD9
:10248000092E07260AD077FD04D0E5DF06D000200C
:102490001AF4709561957F4F0895F6F790958195A0
:1024A0009F4F089597FB092E05260ED057FD04D0A7
:1024B00014D00AD0001C38F45095409530952195E1
:1024C0003F4F4F4F5F4F0895F6F790958095709569
:1024D00061957F4F8F4F9F4F0895A1E21A2EAA1B3F
:1024E000BB1BFD010DC0AA1FBB1FEE1FFF1FA217C4
:1024F000B307E407F50720F0A21BB30BE40BF50BC1
:10250000661F771F881F991F1A9469F76095709549
:10251000809590959B01AC01BD01CF010895F89481
:02252000FFCFEB
:1025220086012B02DB011E00E2FFDB011400ECFF3F
:102532000000964300409C4500003E43CDCCAC4099
:102542000000003F0000803F0000803F0000803F0D
:0A25520000007C42F201FAED6B3A42
:00000001FF
