:100000000C9434000C9451000C9451000C94B705DE
:100010000C9451000C9451000C9451000C9419064E
:100020000C9424060C940D060C9451000C94510071
:100030000C9451000C9451000C9451000C945100FC
:100040000C9451000C9451000C9451000C945100EC
:100050000C9451000C9451000C9451000C945100DC
:100060000C9451000C94510011241FBECFEFD4E02A
:10007000DEBFCDBF11E0A0E0B1E0EEE4F7E202C0E8
:1000800005900D92A434B107D9F711E0A4E4B1E0D2
:1000900001C01D92A23DB107E1F70E9434100C94FB
:1000A000A5130C940000AF92BF92CF92DF92EF9213
:1000B000FF920F931F93CF93DF93A090BE01B09058
:1000C000BF01C090C001D090C101C601B50120E0C0
:1000D00030E048E452E40E94EC1088230CF0B7C0F2
:1000E0001092AF011092AE0120919E0130919F01BC
:1000F0004091A0015091A101C0911401D09115012E
:1001000080911601909117018C0F9D1FAA2797FDD2
:10011000A095BA2F82179307A407B50724F5E0909E
:100120003601F09037010091380110913901C80172
:10013000B70126EA3BE944E45BE30E943F129B01DE
:10014000AC01C801B7010E9488106093360170931A
:100150003701809338019093390181E090E09093CA
:10016000AF018093AE0120919E0130919F0140919B
:10017000A0015091A1018091180190911901C80F1F
:10018000D91FCE01AA2797FDA095BA2F28173907A6
:100190004A075B0724F5E0903601F09037010091A3
:1001A000380110913901C801B70126EA3BE944E45E
:1001B0005BEB0E943F129B01AC01C801B7010E949A
:1001C00088106093360170933701809338019093C3
:1001D000390181E090E09093AF018093AE0160918E
:1001E00036017091370180913801909139012DECE1
:1001F0003CEC4CEC5DE30E94EC10882364F48DEC45
:100200009CECACECBDE38093360190933701A09356
:100210003801B093390160913601709137018091B6
:1002200038019091390120E030E040E251E40E9431
:100230003B12181664F480E090E0A0E2B1E48093F1
:10024000360190933701A0933801B0933901C6016C
:10025000B50120E030E048E452E40E943B128823DC
:100260000CF4B0C0C601B50120E030E044EB52E42C
:100270000E94EC1088230CF0A5C081E090E09093E0
:10028000AF018093AE0120919E0130919F0140917A
:10029000A0015091A101C0911401D091150180914C
:1002A0001601909117018C0F9D1FAA2797FDA0950D
:1002B000BA2F82179307A407B507D4F460913A01C7
:1002C00070913B0180913C0190913D0120E030E034
:1002D00040E85FE30E94881060933A0170933B010D
:1002E00080933C0190933D011092AF011092AE01BA
:1002F00020919E0130919F014091A0015091A10158
:100300008091180190911901C80FD91FCE01AA2719
:1003100097FDA095BA2F281739074A075B07D4F431
:1003200060913A0170913B0180913C0190913D01B7
:1003300020E030E040E85FE30E94871060933A01DC
:1003400070933B0180933C0190933D011092AF016B
:100350001092AE0160913A0170913B0180913C0195
:1003600090913D0120E030E040E050E00E94EC1030
:10037000882364F480E090E0A8ECB2E480933A0132
:1003800090933B01A0933C01B0933D0160913A01F1
:1003900070913B0180913C0190913D0120E030E063
:1003A00048EC52E40E943B12181664F480E090E09E
:1003B000A0E0B0E080933A0190933B01A0933C0110
:1003C000B0933D01DF91CF911F910F91FF90EF907E
:1003D000DF90CF90BF90AF900895809144019091AD
:1003E0004501009719F45A985C980895019731F4E3
:1003F000809104018093B3008093B400089510921B
:100400007B0086E880937A0084E080937C002098CB
:10041000219822983C98509A589A559A529A549AF0
:100420005D9A8FEF80936B0081E08093680010925B
:10043000800083E080938100809144019091450188
:10044000019731F487E08093700086E08093B100DB
:1004500078940E94ED0121E030E040E050E0E0E2DD
:1004600068E873E10AC08BB18E278BB9CB01019785
:10047000F1F72F5F3F4F4F4F5F4F2B3F3105410546
:1004800051058CF321E030E040E050E0A0E264EF61
:1004900071E00EC08BB18A278BB980ED97E0FB012C
:1004A0003197F1F70197D9F72F5F3F4F4F4F5F4FCC
:1004B00027303105410551056CF3209374013093C9
:1004C0007501409376015093770110929601109236
:1004D000970110929801109299010895809144011A
:1004E00090914501009719F45A985C9808950197E6
:1004F00039F4809106018093B3008FE58093B400B6
:1005000008958091440190914501009719F45A9AF9
:100510005C9A0895019731F4809108018093B300AB
:100520008093B40008958091440190914501009713
:1005300019F45A9A5C980895019739F4809108014A
:100540008093B3008FE58093B400089580914401B7
:1005500090914501009719F45A985C9A0895019773
:1005600041F4809106018093B3008091080180934B
:10057000B40008954F925F926F927F928F929F92F4
:10058000AF92BF92CF92DF92EF92FF920F931F93A1
:10059000CF93DF93EC0181E0482E512C88C160910C
:1005A00084007091850080E090E00E948911209184
:1005B000CE013091CF014091D0015091D1010E94E4
:1005C000EC10882314F40E948102609184007091E1
:1005D000850080E090E00E9489112091A201309175
:1005E000A3014091A4015091A5010E943B1218164D
:1005F00014F40E948102609184007091850080E073
:1006000090E0209178013091790140917A015091E8
:100610007B01620F731F841F951F0E948B116093D3
:10062000820170938301809384019093850160918E
:1006300084007091850080E090E00E9489112091F3
:10064000CE013091CF014091D0015091D1010E9453
:100650003B1218160CF065C0609184007091850003
:1006600080E090E00E9489112091A2013091A301C5
:100670004091A4015091A5010E94EC1088230CF038
:1006800050C08091AC019091AD01892B41F58091D2
:10069000BC019091BD01892B11F580914E01909183
:1006A0004F01892B59F4C130D10519F40E949302EE
:1006B00005C0C230D10511F40E94A60280914E01FE
:1006C00090914F01019759F4C130D10519F40E945E
:1006D000A60205C0C230D10511F40E949302809198
:1006E000AC019091AD01019759F4C130D10519F4D5
:1006F0000E94930205C0C230D10511F40E94A602E7
:100700008091BC019091BD01019759F4C130D10590
:1007100019F40E94A60205C0C230D10511F40E944E
:100720009302609184007091850080E090E00E94C7
:1007300089112091A2013091A3014091A40150910F
:10074000A5010E943B12181614F40E9481026091C8
:1007500084007091850080E090E00E9489112091D2
:1007600092013091930140919401509195010E9422
:10077000EC10882314F40E946E0260918400709142
:10078000850080E090E00E94891120918A013091DB
:100790008B0140918C0150918D010E943B121816E3
:1007A00014F40E946E02A090A601B090A701C09020
:1007B000A801D090A9016090C4017090C5018090FB
:1007C000C6019090C701C601B501A40193010E9422
:1007D0003B12181624F55092810140928001E0905E
:1007E0008201F09083010091840110918501C8017C
:1007F000B701A40193010E943B12181624F4109231
:10080000810110928001C801B701A60195010E94E3
:100810003B12181624F45092810140928001C401C9
:10082000B301A60195010E943B12181624F51092FF
:10083000810110928001E0908201F090830100918B
:10084000840110918501C801B701A60195010E949C
:100850003B12181624F45092810140928001C80185
:10086000B701A40193010E943B12181624F41092C0
:1008700081011092800180918001909181018130ED
:10088000910591F48091AE019091AF01019751F4DF
:10089000809184009091850060EA70E00E941813B6
:1008A00060FD04C05D9A03C0892B09F45D986091D6
:1008B00084007091850080E090E00E948911209171
:1008C0009A0130919B0140919C0150919D010E94A1
:1008D000EC1087FD64CEDF91CF911F910F91FF90B7
:1008E000EF90DF90CF90BF90AF909F908F907F90D0
:1008F0006F905F904F90089510925A0110925B0193
:1009000010925C0110925D011092620110926301DD
:10091000109264011092650110925E0110925F01C5
:1009200010926001109261010895EF92FF920F936F
:100930001F93189B0EC08091840090918500A0E0C9
:10094000B0E080935A0190935B01A0935C01B09357
:100950005D01189959C0E0905A01F0905B01009137
:100960005C0110915D01E114F1040105110509F428
:100970004BC08091840090918500A0E0B0E0E81623
:10098000F9060A071B070CF03FC0609196017091B1
:100990009701809198019091990120918400309164
:1009A000850040E050E02E193F09400B510B7901C2
:1009B0008A01E4E0EE0CFF1C001F111FEA95D1F73D
:1009C000E21AF30A040B150B25E530E040E050E095
:1009D0000E94F912E60EF71E081F191FC801B70181
:1009E00024E630E040E050E00E943F13C901DA0104
:1009F0008093960190939701A0939801B0939901E9
:100A0000109253011092520183B190E08170907066
:100A10009093CB018093CA011F910F91FF90EF90AB
:100A20000895EF92FF920F931F93199B0EC0809130
:100A3000840090918500A0E0B0E0809362019093E3
:100A40006301A0936401B093650119993EC0E090E1
:100A50006201F09063010091640110916501E1145D
:100A6000F1040105110589F18091840090918500C0
:100A7000A0E0B0E0E816F9060A071B0734F520915C
:100A80009E0130919F014091A0015091A101609180
:100A900084007091850080E090E06E197F09800BE2
:100AA000910B620F731F841F951F22E030E040E01E
:100AB00050E00E943F13C901DA0180939E01909398
:100AC0009F01A093A001B093A10183B190E0827037
:100AD000907090936B0180936A011F910F91FF902A
:100AE000EF9008951A9B0EC080918400909185002C
:100AF000A0E0B0E080935E0190935F01A09360015D
:100B0000B09361011A992AC020915E0130915F0172
:100B10004091600150916101211531054105510558
:100B2000E9F08091840090918500A0E0B0E0281762
:100B300039074A075B0794F48091840090918500FF
:100B4000A0E0B0E0821B930BA40BB50B80937C015B
:100B500090937D01A0937E01B0937F0183B190E0DB
:100B6000847090709093C3018093C20108951F9286
:100B70000F920FB60F9211242F933F934F935F93D1
:100B80006F937F938F939F93AF93BF93EF93FF9355
:100B900083B190E0817090702091CA013091CB01B7
:100BA0002817390711F00E94950483B190E08270F4
:100BB000907020916A0130916B012817390711F06C
:100BC0000E94110583B190E0847090702091C20161
:100BD0003091C3012817390711F00E947205FF9167
:100BE000EF91BF91AF919F918F917F916F915F91A5
:100BF0004F913F912F910F900FBE0F901F9018951E
:100C00001092800083E080938100089587E08093B4
:100C1000700086E08093B10008951F920F920FB686
:100C20000F9211245A9A5C9A0F900FBE0F901F904A
:100C300018951F920F920FB60F9211245A980F9089
:100C40000FBE0F901F9018951F920F920FB60F9224
:100C500011245C980F900FBE0F901F901895109262
:100C60007B0086E880937A0084E080937C0008957E
:100C700080917A00806480937A0080917A0086FD6A
:100C8000FCCF9091780080917900382F20E0290FD7
:100C9000311DC90108952F923F924F925F926F923A
:100CA0007F928F929F92AF92BF92CF92DF92EF92FC
:100CB000FF920F931F93DF93CF93CDB7DEB72A97A1
:100CC0000FB6F894DEBF0FBECDBF1B012C015C83B5
:100CD0004B830F2EF0E06F2EF0E07F2EF0E08F2E92
:100CE000F0E09F2EF02D1A861986CA01AA2797FDDB
:100CF000A095BA2F8D839E83AF83B88793C00E943F
:100D000038069A838983AB81BC81AB2B09F46FC011
:100D10006D817E818F8198850E948B115B016C01B2
:100D200025E535E545ED50E40E943F127B018C013D
:100D300020E030E040E85FE30E94EC10882314F4E8
:100D400061E053C0C801B70120E030E04FE753E451
:100D50000E943B1218160CF044C0C601B50120E0F9
:100D600030E04AE754E40E94F0105B016C0120E09F
:100D700030E44CE955E40E943F127B018C0120E0F5
:100D800030E040E85FE30E94EC1088231CF461E04F
:100D900070E023C0C801B70120E03FEF4FE757E400
:100DA0000E943B121816ACF4C601B50120E030E0F9
:100DB00040E251E40E943F120E945D1106C084EFA0
:100DC00091E00197F1F76150704061157105B9F735
:100DD0000EC0C801B7010E945D11CB010197F1F768
:100DE00006C0C801B7010E945D116A95F1F7E9815B
:100DF000FA81BF01882777FD8095982F0E948B117B
:100E0000A20191010E94F0109B01AC01C401B30149
:100E10000E9488103B014C0129853A852F5F3F4F86
:100E20003A872987A985BA85BD01882777FD8095EE
:100E3000982F0E948B11A20191010E94EC1087FD56
:100E40005ECFB301C4012A960FB6F894DEBF0FBE81
:100E5000CDBFCF91DF911F910F91FF90EF90DF9069
:100E6000CF90BF90AF909F908F907F906F905F904A
:100E70004F903F902F900895CF93DF9360E070E004
:100E800080EA91E440E157E20E944B060E9458112B
:100E900070933F0160933E0160E070E020E030E03D
:100EA00040E050E0C4EFD1E015C080919E019091E8
:100EB0009F01A091A001B091A101680F791F88EC5A
:100EC00090E0FE013197F1F70197D9F72F5F3F4F7F
:100ED0004F4F5F4F243131054105510534F32093C5
:100EE0007401309375014093760150937701CB01E3
:100EF00064E170E00E942C1370931501609314015B
:100F0000DF91CF9108952F923F924F925F926F920F
:100F10007F928F929F92AF92BF92CF92DF92EF9289
:100F2000FF920F931F93DF93CF9300D000D000D098
:100F3000CDB7DEB710925A0110925B0110925C019E
:100F400010925D011092620110926301109264018F
:100F50001092650110925E0110925F011092600183
:100F600010926101109285001092840020917C0102
:100F700030917D0140917E0150917F0160910E0181
:100F800070910F018091100190911101860F971FB0
:100F9000AA2797FDA095BA2F82179307A407B50734
:100FA0003CF481E090E09093AD018093AC0104C0EB
:100FB0001092AD011092AC0120917C0130917D0125
:100FC00040917E0150917F01809112019091130117
:100FD000680F791FCB01AA2797FDA095BA2F281774
:100FE00039074A075B073CF481E090E09093BD012C
:100FF0008093BC0104C01092BD011092BC011092FC
:10100000AF011092AE01A0904A01B0904B01C09088
:101010004C01D0904D01C601B50120E030E040E028
:1010200050E00E94EC10882349F460E070E080E812
:1010300090E444E150E00E944B0622C060E070E082
:1010400080E890E444E150E00E944B067B018C0173
:10105000C601B5012AE939E949E15FE30E943F127F
:101060005B016C01C801B7012DEC3CEC4CEC5EE37C
:101070000E943F129B01AC01C601B5010E9488107D
:1010800060934A0170934B0180934C0190934D0102
:1010900060913E0170913F01882777FD8095982FE0
:1010A0000E948B119B01AC0160914A0170914B0130
:1010B00080914C0190914D010E94871020912A014E
:1010C00030912B0140912C0150912D010E943F1233
:1010D0003B014C01609386017093870180938801E6
:1010E0009093890120E832EB4EEA57E40E943F12C8
:1010F000209126013091270140912801509129012A
:101100000E94F0100E94A6127B018C011701280199
:10111000E092B001F092B1010093B2011093B301DB
:101120006091560170915701809158019091590139
:101130000E948B119B01AC01C801B7010E943B12B8
:10114000181664F4C801B7010E9458116093560143
:10115000709357018093580190935901C201B101D6
:1011600020E030E040E752E40E94F01060936C0110
:1011700070936D0180936E0190936F0120E030E0D9
:1011800040E050E00E94EC10882361F480E090E0A1
:10119000A0E8BFE380936C0190936D01A0936E0172
:1011A000B0936F0160E070E080E89FE320916C01F4
:1011B00030916D0140916E0150916F010E94F010CD
:1011C00020E030E04AE754E40E943F1220913601CB
:1011D0003091370140913801509139010E943F12FE
:1011E0009B01AC0160936C0170936D0180936E0163
:1011F00090936F018091AC019091AD010197A1F4A2
:10120000CA01B90120912E0130912F014091300186
:10121000509131010E943F1260936C0170936D01F7
:1012200080936E0190936F018091BC019091BD01FC
:101230000197D1F460916C0170916D0180916E0104
:1012400090916F012091320130913301409134012E
:10125000509135010E943F1260936C0170936D01B3
:1012600080936E0190936F01609196017091970148
:10127000809198019091990100910A0110910B01C0
:101280009801442737FD4095542F621B730B840B44
:10129000950B24E630E040E050E00E94F9122091E6
:1012A0000C0130910D01201B310B442737FD409577
:1012B000542F0E943F13CA01B9010E948B11609301
:1012C000B8017093B9018093BA019093BB0120E0FB
:1012D00030E040E451E40E94EC10882364F480E0A4
:1012E00090E0A0E4B1E48093B8019093B901A09399
:1012F000BA01B093BB016091B8017091B9018091BE
:10130000BA019091BB0120E030E048EC52E40E9429
:101310003B12181664F480E090E0A8ECB2E48093ED
:10132000B8019093B901A093BA01B093BB01209189
:10133000B8013091B9014091BA015091BB0120939D
:10134000BE013093BF014093C0015093C101809111
:10135000CC019091CD019E838D83019769F480E04B
:1013600090E0A8E4B2E48093B8019093B901A0930F
:10137000BA01B093BB0104C0AD81BE81AB2B59F063
:10138000CA01B90120E030E044EB52E40E943B1274
:1013900018160CF044C020919E0130919F0140919D
:1013A000A0015091A101609114017091150188274D
:1013B00077FD8095982F621B730B840B950B0E9411
:1013C0008B11209140013091410140914201509197
:1013D00043010E943F129B01AC0160E070E080E895
:1013E0009FE30E9487109B01AC016093660170939C
:1013F0006701809368019093690160916C0170911D
:101400006D0180916E0190916F010E943F12609377
:101410006C0170936D0180936E0190936F01A090A9
:101420006C01B0906D01C0906E01D0906F01C6014B
:10143000B50120E030E040E05FE30E943F1260939E
:101440009A0170939B0180939C0190939D0120E0F1
:1014500030E048E453E40E943B12181664F480E044
:1014600090E0A8E4B3E480939A0190939B01A09349
:101470009C01B0939D0160919A0170919B018091B4
:101480009C0190919D0120E030E040EA50E40E94F0
:10149000EC10882364F480E090E0A0EAB0E480934C
:1014A0009A0190939B01A0939C01B0939D01C6016A
:1014B000B50120913A0130913B0140913C0150919E
:1014C0003D010E943F1220E030E048EC52E40E94CF
:1014D000F0107B018C016093A6017093A7018093AB
:1014E000A8019093A901C601B50120E030E040E4D5
:1014F00050E40E94F010A80197010E9488107B011F
:101500008C016093C4017093C5018093C6019093D0
:10151000C701A60195010E943B12882374F0C801FF
:10152000B701A60195010E9487106093C4017093D2
:10153000C5018093C6019093C701E090C401F0906B
:10154000C5010091C6011091C701C801B70120E093
:1015500030E040E85FE30E94EC10882374F4C80197
:10156000B701A60195010E9488106093C401709391
:10157000C5018093C6019093C7011092C9011092D2
:10158000C801C201B10120911A0130911B014091A3
:101590001C0150911D010E94EC10882334F481E05D
:1015A00090E09093C9018093C801C401B3012091D8
:1015B00022013091230140912401509125010E9484
:1015C0003B12181674F0C201B10120911E01309136
:1015D0001F0140912001509121010E943B121816D9
:1015E00064F480E090E0A0E2B1E48093B8019093CD
:1015F000B901A093BA01B093BB018091B801909159
:10160000B901A091BA01B091BB0189839A83AB83E0
:10161000BC83BC01CD0120E030E048E452E40E94EC
:101620003B1218160CF076C081E090E09093AF0169
:101630008093AE0120909A0130909B0140909C01D4
:1016400050909D01C201B10120E030E048EC51E42E
:101650000E943F1229813A814B815C810E94F010E7
:101660007B018C0160937001709371018093720112
:1016700090937301C201B10120E030E040E05FE3EC
:101680000E943F125B016C01A80197010E94871024
:101690003B014C016093CE017093CF018093D00148
:1016A0009093D101C601B501A80197010E9488104D
:1016B0006093A2017093A3018093A4019093A5016C
:1016C000C401B30120E030E040E85FE30E94EC1089
:1016D000882364F480E090E0A0E8BFE38093CE012B
:1016E0009093CF01A093D001B093D10180E090E01E
:1016F000A0E0B0E08093920190939301A0939401B5
:10170000B093950120928A0130928B0140928C0116
:1017100050928D0169817A818B819C8120E030E03B
:1017200048E452E40E94EC1018160CF44EC080E01D
:1017300090E0A0E8BFE38093CE019093CF01A09307
:10174000D001B093D101E0909A01F0909B010091FB
:101750009C0110919D01E092A201F092A3010093DF
:10176000A4011093A50160E070E088E492E429816F
:101770003A814B815C810E948710A80197010E94E9
:101780003F1220E030E046E153E40E94F0109B015C
:10179000AC016093B4017093B5018093B60190934E
:1017A000B701609392017093930180939401909399
:1017B0009501C801B7010E94871060938A01709358
:1017C0008B0180938C0190938D018091C801909141
:1017D000C901019781F580E090E0A0E8BFE3809324
:1017E000A2019093A301A093A401B093A50180E06E
:1017F00090E0A0E0B0E08093CE019093CF01A09361
:10180000D001B093D1018093920190939301A09362
:101810009401B093950180919A0190919B01A091C0
:101820009C01B0919D0180938A0190938B01A093BC
:101830008C01B0938D01AD81BE81119711F40E948E
:101840005300E0900001F09001010091020110911D
:1018500003016091A6017091A7018091A801909168
:10186000A901A80197010E943F126093A6017093FD
:10187000A7018093A8019093A9016091C401709180
:10188000C5018091C6019091C701A80197010E94EE
:101890003F126093C4017093C5018093C601909379
:1018A000C70160919A0170919B0180919C01909178
:1018B0009D01A80197010E943F1260939A017093C5
:1018C0009B0180939C0190939D0160919201709186
:1018D00093018091940190919501A80197010E9434
:1018E0003F126093920170939301809394019093BF
:1018F000950160918A0170918B0180918C0190918A
:101900008D01A80197010E943F1260938A01709394
:101910008B0180938C0190938D016091CE01709129
:10192000CF018091D0019091D101A80197010E942F
:101930003F126093CE017093CF018093D0019093BA
:10194000D1016091A2017091A3018091A4019091B5
:10195000A501A80197010E943F126093A201709314
:10196000A3018093A4019093A50126960FB6F89445
:10197000DEBF0FBECDBFCF91DF911F910F91FF90C2
:10198000EF90DF90CF90BF90AF909F908F907F901F
:101990006F905F904F903F902F900895AF92BF92BD
:1019A000CF92DF92EF92FF920F931F9360913601D7
:1019B00070913701809138019091390120E030E039
:1019C0004AE754E40E943F127B018C010E945811A7
:1019D0005B016C010E948B119B01AC01C801B70136
:1019E0000E9487107B018C0180E090E060E870E04D
:1019F0000E94821360913A0170913B0180913C01F9
:101A000090913D010E945D119B01AC0182E090E04C
:101A1000B9010E94821384E090E0B5010E94821314
:101A2000C801B70120E030E44CE156E40E943F12C7
:101A30000E945D119B01AC0186E090E0B9010E941B
:101A40008213609114017091150188E090E00E946A
:101A5000821360913E0170913F018AE090E00E9404
:101A600082131F910F91FF90EF90DF90CF90BF9066
:101A7000AF9008952F923F924F925F926F927F9214
:101A80008F929F92AF92BF92CF92DF92EF92FF928E
:101A90000F931F93CF93DF930F2EF0E02F2EF0E0E4
:101AA0003F2EF0E04F2EF0E05F2EF02DC4EFD1E09E
:101AB0000FC20E94ED0120924A0130924B014092E8
:101AC0004C0150924D012091960130919701409127
:101AD00098015091990180910A0190910B017C012C
:101AE0000027F7FC0095102F2E153F0540075107E2
:101AF000BCF020919601309197014091980150914E
:101B0000990180910C0190910D018C599F4FAA274A
:101B100097FDA095BA2F82179307A407B50724F461
:101B20001092550110925401809196019091970165
:101B3000A0919801B0919901E816F9060A071B07D0
:101B400004F52091960130919701409198015091B0
:101B5000990180910C0190910D018C599F4FAA27FA
:101B600097FDA095BA2F281739074A075B074CF451
:101B70008091540190915501019690935501809365
:101B8000540120919E0130919F014091A0015091FC
:101B9000A10160911401709115018091160190913D
:101BA0001701860F971FAA2797FDA095BA2F8217B6
:101BB0009307A407B50744F45D9A80ED97E0FE0112
:101BC0003197F1F70197D9F720919E0130919F014C
:101BD0004091A0015091A1018091180190911901AB
:101BE000680F791FCB01AA2797FDA095BA2F281758
:101BF00039074A075B0744F45D9A80ED97E0FE01E0
:101C00003197F1F70197D9F78BB190E289278BB91A
:101C10008CE291E0FE013197F1F70197D9F78090BE
:101C2000CC019090CD0181E08816910441F45D983B
:101C300080ED97E0FE013197F1F70197D9F72091F8
:101C40007C0130917D0140917E0150917F01609136
:101C50000E0170910F018091120190911301860F76
:101C6000971F7C010027F7FC0095102FE216F30662
:101C700004071507E4F520917C0130917D01409126
:101C80007E0150917F018091100190911101680FA8
:101C9000791F5B01CC24B7FCC094DC2C2A153B05D2
:101CA0004C055D0524F580E593EC0197F1F78091F3
:101CB0007C0190917D01A0917E01B0917F01E81699
:101CC000F9060A071B079CF480917C0190917D0125
:101CD000A0917E01B0917F018A159B05AC05BD05E1
:101CE00034F481E090E09093510180935001809111
:101CF0007C0190917D01A0917E01B0917F018E15B4
:101D00009F05A007B1070CF098C0809150019091F9
:101D10005101019709F091C080E197E2FE013197EE
:101D2000F1F70197D9F780917C0190917D01A09105
:101D30007E01B0917F018E159F05A007B1070CF0C1
:101D40007CC020E030E0892811F421E030E03093BD
:101D5000CD012093CC0188E99AE3FE013197F1F798
:101D60000197D9F7F8942130310511F40E943C070E
:101D70008091CC019091CD01892B11F40E94CE0C61
:101D800078945BC05D98E114F10401051105A1F49C
:101D900020E030E05D9A88EA91E60197F1F75D98DE
:101DA0008CE291E0FE013197F1F70197D9F72F5FAF
:101DB0003F4F2F30310571F780E49FE1FE013197ED
:101DC000F1F70197D9F721E330E040E050E014C08B
:101DD0002C593F4F4F4F5F4F5D9A84EF91E0FE01CA
:101DE0003197F1F70197D9F75D9880EA9FE0FE01FE
:101DF0003197F1F70197D9F72E153F0540075107A5
:101E00000CF043C080917C0190917D01A0917E01F6
:101E1000B0917F01681679068A069B06B4F5809119
:101E2000960190919701A0919801B09199018A151E
:101E30009B05AC05BD054CF5CBCF80911001909171
:101E4000110120910E0130910F01820F931F3C016F
:101E5000882477FC8094982C80910A0190910B0142
:101E60005C01CC24B7FCC094DC2CE0905601F090CF
:101E7000570100915801109159012091740130913E
:101E80007501409176015091770180917C0190918C
:101E90007D01A0917E01B0917F01681679068A06C6
:101EA0009B0674F48091960190919701A0919801FE
:101EB000B09199018A159B05AC05BD050CF462CF64
:101EC000209374013093750140937601509377010C
:101ED000209196013091970140919801509199017C
:101EE00080910A0190910B01AA2797FDA095BA2F26
:101EF000281739074A075B070CF4DBCD20919601C0
:101F000030919701409198015091990180910C0175
:101F100090910D018C599F4FAA2797FDA095BA2F3C
:101F200082179307A407B5070CF4C3CD8091520123
:101F3000909153010C970CF0BCCD8091540190917D
:101F4000550104970CF4B5CDDF91CF911F910F91FE
:101F5000FF90EF90DF90CF90BF90AF909F908F90C9
:101F60007F906F905F904F903F902F900895AF9229
:101F7000BF92CF92DF92EF92FF920F931F9380E078
:101F800090E00E947C138038910509F064C082E0E3
:101F900090E00E947C13A0E0B0E0BC01CD010E9463
:101FA000891160933A0170933B0180933C019093B7
:101FB0003D0184E090E00E947C13A0E0B0E0BC0111
:101FC000CD010E9489115B016C0186E090E00E94C6
:101FD0007C13A0E0B0E0BC01CD010E9489117B011F
:101FE0008C0188E090E00E947C139093150180930F
:101FF00014018AE090E00E947C1390933F0180934B
:102000003E01C801B70120E030E04AE754E40E94F5
:10201000F0107B018C01C601B50120E030E04AE7F9
:1020200054E40E94F0105B016C01C801B70120E08C
:1020300030E44CE156E40E94F0109B01AC01C60173
:10204000B5010E9488106093360170933701809328
:102050003801909339011F910F91FF90EF90DF901D
:10206000CF90BF90AF9008950E94FF010E94B70FDC
:102070008091520190915301019690935301809366
:1020800052018091460190914701A0914801B09181
:1020900049010196A11DB11D80934601909347010E
:1020A000A0934801B09349010E943A0D20E030E02E
:1020B00080914E0190914F01892B11F421E030E085
:1020C00030934F0120934E011092780110927901C4
:1020D00010927A0110927B010E94830781E090E0C8
:1020E0000E94BA028091840090918500A0E0B0E047
:1020F0008093780190937901A0937A01B0937B014A
:102100000E94830782E090E00E94BA02B1CF50584B
:10211000BB27AA270ED075C166D130F06BD120F055
:1021200031F49F3F11F41EF45BC10EF4E095E7FB20
:1021300051C1E92F77D180F3BA176207730784077B
:10214000950718F071F49EF58FC10EF4E0950B2EF3
:10215000BA2FA02D0B01B90190010C01CA01A001F9
:102160001124FF27591B99F0593F50F4503E68F154
:102170001A16F040A22F232F342F4427585FF3CF95
:10218000469537952795A795F0405395C9F77EF466
:102190001F16BA0B620B730B840BBAF09150A1F0AF
:1021A000FF0FBB1F661F771F881FC2F70EC0BA0F35
:1021B000621F731F841F48F4879577956795B795BD
:1021C000F7959E3F08F0B3CF9395880F08F09927B5
:1021D000EE0F979587950895D9D008F481E008957A
:1021E0000CD00FC107D140F0FED030F021F45F3F9A
:1021F00019F0F0C0511139C1F3C014D198F39923EB
:10220000C9F35523B1F3951B550BBB27AA276217BA
:102210007307840738F09F5F5F4F220F331F441FFF
:10222000AA1FA9F333D00E2E3AF0E0E830D0915037
:102230005040E695001CCAF729D0FE2F27D0660F24
:10224000771F881FBB1F261737074807AB07B0E863
:1022500009F0BB0B802DBF01FF2793585F4F2AF079
:102260009E3F510568F0B6C000C15F3FECF3983E59
:10227000DCF3869577956795B795F7959F5FC9F7D6
:10228000880F911D9695879597F90895E1E0660F5F
:10229000771F881FBB1F621773078407BA0720F0D8
:1022A000621B730B840BBA0BEE1F88F7E095089541
:1022B00004D06894B111D9C00895BCD088F09F575C
:1022C00090F0B92F9927B751A0F0D1F0660F771F82
:1022D000881F991F1AF0BA95C9F712C0B13081F062
:1022E000C3D0B1E00895C0C0672F782F8827B85FAA
:1022F00039F0B93FCCF3869577956795B395D9F7C3
:102300003EF490958095709561957F4F8F4F9F4FCC
:102310000895E89409C097FB3EF4909580957095D8
:1023200061957F4F8F4F9F4F9923A9F0F92F96E921
:10233000BB279395F695879577956795B795F11196
:10234000F8CFFAF4BB0F11F460FF1BC06F5F7F4F33
:102350008F4F9F4F16C0882311F096E911C0772345
:1023600021F09EE8872F762F05C0662371F096E84E
:10237000862F70E060E02AF09A95660F771F881F1D
:10238000DAF7880F9695879597F90895990F0008C1
:10239000550FAA0BE0E8FEEF16161706E807F90737
:1023A000C0F012161306E407F50798F0621B730BD2
:1023B000840B950B39F40A2661F0232B242B252B53
:1023C00021F408950A2609F4A140A6958FEF811DF6
:1023D000811D089597F99F6780E870E060E0089597
:1023E0009FEF80EC089500240A941616170618062D
:1023F0000906089500240A94121613061406050609
:102400000895092E0394000C11F4882352F0BB0F99
:1024100040F4BF2B11F460FF04C06F5F7F4F8F4FFC
:102420009F4F089557FD9058440F551F59F05F3F37
:1024300071F04795880F97FB991F61F09F3F79F0E6
:1024400087950895121613061406551FF2CF469568
:10245000F1DF08C0161617061806991FF1CF8695EA
:102460007105610508940895E894BB2766277727CE
:10247000CB0197F908958ADF08F48FEF08950BD008
:10248000C0CFB1DF28F0B6DF18F0952309F0A2CF56
:10249000A7CF1124EACFC6DFA0F3959FD1F3950F04
:1024A00050E0551F629FF001729FBB27F00DB11DD8
:1024B000639FAA27F00DB11DAA1F649F6627B00D68
:1024C000A11D661F829F2227B00DA11D621F739F51
:1024D000B00DA11D621F839FA00D611D221F749F5F
:1024E0003327A00D611D231F849F600D211D822FA6
:1024F000762F6A2F11249F5750408AF0E1F08823ED
:102500004AF0EE0FFF1FBB1F661F771F881F9150F9
:102510005040A9F79E3F510570F05CCFA6CF5F3FBA
:10252000ECF3983EDCF3869577956795B795F7952C
:10253000E7959F5FC1F7FE2B880F911D96958795B4
:1025400097F9089511F40EF44BCF3EC073DFD0F32A
:102550009923D9F3CEF39F57550B87FF43D000241F
:10256000A0E640EA900180585695979528F4805C43
:10257000660F771F881F20F026173707480730F4AB
:10258000621B730B840B202931294A2BA6951794C3
:102590000794202531254A2758F7660F771F881F93
:1025A00020F026173707480730F4620B730B840BB3
:1025B000200D311D411DA09581F7B901842F91583F
:1025C000880F9695879508959F3F31F0915020F49C
:1025D000879577956795B795880F911D96958795FF
:1025E00097F9089591505040660F771F881FD2F7D2
:1025F0000895629FD001739FF001829FE00DF11D4D
:10260000649FE00DF11D929FF00D839FF00D749F6C
:10261000F00D659FF00D9927729FB00DE11DF91F18
:10262000639FB00DE11DF91FBD01CF011124089575
:10263000AA1BBB1B51E107C0AA1FBB1FA617B707E8
:1026400010F0A61BB70B881F991F5A95A9F7809504
:102650009095BC01CD01089597FB092E07260AD05D
:1026600077FD04D0E5DF06D000201AF4709561955F
:102670007F4F0895F6F7909581959F4F089597FBAA
:10268000092E05260ED057FD04D014D00AD0001C08
:1026900038F450954095309521953F4F4F4F5F4FFF
:1026A0000895F6F790958095709561957F4F8F4FBF
:1026B0009F4F0895A1E21A2EAA1BBB1BFD010DC05E
:1026C000AA1FBB1FEE1FFF1FA217B307E407F507E2
:1026D00020F0A21BB30BE40BF50B661F771F881FBE
:1026E000991F1A9469F760957095809590959B0154
:1026F000AC01BD01CF010895A8E1B0E042E050E097
:102700000C9489130E949713272F0C949813DC01C3
:10271000CB01FC01F999FECF06C0F2BDE1BDF89AEC
:10272000319600B40D9241505040B8F70895262FCD
:10273000F999FECF1FBA92BD81BD20BD0FB6F894A6
:0E274000FA9AF99A0FBE01960895F894FFCF09
:10274E0000409C434B0069009B0086012B02DB017D
:10275E001E00E2FFDB011400ECFF0000FA43004014
:10276E009C450000FA44CDCCAC400000003F000078
:10277E00803F0000803F0000803F00007C42F2015D
:04278E00FAED6B3ABB
:00000001FF
