:100000000C94340018950000189500000C94B2115F
:10001000189500001895000018950000189500002C
:10002000189500001895000018950000189500001C
:10003000189500001895000018950000189500000C
:1000400018950000189500001895000018950000FC
:1000500018950000189500001895000018950000EC
:1000600018950000189500008FEF8DBFC0EEE6ECEC
:100070004E2E84E08EBFD4E0F4E05F2EEEEFF3E08E
:10008000A0E0B1E088278D933197E9F766248FEFE0
:100090008AB980E084B9389887E080937A0080E458
:1000A00080937C005A985C98789480916800816075
:1000B000809368008FEF80936B0084E085BD80E0C3
:1000C00084BD80E08093800083E08093810086E09F
:1000D0008093B10080E08093B0005B9A84E085BD9E
:1000E00083E08093810086E08093B10080916E0070
:1000F0008E7F80936E0080916F008E7F80936F0063
:10010000809170008E7F8093700081E08093000169
:1001100080E090E0AFE1B1E08D939C93A1E8B1E085
:10012000E8EEFEE20E94231681E090E0A6EBB1E04B
:100130008D939C9380E090E0A8EBB1E08D939C932D
:10014000AAEAB1E0ECEEFEE20E94231607E210E01C
:1001500020E030E0A1E5B1E00D931D932D933C9399
:10016000A1E5B1E00D911D912D913C91A5E5B1E086
:100170000D931D932D933C9381E090E0AFE4B1E0AB
:100180008D939C9306E410E020E030E0A2EAB1E019
:100190000D931D932D933C93A2EBB1E0E0EFFEE2B3
:1001A0000E9423160E94A611E0E1F0E0BB27A0E127
:1001B0000E9459160B3252E0150711F00C941701EA
:1001C000AAEAB1E0E0E0F0E094E00E945A16AFE461
:1001D000B1E00D911C91013050E0150711F00C9425
:1001E000F800E4E0F0E0A1E5B1E094E00E945A16E6
:1001F000AFE4B1E00D911C91013050E0150711F012
:100200000C940901E4E0F0E0A5E5B1E094E00E947F
:100210005A16ECE0F0E0A2EAB1E094E00E945A162F
:10022000A2EBB1E0E8E0F0E094E00E945A16589AA0
:1002300070917A00706870937A000E94A611009104
:100240000001013011F00C943601A3E9B1E00D91E9
:100250001C910D3750E015071CF011F00C94320181
:100260000C9433015B9A5B980C941F010091000180
:10027000013011F00C942C11A5E9B1E00D911C9105
:100280000A3550E0150780E00CF481E08F93A5E972
:10029000B1E00D911C91083C50E0150780E014F08E
:1002A00009F081E09F91892B8F93A8E9B1E00D912E
:1002B0001C91013050E0150781E009F080E09F912A
:1002C000892B882311F40C945A040E94A611AFE8DC
:1002D000B1E00D911C910E3E51E015071CF011F09C
:1002E0000C9474010C94780188EC90E00E940B143B
:1002F000AFE8B1E00D911C910C3C51E015070CF4F6
:1003000002C00C94870188EC90E00E940B14A3E9D2
:10031000B1E00D911C91093650E0150780E00CF416
:1003200081E08F93A3E9B1E00D911C91003050E082
:10033000150780E014F009F081E09F9189238F93E5
:10034000AFE1B1E00D911C91003050E0150781E064
:1003500009F080E09F918923882311F40C9407020F
:100360005B9884EF91E00E940B14A5E0B1E0ECEE05
:10037000FEE20E942316E5E0F1E00E949314E9E713
:10038000F1E00E9498140E94021618F011F00C94EB
:10039000F8015B9A84E690E00E940B145B988CE273
:1003A00091E00E940B14A5E9B1E00D911C910A3572
:1003B00050E015071CF011F00C94E0010C94E601DC
:1003C000E9E7F1E0A5E0B1E00E943A16E4EFFEE2D1
:1003D0000E94F915E5E0F1E00E9493140E949E1539
:1003E000FF27EDE0A5E0B1E00E943A160C94BB01B6
:1003F000A5E9B1E00D911C910A3550E015070CF408
:1004000002C00C94070280ED97E00E940B14A3E950
:10041000B1E00D911C910D3750E0150780E014F00C
:1004200009F081E08F93AFE8B1E00D911C910330AA
:1004300052E0150780E014F009F081E09F918923D4
:10044000882311F40C94A00288E795E00E940B1415
:10045000A3E9B1E00D911C910D3750E0150780E044
:1004600014F009F081E08F93AFE8B1E00D911C9199
:10047000033052E0150780E014F009F081E09F910D
:100480008923882311F40C94A002AFE1B1E00D910F
:100490001C91003050E0150711F00C946D0281E0C2
:1004A00090E0AFE1B1E08D939C9384E4806480930D
:1004B0007C000E944714ABE0B1E08D939C93EBE08D
:1004C000F1E0D190E080FF2400270E94B714A2EB56
:1004D000B1E00E94E8140C949C0280E090E0AFE14F
:1004E000B1E08D939C93E0E0F0E0AAEAB1E094E003
:1004F0007BE70E944916E4E0F0E0A1E5B1E094E07A
:100500007BE70E944916ECE0F0E0A2EAB1E094E05B
:100510007BE70E944916E8E0F0E0A2EBB1E094E04E
:100520007BE70E944916E0E1F0E00BE212E0A0E177
:10053000BB277BE70E94481684EF91E00E940B14D2
:10054000A3E9B1E00D911C91093650E0150780E058
:100550000CF481E08F93AFE8B1E00D911C91033072
:1005600052E0150780E014F009F081E09F918923A3
:100570008F93AFE1B1E00D911C91013050E0150770
:1005800081E009F080E09F918923882311F40C9485
:10059000900388E795E00E940B14A3E9B1E00D9168
:1005A0001C91093650E0150780E00CF481E08F9330
:1005B000AFE8B1E00D911C91033052E0150780E0E7
:1005C00014F009F081E09F9189238F93AFE1B1E0AE
:1005D0000D911C91013050E0150781E009F080E099
:1005E0009F918923882311F40C94300386E480645E
:1005F00080937C000E944714A2EAB1E08D939D9302
:1006000088278D938C9301E010E020E030E0A1E09A
:10061000B1E00D931D932D933C9346E450E060E0D0
:1006200070E0A1E0B1E00D911D912D913C910E94EF
:1006300035161CF011F00C942B038BB198E0892730
:100640008BB984E190E00E940B14A1E0B1E00E941C
:100650005C130C940D035B9888EE93E00E940B14DE
:10066000A3E9B1E00D911C91093650E0150780E037
:100670000CF481E08F93AFE8B1E00D911C91033051
:1006800052E0150780E014F009F081E09F91892382
:100690008F93AFE1B1E00D911C91013050E015074F
:1006A00081E009F080E09F918923882311F40C9464
:1006B000900300E010E020E030E0A2EAB1E00D930A
:1006C0001D932D933C9301E010E020E030E0A1E089
:1006D000B1E00D931D932D933C9346E450E060E010
:1006E00070E0A1E0B1E00D911D912D913C910E942F
:1006F00035161CF011F00C948B038BB198E0892710
:100700008BB984E190E00E940B14A1E0B1E00E945B
:100710005C130C946D035B9888EE93E00E940B14BD
:10072000A3E9B1E00D911C91093650E0150780E076
:100730000CF481E08F93AFE8B1E00D911C91033B85
:1007400051E0150780E00CF481E09F9189238F939D
:10075000AFE1B1E00D911C91013050E0150781E04F
:1007600009F080E09F918923882311F40C941704E9
:1007700088E795E00E940B14A3E9B1E00D911C916C
:10078000093650E0150780E00CF481E08F93AFE864
:10079000B1E00D911C91033B51E0150780E00CF492
:1007A00081E09F9189238F93AFE1B1E00D911C917E
:1007B000013050E0150781E009F080E09F91892326
:1007C000882311F40C941704AAEAB1E0ECEEFEE2DF
:1007D0000E94231601E010E020E030E0A1E0B1E04B
:1007E0000D931D932D933C9346E450E060E070E040
:1007F000A1E0B1E00D911D912D913C910E94351623
:100800001CF011F00C9412048BB198E089278BB97D
:1008100084E190E00E940B14A1E0B1E00E945C131F
:100820000C94F4035B9888EE93E00E940B145B98A1
:1008300082E390E00E940B14AFE1B1E00D911C91B6
:10084000013050E0150711F00C94530401E010E062
:1008500020E030E0A1E0B1E00D931D932D933C9397
:100860004AE050E060E070E0A1E0B1E00D911D9140
:100870002D913C910E9435161CF011F00C944E0401
:100880008EE190E00E940B148BB198E089278BB920
:10089000A1E0B1E00E945C130C9430045B9886E9FF
:1008A00090E00E940B145B9A82E390E00E940B148C
:1008B0000C943C01A5E1B1E00D911D912D913C916D
:1008C00041E050E060E070E00E942B16A5E1B1E04D
:1008D0000D931D932D933D9344E650E060E070E04E
:1008E000A5E1B1E00D911D912D913C910E9435162D
:1008F0001CF011F00C947E040C94880404E610E0C3
:1009000020E030E0A5E1B1E00D931D932D933C93E1
:1009100045E050E060E070E0A5E1B1E00D911D918F
:100920002D913C910E9435161CF011F00C949A0404
:100930000C94A00480E090E0A5E9B1E08D939C9335
:10094000A9E7B1E0E8EFFEE20E942316F894A3E9DC
:10095000B1E00D911C910D3750E0150780E014F0C7
:1009600009F081E08F93A3E9B1E00D911C910A3F5A
:1009700050E0150780E00CF481E09F9189238823E3
:1009800011F40C94CB0481E090E0A3E2B1E08D93EC
:100990009C930C94D10480E090E0A3E2B1E08D93AD
:1009A0009C93A3E9B1E00D911C91043650E015072A
:1009B00080E00CF481E08F93A3E9B1E00D911C91EC
:1009C000023350E0150780E014F009F081E09F91B8
:1009D0008923882311F40C94F50481E090E0A5E2CA
:1009E000B1E08D939C930C94FB0480E090E0A5E231
:1009F000B1E08D939C9380E090E0ABE2B1E08D9309
:100A00009C9380E090E0A0EAB1E08D939C93A2EAF1
:100A1000B1E00D911D912D913C9145E550E060E0D4
:100A200070E00E942414A6EAB1E00D931D932D936B
:100A30003D93A6EAB1E00D911D912D913C9144E6C4
:100A400050E060E070E00E94AE13A6EAB1E04D9382
:100A50005D936D937D9386E4806480937C000E9417
:100A60004714A9E0B1E08D939C93A6EAB1E04D91C3
:100A70005D916D917C91A9E0B1E00D911C912227CF
:100A800033270E9435160CF402C00C944D0581E00A
:100A900090E0A0EAB1E08D939C9380E090E0A0EA22
:100AA000B1E08D939C9384E4806480937C000E94E9
:100AB0004714ABE0B1E08D939C93EBE0F1E0D19073
:100AC000E080FF2400270E94B714ADE0B1E00E944F
:100AD000E814E2EBF1E00E949814EDE0F1E00E94EE
:100AE00093140E948F15FF27EDE0ADE0B1E00E9466
:100AF0003A16ECEFFEE20E94F915EDE0F1E00E94FB
:100B000093140E945E15FF27EDE0A1E7B1E00E947B
:100B10003A16A5E7B1E0E0E0FFE20E942316E5E720
:100B2000F1E00E949814E1E7F1E00E9493140E9422
:100B30000815FF27EDE0A5E7B1E00E943A16E4E0D2
:100B4000FFE20E94F915E5E7F1E00E9493140E948C
:100B50003A17FF27EDE0A5E7B1E00E943A16E8E07A
:100B6000FFE20E94F915E5E7F1E00E9493140E946C
:100B70005E15FF27EDE0A5E7B1E00E943A16E5E734
:100B8000F1E00E949314E9E7F1E00E9498140E94BA
:100B9000021618F011F00C94CF050C94D505E5E77A
:100BA000F1E0A9E7B1E00E943A16ECE0FFE20E9412
:100BB000F915E5E7F1E00E9493140E940815FF275C
:100BC000EDE0ADE2B1E00E943A16EDE2F1E00E9404
:100BD0009814ECEEFEE20E94F0150E940815FF2723
:100BE000EDE0ADE2B1E00E943A16E8E0FFE20E94DB
:100BF000F915EDE2F1E00E9493140E945E15FF27C3
:100C0000EDE0ADE2B1E00E943A16EAEAF1E00E94BE
:100C10009814EDE2F1E00E9493140E945E15FF2704
:100C2000EDE0ADE2B1E00E943A16A1E2B1E00D9133
:100C30001C91013050E0150711F00C94270682E05A
:100C400090E0A1E2B1E08D939C930C942D0681E09D
:100C500090E0A1E2B1E08D939C93A6EBB1E00D9101
:100C60001C91013050E0150711F00C9439060C94DA
:100C70005107ADE5B1E00D911C91013050E0150731
:100C800011F00C944B0680E090E0ADE5B1E08D935F
:100C90009C930C94510780E090E0ADE5B1E08D931A
:100CA0009C93A5E5B1E00D911D912D913C91A1E59D
:100CB000B1E00D931D932D933C93A1E9B1E00D910B
:100CC0001C91033052E015071CF011F00C946A06D9
:100CD0000C94B1060027A7E9B1E08C9187FB0EF4D4
:100CE00001E040E0041711F00C948C06E0E1FFE213
:100CF0000E94F915EDE2F1E00E9493140E945E1546
:100D0000FF27EDE0ADE2B1E00E943A1681E090E00D
:100D1000ADE5B1E08D939C93A1E5B1E00D911D91FE
:100D20002D913C9149E150E060E070E00E94301666
:100D3000A1E5B1E00D931D932D933D938091970113
:100D400080688093970181E090E0A3E2B1E08D9309
:100D50009C9380E090E0A5E2B1E08D939C930C948D
:100D6000D8060027A7E9B1E08C9187FB0EF401E0DB
:100D700041E0041711F00C94D306E4E1FFE20E9475
:100D8000F915EDE2F1E00E9493140E945E15FF2731
:100D9000EDE0ADE2B1E00E943A1681E090E0ADE511
:100DA000B1E08D939C93809197018F778093970109
:100DB000A1E9B1E00D911C91033B51E015070CF442
:100DC00002C00C942A070027A7E9B1E08C9186FBAA
:100DD0000EF401E040E0041711F00C940507E4E183
:100DE000FFE20E94F915EDE2F1E00E9493140E94E7
:100DF0005E15FF27EDE0ADE2B1E00E943A1681E01A
:100E000090E0ADE5B1E08D939C93A1E5B1E00D914B
:100E10001D912D913C9149E150E060E070E00E940D
:100E20002B16A1E5B1E00D931D932D933D93809179
:100E3000970180648093970181E090E0A3E2B1E0A4
:100E40008D939C9380E090E0A5E2B1E08D939C931C
:100E50000C9451070027A7E9B1E08C9186FB0EF4B2
:100E600001E041E0041711F00C944C07E0E1FFE2CF
:100E70000E94F915EDE2F1E00E9493140E945E15C4
:100E8000FF27EDE0ADE2B1E00E943A1681E090E08C
:100E9000ADE5B1E08D939C93809197018F7B80931A
:100EA0009701A3E2B1E00D911C91013050E01507CC
:100EB00011F00C946B07ECEEFEE20E94F915EDE2E6
:100EC000F1E00E9493140E945E15FF27EDE0ADE271
:100ED000B1E00E943A16A5E2B1E00D911C910130FB
:100EE00050E0150711F00C948507ECEEFEE20E942D
:100EF000F915EDE2F1E00E9493140E945E15FF27C0
:100F0000EDE0ADE2B1E00E943A16E8E1FFE20E94B6
:100F1000F915EDE2F1E00E9493140E948F15FF276E
:100F2000EDE0ADE2B1E00E943A1641E050E060E051
:100F300070E0A1E5B1E00D911D912D913C910E94D1
:100F400035160CF402C00C94B707A1E5B1E00D9181
:100F50001D912D913C9144E650E060E070E00E94CC
:100F60002B16A1E5B1E00D931D932D933D9344E61F
:100F700050E060E070E0A1E5B1E00D911D912D9190
:100F80003C910E9435161CF011F00C94C9070C948A
:100F9000DB07A1E5B1E00D911D912D913C9144E657
:100FA00050E060E070E00E943016A1E5B1E00D93E2
:100FB0001D932D933D93ECE1FFE20E94F915EDE2C4
:100FC000F1E00E9493140E940815FF27EDE0A5E3CD
:100FD000B1E00E943A16A5E9B1E00D911C914AE5F5
:100FE00050E0041B150BAFE5B1E00D931C93AFE58A
:100FF000B1E00D911C9142E050E00E941A14AFE55F
:10100000B1E00D931C93AFE5B1E00D911C91043656
:1010100050E015071CF011F00C9410080C94160801
:1010200084E690E0AFE5B1E08D939C9380E090E0A2
:10103000ADE3B1E08D939C93AFE1B1E00D911C91D4
:10104000013050E0150781E009F080E08F93A3E2C2
:10105000B1E00D911C91003050E0150781E009F0DE
:1010600080E09F9189238F93A5E2B1E00D911C91BF
:10107000003050E0150781E009F080E09F9189235E
:101080008F93AFE5B1E00D911C91023350E015074D
:1010900080E00CF481E09F918923882311F40C9463
:1010A000D40881E090E0ADE3B1E08D939C9381E0C2
:1010B00090E0ABE2B1E08D939C93AFE8B1E00D918D
:1010C0001C910E3E51E0150780E014F009F081E01C
:1010D0008F93AFE8B1E00D911C910C3C51E01507E6
:1010E00080E00CF481E09F91892B882311F40C940B
:1010F000D40880E090E0ABE2B1E08D939C93EFE800
:10110000F1E0D190E0808FEFE7FE8827F82E082FDE
:101110000E94B7140E94ED14E0E2FFE20E94F01575
:101120000E948F15FF27EDE0ADE7B1E00E943A166F
:10113000E5E3F1E00E949814EDE7F1E00E949314DA
:101140000E945E15FF27EDE0ADE7B1E00E943A1680
:10115000EDE7F1E0A1E8B1E00E944D17FF27EDE0D7
:10116000ADE7B1E00E943A16E4E2FFE20E94F91511
:10117000EDE7F1E00E9493140E940815FF27EDE0CF
:10118000ADE7B1E00E943A16EDE7F1E00E94981455
:10119000EAEAF1E00E9493140E949E15FF27EDE019
:1011A000AAEAB1E00E943A16AFE1B1E00D911C91BC
:1011B000013050E0150781E009F080E08F93A3E251
:1011C000B1E00D911C91003050E0150781E009F06D
:1011D00080E09F9189238F93A5E2B1E00D911C914E
:1011E000003050E0150781E009F080E09F918923ED
:1011F0008F93AFE5B1E00D911C91023350E01507DC
:1012000080E00CF081E09F918923882311F40C94F5
:10121000A50981E090E0ADE3B1E08D939C9380E07F
:1012200090E0ABE2B1E08D939C93AFE8B1E00D911B
:101230001C910C3C51E015070CF402C00C943809C9
:10124000A1E5B1E00D911D912D913C9141E050E05F
:1012500060E070E00E942B16A1E5B1E00D931D93B4
:101260002D933D9381E090E0ABE2B1E08D939C93B0
:10127000AFE8B1E00D911C910E3E51E015071CF056
:1012800011F00C9445090C945D09A1E5B1E00D91B4
:101290001D912D913C9141E050E060E070E00E9492
:1012A0003016A1E5B1E00D931D932D933D9381E0A0
:1012B00090E0ABE2B1E08D939C9341E050E060E0C0
:1012C00070E0A1E5B1E00D911D912D913C910E943E
:1012D00035160CF402C00C94770904E610E020E007
:1012E00030E0A1E5B1E00D931D932D933C9344E6CE
:1012F00050E060E070E0A1E5B1E00D911D912D910D
:101300003C910E9435161CF011F00C9489090C9444
:10131000930901E010E020E030E0A1E5B1E00D9399
:101320001D932D933C9380E090E0A5E2B1E08D9376
:101330009C93A1E5B1E00D911D912D913C91A5E506
:10134000B1E00D931D932D933C93ADE3B1E00D916E
:101350001C91003050E0150711F00C94F809EFE8EB
:10136000F1E0D190E0808FEFE7FE8827F82E082F7C
:101370000E94B7140E94ED14E0E2FFE20E94F01513
:101380000E948F15FF27EDE0ADE7B1E00E943A160D
:10139000E5E3F1E00E949814EDE7F1E00E94931478
:1013A0000E945E15FF27EDE0ADE7B1E00E943A161E
:1013B000E8E2FFE20E94F915EDE7F1E00E949314E4
:1013C0000E940815FF27EDE0ADE7B1E00E943A1654
:1013D000EDE7F1E00E949814E5E3F1E00E94931438
:1013E0000E949E15FF27EDE0A5E3B1E00E943A16AA
:1013F000AFE1B1E00D911C91013050E0150711F003
:101400000C94080A82E390E0AFE5B1E08D939C93E1
:10141000E5E3F1E00E945514A9E3B1E0EDE0FF2718
:101420000E943A16E9E3F1E00E9493140E94B71477
:101430000E94ED14E5E3F1E00E9493140E948F15E1
:10144000FF27EDE0A5E8B1E00E943A16ECE2FFE2EA
:101450000E94F915E5E8F1E00E9493140E945E15E0
:10146000FF27EDE0A5E8B1E00E943A16A1E1B1E066
:10147000ECEEFEE20E942316E1E1F1E00E949314FB
:10148000E5E8F1E00E9498140E94021618F011F0AD
:101490000C94660AEF93FF93EBEAF0E00E940214CB
:1014A000FF91EF91A1E1B1E0ECEEFEE20E94F915AF
:1014B000E1E1F1E00E9493140E949E15FF27EDE008
:1014C000A1E1B1E00E943A160C943C0A44EF51E0CD
:1014D00060E070E0A9E3B1E00D911D912D913C9188
:1014E0000E9435161CF011F00C94780A0C94820AB4
:1014F00004EF11E020E030E0A9E3B1E00D931D938B
:101500002D933C9345E050E060E070E0A9E3B1E04A
:101510000D911D912D913C910E9435160CF402C045
:101520000C949C0A05E010E020E030E0A9E3B1E073
:101530000D931D932D933C93ECE1FFE20E94F9156E
:10154000E9E3F1E00E9493140E94B7140E945E1533
:10155000FF27EDE0ADE2B1E00E943A16EDE2F1E0E6
:101560000E945514A1E3B1E0EDE0FF270E943A1676
:10157000E1E5F1E00E9493140E94B7140E94ED147B
:10158000EDE2F1E00E9493140E945E15FF27EDE06A
:101590000E945514A7E4B1E0EDE0FF270E943A163F
:1015A000A7E4B1E00D911D912D913C9144E650E0EE
:1015B00060E070E00E94AE13A7E4B1E04D935D934C
:1015C0006D937D93E0E3FFE20E94F915EDE2F1E017
:1015D0000E9493140E940815FF27EDE00E94551405
:1015E000ABE4B1E0EDE0FF270E943A16ABE4B1E0D6
:1015F0000D911D912D913C91A7E4B1E04D915D912C
:101600006D917C910E942B16ABE4B1E00D931D937C
:101610002D933D93A1E3B1E04D915D916D917C914E
:10162000ABE4B1E00D911D912D913C910E943516D6
:101630000CF002C00C94300BABE4B1E00D911D91A5
:101640002D913C91A1E3B1E04D915D916D917C9123
:101650000E943016ABE4B1E00D931D932D933D93A2
:1016600041E050E060E070E0ABE4B1E00D911D912D
:101670002D913C910E9435160CF402C00C94540B31
:10168000ABE4B1E00D911D912D913C91A1E3B1E04E
:101690004D915D916D917C910E942B16ABE4B1E070
:1016A0000D931D932D933D93A1E3B1E00D911D91F9
:1016B0002D913C9141E150E060E070E00E942414E3
:1016C000AFE3B1E00D931D932D933D93AFE3B1E0F4
:1016D0000D911D912D913C914CE350E060E070E044
:1016E0000E94AE13AFE3B1E04D935D936D937D9394
:1016F000AFE3B1E00D911D912D913C91ABE4B1E0D0
:101700004D915D916D917C910E942B16AFE3B1E0FC
:101710000D931D932D933D93A1E3B1E00D911D9188
:101720002D913C9146E050E060E070E00E9424146E
:10173000A3E4B1E00D931D932D933D93A3E4B1E099
:101740000D911D912D913C914CE350E060E070E0D3
:101750000E94AE13A3E4B1E04D935D936D937D932E
:10176000A3E4B1E00D911D912D913C91AFE3B1E067
:101770004D915D916D917C910E942B16A3E4B1E097
:101780000D931D932D933D93A1E3B1E04D915D9198
:101790006D917C91AFE3B1E00D911D912D913C9144
:1017A0000E9435160CF002C00C94EA0BAFE3B1E0D6
:1017B0000D911D912D913C91A1E3B1E04D915D9171
:1017C0006D917C910E943016AFE3B1E00D931D93B3
:1017D0002D933D93A1E3B1E04D915D916D917C918D
:1017E000A3E4B1E00D911D912D913C910E9435161D
:1017F0000CF002C00C94100CA3E4B1E00D911D910B
:101800002D913C91A1E3B1E04D915D916D917C9161
:101810000E943016A3E4B1E00D931D932D933D93E8
:10182000E1E7F1E00E949314E4E3FFE20E94F9157E
:101830000E94021680E010F009F081E08F93AFE57E
:10184000B1E00D911C91083250E0150780E014F0D2
:1018500009F081E09F918923882311F40C94360CC0
:1018600088E290E0AFE5B1E08D939C93AFE5B1E005
:101870000D911C91043650E015071CF011F00C94EA
:10188000430C0C94490C84E690E0AFE5B1E08D93F5
:101890009C93AFE5B1E00D911C91003050E015072D
:1018A0000CF402C00C945A0C80E090E0AFE5B1E07B
:1018B0008D939C9380E090E0ABE1B1E08D939C939D
:1018C00080E090E0ADE1B1E08D939C93E5E7F1E03D
:1018D0000E949314E8E3FFE20E94F9150E940216A9
:1018E00010F00C94790C81E090E0ABE1B1E08D93C5
:1018F0009C93E5E7F1E00E949314ECE3FFE20E9481
:10190000F9150E94021618F011F00C94890C0C9431
:101910008F0C81E090E0ADE1B1E08D939C93AFE559
:10192000B1E00D911C91023350E015071CF011F04D
:101930000C949C0C0C94280D81E090E0ABE2B1E09B
:101940008D939C93A9E3B1E00D911D912D913C9154
:1019500049E150E060E070E00E942414ADE6B1E09F
:101960000D931D932D933D93ADE6B1E00D911D9127
:101970002D913C91AFE5B1E04D915D9157FB1EF487
:101980006FEF7FEF02C0662777270E94AE13ADE6A8
:10199000B1E04D935D936D937D93A9E3B1E00D911B
:1019A0001C9142E050E00E947113A7E2B1E04D9318
:1019B0005C93A7E2B1E00D911C91ADE6B1E04D91D1
:1019C0005C91041B150BA7E2B1E00D931C93A9E3F6
:1019D000B1E00D911C9142E050E00E947113A9E228
:1019E000B1E04D935C93A9E2B1E00D911C91ADE69D
:1019F000B1E04D915C91040F151FA9E2B1E00D9388
:101A00001C93A7E2B1E00D911C91013050E0150745
:101A10000CF402C00C94120D81E090E0A7E2B1E05A
:101A20008D939C9300E010E020E030E0A5E6B1E06B
:101A30000D931D932D933C93A9E3B1E00D911D915E
:101A40002D913C91A9E6B1E00D931D932D933C930C
:101A5000AFE5B1E00D911C91023350E015071CF089
:101A600011F00C949E0D81E090E0A7E2B1E08D931F
:101A70009C93A9E3B1E08D919C91A9E2B1E08D9393
:101A80009C9302E310E020E030E0AFE5B1E04D913F
:101A90005D9157FB1EF46FEF7FEF02C0662777273B
:101AA0000E943016A1E6B1E00D931D932D933D9356
:101AB000A1E6B1E00D911D912D913C91A9E3B1E01A
:101AC0004D915D916D917C910E942414A1E6B1E04D
:101AD0000D931D932D933D93A1E6B1E00D911D91C2
:101AE0002D913C9146E950E060E070E00E94AE1319
:101AF000A1E6B1E04D935D936D937D93A1E6B1E0D6
:101B00000D911D912D913C91A5E6B1E00D931D9392
:101B10002D933C93A9E3B1E00D911D912D913C9142
:101B2000A1E6B1E04D915D916D917C910E943016DE
:101B3000A9E6B1E00D931D932D933D93A0EAB1E08A
:101B40000D911C91013050E0150781E009F080E013
:101B50008F93ADE5B1E00D911C91013050E0150778
:101B600081E009F080E09F91892B882311F40C9487
:101B7000CD0D00E010E020E030E0AFE3B1E00D93E8
:101B80001D932D933C9300E010E020E030E0A3E4AF
:101B9000B1E00D931D932D933C937894ABE1B1E0AC
:101BA0000D911C91013050E0150711F00C94FA0DC5
:101BB00081E090E0A9E2B1E08D939C9380E090E019
:101BC000A7E2B1E08D939C9300E010E020E030E0CC
:101BD000A5E6B1E00D931D932D933C93A9E3B1E0ED
:101BE0000D911D912D913C91A9E6B1E00D931D93AE
:101BF0002D933C9300E010E020E030E0A9E5B1E057
:101C00000D931D932D933C9301E010E020E030E014
:101C1000A1E0B1E00D931D932D933C93A9E3B1E0B6
:101C20004D915D916D917C91A1E0B1E00D911D917F
:101C30002D913C910E9435161CF011F00C946D0F03
:101C40000E94A911A9E5B1E00D911D912D913C9142
:101C500041E050E060E070E00E942B16A9E5B1E0A1
:101C60000D931D932D933D93A7E2B1E04D915D91AE
:101C700057FB1EF46FEF7FEF02C066277727A1E0C6
:101C8000B1E00D911D912D913C910E94351680E09F
:101C90000CF081E08F93A9E2B1E04D915D9157FB8B
:101CA0001EF46FEF7FEF02C066277727A1E0B1E057
:101CB0000D911D912D913C910E94351680E00CF400
:101CC00081E09F918923882311F40C94B20EA3E242
:101CD000B1E00D911C91003050E0150781E009F052
:101CE00080E08F93A5E2B1E00D911C91003050E0AF
:101CF000150781E009F080E09F918923882311F482
:101D00000C949A0EA1E2B1E00D911C91013050E0CB
:101D1000150711F00C948E0E0E94AC11A1E2B1E0F7
:101D20000D911C91023050E0150711F00C949A0EA1
:101D30000E94AF11A3E2B1E00D911C91013050E07F
:101D4000150711F00C94A60E0E94AC11A5E2B1E0AB
:101D50000D911C91013050E0150711F00C94B20E5A
:101D60000E94AF11A9E2B1E04D915D9157FB1EF4C5
:101D70006FEF7FEF02C066277727A1E0B1E00D91FA
:101D80001D912D913C910E9435160CF002C00C94CF
:101D9000CB0E0E94A911A5E6B1E04D915D916D9128
:101DA0007C91A1E0B1E00D911D912D913C910E949B
:101DB00035160CF402C00C94DF0E0E94A611A9E6A1
:101DC000B1E04D915D916D917C91A1E0B1E00D91FB
:101DD0001D912D913C910E9435161CF011F00C9430
:101DE000F30E0C94F50E0E94A611ADE1B1E00D9139
:101DF0001C91013050E0150711F00C94010F0E9466
:101E0000A611A7E4B1E04D915D916D917C91A9E59A
:101E1000B1E00D911D912D913C910E94351611F06C
:101E20000C94180F81E090E0AEE9B1E08D939C93A3
:101E3000ABE4B1E04D915D916D917C91A9E5B1E08C
:101E40000D911D912D913C910E94351611F00C942D
:101E50002F0F80E090E0AEE9B1E08D939C93ADE56B
:101E6000B1E00D911C91013050E0150711F00C9478
:101E70003F0F80E090E0AEE9B1E08D939C93AEE936
:101E8000B1E00D911C91013050E0150711F00C9458
:101E90005A0FABE2B1E00D911C91013050E01507F3
:101EA00011F00C94590F8BB198E089278BB90C94E1
:101EB0005A0F5B9AAEE9B1E00D911C91003050E0F1
:101EC000150711F00C94650F5B980E949311A1E027
:101ED000B1E00E945C130C940E0EA1E1B1E0ECEEB7
:101EE000FEE20E942316E1E1F1E00E949314E5E88E
:101EF000F1E00E9498140E94021618F011F00C9460
:101F00009D0FEF93FF93EBEAF0E00E940214FF9124
:101F1000EF91A1E1B1E0ECEEFEE20E94F915E1E102
:101F2000F1E00E9493140E949E15FF27EDE0A1E1CD
:101F3000B1E00E943A160C94730F01E010E020E02B
:101F400030E0A1E0B1E00D931D932D933C93A9E304
:101F5000B1E04D915D916D917C91A1E0B1E00D9169
:101F60001D912D913C910E9435161CF011F00C949E
:101F70002A110E94A911A9E5B1E00D911D912D91A1
:101F80003C9141E050E060E070E00E942B16A9E532
:101F9000B1E00D931D932D933D93A7E2B1E04D91D8
:101FA0005D9157FB1EF46FEF7FEF02C06627772726
:101FB000A1E0B1E00D911D912D913C910E9435164B
:101FC00080E00CF081E08F93A9E2B1E04D915D914A
:101FD00057FB1EF46FEF7FEF02C066277727A1E063
:101FE000B1E00D911D912D913C910E94351680E03C
:101FF0000CF481E09F918923882311F40C946F10D5
:10200000A3E2B1E00D911C91003050E0150781E092
:1020100009F080E08F93A5E2B1E00D911C910030B2
:1020200050E0150781E009F080E09F918923882323
:1020300011F40C945710A8EBB1E00D911C910130F4
:1020400050E0150711F00C943F10A1E2B1E00D91A2
:102050001C91013050E0150711F00C9431100E94D2
:10206000AC11A1E2B1E00D911C91023050E01507D6
:1020700011F00C943D100E94AF110C945710A1E286
:10208000B1E00D911C91013050E0150711F00C9456
:102090004B100E94AF11A1E2B1E00D911C910230F2
:1020A00050E0150711F00C9457100E94AC11A3E2F8
:1020B000B1E00D911C91013050E0150711F00C9426
:1020C00063100E94AF11A5E2B1E00D911C910130A7
:1020D00050E0150711F00C946F100E94AC11A9E2AA
:1020E000B1E04D915D9157FB1EF46FEF7FEF02C0A1
:1020F00066277727A1E0B1E00D911D912D913C91CC
:102100000E9435160CF002C00C9488100E94A91190
:10211000A5E6B1E04D915D916D917C91A1E0B1E0BA
:102120000D911D912D913C910E9435160CF402C029
:102130000C949C100E94A611A9E6B1E04D915D910E
:102140006D917C91A1E0B1E00D911D912D913C919B
:102150000E9435161CF011F00C94B0100C94B210C3
:102160000E94A611ADE1B1E00D911C91013050E04B
:10217000150711F00C94BE100E94A611A7E4B1E05F
:102180004D915D916D917C91A9E5B1E00D911D910D
:102190002D913C910E94351611F00C94D51081E0E0
:1021A00090E0AEE9B1E08D939C93ABE4B1E04D914A
:1021B0005D916D917C91A9E5B1E00D911D912D91FD
:1021C0003C910E94351611F00C94EC1080E090E0E8
:1021D000AEE9B1E08D939C93ADE5B1E00D911C911A
:1021E000013050E0150711F00C94FC1080E090E0F5
:1021F000AEE9B1E08D939C93AEE9B1E00D911C91F5
:10220000013050E0150711F00C941711ABE2B1E06A
:102210000D911C91013050E0150711F00C9416112E
:102220008BB198E089278BB90C9417115B9AAEE9B2
:10223000B1E00D911C91003050E0150711F00C94A5
:1022400022115B980E949311A1E0B1E00E945C13FF
:102250000C94A70F0C9436015B98A3E4B1E04D9168
:102260005D916D917C91AFE3B1E00D911D912D9148
:102270003C910E9435161CF011F00C946C11AFE3E8
:10228000B1E04D915D916D917C91A9E5B1E00D9129
:102290001D912D913C910E94351680E00CF081E05B
:1022A0008F93A3E4B1E04D915D916D917C91A9E58F
:1022B000B1E00D911D912D913C910E94351681E068
:1022C00014F009F080E09F918923882311F40C9485
:1022D0006A115B9A0C949211AFE3B1E04D915D915C
:1022E0006D917C91A9E5B1E00D911D912D913C91ED
:1022F0000E9435160CF002C00C947F115B9AA3E487
:10230000B1E04D915D916D917C91A9E5B1E00D91A8
:102310001D912D913C910E9435161CF011F00C94EA
:1023200092115B9A0895EF93FF93E8EAFDE00E9413
:102330000214FF91EF910E942C11EF93FF93E8EDAF
:10234000F5E00E940214FF91EF9108955A985C986D
:1023500008955A9A5C9A08955A9A5C9808955A98E2
:102360005C9A08950F921F922F923F924F925F9224
:102370007F92AF92BF920F931F932F933F934F93F0
:102380005F936F937F938F939F93AF93BF93CF93FD
:10239000DF93EF93FF938FB78F930027BB27A3E2C1
:1023A0008C9182FB0EF401E04427A7E9B1E08C9107
:1023B00084FB0EF44395041711F40C9402120027C9
:1023C000BB27A3E28C9182FB0EF401E040E00417EE
:1023D00011F00C94F311A6E4B0E08C91A3E9B1E004
:1023E0008D9388278C930027BB27A3E28C9182FBD7
:1023F0000EF401E041E0041711F00C94021280E0A9
:10240000809346000027BB27A3E28C9180FB0EF44B
:1024100001E04427A7E9B1E08C9185FB0EF44395D8
:10242000041711F40C945C120027BB27A3E28C91D3
:1024300080FB0EF401E040E0041711F00C944D1203
:102440000091B200083C10F00C944D120091B200C3
:10245000023318F011F00C942F120C944D12A2EBD1
:10246000B0E08C91A5E9B1E08D9388278C93A5E924
:10247000B1E00D911C9148E050E0041B150BA5E95B
:10248000B1E00D931C9300E010E020E030E0A5E106
:10249000B1E00D931D932D933C930027BB27A3E23E
:1024A0008C9180FB0EF401E041E0041711F00C94D4
:1024B0005C1280E08093B2000027BB27A3E28C91DE
:1024C00081FB0EF401E04427A7E9B1E08C9183FB86
:1024D0000EF44395041711F40C94BC120027BB278B
:1024E000A3E28C9181FB0EF401E040E0041711F0AF
:1024F0000C94A812A4E8B0E00D911C91AAE9B1E0F7
:102500004D915C91041B150BA9E1B1E00D931C9357
:10251000A9E1B1E00D911C91033151E015071CF0C8
:1025200011F00C9495120C94A812A9E1B1E00D9150
:102530001C910C3B52E015070CF402C00C94A8123D
:10254000A9E1B1E08D919C91AFE8B1E08D939C93AE
:102550000027BB27A3E28C9181FB0EF401E041E050
:10256000041711F00C94BC12A4E8B0E08D919C917A
:10257000AAE9B1E08D939C930027BB27A3E28C913D
:1025800085FB0EF401E04427A7E9B1E08C9182FBC2
:102590000EF44395041711F40C941C130027BB2769
:1025A000A3E28C9185FB0EF401E040E0041711F0EA
:1025B0000C940813A4E8B0E00D911C91ACE9B1E0D3
:1025C0004D915C91041B150BA9E1B1E00D931C9397
:1025D000A9E1B1E00D911C91033151E015071CF008
:1025E00011F00C94F5120C940813A9E1B1E00D91CF
:1025F0001C910C3B52E015070CF402C00C9408131C
:10260000A9E1B1E08D919C91A1E9B1E08D939C93FA
:102610000027BB27A3E28C9185FB0EF401E041E08B
:10262000041711F00C941C13A4E8B0E08D919C9158
:10263000ACE9B1E08D939C93BB27A3E28C9180FB26
:10264000A7E9B1E08C9185F98C93BB27A3E28C912B
:1026500082FBA7E9B1E08C9184F98C93BB27A3E2BC
:102660008C9181FBA7E9B1E08C9183F98C93BB2716
:10267000A3E28C9185FBA7E9B1E08C9182F98C9360
:102680008F918FBFFF91EF91DF91CF91BF91AF916C
:102690009F918F917F916F915F914F913F912F917A
:1026A0001F910F91BF90AF907F905F904F903F90A0
:1026B0002F901F900F9018950D911D912D913C9189
:1026C00081E0080F8827181F281F381F3C932E937E
:1026D0001E930E93089509D00E941A1400FC10D086
:1026E000089503D01ED001F8F9CF0024E89457FFD5
:1026F00002C009D0689400F80BD010F801240895A6
:1027000002D009D00895509540954F5F5F4F0895CE
:10271000E89417FF0895009510950F5F1F4F689478
:102720000895352F242FE894452B11F468940895CB
:10273000512F402F0027112780E1440F551F001F04
:10274000111F021B130B416018F4020F131F4E7F61
:102750008A9599F7089500FC05D0089530D005D0EA
:1027600001F8F9CF37D03FD00895842F952FA62FA9
:10277000B72FE894452B462B472B11F46894089506
:10278000402F512F622F732F002711272227332725
:10279000F0E2440F551F661F771F001F111F221FF5
:1027A000331F081B190B2A0B3B0B416028F4080F41
:1027B000191F2A1F3B1F4E7FFA9559F708950024D1
:1027C000E89477FF02C006D0689400F809D010F8AA
:1027D0000124089512D04F5F5F4F6F4F7F4F0895D0
:1027E000E89437FF089500951095209530950F5F78
:1027F0001F4F2F4F3F4F6894089540955095609517
:10280000709508953197F1F70895689462F80895E6
:10281000E89462F80895EF93FF93EE27E82BE92BF5
:1028200031F0E8E8F3E13197F1F70197D1F7FF9143
:10283000EF9108950F92B801469F8001479F100DB8
:10284000569F100D0F9008950F921F922F92C8015E
:10285000D901489F80014A9F90014B9F202C499F9E
:10286000100D211D321D5A9F202C589F100D211D27
:10287000321D599F200D311D689F200D311D699F0C
:10288000300D789F300D2F901F900F9008958091FC
:102890007A00806C80937A0080917A0086FDFCCF6C
:1028A000809178009091790008953DD09927112763
:1028B0008F2D880F80E8F82A802F881F08F41FEFDB
:1028C00041F08F57082F07FD04C0003240F08FEF12
:1028D00001C08827982FD82EE82EF82E09C08FE146
:1028E000801B082FF694E794D79497950A95D1F713
:1028F000112351F09095D094E094F09481E0980FDA
:102900008827D81EE81EF81E0F2DFE2CED2CD92E80
:102910000895D094E094F09491E0D90E9927E91E9F
:10292000F91E10950895D190E190F19001910895CC
:1029300021913191419151910895102F90E8FF0C10
:10294000001F0927990FF7941078652F90E8440F1E
:10295000551F5927990F4795607800380895FF0C47
:1029600090E89027110F9795F794092F0895102F4D
:10297000BD2CDE2CEF2CF02E11234AF4B094D09411
:10298000E094F0949FEFB91AD90AE90AF90A0EE126
:10299000FF2039F4FE2CED2CDB2CBB240850C2F7B1
:1029A0006BC032F00A95BB0CDD1CEE1CFF1CF9CF8E
:1029B00001D0D5CFB7FE089590E8B91611F4D0FE36
:1029C00008959FEFD91AE90AF90A09F403950895C1
:1029D000DD92ED92FD920C930895502F2D2D3E2DFA
:1029E0004F2D612F08952DEC3CEC4CEC5DE36627F8
:1029F0000FC099DFF2DFDD24EE2490E8F92E0FE31B
:102A000007C096DF05C02227332740E251E466273E
:102A1000552351F1002381F190DF71F11627005801
:102A200050580894050B18F407FD03C025C007FD96
:102A300023C0469537952795F694E794D79422D0EE
:102A4000FF202AF0DD0CEE1CFF1C015073F09D2DC1
:102A5000969548F0DD203AF4EE202AF491E0D90E64
:102A60009927E91EF91E7BCF07C09FE7092FF92A96
:102A70009FEFD92EE92E0895DD24EE24FF240027B0
:102A8000112708959F929924AA24BB2488E1D21685
:102A9000E306F40628F0D21AE30AF40A089401C007
:102AA0008894991CAA1CBB1CDD0CEE1CFF1C8A958B
:102AB00071F7D92CEA2CFB2C9F9008953EDFE1F2B0
:102AC0005038D1F21627005850580894051F12F4B8
:102AD00018F4CBCF08F0D0CF0AD0FF202AF0BB0CDF
:102AE000DD1CEE1CFF1C3BCF0F5FFBF138CF9F922C
:102AF0009924AA24BB24992788E1990CAA1CBB1C01
:102B0000DD1CEE1CFF1C30F4920EA31EB41ED91E59
:102B1000E91EF91E8A9589F79F90089509DF0DDF58
:102B2000503829F090E869270CC00AF045D017CF3B
:102B30005FE322273327442701C0FADEFEDE503848
:102B4000B1F3003899F3902F951B8BF312F434D026
:102B5000FACF983118F0222733274427983028F0ED
:102B6000232F342F44279850F9CF992329F04695E5
:102B7000379527959A95D9F7912F962742F014D03B
:102B8000B0F6F794E794D7940F5F8BF66ECF10D022
:102B900051F008F4BEDEFF2052F2DD0CEE1CFF1CEB
:102BA0000150CBF762CF68CFD20EE31EF41E08951A
:102BB000D21AE30AF40A0895DF92EF92FF920F937C
:102BC0001F93D22EE32EF42E052F162F6F915F91B7
:102BD0004F913F912F910895C89531960020089507
:102BE000FBDFD02CF9DFE02CF7DFF02CF5DF002D38
:102BF0000895F2DF202DF0DF302DEEDF402DECDFE9
:102C0000502D089507FB00680EF40F7757FB5068AE
:102C10000EF45F7707FD02C057FF05C0D216E3062A
:102C2000F406050708952D153E054F055007089534
:102C300000240D280E280F28002A0020089591E076
:102C400005C092E003C094E001C098E0C5DF0D929A
:102C50009A95E1F70895040F151F261F371F089551
:102C6000041B150B260B370B0895041715072607B1
:102C70003707089594E081918D939A95E1F708952F
:102C8000F999FECFE1BDF2BD3196089591E001C002
:102C900092E07B3751F47FB7F894F2DF8D9180BDDD
:102CA000FA9AF99A9A95C9F77FBF7727089591E024
:102CB00001C092E0E5DFF89A80B58D939A95D1F73F
:102CC000089531DE3ADE0395AAF087E1DD0CEE1CB3
:102CD000FF1C8A9589F00A95CAF7FF205AF0002454
:102CE0000D280E280F28002039F00A95DD0CEE1C67
:102CF000FF1CDAF70A9533CEBFCEBECE14DE00231A
:102D0000E2F396DF19F4B1DE0068089585E0D4D0CF
:102D1000FF0C001F04830FE70695F794E0D050687E
:102D20000DDF56DE139721E438E743ED5BEBC6DE9B
:102D300027E831ED43E15DE399D02EE03CE343EC3D
:102D40005DEB94D022E83DEA4BE25EE38FD02CEEBF
:102D500032E846E75EEB8AD020E931EE49EA5EE3ED
:102D600085D020E83FEE4FEF5EEB80D024EC3FEFC4
:102D70004FE75FE37BD02CDE139784818F5799F068
:102D80002AF4D82E0FEFE02EF02E04C0D82EEE2419
:102D9000FF240027ECDD28E132E741E35FE38EDE2C
:102DA000C7DD3497CBDE95C060DE93C0BCDD86E026
:102DB00083D005830F772BE33AEA48EB5FE37EDEAF
:102DC00007DE139741D028F4858188236AF754DE03
:102DD00080C08F778483A7DD349774DFF9DD139784
:102DE00023E632E446E357EB69DE29ED37EA4AE1B0
:102DF00059E33CD026E538E14EEA5AEB37D026E5D8
:102E00003CE84DE15CE332D02DEC37E543E65DEB89
:102E10002DD02DEE3DEF45E75EE328D028E132E7E7
:102E200041E35FEB23D05BD089DED7DDDD24EE24E8
:102E3000FF2404818FE7080F0695F794E9DD85816B
:102E4000881F08F4D7DD45C078DD8827039512F484
:102E50008894089507301AF0812F08940895FF1C74
:102E6000881F0A95E2F7812B8894089567DE60DD5C
:102E7000349724CEDDDE81F00F930F772F933F93AD
:102E80004F935F933CDF5F914F913F912F9116DEFF
:102E90008EDF8F918078082B089545DD0F93AF93D7
:102EA000BF930F772CDFFF91EF9142DD07DE7FDFCD
:102EB0008F918078082B08950FB6F8944A925A9211
:102EC000E42DF52DA42DB52D480E8827581E0FBED4
:102ED00008950FB6F894599049900FBE08955FE396
:102EE00040E83327222708950AD7A33F0000803FF8
:102EF0000080F4430000C84200000000CDCC4C3EEE
:102F000042E065420000003F00007A440000704249
:102F10000000A03F0000403F3333B33F00000040BB
:102F20000080EE43809F554B0080D4440000204138
:102F3000000040400000FA430000484300606A453A
:00000001FF
