:100000000C94340018950000189500001895000015
:10001000189500001895000018950000189500002C
:10002000189500001895000018950000189500001C
:10003000189500001895000018950000189500000C
:1000400018950000189500001895000018950000FC
:1000500018950000189500001895000018950000EC
:1000600018950000189500008FEF8DBFC0EEE6ECEC
:100070004E2E84E08EBFD4E0F4E05F2EEEEFF3E08E
:10008000A0E0B1E088278D933197E9F766248FEFE0
:100090008AB93D983C9A259A87E080937A0081E05E
:1000A0008093000100910001013011F00C949E003A
:1000B00000E010E020E030E0A1E0B1E00D931D93FE
:1000C0002D933C9340E45FE160E070E0A1E0B1E09B
:1000D0000D911D912D913C910E94AC000CF402C039
:1000E0000C949800299AEF93FF93E3E3F0E00E94C9
:1000F0009E00FF91EF912998EF93FF93E3E3F0E0E7
:100100000E949E00FF91EF91A1E0B1E00D911D9141
:100110002D913C9141E050E060E070E00E94A7002A
:10012000A1E0B1E00D931D932D933D930C946200DB
:100130008BB192E089278BB90C9452003197F1F77B
:100140000895689462F80895E89462F80895040F99
:10015000151F261F371F0895041715072607370791
:02016000089500
:00000001FF
