:100000000C94340018950000189500000C946D09AC
:10001000189500001895000018950000189500002C
:10002000189500001895000018950000189500001C
:10003000189500001895000018950000189500000C
:1000400018950000189500001895000018950000FC
:1000500018950000189500001895000018950000EC
:1000600018950000189500008FEF8DBFC0EEE6ECEC
:100070004E2E84E08EBFD4E0F4E05F2EEEEFF3E08E
:10008000A0E0B1E088278D933197E9F781E880936C
:10009000C40080E08093C50088E18093C10066249D
:1000A0008FEF8AB980E084B987E080937A0080EC92
:1000B00080937C00789480916800816080936800D0
:1000C00089E180936B0084E085BD80E084BD80E0A1
:1000D0008093800083E08093810086E08093B1006C
:1000E00080E08093B0005F9A84E085BD83E08093D8
:1000F000810086E08093B10080916E008E7F8093B6
:100100006E0080916F008E7F80936F0080917000F1
:100110008E7F80937000AFE6B1E0EEE5FDE10E94D6
:10012000720D81E080930001A9E7B1E0E2E6FDE114
:100130000E94720DE4E0F0E0BB27A0E10E94A30D55
:100140000B3252E0150711F00C94AD00A9E7B1E0B5
:10015000E0E0F0E094E00E94A40D80E090E0A3E7EE
:10016000B1E08D939C9370917A00706870937A00DF
:1001700000910001013011F00C946209AFE5B1E08B
:100180000D911C910A3550E0150780E00CF481E0D8
:100190008F93AFE5B1E00D911C91083C50E015073D
:1001A00080E014F009F081E09F91892B8F93A1E604
:1001B000B1E00D911C91013050E0150781E009F08C
:1001C00080E09F91892B882311F40C9407020E94F0
:1001D0006209ADE5B1E00D911C91093650E01507BB
:1001E0000CF402C00C944E010E9469098CE291E06B
:1001F0000E945A0B0E946209A5E0B1E0E2E6FDE12F
:100200000E94720DE5E0F1E00E94E20BE9E4F1E00A
:100210000E94E70B0E94510D18F011F00C943F0161
:100220005F9A84E690E00E945A0B5F988CE291E01E
:100230000E945A0BAFE5B1E00D911C910A3550E0D8
:1002400015071CF011F00C9427010C942D01E9E422
:10025000F1E0A5E0B1E00E94840DE6E6FDE10E9438
:10026000480DE5E0F1E00E94E20B0E94ED0CFF2753
:10027000EDE0A5E0B1E00E94840D0C940201AFE531
:10028000B1E00D911C910A3550E015070CF402C045
:100290000C944E0180ED97E00E945A0BABE5B1E063
:1002A0000D911C91013D51E015071CF011F00C94CB
:1002B0005B010C9463018BB190E889278BB984EFC3
:1002C00091E00E945A0BADE5B1E00D911C91073809
:1002D00050E0150780E014F009F081E08F93ABE562
:1002E000B1E00D911C910D3052E0150780E014F043
:1002F00009F081E09F918923882311F40C94D401A3
:10030000A5E0B1E0E2E6FDE10E94720DE5E0F1E07A
:100310000E94E20BEAE6FDE10E94480D0E94510DA9
:1003200018F011F00C94C3018BB190E889278BB9B8
:1003300089E190E00E945A0BAFE5B1E00D911C916C
:100340000A3550E015071CF011F00C94A9010C942B
:10035000AF01A5E0B1E0EAE6FDE10E94720DA5E083
:10036000B1E0E2E6FDE10E94480DE5E0F1E00E9427
:10037000E20B0E94ED0CFF27EDE0A5E0B1E00E944A
:10038000840D0C948601AFE5B1E00D911C910A3506
:1003900050E015070CF402C00C94D401AFE6B1E0B4
:1003A000EEE6FDE10E94720D5F9882E390E00E940C
:1003B0005A0B5F9A82E390E00E945A0BADE7B1E0DE
:1003C000E0E0F0E094E00E94A40DE9E7F1E00E9493
:1003D000E20BEDE7F1E00E94E70B0E94510D11F4F2
:1003E0000C940302E0E0F0E0A9E7B1E094E07BE7E1
:1003F0000E94930DE4E0F0E00BE212E0A0E1BB27E5
:100400007BE70E94920D0E94F00A0C94BE00A9E4C2
:10041000B1E0E2E7FDE10E94720DF894ADE5B1E0D4
:100420000D911C91083750E0150780E014F009F099
:1004300081E08F93ADE5B1E00D911C910A3F50E052
:10044000150780E00CF481E09F918923882311F443
:100450000C94320281E090E0A7E1B1E08D939C938F
:100460000C94380280E090E0A7E1B1E08D939C937A
:10047000ADE5B1E00D911C91093650E0150780E023
:100480000CF481E08F93ADE5B1E00D911C91023346
:1004900050E0150780E014F009F081E09F91892376
:1004A000882311F40C945C0281E090E0A9E1B1E0B2
:1004B0008D939C930C94620280E090E0A9E1B1E0FE
:1004C0008D939C9386EC806C80937C000E94960BAD
:1004D000A9E0B1E08D939C9384EC806C80937C00C8
:1004E0000E94960BABE0B1E08D939C93EBE0F1E0C2
:1004F000D190E080FF2400270E94060CADE0B1E01F
:100500000E94370CE6E7FDE10E94480DEDE0F1E0C6
:100510000E94E20B0E94DE0CFF27EDE0ADE0B1E0AF
:100520000E94840DEAE7FDE10E94480DEDE0F1E054
:100530000E94E20B0E94AD0CFF27EDE0A1E4B1E0C8
:100540000E94840DA5E4B1E0EEE7FDE10E94720D8A
:10055000E5E4F1E00E94E70BE1E4F1E00E94E20B48
:100560000E94570CFF27EDE0A5E4B1E00E94840D46
:10057000E2E8FDE10E94480DE5E4F1E00E94E20BB3
:100580000E94840EFF27EDE0A5E4B1E00E94840DF7
:10059000E6E8FDE10E94480DE5E4F1E00E94E20B8F
:1005A0000E94AD0CFF27EDE0A5E4B1E00E94840DB0
:1005B000E5E4F1E00E94E20BE9E4F1E00E94E70BE0
:1005C0000E94510D18F011F00C94E8020C94EE0208
:1005D000E5E4F1E0A9E4B1E00E94840DEAE6FDE182
:1005E0000E94480DE5E4F1E00E94E20B0E94570CE6
:1005F000FF27EDE0A1E2B1E00E94840DE1E2F1E02D
:100600000E94E70BE2E6FDE10E943F0D0E94570CBD
:10061000FF27EDE0A1E2B1E00E94840DE6E8FDE1F4
:100620000E94480DE1E2F1E00E94E20B0E94AD0C55
:10063000FF27EDE0A1E2B1E00E94840DE9E7F1E0DF
:100640000E94E70BE1E2F1E00E94E20B0E94AD0C98
:10065000FF27EDE0A1E2B1E00E94840DA7E1B1E047
:100660000D911C91013050E0150711F00C944803D6
:10067000E2E6FDE10E94480DE1E2F1E00E94E20BBA
:100680000E94AD0CFF27EDE0A1E2B1E00E94840DD5
:10069000A9E1B1E00D911C91013050E0150711F076
:1006A0000C946203EAE8FDE10E94480DE1E2F1E00A
:1006B0000E94E20B0E94AD0CFF27EDE0A1E2B1E049
:1006C0000E94840DEEE8FDE10E94480DE1E2F1E0B8
:1006D0000E94E20B0E94DE0CFF27EDE0A1E2B1E0F8
:1006E0000E94840DEEE8FDE10E94480DE1E2F1E098
:1006F0000E94E20B0E94DE0CFF27EDE0A1E2B1E0D8
:100700000E94840DA5E1B1E00D911C91013050E0F3
:10071000150711F00C94940382E090E0A5E1B1E09C
:100720008D939C930C949A0381E090E0A5E1B1E055
:100730008D939C93E2E9FDE10E94480DE1E2F1E036
:100740000E94E20B0E94570CFF27EDE0A5E2B1E00A
:100750000E94840DAFE5B1E00D911C9140E550E0A1
:10076000041B150BABE3B1E00D931C93ABE3B1E0BD
:100770000D911C9142E050E00E94690BABE3B1E0A7
:100780000D931C93ABE3B1E00D911C91043650E046
:1007900015071CF011F00C94CF030C94D50384E6DC
:1007A00090E0ABE3B1E08D939C93AFE5B1E00D91A8
:1007B0001C91043650E015070CF402C00C94500450
:1007C00081E090E0ADE2B1E08D939C938BE490E00A
:1007D000ABE3B1E08D939C93ABE5B1E00D911C913F
:1007E000013D51E015070CF402C00C940704E6E942
:1007F000FDE10E94480DE9E7F1E00E94E20B0E9452
:10080000ED0CFF27EDE0A9E7B1E00E94840DABE518
:10081000B1E00D911C91093D51E015071CF011F05C
:100820000C9414040C943704E6E9FDE10E94480D91
:10083000E9E7F1E00E94E20B0E94DE0CFF27EDE009
:10084000A9E7B1E00E94840DE9E7F1E00E94E20B24
:10085000EAE9FDE10E94480D0E94510D10F00C9450
:100860003704A9E7B1E0EAE9FDE10E94720DADE5C8
:10087000B1E00D911C91093650E015070CF402C04F
:100880000C944E04A9E7B1E0E2E6FDE10E94720D8E
:1008900080E090E0A9E1B1E08D939C930C949F04DB
:1008A00080E090E0ADE2B1E08D939C93EBE5F1E068
:1008B000D190E0808FEFE7FE8827F82E082F0E9466
:1008C000060C0E943C0CEEE9FDE10E943F0D0E94E7
:1008D000DE0CFF27EDE0ADE4B1E00E94840DE5E21F
:1008E000F1E00E94E70BEDE4F1E00E94E20B0E94D0
:1008F000AD0CFF27EDE0ADE4B1E00E94840DE2EA2B
:10090000FDE10E94480DEDE4F1E00E94E20B0E943F
:10091000570CFF27EDE0ADE4B1E00E94840DEDE45B
:10092000F1E00E94E70BE5E2F1E00E94E20B0E9499
:10093000ED0CFF27EDE0A5E2B1E00E94840DE5E2B9
:10094000F1E00E94A40BA9E2B1E0EDE0FF270E94D4
:10095000840DE9E2F1E00E94E20B0E94060C0E9485
:100960003C0CE5E2F1E00E94E20B0E94DE0CFF2766
:10097000EDE0A1E5B1E00E94840DE6E6FDE10E9414
:10098000480DE1E5F1E00E94E20B0E94AD0CFF276B
:10099000EDE0A1E5B1E00E94840D84E690E08A9349
:1009A0009A930E949C0A2296A5E5B1E00D931C93B0
:1009B000E5E5F1E0D190E0808FEFE7FE8827F82EA3
:1009C000082F0E94060CA7E5B1E00E94370CE1E574
:1009D000F1E00E94E20BE7E5F1E00E94E70B0E94E4
:1009E000510D18F011F00C94F7040C940905A9E2CC
:1009F000B1E00D911D912D913C9141E050E060E0FE
:100A000070E00E947A0DA9E2B1E00D931D932D9341
:100A10003D934AEF50E060E070E0A9E2B1E00D9153
:100A20001D912D913C910E947F0D1CF011F00C94B2
:100A30001B050C9425050AEF10E020E030E0A9E248
:100A4000B1E00D931D932D933C9345E050E060E0A1
:100A500070E0A9E2B1E00D911D912D913C910E94B1
:100A60007F0D0CF402C00C943F0505E010E020E07F
:100A700030E0A9E2B1E00D931D932D933C93ABE3DD
:100A8000B1E00D911D9117FB1EF42FEF3FEF02C057
:100A9000222733274FE550E060E070E00E94730B9F
:100AA000ADE3B1E00D931D932D933D93ADE3B1E024
:100AB0000D911D912D913C9144E650E060E070E075
:100AC0000E94FD0AADE3B1E04D935D936D937D937C
:100AD00081E090E0ABE1B1E08D939C93A9E2B1E0BD
:100AE0008D919C91ADE1B1E08D939C9301E010E07C
:100AF00020E030E0AFE2B1E00D931D932D933C93E5
:100B0000E2E9FDE10E94480DE1E2F1E00E94E20B22
:100B10000E94570CFF27EDE00E94A40BA3E3B1E075
:100B2000EDE0FF270E94840D80E090E0AFE1B1E0AE
:100B30008D939C9380E090E0A1E1B1E08D939C9334
:100B400080E090E0A3E1B1E08D939C93E5E4F1E0D7
:100B50000E94E20BE2E7FDE10E94480D0E94510D68
:100B600010F00C94B90581E090E0A1E1B1E08D9323
:100B70009C93E5E4F1E00E94E20BEFE6F1E00E94D5
:100B8000E70B0E94510D18F011F00C94C9050C945C
:100B9000CF0581E090E0A3E1B1E08D939C93789440
:100BA000A3E1B1E00D911C91013050E0150711F067
:100BB0000C94E00580E090E0A1E1B1E08D939C937E
:100BC00000E010E020E030E0A7E3B1E00D931D93DA
:100BD0002D933C93A1E1B1E00D911C91013050E0C7
:100BE000150711F00C943C070E94660900E010E024
:100BF00020E030E0A7E3B1E00D931D932D933C93EB
:100C000001E010E020E030E0A1E0B1E00D931D93A1
:100C10002D933C93A9E2B1E04D915D916D917C9152
:100C2000A1E0B1E00D911D912D913C910E947F0DAD
:100C30001CF011F00C949D06A7E3B1E00D911D91FD
:100C40002D913C9141E050E060E070E00E947A0D0F
:100C5000A7E3B1E00D931D932D933D93AFE2B1E077
:100C60004D915D916D917C91A7E3B1E00D911D9146
:100C70002D913C910E947F0D11F00C94450681E06E
:100C800090E0A5E7B1E08D939C93A3E3B1E04D9193
:100C90005D916D917C91A7E3B1E00D911D912D9136
:100CA0003C910E947F0D11F00C945C0680E090E076
:100CB000A5E7B1E08D939C93A5E7B1E00D911C9160
:100CC000003050E0150711F00C9467065F98A5E717
:100CD000B1E00D911C91013050E0150711F00C941A
:100CE0009306ADE2B1E00D911C91013050E0150783
:100CF00081E009F080E08F93AFE1B1E00D911C91AC
:100D0000013050E0150781E009F080E09F91892BC8
:100D1000882311F40C9492068BB190E889278BB943
:100D20000C9493065F9A81E090E00E945A0BA1E038
:100D3000B1E00E948D0A0C940A0601E010E020E068
:100D400030E0A1E0B1E00D931D932D933C93A9E217
:100D5000B1E04D915D916D917C91A1E0B1E00D917B
:100D60001D912D913C910E947F0D1CF011F00C946F
:100D70003A07A7E3B1E00D911D912D913C9141E01F
:100D800050E060E070E00E947A0DA7E3B1E00D93BF
:100D90001D932D933D93AFE2B1E04D915D916D9127
:100DA0007C91A7E3B1E00D911D912D913C910E94A2
:100DB0007F0D11F00C94E20681E090E0A5E7B1E030
:100DC0008D939C93A3E3B1E04D915D916D917C91E6
:100DD000A7E3B1E00D911D912D913C910E947F0DF3
:100DE00011F00C94F90680E090E0A5E7B1E08D9356
:100DF0009C93A5E7B1E00D911C91003050E01507E0
:100E000011F00C9404075F98A5E7B1E00D911C91D7
:100E1000013050E0150711F00C943007ADE2B1E05D
:100E20000D911C91013050E0150781E009F080E040
:100E30008F93AFE1B1E00D911C91013050E01507A7
:100E400081E009F080E09F91892B882311F40C94B4
:100E50002F078BB190E889278BB90C9430075F9AE4
:100E600081E090E00E945A0BA1E0B1E00E948D0A5F
:100E70000C94A7060C9460090E94660900E010E03B
:100E800020E030E0A7E3B1E00D931D932D933C9358
:100E900001E010E020E030E0A1E0B1E00D931D930F
:100EA0002D933C93A9E2B1E04D915D916D917C91C0
:100EB000A1E0B1E00D911D912D913C910E947F0D1B
:100EC0001CF011F00C945308A7E3B1E00D911D91B3
:100ED0002D913C9141E050E060E070E00E947A0D7D
:100EE000A7E3B1E00D931D932D933D93ABE1B1E0EA
:100EF0004D915D9157FB1EF46FEF7FEF02C06627A7
:100F00007727A1E0B1E00D911D912D913C910E94B8
:100F10007F0D11F00C94A407A7E1B1E00D911C9195
:100F2000013050E0150711F00C9498070E946909F0
:100F3000A9E1B1E00D911C91013050E0150711F0CD
:100F40000C94A4070E946B09ADE1B1E04D915D9155
:100F500057FB1EF46FEF7FEF02C066277727A1E0F3
:100F6000B1E00D911D912D913C910E947F0D11F0EA
:100F70000C94BC070E946609A3E1B1E00D911C919D
:100F8000013050E0150711F00C94C8070E94620967
:100F9000AFE2B1E04D915D916D917C91A7E3B1E03D
:100FA0000D911D912D913C910E947F0D11F00C949B
:100FB000DF0781E090E0A5E7B1E08D939C93A3E388
:100FC000B1E04D915D916D917C91A7E3B1E00D9100
:100FD0001D912D913C910E947F0D11F00C94F6070C
:100FE00080E090E0A5E7B1E08D939C93A5E7B1E0A8
:100FF0000D911C91003050E0150711F00C94010880
:101000005F98A5E7B1E00D911C91013050E0150704
:1010100011F00C942D08ADE2B1E00D911C9101305E
:1010200050E0150781E009F080E08F93AFE1B1E077
:101030000D911C91013050E0150781E009F080E02E
:101040009F91892B882311F40C942C088BB190E884
:1010500089278BB90C942D085F9AA7E7B1E00D9111
:101060001C91013050E0150781E009F080E08F937A
:10107000A5E1B1E00D911C91013050E0150781E030
:1010800009F080E09F918923882311F40C9449088A
:101090005F9A81E090E00E945A0BA1E0B1E00E94CB
:1010A0008D0A0C9452070E94660901E010E020E0CE
:1010B00030E0A1E0B1E00D931D932D933C93A9E2A4
:1010C000B1E04D915D916D917C91A1E0B1E00D9108
:1010D0001D912D913C910E947F0D1CF011F00C94FC
:1010E0006009A7E3B1E00D911D912D913C9141E084
:1010F00050E060E070E00E947A0DA7E3B1E00D934C
:101100001D932D933D93ABE1B1E04D915D9157FB64
:101110001EF46FEF7FEF02C066277727A1E0B1E0F2
:101120000D911D912D913C910E947F0D11F00C9419
:10113000B108A7E1B1E00D911C91013050E0150715
:1011400011F00C94A5080E946B09A9E1B1E00D9182
:101150001C91013050E0150711F00C94B1080E9469
:101160006909ADE1B1E04D915D9157FB1EF46FEF60
:101170007FEF02C066277727A1E0B1E00D911D91B6
:101180002D913C910E947F0D11F00C94C9080E9492
:101190006609A3E1B1E00D911C91013050E0150703
:1011A00011F00C94D5080E946209AFE2B1E04D91B4
:1011B0005D916D917C91A7E3B1E00D911D912D9111
:1011C0003C910E947F0D11F00C94EC0881E090E0BE
:1011D000A5E7B1E08D939C93A3E3B1E04D915D91C0
:1011E0006D917C91A7E3B1E00D911D912D913C9102
:1011F0000E947F0D11F00C94030980E090E0A5E7B8
:10120000B1E08D939C93A5E7B1E00D911C91003066
:1012100050E0150711F00C940E095F98A5E7B1E0B6
:101220000D911C91013050E0150711F00C943A0912
:10123000ADE2B1E00D911C91013050E0150781E065
:1012400009F080E08F93AFE1B1E00D911C91013086
:1012500050E0150781E009F080E09F91892B8823F9
:1012600011F40C9439098BB190E889278BB90C944F
:101270003A095F9AA7E7B1E00D911C91013050E067
:10128000150781E009F080E08F93A5E1B1E00D91B1
:101290001C91013050E0150781E009F080E09F913A
:1012A0008923882311F40C9456095F9A81E090E019
:1012B0000E945A0BA1E0B1E00E948D0A0C945F08D5
:1012C0000C94B8005B985C985D9808955B9A5C9A62
:1012D00008955D9A08955D9808950F921F922F9238
:1012E0003F924F925F927F92AF92BF920F931F9364
:1012F0002F933F934F935F936F937F938F939F931E
:10130000AF93BF93CF93DF93EF93FF938FB78F93F9
:101310000027BB27A3E28C9184FB0EF401E0442755
:10132000AEE6B1E08C9186FB0EF44395041711F400
:101330000C94BD090027BB27A3E28C9184FB0EF41B
:1013400001E040E0041711F00C94AE09A6E4B0E00F
:101350008C91ADE5B1E08D9388278C930027BB2756
:10136000A3E28C9184FB0EF401E041E0041711F03C
:101370000C94BD0980E0809346000027BB27A3E2C0
:101380008C9183FB0EF401E04427AEE6B1E08C9132
:1013900085FB0EF44395041711F40C940C0A0027F6
:1013A000BB27A3E28C9183FB0EF401E040E004171D
:1013B00011F00C94FA09A4E8B0E00D911C910A38E0
:1013C00052E0150710F00C94FA09A4E8B0E00D9172
:1013D0001C910C3251E0150718F011F00C94F20931
:1013E0000C94FA09A4E8B0E08D919C91ABE5B1E0D2
:1013F0008D939C930027BB27A3E28C9183FB0EF473
:1014000001E041E0041711F00C940C0A80E090E038
:1014100090938500809384000027BB27A3E28C91E2
:1014200080FB0EF401E04427AEE6B1E08C9187FB2F
:101430000EF44395041711F40C94560A0027BB27A9
:10144000A3E28C9180FB0EF401E040E0041711F060
:101450000C94470A0091B200083C10F00C94470A23
:101460000091B200023318F011F00C94390A0C9478
:10147000470AA2EBB0E08C91AFE5B1E08D938827ED
:101480008C9380E090E0A3E7B1E08D939C930027DC
:10149000BB27A3E28C9180FB0EF401E041E004172E
:1014A00011F00C94560A80E08093B200BB27A3E2AF
:1014B0008C9180FBAEE6B1E08C9187F98C93BB27D1
:1014C000A3E28C9184FBAEE6B1E08C9186F98C931B
:1014D000BB27A3E28C9183FBAEE6B1E08C9185F94A
:1014E0008C938F918FBFFF91EF91DF91CF91BF913F
:1014F000AF919F918F917F916F915F914F913F91AC
:101500002F911F910F91BF90AF907F905F904F9060
:101510003F902F901F900F9018950D911D912D9138
:101520003C9181E0080F8827181F281F381F3C9323
:101530002E931E930E930895409181015091820144
:101540000DE815E30E94B00A49E156E3040F151FA8
:101550000093810110938201498158810C94D60A2D
:1015600009D00E94690B00FC10D0089503D01ED052
:1015700001F8F9CF0024E89457FF02C009D068941D
:1015800000F80BD010F80124089502D009D0089576
:10159000509540954F5F5F4F0895E89417FF089569
:1015A000009510950F5F1F4F68940895352F242FD5
:1015B000E894452B11F468940895512F402F00278B
:1015C000112780E1440F551F001F111F021B130B31
:1015D000416018F4020F131F4E7F8A9599F7089502
:1015E0008DE001D08AE00090C00005FEFCCF809322
:1015F000C600089500FC05D0089530D005D001F84C
:10160000F9CF37D03FD00895842F952FA62FB72F2D
:10161000E894452B462B472B11F468940895402FEE
:10162000512F622F732F0027112722273327F0E233
:10163000440F551F661F771F001F111F221F331FE6
:10164000081B190B2A0B3B0B416028F4080F191FCC
:101650002A1F3B1F4E7FFA9559F708950024E894FE
:1016600077FF02C006D0689400F809D010F8012472
:10167000089512D04F5F5F4F6F4F7F4F0895E894EA
:1016800037FF089500951095209530950F5F1F4FF7
:101690002F4F3F4F689408954095509560957095F1
:1016A00008953197F1F70895689462F80895E894E1
:1016B00062F80895EF93FF93EE27E82BE92B31F0C2
:1016C000E8E8F3E13197F1F70197D1F7FF91EF9156
:1016D00008950F92B801469F8001479F100D569FB5
:1016E000100D0F9008950F921F922F92C801D901EB
:1016F000489F80014A9F90014B9F202C499F100DCD
:10170000211D321D5A9F202C589F100D211D321D66
:10171000599F200D311D689F200D311D699F300D8F
:10172000789F300D2F901F900F90089580917A0030
:10173000806C80937A0080917A0086FDFCCF809146
:1017400078009091790008953DD0992711278F2D29
:10175000880F80E8F82A802F881F08F41FEF41F0D7
:101760008F57082F07FD04C0003240F08FEF01C0F3
:101770008827982FD82EE82EF82E09C08FE1801BDD
:10178000082FF694E794D79497950A95D1F71123EB
:1017900051F09095D094E094F09481E0980F8827D0
:1017A000D81EE81EF81E0F2DFE2CED2CD92E089504
:1017B000D094E094F09491E0D90E9927E91EF91E97
:1017C00010950895D190E190F190019108952191A3
:1017D0003191419151910895102F90E8FF0C001F15
:1017E0000927990FF7941078652F90E8440F551F3B
:1017F0005927990F4795607800380895FF0C90E8B5
:101800009027110F9795F794092F0895102FBD2C4D
:10181000DE2CEF2CF02E11234AF4B094D094E094F7
:10182000F0949FEFB91AD90AE90AF90A0EE1FF20EC
:1018300039F4FE2CED2CDB2CBB240850C2F76BC016
:1018400032F00A95BB0CDD1CEE1CFF1CF9CF01D059
:10185000D5CFB7FE089590E8B91611F4D0FE0895DB
:101860009FEFD91AE90AF90A09F403950895DD9260
:10187000ED92FD920C930895502F2D2D3E2D4F2D5E
:10188000612F08952DEC3CEC4CEC5DE366270FC016
:1018900099DFF2DFDD24EE2490E8F92E0FE307C094
:1018A00096DF05C02227332740E251E466275523FF
:1018B00051F1002381F190DF71F116270058505843
:1018C0000894050B18F407FD03C025C007FD23C0CD
:1018D000469537952795F694E794D79422D0FF2024
:1018E0002AF0DD0CEE1CFF1C015073F09D2D969527
:1018F00048F0DD203AF4EE202AF491E0D90E992741
:10190000E91EF91E7BCF07C09FE7092FF92A9FEF39
:10191000D92EE92E0895DD24EE24FF240027112777
:1019200008959F929924AA24BB2488E1D216E30645
:10193000F40628F0D21AE30AF40A089401C0889445
:10194000991CAA1CBB1CDD0CEE1CFF1C8A9571F7B0
:10195000D92CEA2CFB2C9F9008953EDFE1F2503801
:10196000D1F21627005850580894051F12F418F4A5
:10197000CBCF08F0D0CF0AD0FF202AF0BB0CDD1C63
:10198000EE1CFF1C3BCF0F5FFBF138CF9F929924D9
:10199000AA24BB24992788E1990CAA1CBB1CDD1C36
:1019A000EE1CFF1C30F4920EA31EB41ED91EE91EBD
:1019B000F91E8A9589F79F90089509DF0DDF503849
:1019C00029F090E869270CC00AF045D017CF5FE3F3
:1019D00022273327442701C0FADEFEDE5038B1F358
:1019E000003899F3902F951B8BF312F434D0FACF73
:1019F000983118F0222733274427983028F0232FD6
:101A0000342F44279850F9CF992329F046953795DC
:101A100027959A95D9F7912F962742F014D0B0F6D2
:101A2000F794E794D7940F5F8BF66ECF10D051F0F8
:101A300008F4BEDEFF2052F2DD0CEE1CFF1C01504C
:101A4000CBF762CF68CFD20EE31EF41E0895D21AF0
:101A5000E30AF40A0895DF92EF92FF920F931F9327
:101A6000D22EE32EF42E052F162F6F915F914F91FA
:101A70003F912F910895C895319600200895FBDF7E
:101A8000D02CF9DFE02CF7DFF02CF5DF002D0895E6
:101A9000F2DF202DF0DF302DEEDF402DECDF502D7A
:101AA000089507FB00680EF40F7757FB50680EF49B
:101AB0005F7707FD02C057FF05C0D216E306F406A4
:101AC000050708952D153E054F055007089500247C
:101AD0000D280E280F28002A0020089591E005C047
:101AE00092E003C094E001C098E0C5DF0D929A95A2
:101AF000E1F70895040F151F261F371F08950417D7
:101B0000150726073707089594E081918D939A95DC
:101B1000E1F70895F999FECFE1BDF2BD3196089540
:101B200091E001C092E07B3751F47FB7F894F2DF87
:101B30008D9180BDFA9AF99A9A95C9F77FBF772758
:101B4000089591E001C092E0E5DFF89A80B58D93A9
:101B50009A95D1F7089536DE3FDE0395AAF087E126
:101B6000DD0CEE1CFF1C8A9589F00A95CAF7FF2050
:101B70005AF000240D280E280F28002039F00A956D
:101B8000DD0CEE1CFF1CDAF70A9538CEC4CEC3CEAE
:101B900019DE0023E2F39BDF19F4B6DE0068089536
:101BA00085E0C5D0FF0C001F04830FE70695F7946E
:101BB000D1D0506812DF5BDE139721E438E743EDA4
:101BC0005BEBCBDE27E831ED43E15DE399D02EE01E
:101BD0003CE343EC5DEB94D022E83DEA4BE25EE36C
:101BE0008FD02CEE32E846E75EEB8AD020E931EE6A
:101BF00049EA5EE385D020E83FEE4FEF5EEB80D010
:101C000024EC3FEF4FE75FE37BD031DE1397848115
:101C10008F5799F02AF4D82E0FEFE02EF02E04C043
:101C2000D82EEE24FF240027F1DD28E132E741E33E
:101C30005FE393DECCDD3497D0DE86C065DE84C002
:101C4000C1DD86E074D005830F772BE33AEA48EBD9
:101C50005FE383DE0CDE139741D028F4858188236F
:101C60006AF759DE71C08F778483ACDD349774DFF7
:101C7000FEDD139723E632E446E357EB6EDE29EDF3
:101C800037EA4AE159E33CD026E538E14EEA5AEB1F
:101C900037D026E53CE84DE15CE332D02DEC37E56A
:101CA00043E65DEB2DD02DEE3DEF45E75EE328D01A
:101CB00028E132E741E35FEB23D04CD08EDEDCDD60
:101CC000DD24EE24FF2404818FE7080F0695F794A6
:101CD000EEDD8581881F08F4DCDD36C07DDD8827D8
:101CE000039512F48894089507301AF0812F089410
:101CF0000895FF1C881F0A95E2F7812B88940895A8
:101D00006CDE65DD349729CEE2DE81F00F930F772C
:101D10002F933F934F935F933CDF5F914F913F91A0
:101D20002F911BDE8EDF8F918078082B08950FB6E0
:101D3000F8944A925A92E42DF52DA42DB52D480E13
:101D40008827581E0FBE08950FB6F89459904990F1
:101D50000FBE08955FE340E833272227089500402F
:101D6000B5440000803F0000C842000070420000FF
:101D70006144000000000000FF4331082C3D0AD7F9
:101D8000CC410000003F00007A44A4707D3F295CF4
:101D90008F3D000000406F12033B0AD7233D0080B7
:061DA000EA430000964436
:00000001FF
