:100000000C94340018950000189500000C94F5111C
:10001000189500001895000018950000189500002C
:10002000189500001895000018950000189500001C
:10003000189500001895000018950000189500000C
:1000400018950000189500001895000018950000FC
:1000500018950000189500001895000018950000EC
:1000600018950000189500008FEF8DBFC0EEE6ECEC
:100070004E2E84E08EBFD4E0F4E05F2EEEEFF3E08E
:10008000A0E0B1E088278D933197E9F781E880936C
:10009000C40080E08093C50088E18093C10066249D
:1000A0008FEF8AB980E084B9389887E080937A002E
:1000B00080E480937C0078948091680081608093D4
:1000C000680089E380936B0084E085BD80E084BD97
:1000D00080E08093800083E08093810086E08093BD
:1000E000B10080E08093B0005D9A84E085BD83E03C
:1000F0008093810086E08093B10080916E008E7FB6
:1001000080936E0080916F008E7F80936F0080914E
:1001100070008E7F8093700081E08093000180E00A
:1001200090E0AFE1B1E08D939C93A1E8B1E0E6E50A
:10013000FFE20E945A1681E090E0A6EBB1E08D93B9
:100140009C9380E090E0A8EBB1E08D939C93AAEAA9
:10015000B1E0EAE5FFE20E945A1607E210E020E073
:1001600030E0A1E5B1E00D931D932D933C93A1E503
:10017000B1E00D911D912D913C91A5E5B1E00D935C
:100180001D932D933C9381E090E0AFE4B1E08D931B
:100190009C9306E410E020E030E0A2EAB1E00D9389
:1001A0001D932D933C93A2EBB1E0EEE5FFE20E949C
:1001B0005A160E94E211E0E1F0E0BB27A0E10E94A4
:1001C00090160B3252E0150711F00C941E01AAEAAA
:1001D000B1E0E0E0F0E094E00E949116AFE4B1E01D
:1001E0000D911C91013050E0150711F00C94FF00A7
:1001F000E4E0F0E0A1E5B1E094E00E949116AFE404
:10020000B1E00D911C91013050E0150711F00C94F4
:100210001001E4E0F0E0A5E5B1E094E00E94911661
:10022000ECE0F0E0A2EAB1E094E00E949116A2EBCB
:10023000B1E0E8E0F0E094E00E94911670917A005D
:10024000706870937A0001E010E020E030E0A1E0F7
:10025000B1E00D931D932D933C9344E150E060E099
:1002600070E0A1E0B1E00D911D912D913C910E94B3
:100270006C161CF011F00C944B018BB190E28927A5
:100280008BB984E190E00E944214A1E0B1E00E94A9
:1002900093130C942D0100910001013011F00C9486
:1002A0006911A5E9B1E00D911C910A3550E01507DF
:1002B00080E00CF481E08F93A5E9B1E00D911C91F1
:1002C000083C50E0150780E014F009F081E09F91B0
:1002D000892B8F93A8E9B1E00D911C91013050E07A
:1002E000150781E009F080E09F91892B882311F4A4
:1002F0000C946F040E94E211AFE8B1E00D911C91E3
:10030000043E51E015071CF011F00C9489010C9487
:100310008D0188EC90E00E944214AFE8B1E00D91AD
:100320001C91063D51E015070CF402C00C949C0191
:1003300088EC90E00E944214A3E9B1E00D911C9179
:10034000093650E0150780E00CF481E08F93A3E9B3
:10035000B1E00D911C91003050E0150780E014F0E1
:1003600009F081E09F9189238F93AFE1B1E00D9176
:100370001C91003050E0150781E009F080E09F916A
:100380008923882311F40C941C025D9884EF91E07A
:100390000E944214A5E0B1E0EAE5FFE20E945A168D
:1003A000E5E0F1E00E94CA14E9E7F1E00E94CF1411
:1003B0000E94391618F011F00C940D025D9A84E633
:1003C00090E00E9442145D988CE291E00E944214F9
:1003D000A5E9B1E00D911C910A3550E015071CF01C
:1003E00011F00C94F5010C94FB01E9E7F1E0A5E0B4
:1003F000B1E00E947116E2E6FFE20E943016E5E0ED
:10040000F1E00E94CA140E94D515FF27EDE0A5E097
:10041000B1E00E9471160C94D001A5E9B1E00D91F4
:100420001C910A3550E015070CF402C00C941C0214
:1004300080ED97E00E944214A3E9B1E00D911C9178
:100440000D3750E0150780E014F009F081E08F933C
:10045000AFE8B1E00D911C91033052E0150780E048
:1004600014F009F081E09F918923882311F40C9402
:10047000B50288E795E00E944214A3E9B1E00D912E
:100480001C910D3750E0150780E014F009F081E071
:100490008F93AFE8B1E00D911C91033052E0150746
:1004A00080E014F009F081E09F918923882311F402
:1004B0000C94B502AFE1B1E00D911C91003050E019
:1004C000150711F00C94820281E090E0AFE1B1E0F9
:1004D0008D939C9384E4806480937C000E947E14BE
:1004E000ABE0B1E08D939C93EBE0F1E0D190E08044
:1004F000FF2400270E94EE14A2EBB1E00E941F151A
:100500000C94B10280E090E0AFE1B1E08D939C9358
:10051000E0E0F0E0AAEAB1E094E07BE70E94801618
:10052000E4E0F0E0A1E5B1E094E07BE70E94801612
:10053000ECE0F0E0A2EAB1E094E07BE70E948016F4
:10054000E8E0F0E0A2EBB1E094E07BE70E948016E7
:10055000E0E1F0E00BE212E0A0E1BB277BE70E94C4
:100560007F1684EF91E00E944214A3E9B1E00D915F
:100570001C91093650E0150780E00CF481E08F9360
:10058000AFE8B1E00D911C91033052E0150780E017
:1005900014F009F081E09F9189238F93AFE1B1E0DE
:1005A0000D911C91013050E0150781E009F080E0C9
:1005B0009F918923882311F40C94A50388E795E083
:1005C0000E944214A3E9B1E00D911C91093650E05C
:1005D000150780E00CF481E08F93AFE8B1E00D9156
:1005E0001C91033052E0150780E014F009F081E01F
:1005F0009F9189238F93AFE1B1E00D911C91013060
:1006000050E0150781E009F080E09F91892388235D
:1006100011F40C94450386E4806480937C000E946E
:100620007E14A2EAB1E08D939D9388278D938C93DD
:1006300001E010E020E030E0A1E0B1E00D931D9377
:100640002D933C9346E450E060E070E0A1E0B1E01F
:100650000D911D912D913C910E946C161CF011F092
:100660000C9440038BB190E289278BB984E190E030
:100670000E944214A1E0B1E00E9493130C94220363
:100680005D9888EE93E00E944214A3E9B1E00D91D9
:100690001C91093650E0150780E00CF481E08F933F
:1006A000AFE8B1E00D911C91033052E0150780E0F6
:1006B00014F009F081E09F9189238F93AFE1B1E0BD
:1006C0000D911C91013050E0150781E009F080E0A8
:1006D0009F918923882311F40C94A50300E010E076
:1006E00020E030E0A2EAB1E00D931D932D933C93FE
:1006F00001E010E020E030E0A1E0B1E00D931D93B7
:100700002D933C9346E450E060E070E0A1E0B1E05E
:100710000D911D912D913C910E946C161CF011F0D1
:100720000C94A0038BB190E289278BB984E190E00F
:100730000E944214A1E0B1E00E9493130C94820342
:100740005D9888EE93E00E944214A3E9B1E00D9118
:100750001C91093650E0150780E00CF481E08F937E
:10076000AFE8B1E00D911C91033B51E0150780E02B
:100770000CF481E09F9189238F93AFE1B1E00D915B
:100780001C91013050E0150781E009F080E09F9155
:100790008923882311F40C942C0488E795E00E94A7
:1007A0004214A3E9B1E00D911C91093650E0150700
:1007B00080E00CF481E08F93AFE8B1E00D911C91E3
:1007C000033B51E0150780E00CF481E09F91892301
:1007D0008F93AFE1B1E00D911C91013050E015070E
:1007E00081E009F080E09F918923882311F40C9423
:1007F0002C04AAEAB1E0EAE5FFE20E945A1601E001
:1008000010E020E030E0A1E0B1E00D931D932D93C6
:100810003C9346E450E060E070E0A1E0B1E00D916F
:100820001D912D913C910E946C161CF011F00C94BE
:1008300027048BB190E289278BB984E190E00E9474
:100840004214A1E0B1E00E9493130C9409045D9856
:1008500088EE93E00E9442145D9882E390E00E944B
:100860004214AFE1B1E00D911C91013050E0150749
:1008700011F00C94680401E010E020E030E0A1E009
:10088000B1E00D931D932D933C934AE050E060E05E
:1008900070E0A1E0B1E00D911D912D913C910E947D
:1008A0006C161CF011F00C9463048EE190E00E9431
:1008B00042148BB190E289278BB9A1E0B1E00E948C
:1008C00093130C9445045D9886E990E00E944214CD
:1008D0005D9A82E390E00E9442140C945101A5E1DC
:1008E000B1E00D911D912D913C9141E050E060E00F
:1008F00070E00E946216A5E1B1E00D931D932D9367
:100900003D9344E650E060E070E0A5E1B1E00D9178
:100910001D912D913C910E946C161CF011F00C94CD
:1009200093040C949D0404E610E020E030E0A5E17F
:10093000B1E00D931D932D933C9345E050E060E0B2
:1009400070E0A5E1B1E00D911D912D913C910E94C7
:100950006C161CF011F00C94AF040C94B50480E0FC
:1009600090E0A5E9B1E08D939C93A9E7B1E0E6E6BC
:10097000FFE20E945A16F894A3E9B1E00D911C9190
:100980000D3750E0150780E014F009F081E08F93F7
:10099000A3E9B1E00D911C910A3F50E0150780E0FA
:1009A0000CF481E09F918923882311F40C94E004D6
:1009B00081E090E0A3E2B1E08D939C930C94E60477
:1009C00080E090E0A3E2B1E08D939C93A3E9B1E0D5
:1009D0000D911C91043650E0150780E00CF481E085
:1009E0008F93A3E9B1E00D911C91023350E01507FC
:1009F00080E014F009F081E09F918923882311F4AD
:100A00000C940A0581E090E0A5E2B1E08D939C93FF
:100A10000C94100580E090E0A5E2B1E08D939C93EA
:100A200080E090E0ABE2B1E08D939C9380E090E0B9
:100A3000A0EAB1E08D939C93A2EAB1E00D911D91E3
:100A40002D913C9145E550E060E070E00E945B1420
:100A5000A6EAB1E00D931D932D933D93A6EAB1E074
:100A60000D911D912D913C9144E650E060E070E0C5
:100A70000E94E513A6EAB1E04D935D936D937D93DB
:100A800086E4806480937C000E947E14A9E0B1E03B
:100A90008D939C93A6EAB1E04D915D916D917C910F
:100AA000A9E0B1E00D911C91222733270E946C161A
:100AB0000CF402C00C94620581E090E0A0EAB1E081
:100AC0008D939C9380E090E0A0EAB1E08D939C939D
:100AD00084E4806480937C000E947E14ABE0B1E0EB
:100AE0008D939C93EBE0F1E0D190E080FF24002710
:100AF0000E94EE14ADE0B1E00E941F15E2EBF1E0C0
:100B00000E94CF14EDE0F1E00E94CA140E94C615C5
:100B1000FF27EDE0ADE0B1E00E947116EAE6FFE2EA
:100B20000E943016EDE0F1E00E94CA140E94951573
:100B3000FF27EDE0A1E7B1E00E947116A5E7B1E063
:100B4000EEE6FFE20E945A16E5E7F1E00E94CF14BC
:100B5000E1E7F1E00E94CA140E943F15FF27EDE093
:100B6000A5E7B1E00E947116E2E7FFE20E943016AD
:100B7000E5E7F1E00E94CA140E947117FF27EDE03B
:100B8000A5E7B1E00E947116E6E7FFE20E94301689
:100B9000E5E7F1E00E94CA140E949515FF27EDE0F9
:100BA000A5E7B1E00E947116E5E7F1E00E94CA14E2
:100BB000E9E7F1E00E94CF140E94391618F011F015
:100BC0000C94E4050C94EA05E5E7F1E0A9E7B1E04F
:100BD0000E947116EAE7FFE20E943016E5E7F1E0B5
:100BE0000E94CA140E943F15FF27EDE0ADE2B1E07C
:100BF0000E947116EDE2F1E00E94CF14EAE5FFE2F7
:100C00000E9427160E943F15FF27EDE0ADE2B1E0FC
:100C10000E947116E6E7FFE20E943016EDE2F1E075
:100C20000E94CA140E949515FF27EDE0ADE2B1E0E5
:100C30000E947116EAEAF1E00E94CF14EDE2F1E0C1
:100C40000E94CA140E949515FF27EDE0ADE2B1E0C5
:100C50000E947116A1E2B1E00D911C91013050E0AB
:100C6000150711F00C943C0682E090E0A1E2B1E09F
:100C70008D939C930C94420681E090E0A1E2B1E058
:100C80008D939C93A6EBB1E00D911C91013050E047
:100C9000150711F00C944E060C946607ADE5B1E013
:100CA0000D911C91013050E0150711F00C94600675
:100CB00080E090E0ADE5B1E08D939C930C946607E5
:100CC00080E090E0ADE5B1E08D939C93A5E5B1E0C7
:100CD0000D911D912D913C91A1E5B1E00D931D93D6
:100CE0002D933C93A1E9B1E00D911C91033052E0AA
:100CF00015071CF011F00C947F060C94C606002713
:100D0000A7E9B1E08C9187FB0EF401E040E0041705
:100D100011F00C94A106EEE7FFE20E943016EDE21E
:100D2000F1E00E94CA140E949515FF27EDE0ADE2A4
:100D3000B1E00E94711681E090E0ADE5B1E08D93E5
:100D40009C93A1E5B1E00D911D912D913C9149E15C
:100D500050E060E070E00E946716A1E5B1E00D93FD
:100D60001D932D933D938091970180688093970107
:100D700081E090E0A3E2B1E08D939C9380E090E06D
:100D8000A5E2B1E08D939C930C94ED060027A7E9B2
:100D9000B1E08C9187FB0EF401E041E0041711F003
:100DA0000C94E806E2E8FFE20E943016EDE2F1E082
:100DB0000E94CA140E949515FF27EDE0ADE2B1E054
:100DC0000E94711681E090E0ADE5B1E08D939C93B7
:100DD000809197018F7780939701A1E9B1E00D9100
:100DE0001C91033B51E015070CF402C00C943F0723
:100DF0000027A7E9B1E08C9186FB0EF401E040E00A
:100E0000041711F00C941A07E2E8FFE20E94301672
:100E1000EDE2F1E00E94CA140E949515FF27EDE073
:100E2000ADE2B1E00E94711681E090E0ADE5B1E085
:100E30008D939C93A1E5B1E00D911D912D913C9175
:100E400049E150E060E070E00E946216A1E5B1E087
:100E50000D931D932D933D93809197018064809312
:100E6000970181E090E0A3E2B1E08D939C9380E054
:100E700090E0A5E2B1E08D939C930C946607002767
:100E8000A7E9B1E08C9186FB0EF401E041E0041784
:100E900011F00C946107EEE7FFE20E943016EDE2DC
:100EA000F1E00E94CA140E949515FF27EDE0ADE223
:100EB000B1E00E94711681E090E0ADE5B1E08D9364
:100EC0009C93809197018F7B80939701A3E2B1E07F
:100ED0000D911C91013050E0150711F00C94800722
:100EE000EAE5FFE20E943016EDE2F1E00E94CA144A
:100EF0000E949515FF27EDE0ADE2B1E00E9471166A
:100F0000A5E2B1E00D911C91013050E0150711F000
:100F10000C949A07E6E8FFE20E943016EDE2F1E059
:100F20000E94CA140E949515FF27EDE0ADE2B1E0E2
:100F30000E947116EAE8FFE20E943016EDE2F1E04D
:100F40000E94CA140E94C615FF27EDE0ADE2B1E091
:100F50000E94711641E050E060E070E0A1E5B1E070
:100F60000D911D912D913C910E946C160CF402C0C4
:100F70000C94CC07A1E5B1E00D911D912D913C9110
:100F800044E650E060E070E00E946216A1E5B1E046
:100F90000D931D932D933D9344E650E060E070E087
:100FA000A1E5B1E00D911D912D913C910E946C162F
:100FB0001CF011F00C94DE070C94F007A1E5B1E0F1
:100FC0000D911D912D913C9144E650E060E070E060
:100FD0000E946716A1E5B1E00D931D932D933D93FB
:100FE000EEE8FFE20E943016EDE2F1E00E94CA1442
:100FF0000E943F15FF27EDE0A5E3B1E00E947116C6
:10100000A5E9B1E00D911C914AE550E0041B150BD8
:10101000AFE5B1E00D931C93AFE5B1E00D911C91EC
:1010200042E050E00E945114AFE5B1E00D931C93F3
:10103000AFE5B1E00D911C91043650E015071CF0AE
:1010400011F00C9425080C942B0884E690E0AFE591
:10105000B1E08D939C9380E090E0ADE3B1E08D939F
:101060009C93AFE1B1E00D911C91013050E0150768
:1010700081E009F080E08F93A3E2B1E00D911C9133
:10108000003050E0150781E009F080E09F9189234E
:101090008F93A5E2B1E00D911C91003050E015074F
:1010A00081E009F080E09F9189238F93AFE5B1E063
:1010B0000D911C91023350E0150780E00CF481E0A3
:1010C0009F918923882311F40C94E90881E090E032
:1010D000ADE3B1E08D939C9381E090E0ABE2B1E0B1
:1010E0008D939C93AFE8B1E00D911C91043E51E0CB
:1010F000150780E014F009F081E08F93AFE8B1E0CC
:101100000D911C91063D51E0150780E00CF481E043
:101110009F91892B882311F40C94E90880E090E0DA
:10112000ABE2B1E08D939C93EFE8F1E0D190E080E9
:101130008FEFE7FE8827F82E082F0E94EE140E94FA
:101140002415E2E9FFE20E9427160E94C615FF2738
:10115000EDE0ADE7B1E00E947116E5E3F1E00E9439
:10116000CF14EDE7F1E00E94CA140E949515FF2705
:10117000EDE0ADE7B1E00E947116EDE7F1E0A1E826
:10118000B1E00E948417FF27EDE0ADE7B1E00E94D7
:101190007116E6E9FFE20E943016EDE7F1E00E94E9
:1011A000CA140E943F15FF27EDE0ADE7B1E00E94B1
:1011B0007116EDE7F1E00E94CF14EAEAF1E00E9437
:1011C000CA140E94D515FF27EDE0AAEAB1E00E94FB
:1011D0007116AFE1B1E00D911C91013050E015079F
:1011E00081E009F080E08F93A3E2B1E00D911C91C2
:1011F000003050E0150781E009F080E09F918923DD
:101200008F93A5E2B1E00D911C91003050E01507DD
:1012100081E009F080E09F9189238F93AFE5B1E0F1
:101220000D911C91023350E0150780E00CF081E035
:101230009F918923882311F40C94BA0981E090E0EE
:10124000ADE3B1E08D939C9380E090E0ABE2B1E040
:101250008D939C93AFE8B1E00D911C91063D51E058
:1012600015070CF402C00C944D09A1E5B1E00D91F5
:101270001D912D913C9141E050E060E070E00E94B2
:101280006216A1E5B1E00D931D932D933D9381E08E
:1012900090E0ABE2B1E08D939C93AFE8B1E00D91AB
:1012A0001C91043E51E015071CF011F00C945A09F2
:1012B0000C947209A1E5B1E00D911D912D913C9125
:1012C00041E050E060E070E00E946716A1E5B1E007
:1012D0000D931D932D933D9381E090E0ABE2B1E03F
:1012E0008D939C9341E050E060E070E0A1E5B1E0B7
:1012F0000D911D912D913C910E946C160CF402C031
:101300000C948C0904E610E020E030E0A1E5B1E0A7
:101310000D931D932D933C9344E650E060E070E004
:10132000A1E5B1E00D911D912D913C910E946C16AB
:101330001CF011F00C949E090C94A80901E010E037
:1013400020E030E0A1E5B1E00D931D932D933C9397
:1013500080E090E0A5E2B1E08D939C93A1E5B1E03F
:101360000D911D912D913C91A5E5B1E00D931D933B
:101370002D933C93ADE3B1E00D911C91003050E012
:10138000150711F00C94350AAFE8B1E00D911C91EE
:10139000043E51E0150780E014F009F081E08F93DE
:1013A000AFE8B1E00D911C91063D51E0150780E0DA
:1013B0000CF481E09F91892B882311F40C94350A59
:1013C000EFE8F1E0D190E0808FEFE7FE8827F82E7C
:1013D000082F0E94EE140E942415E2E9FFE20E9409
:1013E00027160E94C615FF27EDE0ADE7B1E00E9489
:1013F0007116E5E3F1E00E94CF14EDE7F1E00E9401
:10140000CA140E949515FF27EDE0ADE7B1E00E94F8
:101410007116EDE7F1E0A1E8B1E00E948417FF2723
:10142000EDE0ADE7B1E00E947116EAE9FFE20E944B
:101430003016EDE7F1E00E94CA140E943F15FF2725
:10144000EDE0ADE7B1E00E947116EDE7F1E00E943A
:10145000CF14E5E3F1E00E94CA140E94D515FF27DE
:10146000EDE0A5E3B1E00E947116AFE1B1E00D91AE
:101470001C91013050E0150711F00C94450A88E2E8
:1014800090E0AFE5B1E08D939C93E5E3F1E00E943D
:101490008C14A9E3B1E0EDE0FF270E947116E9E3A7
:1014A000F1E00E94CA140E94EE140E942415E5E3A4
:1014B000F1E00E94CA140E94C615FF27EDE0A5E8DE
:1014C000B1E00E947116EEE9FFE20E943016E5E8F5
:1014D000F1E00E94CA140E949515FF27EDE0A5E8EF
:1014E000B1E00E947116A1E1B1E0EAE5FFE20E94DD
:1014F0005A16E1E1F1E00E94CA14E5E8F1E00E9429
:10150000CF140E94391618F011F00C94A30AEF932F
:10151000FF93EBEAF0E00E943914FF91EF91A1E113
:10152000B1E0EAE5FFE20E943016E1E1F1E00E945D
:10153000CA140E94D515FF27EDE0A1E1B1E00E9499
:1015400071160C94790A44EF51E060E070E0A9E371
:10155000B1E00D911D912D913C910E946C161CF0F3
:1015600011F00C94B50A0C94BF0A04EF11E020E0CE
:1015700030E0A9E3B1E00D931D932D933C9345E03A
:1015800050E060E070E0A9E3B1E00D911D912D9174
:101590003C910E946C160CF402C00C94D90A05E030
:1015A00010E020E030E0A9E3B1E00D931D932D930E
:1015B0003C93EEE8FFE20E943016E9E3F1E00E947E
:1015C000CA140E94EE140E949515FF27EDE0ADE2CB
:1015D000B1E00E947116EDE2F1E00E948C14A1E3EB
:1015E000B1E0EDE0FF270E947116E1E5F1E00E9415
:1015F000CA140E94EE140E942415EDE2F1E00E944C
:10160000CA140E949515FF27EDE00E948C14A7E4F0
:10161000B1E0EDE0FF270E947116A7E4B1E00D9163
:101620001D912D913C9144E650E060E070E00E94F5
:10163000E513A7E4B1E04D935D936D937D93E2EAEA
:10164000FFE20E943016EDE2F1E00E94CA140E940F
:101650003F15FF27EDE00E948C14ABE4B1E0EDE014
:10166000FF270E947116ABE4B1E00D911D912D9101
:101670003C91A7E4B1E04D915D916D917C910E9408
:101680006216ABE4B1E00D931D932D933D93A1E35E
:10169000B1E04D915D916D917C91ABE4B1E00D9124
:1016A0001D912D913C910E946C160CF002C00C947F
:1016B0006D0BABE4B1E00D911D912D913C91A1E337
:1016C000B1E04D915D916D917C910E946716ABE404
:1016D000B1E00D931D932D933D9341E050E060E008
:1016E00070E0ABE4B1E00D911D912D913C910E9411
:1016F0006C160CF402C00C94910BABE4B1E00D91AC
:101700001D912D913C91A1E3B1E04D915D916D91C1
:101710007C910E946216ABE4B1E00D931D932D9372
:101720003D93A1E3B1E00D911D912D913C9141E1DB
:1017300050E060E070E00E945B14AFE3B1E00D9315
:101740001D932D933D93AFE3B1E00D911D912D912C
:101750003C914CE350E060E070E00E94E513AFE3A1
:10176000B1E04D935D936D937D93AFE3B1E00D9147
:101770001D912D913C91ABE4B1E04D915D916D9146
:101780007C910E946216AFE3B1E00D931D932D93FF
:101790003D93A1E3B1E00D911D912D913C9146E067
:1017A00050E060E070E00E945B14A3E4B1E00D93B0
:1017B0001D932D933D93A3E4B1E00D911D912D91C7
:1017C0003C914CE350E060E070E00E94E513A3E43C
:1017D000B1E04D935D936D937D93A3E4B1E00D91E2
:1017E0001D912D913C91AFE3B1E04D915D916D91D3
:1017F0007C910E946216A3E4B1E00D931D932D939A
:101800003D93A1E3B1E04D915D916D917C91AFE38A
:10181000B1E00D911D912D913C910E946C160CF040
:1018200002C00C94270CAFE3B1E00D911D912D91F6
:101830003C91A1E3B1E04D915D916D917C910E944D
:101840006716AFE3B1E00D931D932D933D93A1E394
:10185000B1E04D915D916D917C91A3E4B1E00D916A
:101860001D912D913C910E946C160CF002C00C94BD
:101870004D0CA3E4B1E00D911D912D913C91A1E39C
:10188000B1E04D915D916D917C910E946716A3E44A
:10189000B1E00D931D932D933D93E1E7F1E00E949C
:1018A000CA14E6EAFFE20E9430160E94391680E070
:1018B00010F009F081E08F93AFE5B1E00D911C913C
:1018C000083250E0150780E014F009F081E09F91A4
:1018D0008923882311F40C94730C88E290E0AFE51F
:1018E000B1E08D939C93AFE5B1E00D911C9104366E
:1018F00050E015071CF011F00C94800C0C94860C31
:1019000084E690E0AFE5B1E08D939C93AFE5B1E064
:101910000D911C91003050E015070CF402C00C949E
:10192000970C80E090E0AFE5B1E08D939C9380E070
:1019300090E0ABE1B1E08D939C9380E090E0ADE16D
:10194000B1E08D939C93E5E7F1E00E94CA14EAEAC6
:10195000FFE20E9430160E94391610F00C94B60C6B
:1019600081E090E0ABE1B1E08D939C93E5E7F1E09D
:101970000E94CA14EEEAFFE20E9430160E94391655
:1019800018F011F00C94C60C0C94CC0C81E090E093
:10199000ADE1B1E08D939C93AFE5B1E00D911C9169
:1019A000023350E015071CF011F00C94D90C0C9484
:1019B000650D81E090E0ABE2B1E08D939C93A9E3EB
:1019C000B1E00D911D912D913C9149E150E060E015
:1019D00070E00E945B14ADE6B1E00D931D932D9372
:1019E0003D93ADE6B1E00D911D912D913C91AFE598
:1019F000B1E04D915D9157FB1EF46FEF7FEF02C098
:101A0000662777270E94E513ADE6B1E04D935D931D
:101A10006D937D93A9E3B1E00D911C9142E050E0FC
:101A20000E94A813A7E2B1E04D935C93A7E2B1E056
:101A30000D911C91ADE6B1E04D915C91041B150B2D
:101A4000A7E2B1E00D931C93A9E3B1E00D911C91C5
:101A500042E050E00E94A813A9E2B1E04D935C93EC
:101A6000A9E2B1E00D911C91ADE6B1E04D915C9120
:101A7000040F151FA9E2B1E00D931C93A7E2B1E09A
:101A80000D911C91013050E015070CF402C00C942C
:101A90004F0D81E090E0A7E2B1E08D939C9300E0D0
:101AA00010E020E030E0A5E6B1E00D931D932D930A
:101AB0003C93A9E3B1E00D911D912D913C91A9E6D4
:101AC000B1E00D931D932D933C93AFE5B1E00D91E3
:101AD0001C91023350E015071CF011F00C94DB0D43
:101AE00081E090E0A7E2B1E08D939C93A9E3B1E09F
:101AF0008D919C91A9E2B1E08D939C9302E310E05B
:101B000020E030E0AFE5B1E04D915D9157FB1EF470
:101B10006FEF7FEF02C0662777270E946716A1E666
:101B2000B1E00D931D932D933D93A1E6B1E00D918E
:101B30001D912D913C91A9E3B1E04D915D916D9185
:101B40007C910E945B14A1E6B1E00D931D932D934F
:101B50003D93A1E6B1E00D911D912D913C9146E997
:101B600050E060E070E00E94E513A1E6B1E04D9323
:101B70005D936D937D93A1E6B1E00D911D912D9143
:101B80003C91A5E6B1E00D931D932D933C93A9E301
:101B9000B1E00D911D912D913C91A1E6B1E04D91E7
:101BA0005D916D917C910E946716A9E6B1E00D935D
:101BB0001D932D933D93A0EAB1E00D911C9101304E
:101BC00050E0150781E009F080E08F93ADE5B1E0CA
:101BD0000D911C91013050E0150781E009F080E083
:101BE0009F91892B882311F40C940A0E00E010E0D9
:101BF00020E030E0AFE3B1E00D931D932D933C93D3
:101C000000E010E020E030E0A3E4B1E00D931D938C
:101C10002D933C937894ABE1B1E00D911C91013090
:101C200050E0150711F00C94370E81E090E0A9E226
:101C3000B1E08D939C9380E090E0A7E2B1E08D93BA
:101C40009C9300E010E020E030E0A5E6B1E00D93C9
:101C50001D932D933C93A9E3B1E00D911D912D911E
:101C60003C91A9E6B1E00D931D932D933C9300E0C8
:101C700010E020E030E0A9E5B1E00D931D932D9335
:101C80003C9301E010E020E030E0A1E0B1E00D93F2
:101C90001D932D933C93A9E3B1E04D915D916D911E
:101CA0007C91A1E0B1E00D911D912D913C910E949C
:101CB0006C161CF011F00C94AA0F0E94E711A9E514
:101CC000B1E00D911D912D913C9141E050E060E01B
:101CD00070E00E946216A9E5B1E00D931D932D936B
:101CE0003D93A7E2B1E04D915D9157FB1EF46FEF7C
:101CF0007FEF02C066277727A1E0B1E00D911D912B
:101D00002D913C910E946C1680E00CF081E08F9345
:101D1000A9E2B1E04D915D9157FB1EF46FEF7FEFAB
:101D200002C066277727A1E0B1E00D911D912D91AA
:101D30003C910E946C1680E00CF481E09F91892315
:101D4000882311F40C94EF0EA3E2B1E00D911C91E5
:101D5000003050E0150781E009F080E08F93A5E2A4
:101D6000B1E00D911C91003050E0150781E009F0C1
:101D700080E09F918923882311F40C94D70EA1E26F
:101D8000B1E00D911C91013050E0150711F00C9459
:101D9000CB0E0E94EB11A1E2B1E00D911C9102303B
:101DA00050E0150711F00C94D70E0E94F011A3E239
:101DB000B1E00D911C91013050E0150711F00C9429
:101DC000E30E0E94EB11A5E2B1E00D911C910130F0
:101DD00050E0150711F00C94EF0E0E94F011A9E2EB
:101DE000B1E04D915D9157FB1EF46FEF7FEF02C0A4
:101DF00066277727A1E0B1E00D911D912D913C91CF
:101E00000E946C160CF002C00C94080F0E94E7119F
:101E1000A5E6B1E04D915D916D917C91A1E0B1E0BD
:101E20000D911D912D913C910E946C160CF402C0F5
:101E30000C941C0F0E94E211A9E6B1E04D915D9156
:101E40006D917C91A1E0B1E00D911D912D913C919E
:101E50000E946C161CF011F00C94300F0C94320F91
:101E60000E94E211ADE1B1E00D911C91013050E012
:101E7000150711F00C943E0F0E94E211A7E4B1E0A7
:101E80004D915D916D917C91A9E5B1E00D911D9110
:101E90002D913C910E946C1611F00C94550F81E02D
:101EA00090E0AEE9B1E08D939C93ABE4B1E04D914D
:101EB0005D916D917C91A9E5B1E00D911D912D9100
:101EC0003C910E946C1611F00C946C0F80E090E035
:101ED000AEE9B1E08D939C93ADE5B1E00D911C911D
:101EE000013050E0150711F00C947C0F80E090E079
:101EF000AEE9B1E08D939C93AEE9B1E00D911C91F8
:101F0000013050E0150711F00C94970FABE2B1E0EF
:101F10000D911C91013050E0150711F00C94960FB3
:101F20008BB190E289278BB90C94970F5D9AAEE93B
:101F3000B1E00D911C91003050E0150711F00C94A8
:101F4000A20F5D980E94CF11A1E0B1E00E9493130F
:101F50000C944B0EA1E1B1E0EAE5FFE20E945A16B3
:101F6000E1E1F1E00E94CA14E5E8F1E00E94CF143B
:101F70000E94391618F011F00C94DA0FEF93FF93CA
:101F8000EBEAF0E00E943914FF91EF91A1E1B1E09A
:101F9000EAE5FFE20E943016E1E1F1E00E94CA1496
:101FA0000E94D515FF27EDE0A1E1B1E00E94711676
:101FB0000C94B00F01E010E020E030E0A1E0B1E0CF
:101FC0000D931D932D933C93A9E3B1E04D915D9149
:101FD0006D917C91A1E0B1E00D911D912D913C910D
:101FE0000E946C161CF011F00C9467110E94E7110E
:101FF000A9E5B1E00D911D912D913C9141E050E09A
:1020000060E070E00E946216A9E5B1E00D931D93B7
:102010002D933D93A7E2B1E04D915D9157FB1EF4E6
:102020006FEF7FEF02C066277727A1E0B1E00D9147
:102030001D912D913C910E946C1680E00CF081E086
:102040008F93A9E2B1E04D915D9157FB1EF46FEFC4
:102050007FEF02C066277727A1E0B1E00D911D91C7
:102060002D913C910E946C1680E00CF481E09F91D0
:102070008923882311F40C94AC10A3E2B1E00D91F4
:102080001C91003050E0150781E009F080E08F934B
:10209000A5E2B1E00D911C91003050E0150781E000
:1020A00009F080E09F918923882311F40C94941007
:1020B000A8EBB1E00D911C91013050E0150711F033
:1020C0000C947C10A1E2B1E00D911C91013050E024
:1020D000150711F00C946E100E94EB11A1E2B1E013
:1020E0000D911C91023050E0150711F00C947A10FC
:1020F0000E94F0110C949410A1E2B1E00D911C919A
:10210000013050E0150711F00C9488100E94F01176
:10211000A1E2B1E00D911C91023050E0150711F0E1
:102120000C9494100E94EB11A3E2B1E00D911C916C
:10213000013050E0150711F00C94A0100E94F0112E
:10214000A5E2B1E00D911C91013050E0150711F0AE
:102150000C94AC100E94EB11A9E2B1E04D915D919D
:1021600057FB1EF46FEF7FEF02C066277727A1E0D1
:10217000B1E00D911D912D913C910E946C160CF0D7
:1021800002C00C94C5100E94E711A5E6B1E04D9184
:102190005D916D917C91A1E0B1E00D911D912D912A
:1021A0003C910E946C160CF402C00C94D9100E9451
:1021B000E211A9E6B1E04D915D916D917C91A1E0B4
:1021C000B1E00D911D912D913C910E946C161CF077
:1021D00011F00C94ED100C94EF100E94E211ADE19F
:1021E000B1E00D911C91013050E0150711F00C94F5
:1021F000FB100E94E211A7E4B1E04D915D916D9159
:102200007C91A9E5B1E00D911D912D913C910E9429
:102210006C1611F00C94121181E090E0AEE9B1E07F
:102220008D939C93ABE4B1E04D915D916D917C9168
:10223000A9E5B1E00D911D912D913C910E946C1684
:1022400011F00C94291180E090E0AEE9B1E08D939B
:102250009C93ADE5B1E00D911C91013050E0150764
:1022600011F00C94391180E090E0AEE9B1E08D936B
:102270009C93AEE9B1E00D911C91013050E015073F
:1022800011F00C945411ABE2B1E00D911C910130AE
:1022900050E0150711F00C9453118BB190E289278F
:1022A0008BB90C9454115D9AAEE9B1E00D911C917B
:1022B000003050E0150711F00C945F115D980E94FA
:1022C000CF11A1E0B1E00E9493130C94E40F0C94A1
:1022D0004B01A3E4B1E04D915D916D917C91AFE331
:1022E000B1E00D911D912D913C910E946C161CF056
:1022F00011F00C94A811AFE3B1E04D915D916D9197
:102300007C91A9E5B1E00D911D912D913C910E9428
:102310006C1680E00CF081E08F93A3E4B1E04D9166
:102320005D916D917C91A9E5B1E00D911D912D918B
:102330003C910E946C1681E014F009F080E09F91BE
:102340008923882311F40C94A6115D9A0C94CE1164
:10235000AFE3B1E04D915D916D917C91A9E5B1E064
:102360000D911D912D913C910E946C160CF002C0B4
:102370000C94BB115D9AA3E4B1E04D915D916D9118
:102380007C91A9E5B1E00D911D912D913C910E94A8
:102390006C161CF011F00C94CE115D9A0895EF9319
:1023A000FF93E8EAFDE00E943914FF91EF910E944B
:1023B0006911EF93FF93E8EDF5E00E943914FF9166
:1023C000EF9108955B985C985A985F9808955B9890
:1023D0005C985F9A08955B9A5C985A985F9A089502
:1023E0005A985F985B985C9A08950F921F922F926B
:1023F0003F924F925F927F92AF92BF920F931F9343
:102400002F933F934F935F936F937F938F939F93FC
:10241000AF93BF93CF93DF93EF93FF938FB78F93D8
:102420000027BB27A3E28C9184FB0EF401E0442734
:10243000A7E9B1E08C9184FB0EF44395041711F4E5
:102440000C9445120027BB27A3E28C9184FB0EF469
:1024500001E040E0041711F00C943612A6E4B0E05D
:102460008C91A3E9B1E08D9388278C930027BB273B
:10247000A3E28C9184FB0EF401E041E0041711F01B
:102480000C94451280E0809346000027BB27A3E20E
:102490008C9180FB0EF401E04427A7E9B1E08C9118
:1024A00085FB0EF44395041711F40C949312002746
:1024B000BB27A3E28C9180FB0EF401E040E00417FF
:1024C00011F00C9484120091B200083C10F00C94AE
:1024D00084120091B200023318F011F00C947212C1
:1024E0000C948412A2EBB0E08C91A5E9B1E08D933D
:1024F00088278C9300E010E020E030E0A5E1B1E017
:102500000D931D932D933C930027BB27A3E28C9141
:1025100080FB0EF401E041E0041711F00C949312DB
:1025200080E08093B2000027BB27A3E28C9183FB5D
:102530000EF401E04427A7E9B1E08C9183FB0EF48F
:102540004395041711F40C94F3120027BB27A3E260
:102550008C9183FB0EF401E040E0041711F00C9421
:10256000DF12A4E8B0E00D911C91AAE9B1E04D9111
:102570005C91041B150BA9E1B1E00D931C93A9E13B
:10258000B1E00D911C91033151E015071CF011F0E1
:102590000C94CC120C94DF12A9E1B1E00D911C91C6
:1025A0000C3B52E015070CF402C00C94DF12A9E1B9
:1025B000B1E08D919C91AFE8B1E08D939C930027A1
:1025C000BB27A3E28C9183FB0EF401E041E00417EA
:1025D00011F00C94F312A4E8B0E08D919C91AAE95B
:1025E000B1E08D939C930027BB27A3E28C9185FBE0
:1025F0000EF401E04427A7E9B1E08C9182FB0EF4D0
:102600004395041711F40C9453130027BB27A3E23E
:102610008C9185FB0EF401E040E0041711F00C945E
:102620003F13A4E8B0E00D911C91ACE9B1E04D91ED
:102630005C91041B150BA9E1B1E00D931C93A9E17A
:10264000B1E00D911C91033151E015071CF011F020
:102650000C942C130C943F13A9E1B1E00D911C9143
:102660000C3B52E015070CF402C00C943F13A9E197
:10267000B1E08D919C91A1E9B1E08D939C930027ED
:10268000BB27A3E28C9185FB0EF401E041E0041727
:1026900011F00C945313A4E8B0E08D919C91ACE937
:1026A000B1E08D939C93BB27A3E28C9180FBA7E9BB
:1026B000B1E08C9185F98C93BB27A3E28C9184FBCC
:1026C000A7E9B1E08C9184F98C93BB27A3E28C91AC
:1026D00083FBA7E9B1E08C9183F98C93BB27A3E23C
:1026E0008C9185FBA7E9B1E08C9182F98C938F9155
:1026F0008FBFFF91EF91DF91CF91BF91AF919F91EC
:102700008F917F916F915F914F913F912F911F9189
:102710000F91BF90AF907F905F904F903F902F9020
:102720001F900F9018950D911D912D913C9181E076
:10273000080F8827181F281F381F3C932E931E93BD
:102740000E93089509D00E94511400FC10D00895F2
:1027500003D01ED001F8F9CF0024E89457FF02C03F
:1027600009D0689400F80BD010F80124089502D025
:1027700009D00895509540954F5F5F4F0895E894B4
:1027800017FF0895009510950F5F1F4F68940895E7
:10279000352F242FE894452B11F468940895512F78
:1027A000402F0027112780E1440F551F001F111FE4
:1027B000021B130B416018F4020F131F4E7F8A9502
:1027C00099F7089500FC05D0089530D005D001F8A0
:1027D000F9CF37D03FD00895842F952FA62FB72F4C
:1027E000E894452B462B472B11F468940895402F0D
:1027F000512F622F732F0027112722273327F0E252
:10280000440F551F661F771F001F111F221F331F04
:10281000081B190B2A0B3B0B416028F4080F191FEA
:102820002A1F3B1F4E7FFA9559F708950024E8941C
:1028300077FF02C006D0689400F809D010F8012490
:10284000089512D04F5F5F4F6F4F7F4F0895E89408
:1028500037FF089500951095209530950F5F1F4F15
:102860002F4F3F4F6894089540955095609570950F
:1028700008953197F1F70895689462F80895E894FF
:1028800062F80895EF93FF93EE27E82BE92B31F0E0
:10289000E8E8F3E13197F1F70197D1F7FF91EF9174
:1028A00008950F92B801469F8001479F100D569FD3
:1028B000100D0F9008950F921F922F92C801D90109
:1028C000489F80014A9F90014B9F202C499F100DEB
:1028D000211D321D5A9F202C589F100D211D321D85
:1028E000599F200D311D689F200D311D699F300DAE
:1028F000789F300D2F901F900F90089580917A004F
:10290000806C80937A0080917A0086FDFCCF809164
:1029100078009091790008953DD0992711278F2D47
:10292000880F80E8F82A802F881F08F41FEF41F0F5
:102930008F57082F07FD04C0003240F08FEF01C011
:102940008827982FD82EE82EF82E09C08FE1801BFB
:10295000082FF694E794D79497950A95D1F7112309
:1029600051F09095D094E094F09481E0980F8827EE
:10297000D81EE81EF81E0F2DFE2CED2CD92E089522
:10298000D094E094F09491E0D90E9927E91EF91EB5
:1029900010950895D190E190F190019108952191C1
:1029A0003191419151910895102F90E8FF0C001F33
:1029B0000927990FF7941078652F90E8440F551F59
:1029C0005927990F4795607800380895FF0C90E8D3
:1029D0009027110F9795F794092F0895102FBD2C6C
:1029E000DE2CEF2CF02E11234AF4B094D094E09416
:1029F000F0949FEFB91AD90AE90AF90A0EE1FF200B
:102A000039F4FE2CED2CDB2CBB240850C2F76BC034
:102A100032F00A95BB0CDD1CEE1CFF1CF9CF01D077
:102A2000D5CFB7FE089590E8B91611F4D0FE0895F9
:102A30009FEFD91AE90AF90A09F403950895DD927E
:102A4000ED92FD920C930895502F2D2D3E2D4F2D7C
:102A5000612F08952DEC3CEC4CEC5DE366270FC034
:102A600099DFF2DFDD24EE2490E8F92E0FE307C0B2
:102A700096DF05C02227332740E251E4662755231D
:102A800051F1002381F190DF71F116270058505861
:102A90000894050B18F407FD03C025C007FD23C0EB
:102AA000469537952795F694E794D79422D0FF2042
:102AB0002AF0DD0CEE1CFF1C015073F09D2D969545
:102AC00048F0DD203AF4EE202AF491E0D90E99275F
:102AD000E91EF91E7BCF07C09FE7092FF92A9FEF58
:102AE000D92EE92E0895DD24EE24FF240027112796
:102AF00008959F929924AA24BB2488E1D216E30664
:102B0000F40628F0D21AE30AF40A089401C0889463
:102B1000991CAA1CBB1CDD0CEE1CFF1C8A9571F7CE
:102B2000D92CEA2CFB2C9F9008953EDFE1F250381F
:102B3000D1F21627005850580894051F12F418F4C3
:102B4000CBCF08F0D0CF0AD0FF202AF0BB0CDD1C81
:102B5000EE1CFF1C3BCF0F5FFBF138CF9F929924F7
:102B6000AA24BB24992788E1990CAA1CBB1CDD1C54
:102B7000EE1CFF1C30F4920EA31EB41ED91EE91EDB
:102B8000F91E8A9589F79F90089509DF0DDF503867
:102B900029F090E869270CC00AF045D017CF5FE311
:102BA00022273327442701C0FADEFEDE5038B1F376
:102BB000003899F3902F951B8BF312F434D0FACF91
:102BC000983118F0222733274427983028F0232FF4
:102BD000342F44279850F9CF992329F046953795FB
:102BE00027959A95D9F7912F962742F014D0B0F6F1
:102BF000F794E794D7940F5F8BF66ECF10D051F017
:102C000008F4BEDEFF2052F2DD0CEE1CFF1C01506A
:102C1000CBF762CF68CFD20EE31EF41E0895D21A0E
:102C2000E30AF40A0895DF92EF92FF920F931F9345
:102C3000D22EE32EF42E052F162F6F915F914F9118
:102C40003F912F910895C895319600200895FBDF9C
:102C5000D02CF9DFE02CF7DFF02CF5DF002D089504
:102C6000F2DF202DF0DF302DEEDF402DECDF502D98
:102C7000089507FB00680EF40F7757FB50680EF4B9
:102C80005F7707FD02C057FF05C0D216E306F406C2
:102C9000050708952D153E054F055007089500249A
:102CA0000D280E280F28002A0020089591E005C065
:102CB00092E003C094E001C098E0C5DF0D929A95C0
:102CC000E1F70895040F151F261F371F0895041BF1
:102CD000150B260B370B0895041715072607370722
:102CE000089594E081918D939A95E1F70895F9996B
:102CF000FECFE1BDF2BD3196089591E001C092E0B2
:102D00007B3751F47FB7F894F2DF8D9180BDFA9A4A
:102D1000F99A9A95C9F77FBF7727089591E001C086
:102D200092E0E5DFF89A80B58D939A95D1F70895F2
:102D300031DE3ADE0395AAF087E1DD0CEE1CFF1CC4
:102D40008A9589F00A95CAF7FF205AF000240D28C9
:102D50000E280F28002039F00A95DD0CEE1CFF1C10
:102D6000DAF70A9533CEBFCEBECE14DE0023E2F3EF
:102D700096DF19F4B1DE0068089585E0D4D0FF0C29
:102D8000001F04830FE70695F794E0D050680DDF2D
:102D900056DE139721E438E743ED5BEBC6DE27E808
:102DA00031ED43E15DE399D02EE03CE343EC5DEB94
:102DB00094D022E83DEA4BE25EE38FD02CEE32E87D
:102DC00046E75EEB8AD020E931EE49EA5EE385D042
:102DD00020E83FEE4FEF5EEB80D024EC3FEF4FE773
:102DE0005FE37BD02CDE139784818F5799F02AF410
:102DF000D82E0FEFE02EF02E04C0D82EEE24FF24A4
:102E00000027ECDD28E132E741E35FE38EDEC7DD3A
:102E10003497CBDE95C060DE93C0BCDD86E083D006
:102E200005830F772BE33AEA48EB5FE37EDE07DEAC
:102E3000139741D028F4858188236AF754DE80C037
:102E40008F778483A7DD349774DFF9DD139723E64A
:102E500032E446E357EB69DE29ED37EA4AE159E30C
:102E60003CD026E538E14EEA5AEB37D026E53CE87F
:102E70004DE15CE332D02DEC37E543E65DEB2DD040
:102E80002DEE3DEF45E75EE328D028E132E741E350
:102E90005FEB23D05BD089DED7DDDD24EE24FF2479
:102EA00004818FE7080F0695F794E9DD8581881F77
:102EB00008F4D7DD45C078DD8827039512F488949F
:102EC000089507301AF0812F08940895FF1C881F79
:102ED0000A95E2F7812B8894089567DE60DD3497C8
:102EE00024CEDDDE81F00F930F772F933F934F9326
:102EF0005F933CDF5F914F913F912F9116DE8EDF04
:102F00008F918078082B089545DD0F93AF93BF9381
:102F10000F772CDFFF91EF9142DD07DE7FDF8F918E
:102F20008078082B08950FB6F8944A925A92E42DAF
:102F3000F52DA42DB52D480E8827581E0FBE0895D7
:102F40000FB6F894599049900FBE08955FE340E89A
:102F50003327222708953D0A973F0000803F0080D5
:102F6000F4430000C84200000000CDCC4C3E0040BD
:102F70000E430000003F00007A4400007042000051
:102F8000A03F0000403FA4707D3F713D0A3F00001C
:102F900000400080EE43809F554B00A0F0450000AC
:102FA0002041000040400080BB4400007A4300E024
:022FB0002B45AF
:00000001FF
