:100000000C94340018950000189500000C94EF1122
:10001000189500001895000018950000189500002C
:10002000189500001895000018950000189500001C
:10003000189500001895000018950000189500000C
:1000400018950000189500001895000018950000FC
:1000500018950000189500001895000018950000EC
:1000600018950000189500008FEF8DBFC0EEE6ECEC
:100070004E2E84E08EBFD4E0F4E05F2EEEEFF3E08E
:10008000A0E0B1E088278D933197E9F781E880936C
:10009000C40080E08093C50088E18093C10066249D
:1000A0008FEF8AB980E084B9389887E080937A002E
:1000B00080E480937C0078948091680081608093D4
:1000C00068008FEF80936B0084E085BD80E084BD85
:1000D00080E08093800083E08093810086E08093BD
:1000E000B10080E08093B0005F9A84E085BD83E03A
:1000F0008093810086E08093B10080916E008E7FB6
:1001000080936E0080916F008E7F80936F0080914E
:1001100070008E7F8093700081E08093000180E00A
:1001200090E0AFE1B1E08D939C93A1E8B1E0EAE407
:10013000FFE20E94541681E090E0A6EBB1E08D93BF
:100140009C9380E090E0A8EBB1E08D939C93AAEAA9
:10015000B1E0EEE4FFE20E94541607E210E020E076
:1001600030E0A1E5B1E00D931D932D933C93A1E503
:10017000B1E00D911D912D913C91A5E5B1E00D935C
:100180001D932D933C9381E090E0AFE4B1E08D931B
:100190009C9306E410E020E030E0A2EAB1E00D9389
:1001A0001D932D933C93A2EBB1E0E2E5FFE20E94A8
:1001B00054160E94E311E0E1F0E0BB27A0E10E94A9
:1001C0008A160B3252E0150711F00C941E01AAEAB0
:1001D000B1E0E0E0F0E094E00E948B16AFE4B1E023
:1001E0000D911C91013050E0150711F00C94FF00A7
:1001F000E4E0F0E0A1E5B1E094E00E948B16AFE40A
:10020000B1E00D911C91013050E0150711F00C94F4
:100210001001E4E0F0E0A5E5B1E094E00E948B1667
:10022000ECE0F0E0A2EAB1E094E00E948B16A2EBD1
:10023000B1E0E8E0F0E094E00E948B16589A7091EB
:100240007A00706870937A0001E010E020E030E0FE
:10025000A1E0B1E00D931D932D933C9344E150E058
:1002600060E070E0A1E0B1E00D911D912D913C9115
:100270000E9466161CF011F00C944C018BB190E8B2
:1002800089278BB984E190E00E943C14A1E0B1E0A1
:100290000E948D130C942E0100910001013011F089
:1002A0000C946A11A5E9B1E00D911C910A3550E05A
:1002B000150780E00CF481E08F93A5E9B1E00D9182
:1002C0001C91083C50E0150780E014F009F081E033
:1002D0009F91892B8F93A8E9B1E00D911C9101307A
:1002E00050E0150781E009F080E09F91892B882379
:1002F00011F40C9470040E94E311AFE8B1E00D9189
:100300001C91043E51E015071CF011F00C948A0179
:100310000C948E0188EC90E00E943C14AFE8B1E0B0
:100320000D911C91063D51E015070CF402C00C9490
:100330009D0188EC90E00E943C14A3E9B1E00D918E
:100340001C91093650E0150780E00CF481E08F9392
:10035000A3E9B1E00D911C91003050E0150780E059
:1003600014F009F081E09F9189238F93AFE1B1E010
:100370000D911C91003050E0150781E009F080E0FC
:100380009F918923882311F40C941D025F9884EFB8
:1003900091E00E943C14A5E0B1E0EEE4FFE20E948F
:1003A0005416E5E0F1E00E94C414E9E7F1E00E9490
:1003B000C9140E94331618F011F00C940E025F9AC3
:1003C00084E690E00E943C145F988CE291E00E94E9
:1003D0003C14A5E9B1E00D911C910A3550E01507D8
:1003E0001CF011F00C94F6010C94FC01E9E7F1E02B
:1003F000A5E0B1E00E946B16E6E5FFE20E942A1636
:10040000E5E0F1E00E94C4140E94CF15FF27EDE063
:10041000A5E0B1E00E946B160C94D101A5E9B1E012
:100420000D911C910A3550E015070CF402C00C9494
:100430001D0280ED97E00E943C14A3E9B1E00D910C
:100440001C910D3750E0150780E014F009F081E0B1
:100450008F93AFE8B1E00D911C91033052E0150786
:1004600080E014F009F081E09F918923882311F442
:100470000C94B60288E795E00E943C14A3E9B1E031
:100480000D911C910D3750E0150780E014F009F034
:1004900081E08F93AFE8B1E00D911C91033052E001
:1004A000150780E014F009F081E09F9189238823EB
:1004B00011F40C94B602AFE1B1E00D911C91003043
:1004C00050E0150711F00C94830281E090E0AFE159
:1004D000B1E08D939C9384E4806480937C000E94BF
:1004E0007814ABE0B1E08D939C93EBE0F1E0D19018
:1004F000E080FF2400270E94E814A2EBB1E00E94F4
:1005000019150C94B20280E090E0AFE1B1E08D9358
:100510009C93E0E0F0E0AAEAB1E094E07BE70E947F
:100520007A16E4E0F0E0A1E5B1E094E07BE70E9418
:100530007A16ECE0F0E0A2EAB1E094E07BE70E94FA
:100540007A16E8E0F0E0A2EBB1E094E07BE70E94ED
:100550007A16E0E1F0E00BE212E0A0E1BB277BE7D6
:100560000E94791684EF91E00E943C14A3E9B1E067
:100570000D911C91093650E0150780E00CF481E0E4
:100580008F93AFE8B1E00D911C91033052E0150755
:1005900080E014F009F081E09F9189238F93AFE10F
:1005A000B1E00D911C91013050E0150781E009F098
:1005B00080E09F918923882311F40C94A60388E797
:1005C00095E00E943C14A3E9B1E00D911C9109361D
:1005D00050E0150780E00CF481E08F93AFE8B1E0C4
:1005E0000D911C91033052E0150780E014F009F0E2
:1005F00081E09F9189238F93AFE1B1E00D911C9130
:10060000013050E0150781E009F080E09F918923D7
:10061000882311F40C94460386E4806480937C0064
:100620000E947814A2EAB1E08D939D9388278D9360
:100630008C9301E010E020E030E0A1E0B1E00D9308
:100640001D932D933C9346E450E060E070E0A1E000
:10065000B1E00D911D912D913C910E9466161CF008
:1006600011F00C9441038BB190E889278BB984E198
:1006700090E00E943C14A1E0B1E00E948D130C9424
:1006800023035F9888EE93E00E943C14A3E9B1E055
:100690000D911C91093650E0150780E00CF481E0C3
:1006A0008F93AFE8B1E00D911C91033052E0150734
:1006B00080E014F009F081E09F9189238F93AFE1EE
:1006C000B1E00D911C91013050E0150781E009F077
:1006D00080E09F918923882311F40C94A60300E005
:1006E00010E020E030E0A2EAB1E00D931D932D93DD
:1006F0003C9301E010E020E030E0A1E0B1E00D9398
:100700001D932D933C9346E450E060E070E0A1E03F
:10071000B1E00D911D912D913C910E9466161CF047
:1007200011F00C94A1038BB190E889278BB984E177
:1007300090E00E943C14A1E0B1E00E948D130C9463
:1007400083035F9888EE93E00E943C14A3E9B1E034
:100750000D911C91093650E0150780E00CF481E002
:100760008F93AFE8B1E00D911C91033B51E0150769
:1007700080E00CF481E09F9189238F93AFE1B1E099
:100780000D911C91013050E0150781E009F080E0E7
:100790009F918923882311F40C942D0488E795E018
:1007A0000E943C14A3E9B1E00D911C91093650E080
:1007B000150780E00CF481E08F93AFE8B1E00D9174
:1007C0001C91033B51E0150780E00CF481E09F9100
:1007D00089238F93AFE1B1E00D911C91013050E07E
:1007E000150781E009F080E09F918923882311F4A7
:1007F0000C942D04AAEAB1E0EEE4FFE20E94541644
:1008000001E010E020E030E0A1E0B1E00D931D93A5
:100810002D933C9346E450E060E070E0A1E0B1E04D
:100820000D911D912D913C910E9466161CF011F0C6
:100830000C9428048BB190E889278BB984E190E06F
:100840000E943C14A1E0B1E00E948D130C940A04B4
:100850005F9888EE93E00E943C145F9882E390E0FA
:100860000E943C14AFE1B1E00D911C91013050E0C9
:10087000150711F00C94690401E010E020E030E06D
:10088000A1E0B1E00D931D932D933C934AE050E01D
:1008900060E070E0A1E0B1E00D911D912D913C91DF
:1008A0000E9466161CF011F00C9464048EE190E036
:1008B0000E943C148BB190E889278BB9A1E0B1E08C
:1008C0000E948D130C9446045F9886E990E00E9484
:1008D0003C145F9A82E390E00E943C140C94520115
:1008E000A5E1B1E00D911D912D913C9141E050E0C9
:1008F00060E070E00E945C16A5E1B1E00D931D93ED
:100900002D933D9344E650E060E070E0A5E1B1E056
:100910000D911D912D913C910E9466161CF011F0D5
:100920000C9494040C949E0404E610E020E030E063
:10093000A5E1B1E00D931D932D933C9345E050E06C
:1009400060E070E0A5E1B1E00D911D912D913C9129
:100950000E9466161CF011F00C94B0040C94B604BE
:1009600080E090E0A5E9B1E08D939C93A9E7B1E028
:10097000EAE5FFE20E945416F894A3E9B1E00D9174
:100980001C910D3750E0150780E014F009F081E06C
:100990008F93A3E9B1E00D911C910A3F50E0150738
:1009A00080E00CF481E09F918923882311F40C945A
:1009B000E10481E090E0A3E2B1E08D939C930C947C
:1009C000E70480E090E0A3E2B1E08D939C93A3E97B
:1009D000B1E00D911C91043650E0150780E00CF455
:1009E00081E08F93A3E9B1E00D911C91023350E0B7
:1009F000150780E014F009F081E09F918923882396
:100A000011F40C940B0581E090E0A5E2B1E08D9328
:100A10009C930C94110580E090E0A5E2B1E08D93E9
:100A20009C9380E090E0ABE2B1E08D939C9380E0FA
:100A300090E0A0EAB1E08D939C93A2EAB1E00D9121
:100A40001D912D913C9145E550E060E070E00E94E1
:100A50005514A6EAB1E00D931D932D933D93A6EA9C
:100A6000B1E00D911D912D913C9144E650E060E084
:100A700070E00E94DF13A6EAB1E04D935D936D93A1
:100A80007D9386E4806480937C000E947814A9E0C2
:100A9000B1E08D939C93A6EAB1E04D915D916D918B
:100AA0007C91A9E0B1E00D911C91222733270E948F
:100AB00066160CF402C00C94630581E090E0A0EA95
:100AC000B1E08D939C9380E090E0A0EAB1E08D933B
:100AD0009C9384E4806480937C000E947814ABE053
:100AE000B1E08D939C93EBE0F1E0D190E080FF24A6
:100AF00000270E94E814ADE0B1E00E941915E2EB76
:100B0000F1E00E94C914EDE0F1E00E94C4140E94DB
:100B1000C015FF27EDE0ADE0B1E00E946B16EEE5F9
:100B2000FFE20E942A16EDE0F1E00E94C4140E9448
:100B30008F15FF27EDE0A1E7B1E00E946B16A5E756
:100B4000B1E0E2E6FFE20E945416E5E7F1E00E9420
:100B5000C914E1E7F1E00E94C4140E943915FF278F
:100B6000EDE0A5E7B1E00E946B16EEE5FFE20E9422
:100B70002A16E5E7F1E00E94C4140E946B17FF27D4
:100B8000EDE0A5E7B1E00E946B16E6E6FFE20E9409
:100B90002A16E5E7F1E00E94C4140E948F15FF2792
:100BA000EDE0A5E7B1E00E946B16E5E7F1E00E94F9
:100BB000C414E9E7F1E00E94C9140E94331618F04A
:100BC00011F00C94E5050C94EB05E5E7F1E0A9E7DD
:100BD000B1E00E946B16EAE6FFE20E942A16E5E702
:100BE000F1E00E94C4140E943915FF27EDE0ADE248
:100BF000B1E00E946B16EDE2F1E00E94C914EEE450
:100C0000FFE20E9421160E943915FF27EDE0ADE2B8
:100C1000B1E00E946B16E6E6FFE20E942A16EDE2C2
:100C2000F1E00E94C4140E948F15FF27EDE0ADE2B1
:100C3000B1E00E946B16EAEAF1E00E94C914EDE20D
:100C4000F1E00E94C4140E948F15FF27EDE0ADE291
:100C5000B1E00E946B16A1E2B1E00D911C91013050
:100C600050E0150711F00C943D0682E090E0A1E2FF
:100C7000B1E08D939C930C94430681E090E0A1E257
:100C8000B1E08D939C93A6EBB1E00D911C910130E6
:100C900050E0150711F00C944F060C946707ADE572
:100CA000B1E00D911C91013050E0150711F00C944A
:100CB000610680E090E0ADE5B1E08D939C930C94EB
:100CC000670780E090E0ADE5B1E08D939C93A5E5EA
:100CD000B1E00D911D912D913C91A1E5B1E00D93F5
:100CE0001D932D933C93A1E9B1E00D911C9103302C
:100CF00052E015071CF011F00C9480060C94C70606
:100D00000027A7E9B1E08C9187FB0EF401E040E0F9
:100D1000041711F00C94A206EEE6FFE20E942A16D8
:100D2000EDE2F1E00E94C4140E948F15FF27EDE070
:100D3000ADE2B1E00E946B1681E090E0ADE5B1E07C
:100D40008D939C93A1E5B1E00D911D912D913C9166
:100D500049E150E060E070E00E946116A1E5B1E079
:100D60000D931D932D933D938091970180688093FF
:100D7000970181E090E0A3E2B1E08D939C9380E045
:100D800090E0A5E2B1E08D939C930C94EE060027D1
:100D9000A7E9B1E08C9187FB0EF401E041E0041774
:100DA00011F00C94E906E2E7FFE20E942A16EDE258
:100DB000F1E00E94C4140E948F15FF27EDE0ADE220
:100DC000B1E00E946B1681E090E0ADE5B1E08D935B
:100DD0009C93809197018F7780939701A1E9B1E06F
:100DE0000D911C91033B51E015070CF402C00C94CB
:100DF00040070027A7E9B1E08C9186FB0EF401E0E3
:100E000040E0041711F00C941B07E2E7FFE20E9498
:100E10002A16EDE2F1E00E94C4140E948F15FF270C
:100E2000EDE0ADE2B1E00E946B1681E090E0ADE54F
:100E3000B1E08D939C93A1E5B1E00D911D912D91B1
:100E40003C9149E150E060E070E00E945C16A1E551
:100E5000B1E00D931D932D933D9380919701806494
:100E60008093970181E090E0A3E2B1E08D939C93A1
:100E700080E090E0A5E2B1E08D939C930C9467072D
:100E80000027A7E9B1E08C9186FB0EF401E041E078
:100E9000041711F00C946207EEE6FFE20E942A1696
:100EA000EDE2F1E00E94C4140E948F15FF27EDE0EF
:100EB000ADE2B1E00E946B1681E090E0ADE5B1E0FB
:100EC0008D939C93809197018F7B80939701A3E2F0
:100ED000B1E00D911C91013050E0150711F00C9418
:100EE0008107EEE4FFE20E942A16EDE2F1E00E94A3
:100EF000C4140E948F15FF27EDE0ADE2B1E00E941F
:100F00006B16A5E2B1E00D911C91013050E0150780
:100F100011F00C949B07E6E7FFE20E942A16EDE22F
:100F2000F1E00E94C4140E948F15FF27EDE0ADE2AE
:100F3000B1E00E946B16EAE7FFE20E942A16EDE29A
:100F4000F1E00E94C4140E94C015FF27EDE0ADE25D
:100F5000B1E00E946B1641E050E060E070E0A1E576
:100F6000B1E00D911D912D913C910E9466160CF4FB
:100F700002C00C94CD07A1E5B1E00D911D912D911A
:100F80003C9144E650E060E070E00E945C16A1E510
:100F9000B1E00D931D932D933D9344E650E060E046
:100FA00070E0A1E5B1E00D911D912D913C910E9461
:100FB00066161CF011F00C94DF070C94F107A1E504
:100FC000B1E00D911D912D913C9144E650E060E01F
:100FD00070E00E946116A1E5B1E00D931D932D9381
:100FE0003D93EEE7FFE20E942A16EDE2F1E00E9457
:100FF000C4140E943915FF27EDE0A5E3B1E00E947B
:101000006B16A5E9B1E00D911C914AE550E0041B77
:10101000150BAFE5B1E00D931C93AFE5B1E00D9179
:101020001C9142E050E00E944B14AFE5B1E00D93FB
:101030001C93AFE5B1E00D911C91043650E015070B
:101040001CF011F00C9426080C942C0884E690E017
:10105000AFE5B1E08D939C9380E090E0ADE3B1E02B
:101060008D939C93AFE1B1E00D911C91013050E064
:10107000150781E009F080E08F93A3E2B1E00D91C4
:101080001C91003050E0150781E009F080E09F914D
:1010900089238F93A5E2B1E00D911C91003050E0BF
:1010A000150781E009F080E09F9189238F93AFE5D8
:1010B000B1E00D911C91023350E0150780E00CF473
:1010C00081E09F918923882311F40C94EA0881E040
:1010D00090E0ADE3B1E08D939C9381E090E0ABE2D2
:1010E000B1E08D939C93AFE8B1E00D911C91043E6B
:1010F00051E0150780E014F009F081E08F93AFE82C
:10110000B1E00D911C91063D51E0150780E00CF413
:1011100081E09F91892B882311F40C94EA0880E0E8
:1011200090E0ABE2B1E08D939C93EFE8F1E0D190D9
:10113000E0808FEFE7FE8827F82E082F0E94E81442
:101140000E941E15E2E8FFE20E9421160E94C015CF
:10115000FF27EDE0ADE7B1E00E946B16E5E3F1E0BB
:101160000E94C914EDE7F1E00E94C4140E948F159B
:10117000FF27EDE0ADE7B1E00E946B16EDE7F1E08F
:10118000A1E8B1E00E947E17FF27EDE0ADE7B1E0F6
:101190000E946B16E6E8FFE20E942A16EDE7F1E0F6
:1011A0000E94C4140E943915FF27EDE0ADE7B1E0BD
:1011B0000E946B16EDE7F1E00E94C914EAEAF1E043
:1011C0000E94C4140E94CF15FF27EDE0AAEAB1E007
:1011D0000E946B16AFE1B1E00D911C91013050E01F
:1011E000150781E009F080E08F93A3E2B1E00D9153
:1011F0001C91003050E0150781E009F080E09F91DC
:1012000089238F93A5E2B1E00D911C91003050E04D
:10121000150781E009F080E09F9189238F93AFE566
:10122000B1E00D911C91023350E0150780E00CF005
:1012300081E09F918923882311F40C94BB0981E0FC
:1012400090E0ADE3B1E08D939C9380E090E0ABE261
:10125000B1E08D939C93AFE8B1E00D911C91063DF8
:1012600051E015070CF402C00C944E09A1E5B1E061
:101270000D911D912D913C9141E050E060E070E0B6
:101280000E945C16A1E5B1E00D931D932D933D9353
:1012900081E090E0ABE2B1E08D939C93AFE8B1E0E8
:1012A0000D911C91043E51E015071CF011F00C94B7
:1012B0005B090C947309A1E5B1E00D911D912D918D
:1012C0003C9141E050E060E070E00E946116A1E5D1
:1012D000B1E00D931D932D933D9381E090E0ABE23F
:1012E000B1E08D939C9341E050E060E070E0A1E5B7
:1012F000B1E00D911D912D913C910E9466160CF468
:1013000002C00C948D0904E610E020E030E0A1E575
:10131000B1E00D931D932D933C9344E650E060E0C3
:1013200070E0A1E5B1E00D911D912D913C910E94DD
:1013300066161CF011F00C949F090C94A90901E0A9
:1013400010E020E030E0A1E5B1E00D931D932D9376
:101350003C9380E090E0A5E2B1E08D939C93A1E501
:10136000B1E00D911D912D913C91A5E5B1E00D935A
:101370001D932D933C93ADE3B1E00D911C91003092
:1013800050E0150711F00C94360AAFE8B1E00D916A
:101390001C91043E51E0150780E014F009F081E053
:1013A0008F93AFE8B1E00D911C91063D51E0150718
:1013B00080E00CF481E09F91892B882311F40C9438
:1013C000360AEFE8F1E0D190E0808FEFE7FE882762
:1013D000F82E082F0E94E8140E941E15E2E8FFE292
:1013E0000E9421160E94C015FF27EDE0ADE7B1E095
:1013F0000E946B16E5E3F1E00E94C914EDE7F1E00D
:101400000E94C4140E948F15FF27EDE0ADE7B1E004
:101410000E946B16EDE7F1E0A1E8B1E00E947E17B3
:10142000FF27EDE0ADE7B1E00E946B16EAE8FFE2CE
:101430000E942A16EDE7F1E00E94C4140E943915BB
:10144000FF27EDE0ADE7B1E00E946B16EDE7F1E0BC
:101450000E94C914E5E3F1E00E94C4140E94CF1574
:10146000FF27EDE0A5E3B1E00E946B16AFE1B1E02C
:101470000D911C91013050E0150711F00C94460AB3
:1014800088E290E0AFE5B1E08D939C93E5E3F1E075
:101490000E948614A9E3B1E0EDE0FF270E946B16DD
:1014A000E9E3F1E00E94C4140E94E8140E941E15B2
:1014B000E5E3F1E00E94C4140E94C015FF27EDE0AF
:1014C000A5E8B1E00E946B16EEE8FFE20E942A1642
:1014D000E5E8F1E00E94C4140E948F15FF27EDE0BB
:1014E000A5E8B1E00E946B16A1E1B1E0EEE4FFE2F5
:1014F0000E945416E1E1F1E00E94C414E5E8F1E035
:101500000E94C9140E94331618F011F00C94A40A1A
:10151000EF93FF93EBEAF0E00E943314FF91EF9119
:10152000A1E1B1E0EEE4FFE20E942A16E1E1F1E080
:101530000E94C4140E94CF15FF27EDE0A1E1B1E0A5
:101540000E946B160C947A0A44EF51E060E070E060
:10155000A9E3B1E00D911D912D913C910E94661679
:101560001CF011F00C94B60A0C94C00A04EF11E0C0
:1015700020E030E0A9E3B1E00D931D932D933C935F
:1015800045E050E060E070E0A9E3B1E00D911D910D
:101590002D913C910E9466160CF402C00C94DA0A5C
:1015A00005E010E020E030E0A9E3B1E00D931D93E9
:1015B0002D933C93EEE7FFE20E942A16E9E3F1E067
:1015C0000E94C4140E94E8140E948F15FF27EDE0CA
:1015D000ADE2B1E00E946B16EDE2F1E00E948614EC
:1015E000A1E3B1E0EDE0FF270E946B16E1E5F1E039
:1015F0000E94C4140E94E8140E941E15EDE2F1E05E
:101600000E94C4140E948F15FF27EDE00E948614EB
:10161000A7E4B1E0EDE0FF270E946B16A7E4B1E07C
:101620000D911D912D913C9144E650E060E070E0F9
:101630000E94DF13A7E4B1E04D935D936D937D931A
:10164000E2E9FFE20E942A16EDE2F1E00E94C414F2
:101650000E943915FF27EDE00E948614ABE4B1E04B
:10166000EDE0FF270E946B16ABE4B1E00D911D91F8
:101670002D913C91A7E4B1E04D915D916D917C91EC
:101680000E945C16ABE4B1E00D931D932D933D9346
:10169000A1E3B1E04D915D916D917C91ABE4B1E03E
:1016A0000D911D912D913C910E9466160CF002C087
:1016B0000C946E0BABE4B1E00D911D912D913C911A
:1016C000A1E3B1E04D915D916D917C910E94611615
:1016D000ABE4B1E00D931D932D933D9341E050E0B9
:1016E00060E070E0ABE4B1E00D911D912D913C9173
:1016F0000E9466160CF402C00C94920BABE4B1E0AD
:101700000D911D912D913C91A1E3B1E04D915D9121
:101710006D917C910E945C16ABE4B1E00D931D933A
:101720002D933D93A1E3B1E00D911D912D913C913D
:1017300041E150E060E070E00E945514AFE3B1E099
:101740000D931D932D933D93AFE3B1E00D911D914A
:101750002D913C914CE350E060E070E00E94DF137B
:10176000AFE3B1E04D935D936D937D93AFE3B1E053
:101770000D911D912D913C91ABE4B1E04D915D91A6
:101780006D917C910E945C16AFE3B1E00D931D93C7
:101790002D933D93A1E3B1E00D911D912D913C91CD
:1017A00046E050E060E070E00E945514A3E4B1E030
:1017B0000D931D932D933D93A3E4B1E00D911D91E5
:1017C0002D913C914CE350E060E070E00E94DF130B
:1017D000A3E4B1E04D935D936D937D93A3E4B1E0F9
:1017E0000D911D912D913C91AFE3B1E04D915D9133
:1017F0006D917C910E945C16A3E4B1E00D931D9362
:101800002D933D93A1E3B1E04D915D916D917C915C
:10181000AFE3B1E00D911D912D913C910E946616B0
:101820000CF002C00C94280CAFE3B1E00D911D91B7
:101830002D913C91A1E3B1E04D915D916D917C9131
:101840000E946116AFE3B1E00D931D932D933D937C
:10185000A1E3B1E04D915D916D917C91A3E4B1E084
:101860000D911D912D913C910E9466160CF002C0C5
:101870000C944E0CA3E4B1E00D911D912D913C917F
:10188000A1E3B1E04D915D916D917C910E94611653
:10189000A3E4B1E00D931D932D933D93E1E7F1E0B7
:1018A0000E94C414E6E9FFE20E942A160E94331641
:1018B00080E010F009F081E08F93AFE5B1E00D9189
:1018C0001C91083250E0150780E014F009F081E027
:1018D0009F918923882311F40C94740C88E290E082
:1018E000AFE5B1E08D939C93AFE5B1E00D911C9114
:1018F000043650E015071CF011F00C94810C0C9488
:10190000870C84E690E0AFE5B1E08D939C93AFE562
:10191000B1E00D911C91003050E015070CF402C0AD
:101920000C94980C80E090E0AFE5B1E08D939C932F
:1019300080E090E0ABE1B1E08D939C9380E090E09B
:10194000ADE1B1E08D939C93E5E7F1E00E94C41412
:10195000EAE9FFE20E942A160E94331610F00C9466
:10196000B70C81E090E0ABE1B1E08D939C93E5E7AB
:10197000F1E00E94C414EEE9FFE20E942A160E94E0
:10198000331618F011F00C94C70C0C94CD0C81E0B8
:1019900090E0ADE1B1E08D939C93AFE5B1E00D91A6
:1019A0001C91023350E015071CF011F00C94DA0C76
:1019B0000C94660D81E090E0ABE2B1E08D939C93D6
:1019C000A9E3B1E00D911D912D913C9149E150E0C9
:1019D00060E070E00E945514ADE6B1E00D931D93F8
:1019E0002D933D93ADE6B1E00D911D912D913C916C
:1019F000AFE5B1E04D915D9157FB1EF46FEF7FEFC6
:101A000002C0662777270E94DF13ADE6B1E04D9351
:101A10005D936D937D93A9E3B1E00D911C9142E03C
:101A200050E00E94A213A7E2B1E04D935C93A7E2BD
:101A3000B1E00D911C91ADE6B1E04D915C91041BBC
:101A4000150BA7E2B1E00D931C93A9E3B1E00D9152
:101A50001C9142E050E00E94A213A9E2B1E04D9334
:101A60005C93A9E2B1E00D911C91ADE6B1E04D911E
:101A70005C91040F151FA9E2B1E00D931C93A7E23E
:101A8000B1E00D911C91013050E015070CF402C03B
:101A90000C94500D81E090E0A7E2B1E08D939C930F
:101AA00000E010E020E030E0A5E6B1E00D931D93EA
:101AB0002D933C93A9E3B1E00D911D912D913C91A3
:101AC000A9E6B1E00D931D932D933C93AFE5B1E0F2
:101AD0000D911C91023350E015071CF011F00C948D
:101AE000DC0D81E090E0A7E2B1E08D939C93A9E347
:101AF000B1E08D919C91A9E2B1E08D939C9302E3BA
:101B000010E020E030E0AFE5B1E04D915D9157FB92
:101B10001EF46FEF7FEF02C0662777270E946116E1
:101B2000A1E6B1E00D931D932D933D93A1E6B1E0A5
:101B30000D911D912D913C91A9E3B1E04D915D91E5
:101B40006D917C910E945514A1E6B1E00D931D9317
:101B50002D933D93A1E6B1E00D911D912D913C9106
:101B600046E950E060E070E00E94DF13A1E6B1E0DA
:101B70004D935D936D937D93A1E6B1E00D911D9121
:101B80002D913C91A5E6B1E00D931D932D933C93CF
:101B9000A9E3B1E00D911D912D913C91A1E6B1E039
:101BA0004D915D916D917C910E946116A9E6B1E025
:101BB0000D931D932D933D93A0EAB1E00D911C91DF
:101BC000013050E0150781E009F080E08F93ADE52A
:101BD000B1E00D911C91013050E0150781E009F052
:101BE00080E09F91892B882311F40C940B0E00E068
:101BF00010E020E030E0AFE3B1E00D931D932D93B2
:101C00003C9300E010E020E030E0A3E4B1E00D936D
:101C10001D932D933C937894ABE1B1E00D911C9111
:101C2000013050E0150711F00C94380E81E090E07F
:101C3000A9E2B1E08D939C9380E090E0A7E2B1E04F
:101C40008D939C9300E010E020E030E0A5E6B1E049
:101C50000D931D932D933C93A9E3B1E00D911D913C
:101C60002D913C91A9E6B1E00D931D932D933C93EA
:101C700000E010E020E030E0A9E5B1E00D931D9315
:101C80002D933C9301E010E020E030E0A1E0B1E0D2
:101C90000D931D932D933C93A9E3B1E04D915D917C
:101CA0006D917C91A1E0B1E00D911D912D913C9140
:101CB0000E9466161CF011F00C94AB0F0E94E61106
:101CC000A9E5B1E00D911D912D913C9141E050E0CD
:101CD00060E070E00E945C16A9E5B1E00D931D93F1
:101CE0002D933D93A7E2B1E04D915D9157FB1EF41A
:101CF0006FEF7FEF02C066277727A1E0B1E00D917B
:101D00001D912D913C910E94661680E00CF081E0BF
:101D10008F93A9E2B1E04D915D9157FB1EF46FEFF7
:101D20007FEF02C066277727A1E0B1E00D911D91FA
:101D30002D913C910E94661680E00CF481E09F9109
:101D40008923882311F40C94F00EA3E2B1E00D91E5
:101D50001C91003050E0150781E009F080E08F937E
:101D6000A5E2B1E00D911C91003050E0150781E033
:101D700009F080E09F918923882311F40C94D80EF8
:101D8000A1E2B1E00D911C91013050E0150711F076
:101D90000C94CC0E0E94E911A1E2B1E00D911C91CE
:101DA000023050E0150711F00C94D80E0E94EC118F
:101DB000A3E2B1E00D911C91013050E0150711F044
:101DC0000C94E40E0E94E911A5E2B1E00D911C9182
:101DD000013050E0150711F00C94F00E0E94EC1148
:101DE000A9E2B1E04D915D9157FB1EF46FEF7FEFDB
:101DF00002C066277727A1E0B1E00D911D912D91DA
:101E00003C910E9466160CF002C00C94090F0E94CF
:101E1000E611A5E6B1E04D915D916D917C91A1E057
:101E2000B1E00D911D912D913C910E9466160CF42C
:101E300002C00C941D0F0E94E311A9E6B1E04D9180
:101E40005D916D917C91A1E0B1E00D911D912D917D
:101E50003C910E9466161CF011F00C94310F0C940A
:101E6000330F0E94E311ADE1B1E00D911C910130FF
:101E700050E0150711F00C943F0F0E94E311A7E406
:101E8000B1E04D915D916D917C91A9E5B1E00D912D
:101E90001D912D913C910E94661611F00C94560FE5
:101EA00081E090E0AEE9B1E08D939C93ABE4B1E0CA
:101EB0004D915D916D917C91A9E5B1E00D911D91E0
:101EC0002D913C910E94661611F00C946D0F80E0EC
:101ED00090E0AEE9B1E08D939C93ADE5B1E00D915A
:101EE0001C91013050E0150711F00C947D0F80E03B
:101EF00090E0AEE9B1E08D939C93AEE9B1E00D9135
:101F00001C91013050E0150711F00C94980FABE2D2
:101F1000B1E00D911C91013050E0150711F00C94C7
:101F2000970F8BB190E889278BB90C94980F5F9A23
:101F3000AEE9B1E00D911C91003050E0150711F0B1
:101F40000C94A30F5F980E94D011A1E0B1E00E9411
:101F50008D130C944C0EA1E1B1E0EEE4FFE20E947F
:101F60005416E1E1F1E00E94C414E5E8F1E00E94BA
:101F7000C9140E94331618F011F00C94DB0FEF9384
:101F8000FF93EBEAF0E00E943314FF91EF91A1E19F
:101F9000B1E0EEE4FFE20E942A16E1E1F1E00E94E6
:101FA000C4140E94CF15FF27EDE0A1E1B1E00E942B
:101FB0006B160C94B10F01E010E020E030E0A1E0DE
:101FC000B1E00D931D932D933C93A9E3B1E04D91A6
:101FD0005D916D917C91A1E0B1E00D911D912D91EC
:101FE0003C910E9466161CF011F00C9468110E943E
:101FF000E611A9E5B1E00D911D912D913C9141E0D3
:1020000050E060E070E00E945C16A9E5B1E00D933D
:102010001D932D933D93A7E2B1E04D915D9157FB48
:102020001EF46FEF7FEF02C066277727A1E0B1E0D3
:102030000D911D912D913C910E94661680E00CF04F
:1020400081E08F93A9E2B1E04D915D9157FB1EF4C1
:102050006FEF7FEF02C066277727A1E0B1E00D9117
:102060001D912D913C910E94661680E00CF481E058
:102070009F918923882311F40C94AD10A3E2B1E061
:102080000D911C91003050E0150781E009F080E0CF
:102090008F93A5E2B1E00D911C91003050E015073F
:1020A00081E009F080E09F918923882311F40C944A
:1020B0009510A8EBB1E00D911C91013050E015078F
:1020C00011F00C947D10A1E2B1E00D911C91013052
:1020D00050E0150711F00C946F100E94E911A1E275
:1020E000B1E00D911C91023050E0150711F00C94F5
:1020F0007B100E94EC110C949510A1E2B1E00D91BF
:102100001C91013050E0150711F00C9489100E94C9
:10211000EC11A1E2B1E00D911C91023050E01507E5
:1021200011F00C9495100E94E911A3E2B1E00D9119
:102130001C91013050E0150711F00C94A1100E9481
:10214000EC11A5E2B1E00D911C91013050E01507B2
:1021500011F00C94AD100E94E911A9E2B1E04D918B
:102160005D9157FB1EF46FEF7FEF02C06627772764
:10217000A1E0B1E00D911D912D913C910E94661658
:102180000CF002C00C94C6100E94E611A5E6B1E066
:102190004D915D916D917C91A1E0B1E00D911D910A
:1021A0002D913C910E9466160CF402C00C94DA103A
:1021B0000E94E311A9E6B1E04D915D916D917C9192
:1021C000A1E0B1E00D911D912D913C910E94661608
:1021D0001CF011F00C94EE100C94F0100E94E3111E
:1021E000ADE1B1E00D911C91013050E0150711F007
:1021F0000C94FC100E94E311A7E4B1E04D915D91B5
:102200006D917C91A9E5B1E00D911D912D913C91CD
:102210000E94661611F00C94131181E090E0AEE973
:10222000B1E08D939C93ABE4B1E04D915D916D91E4
:102230007C91A9E5B1E00D911D912D913C910E94F9
:10224000661611F00C942A1180E090E0AEE9B1E03E
:102250008D939C93ADE5B1E00D911C91013050E060
:10226000150711F00C943A1180E090E0AEE9B1E06E
:102270008D939C93AEE9B1E00D911C91013050E03B
:10228000150711F00C945511ABE2B1E00D911C91C2
:10229000013050E0150711F00C9454118BB190E807
:1022A00089278BB90C9455115F9AAEE9B1E00D9175
:1022B0001C91003050E0150711F00C9460115F98EC
:1022C0000E94D011A1E0B1E00E948D130C94E50FA3
:1022D0000C944C01A3E4B1E04D915D916D917C9122
:1022E000AFE3B1E00D911D912D913C910E946616D6
:1022F0001CF011F00C94A911AFE3B1E04D915D9188
:102300006D917C91A9E5B1E00D911D912D913C91CC
:102310000E94661680E00CF081E08F93A3E4B1E0A8
:102320004D915D916D917C91A9E5B1E00D911D916B
:102330002D913C910E94661681E014F009F080E036
:102340009F918923882311F40C94A7115F9A0C9410
:10235000CF11AFE3B1E04D915D916D917C91A9E515
:10236000B1E00D911D912D913C910E9466160CF0EB
:1023700002C00C94BC115F9AA3E4B1E04D915D9151
:102380006D917C91A9E5B1E00D911D912D913C914C
:102390000E9466161CF011F00C94CF115F9A0895FC
:1023A000EF93FF93E8EAFDE00E943314FF91EF9171
:1023B0000E946A11EF93FF93E8EDF5E00E94331459
:1023C000FF91EF9108955A985C9808955A9A5C9AF3
:1023D00008955A9A5C9808955A985C9A08950F92B5
:1023E0001F922F923F924F925F927F92AF92BF9235
:1023F0000F931F932F933F934F935F936F937F930D
:102400008F939F93AF93BF93CF93DF93EF93FF93FC
:102410008FB78F930027BB27A3E28C9182FB0EF42A
:1024200001E04427A7E9B1E08C9184FB0EF44395C9
:10243000041711F40C943F120027BB27A3E28C91E0
:1024400082FB0EF401E040E0041711F00C9430120E
:10245000A6E4B0E08C91A3E9B1E08D9388278C933A
:102460000027BB27A3E28C9182FB0EF401E041E040
:10247000041711F00C943F1280E08093460000276F
:10248000BB27A3E28C9180FB0EF401E04427A7E96F
:10249000B1E08C9185FB0EF44395041711F40C9474
:1024A0008D120027BB27A3E28C9180FB0EF401E084
:1024B00040E0041711F00C947E120091B200083C29
:1024C00010F00C947E120091B200023318F011F05B
:1024D0000C946C120C947E12A2EBB0E08C91A5E9E6
:1024E000B1E08D9388278C9300E010E020E030E08D
:1024F000A5E1B1E00D931D932D933C930027BB27DD
:10250000A3E28C9180FB0EF401E041E0041711F08E
:102510000C948D1280E08093B2000027BB27A3E2C9
:102520008C9181FB0EF401E04427A7E9B1E08C9186
:1025300083FB0EF44395041711F40C94ED1200275D
:10254000BB27A3E28C9181FB0EF401E040E004176D
:1025500011F00C94D912A4E8B0E00D911C91AAE9F5
:10256000B1E04D915C91041B150BA9E1B1E00D9315
:102570001C93A9E1B1E00D911C91033151E01507C5
:102580001CF011F00C94C6120C94D912A9E1B1E020
:102590000D911C910C3B52E015070CF402C00C94F9
:1025A000D912A9E1B1E08D919C91AFE8B1E08D9392
:1025B0009C930027BB27A3E28C9181FB0EF401E0E2
:1025C00041E0041711F00C94ED12A4E8B0E08D91F5
:1025D0009C91AAE9B1E08D939C930027BB27A3E2CD
:1025E0008C9185FB0EF401E04427A7E9B1E08C91C2
:1025F00082FB0EF44395041711F40C944D1300273D
:10260000BB27A3E28C9185FB0EF401E040E00417A8
:1026100011F00C943913A4E8B0E00D911C91ACE9D1
:10262000B1E04D915C91041B150BA9E1B1E00D9354
:102630001C93A9E1B1E00D911C91033151E0150704
:102640001CF011F00C9426130C943913A9E1B1E09D
:102650000D911C910C3B52E015070CF402C00C9438
:102660003913A9E1B1E08D919C91A1E9B1E08D937D
:102670009C930027BB27A3E28C9185FB0EF401E01D
:1026800041E0041711F00C944D13A4E8B0E08D91D3
:102690009C91ACE9B1E08D939C93BB27A3E28C9114
:1026A00080FBA7E9B1E08C9185F98C93BB27A3E26D
:1026B0008C9182FBA7E9B1E08C9184F98C93BB27C4
:1026C000A3E28C9181FBA7E9B1E08C9183F98C9313
:1026D000BB27A3E28C9185FBA7E9B1E08C9182F93D
:1026E0008C938F918FBFFF91EF91DF91CF91BF912D
:1026F000AF919F918F917F916F915F914F913F919A
:102700002F911F910F91BF90AF907F905F904F904E
:102710003F902F901F900F9018950D911D912D9126
:102720003C9181E0080F8827181F281F381F3C9311
:102730002E931E930E93089509D00E944B1400FC13
:1027400010D0089503D01ED001F8F9CF0024E894EA
:1027500057FF02C009D0689400F80BD010F801248C
:10276000089502D009D00895509540954F5F5F4F6E
:102770000895E89417FF0895009510950F5F1F4F77
:1027800068940895352F242FE894452B11F468940C
:102790000895512F402F0027112780E1440F551F26
:1027A000001F111F021B130B416018F4020F131FAF
:1027B0004E7F8A9599F7089500FC05D0089530D092
:1027C00005D001F8F9CF37D03FD00895842F952F49
:1027D000A62FB72FE894452B462B472B11F468946E
:1027E0000895402F512F622F732F00271127222782
:1027F0003327F0E2440F551F661F771F001F111F7C
:10280000221F331F081B190B2A0B3B0B416028F4B6
:10281000080F191F2A1F3B1F4E7FFA9559F708957D
:102820000024E89477FF02C006D0689400F809D02D
:1028300010F80124089512D04F5F5F4F6F4F7F4F04
:102840000895E89437FF08950095109520953095E8
:102850000F5F1F4F2F4F3F4F68940895409550953D
:102860006095709508953197F1F70895689462F82E
:102870000895E89462F80895EF93FF93EE27E82B0C
:10288000E92B31F0E8E8F3E13197F1F70197D1F75F
:10289000FF91EF9108950F92B801469F8001479FE5
:1028A000100D569F100D0F9008950F921F922F92AA
:1028B000C801D901489F80014A9F90014B9F202C5D
:1028C000499F100D211D321D5A9F202C589F100D1D
:1028D000211D321D599F200D311D689F200D311D76
:1028E000699F300D789F300D2F901F900F900895A5
:1028F00080917A00806C80937A0080917A0086FDC6
:10290000FCCF809178009091790008953DD099276F
:1029100011278F2D880F80E8F82A802F881F08F450
:102920001FEF41F08F57082F07FD04C0003240F021
:102930008FEF01C08827982FD82EE82EF82E09C0D7
:102940008FE1801B082FF694E794D79497950A950A
:10295000D1F7112351F09095D094E094F09481E058
:10296000980F8827D81EE81EF81E0F2DFE2CED2C80
:10297000D92E0895D094E094F09491E0D90E99273F
:10298000E91EF91E10950895D190E190F190019102
:10299000089521913191419151910895102F90E81E
:1029A000FF0C001F0927990FF7941078652F90E806
:1029B000440F551F5927990F47956078003808959F
:1029C000FF0C90E89027110F9795F794092F089521
:1029D000102FBD2CDE2CEF2CF02E11234AF4B094D6
:1029E000D094E094F0949FEFB91AD90AE90AF90A51
:1029F0000EE1FF2039F4FE2CED2CDB2CBB2408501B
:102A0000C2F76BC032F00A95BB0CDD1CEE1CFF1C3C
:102A1000F9CF01D0D5CFB7FE089590E8B91611F4DB
:102A2000D0FE08959FEFD91AE90AF90A09F403952F
:102A30000895DD92ED92FD920C930895502F2D2D67
:102A40003E2D4F2D612F08952DEC3CEC4CEC5DE3B9
:102A500066270FC099DFF2DFDD24EE2490E8F92E1F
:102A60000FE307C096DF05C02227332740E251E479
:102A70006627552351F1002381F190DF71F116276C
:102A8000005850580894050B18F407FD03C025C0E2
:102A900007FD23C0469537952795F694E794D7947C
:102AA00022D0FF202AF0DD0CEE1CFF1C015073F039
:102AB0009D2D969548F0DD203AF4EE202AF491E021
:102AC000D90E9927E91EF91E7BCF07C09FE7092F72
:102AD000F92A9FEFD92EE92E0895DD24EE24FF2454
:102AE0000027112708959F929924AA24BB2488E1E6
:102AF000D216E306F40628F0D21AE30AF40A089480
:102B000001C08894991CAA1CBB1CDD0CEE1CFF1C88
:102B10008A9571F7D92CEA2CFB2C9F9008953EDF03
:102B2000E1F25038D1F21627005850580894051F8A
:102B300012F418F4CBCF08F0D0CF0AD0FF202AF03F
:102B4000BB0CDD1CEE1CFF1C3BCF0F5FFBF138CF35
:102B50009F929924AA24BB24992788E1990CAA1C46
:102B6000BB1CDD1CEE1CFF1C30F4920EA31EB41E19
:102B7000D91EE91EF91E8A9589F79F90089509DFED
:102B80000DDF503829F090E869270CC00AF045D0D5
:102B900017CF5FE322273327442701C0FADEFEDE8A
:102BA0005038B1F3003899F3902F951B8BF312F442
:102BB00034D0FACF983118F02227332744279830A1
:102BC00028F0232F342F44279850F9CF992329F048
:102BD0004695379527959A95D9F7912F962742F0E4
:102BE00014D0B0F6F794E794D7940F5F8BF66ECFBE
:102BF00010D051F008F4BEDEFF2052F2DD0CEE1CC6
:102C0000FF1C0150CBF762CF68CFD20EE31EF41E3B
:102C10000895D21AE30AF40A0895DF92EF92FF9220
:102C20000F931F93D22EE32EF42E052F162F6F91A4
:102C30005F914F913F912F910895C8953196002053
:102C40000895FBDFD02CF9DFE02CF7DFF02CF5DF67
:102C5000002D0895F2DF202DF0DF302DEEDF402D26
:102C6000ECDF502D089507FB00680EF40F7757FB3B
:102C700050680EF45F7707FD02C057FF05C0D216FB
:102C8000E306F406050708952D153E054F05500788
:102C9000089500240D280E280F28002A00200895EA
:102CA00091E005C092E003C094E001C098E0C5DF68
:102CB0000D929A95E1F70895040F151F261F371FEF
:102CC0000895041B150B260B370B089504171507E1
:102CD00026073707089594E081918D939A95E1F73F
:102CE0000895F999FECFE1BDF2BD3196089591E0C6
:102CF00001C092E07B3751F47FB7F894F2DF8D91F9
:102D000080BDFA9AF99A9A95C9F77FBF77270895F7
:102D100091E001C092E0E5DFF89A80B58D939A9535
:102D2000D1F7089531DE3ADE0395AAF087E1DD0C94
:102D3000EE1CFF1C8A9589F00A95CAF7FF205AF00D
:102D400000240D280E280F28002039F00A95DD0CEC
:102D5000EE1CFF1CDAF70A9533CEBFCEBECE14DED2
:102D60000023E2F396DF19F4B1DE0068089585E0F0
:102D7000D4D0FF0C001F04830FE70695F794E0D032
:102D800050680DDF56DE139721E438E743ED5BEB27
:102D9000C6DE27E831ED43E15DE399D02EE03CE368
:102DA00043EC5DEB94D022E83DEA4BE25EE38FD04A
:102DB0002CEE32E846E75EEB8AD020E931EE49EAB4
:102DC0005EE385D020E83FEE4FEF5EEB80D024EC51
:102DD0003FEF4FE75FE37BD02CDE139784818F5763
:102DE00099F02AF4D82E0FEFE02EF02E04C0D82E42
:102DF000EE24FF240027ECDD28E132E741E35FE326
:102E00008EDEC7DD3497CBDE95C060DE93C0BCDDBF
:102E100086E083D005830F772BE33AEA48EB5FE344
:102E20007EDE07DE139741D028F4858188236AF778
:102E300054DE80C08F778483A7DD349774DFF9DD9B
:102E4000139723E632E446E357EB69DE29ED37EAD0
:102E50004AE159E33CD026E538E14EEA5AEB37D057
:102E600026E53CE84DE15CE332D02DEC37E543E666
:102E70005DEB2DD02DEE3DEF45E75EE328D028E158
:102E800032E741E35FEB23D05BD089DED7DDDD2481
:102E9000EE24FF2404818FE7080F0695F794E9DDFF
:102EA0008581881F08F4D7DD45C078DD8827039524
:102EB00012F48894089507301AF0812F0894089529
:102EC000FF1C881F0A95E2F7812B8894089567DE1E
:102ED00060DD349724CEDDDE81F00F930F772F93E2
:102EE0003F934F935F933CDF5F914F913F912F91C1
:102EF00016DE8EDF8F918078082B089545DD0F93C5
:102F0000AF93BF930F772CDFFF91EF9142DD07DE88
:102F10007FDF8F918078082B08950FB6F8944A923E
:102F20005A92E42DF52DA42DB52D480E8827581E54
:102F30000FBE08950FB6F894599049900FBE0895AA
:102F40005FE340E83327222708953D0A973F0000BA
:102F5000803F0080F4430000C842000000000000F1
:102F6000003F42E0654200007A44000070420000E9
:102F7000A03F0000403FA4707D3F713D0A3F00002C
:102F800000400080EE43809F554B00A0F0450000BC
:102F90002041000040400000FA4300004843006028
:022FA0006A4580
:00000001FF
