:100000000C94340018950000189500000C943806E4
:10001000189500001895000018950000189500002C
:10002000189500001895000018950000189500001C
:10003000189500001895000018950000189500000C
:1000400018950000189500001895000018950000FC
:1000500018950000189500001895000018950000EC
:1000600018950000189500008FEF8DBFC0EEE6ECEC
:100070004E2E84E08EBFD4E0F4E05F2EEEEFF3E08E
:10008000A0E0B1E088278D933197E9F781E880936C
:10009000C40080E08093C50088E18093C10066249D
:1000A00087E080937A0080EC80937C008FEF8AB9A0
:1000B00080E084B9789480916800816080936800C2
:1000C00089E180936B0084E085BD80E084BD80E0A1
:1000D0008093800083E08093810086E08093B1006C
:1000E00080E08093B00084E085BD83E08093810050
:1000F00086E08093B10080916E008E7F80936E00C9
:1001000080916F008E7F80936F00809170008E7F52
:100110008093700005ED11E020E030E0A1E7B1E050
:100120000D931D932D933C930CED11E020E030E0F6
:10013000A5E7B1E00D931D932D933C9301ED11E0E4
:1001400020E030E0A9E7B1E00D931D932D933C939F
:1001500009ED11E020E030E0ADE7B1E00D931D9333
:100160002D933C93ADE8B1E0E4E4FAE10E94260B64
:10017000A9E2B1E0E8E4FAE10E94260BADE2B1E0C9
:10018000ECE4FAE10E94260BA1E3B1E0E0E5FAE13C
:100190000E94260B80E092E0ABE0B1E08D939C934F
:1001A00081E08093000180E090E0AFE6B1E08D93C4
:1001B0009C9300910001013011F00C942B06AFE6E6
:1001C000B1E00D911C9141E050E0040F151FAFE626
:1001D000B1E00D931C9380E090E0AAE6B1E08D932E
:1001E0009C93AFE6B1E00D911C910F3050E01507E4
:1001F0001CF011F00C94FE000C940A0180E090E0D9
:10020000A5E5B1E08D939C9381E090E0AAE6B1E092
:100210008D939C93A5E5B1E00D911C91033750E0BF
:10022000150780E00CF481E08F93A5E5B1E00D9116
:100230001C91083C50E0150780E014F009F081E0C3
:100240009F91892B8F93ADE5B1E00D911C91013009
:1002500050E0150781E009F080E09F91892B882309
:1002600011F40C94F7010E942C06AFE5B1E0EDE427
:10027000F1E00E944E0BAFE5B1E00E94B407E4E864
:10028000FAE10E94BA07AFE5B1E0EFE4F1E00E94C5
:100290004E0BAFE5B1E00E94B407E4E8FAE10E943A
:1002A000BA070C94C301AFE5B1E0E5E5F1E00E94C7
:1002B0004E0BAFE5B1E00E94B407E4E8FAE10E941A
:1002C000BA07AFE5B1E0E7E0F1E00E94460BE8E8ED
:1002D000FAE10E94BA07AFE5B1E00E94B4070E94BC
:1002E000C107AFE5B1E0E9E3F1E00E9496090E94A1
:1002F0003A08E4E9FAE10E94BA07AFE5B1E00E94EA
:10030000B4070E94C107AFE5B1E0E5E4F1E00E9467
:1003100096090E943A08ECE9FAE10E94BA07AFE5B3
:10032000B1E00E94B4070E94C10785EC806C809305
:100330007C000E944A09A9E0B1E08D939C93AFE54F
:10034000B1E0E9E0F1E00E94460BECEAFAE10E943C
:10035000BA07AFE5B1E00E94B4070E94C107AFE55C
:10036000B1E0EAE6F1E00E944E0BECEBFAE10E940C
:10037000BA07AFE5B1E00E94B407E4E8FAE10E94F1
:10038000BA070E94C10784E690E00E942B085E9A9B
:100390008AE090E00E942B085E98AFE5B1E0E1E9C9
:1003A000F1E00E9496090E943A08E4ECFAE10E940A
:1003B000BA07AFE5B1E00E94B407E4E8FAE10E94B1
:1003C000BA07AFE5B1E0E9E1F1E00E94490BE4ECE6
:1003D000FAE10E94BA07AFE5B1E00E94B4070E94BB
:1003E000C1078AE090E00E942B080C940A01F8945F
:1003F00070917A00706870937A0085EC806C8093BD
:100400007C000E944A09A7E0B1E08D939C93709113
:100410007A007F7770937A00A7E0B1E08D919C918C
:10042000A5E0B1E08D939C93ABE0B1E04D915C9180
:10043000A5E0B1E00D911C910417150710F00C9484
:100440002902ABE0B1E08D919C91A5E0B1E08D93E4
:100450009C93A5E0B1E00D911C91ABE0B1E04D9112
:100460005C91041B150BA5E0B1E00D931C93E4E532
:10047000FAE10E94FC0AE5E0F1E0D190E080FF247F
:1004800000270E94BA090E940B0AFF27EDE0A9E3AA
:10049000B1E00E949F0BE9E2F1E00E949B09E8E5D0
:1004A000FAE10E94F30A0E94610AFF27EDE0A5E34A
:1004B000B1E00E949F0BE5E3F1E00E949B09E9E3B4
:1004C000F1E00E9496090E940B0AFF27EDE0A5E3E8
:1004D000B1E00E949F0BECE5FAE10E94FC0AE5E323
:1004E000F1E00E9496090E94C80CFF27EDE0A5E309
:1004F000B1E00E949F0BE0E6FAE10E94FC0AE5E30E
:10050000F1E00E9496090E94610AFF27EDE0A5E351
:10051000B1E00E949F0BE4E6FAE10E94FC0AE5E3E9
:10052000F1E00E9496090E940B0AFF27EDE0A5E486
:10053000B1E00E949F0BE5E4F1E00E949B09E8E630
:10054000FAE10E94F30A0E940B0AFF27EDE0A5E4FE
:10055000B1E00E949F0BE0E6FAE10E94FC0AE5E4AC
:10056000F1E00E9496090E94610AFF27EDE0A5E4F0
:10057000B1E00E949F0BAFE0B1E00D911C91013002
:1005800050E0150711F00C94CD0282E090E0AFE04E
:10059000B1E08D939C930C94D30281E090E0AFE0A6
:1005A000B1E08D939C93AFE4B1E00D911D9117FBE9
:1005B0001EF42FEF3FEF02C02227332744E050E024
:1005C00060E070E00E942709A1E5B1E00D931D9362
:1005D0002D933D93EDE4F1E0D190E0808FEFE7FEC5
:1005E0008827F82E082F0E94BA090E94F0092F933D
:1005F0003F934F935F93E1E7F1E00E9496090E94D9
:10060000BA095F914F913F912F910E94920AFF2763
:10061000EDE0A1E8B1E00E949F0BE1E5F1E00E946E
:1006200096090E94BA090E94F0092F933F934F93B5
:100630005F93E5E7F1E00E9496090E94BA095F9195
:100640004F913F912F910E94920AFF27EDE0A5E87C
:10065000B1E00E949F0BE9E8F1E0ADE8B1E00E9453
:100660009F0BE5E8F1E0A1E8B1E00E94EE0CFF2766
:10067000EDE0A9E8B1E00E949F0BECE6FAE10E94F0
:10068000FC0AE9E8F1E00E9496090E94610AFF274E
:10069000EDE0A9E8B1E00E949F0BE0E7FAE10E94DB
:1006A000FC0AE9E8F1E00E9496090E940B0AFF2784
:1006B000EDE0A9E8B1E00E949F0BE9E8F1E00E94BB
:1006C0009B09ECE6FAE10E94F30A0E94920AFF27D6
:1006D000EDE0A9E8B1E00E949F0BEDE8F1E00E9497
:1006E0009B09E9E8F1E00E9496090E94920AFF271F
:1006F000EDE0A1E9B1E00E949F0BE1E9F1E00E9489
:100700009609ECE6FAE10E94FC0A0E94050B18F03B
:1007100011F00C948D030C949D03E4E7FAE10E9420
:10072000FC0AE1E9F1E00E9496090E94920AFF2783
:10073000EDE0A1E9B1E00E949F0BE1E9F1E00E9448
:100740009609E8E7FAE10E94FC0A0E94050B10F006
:100750000C94BA03E4E7FAE10E94FC0AE1E9F1E053
:100760000E9496090E94A10AFF27EDE0A1E9B1E0ED
:100770000E949F0BE5E4F1E00E949B09E1E9F1E0B2
:100780000E9496090E94610AFF27EDE0A1E9B1E00D
:100790000E949F0BE5E4F1E00E949B09E1E9F1E092
:1007A0000E9496090E94610AFF27EDE0A9E4B1E0EA
:1007B0000E949F0BE4E7FAE10E94FC0AE9E4F1E001
:1007C0000E9496090E940B0AFF27EDE0A9E4B1E020
:1007D0000E949F0BECE7FAE10E94FC0AE9E4F1E0D9
:1007E0000E9496090E940B0AFF27EDE0A9E4B1E000
:1007F0000E949F0BE9E4F1E00E949B09E5E4F1E02F
:100800000E9496090E94A10AFF27EDE0A5E4B1E04D
:100810000E949F0BE5E4F1E00E945809A9E1B1E0D4
:10082000EDE0FF270E949F0BE9E1F1E00E949609AD
:100830000E94BA090E94F009E5E4F1E00E949609DD
:100840000E94920AFF27EDE0A5E9B1E00E949F0B0C
:10085000E0E8FAE10E94FC0AE5E9F1E00E9496096D
:100860000E94610AFF27EDE0A5E9B1E00E949F0B1D
:1008700084E690E08A939A930E945E072296A9E903
:10088000B1E00D931C93E9E9F1E0D190E0808FEFA6
:10089000E7FE8827F82E082F0E94BA09ABE9B1E0DD
:1008A0000E94EB09E5E9F1E00E949609EBE9F1E02D
:1008B0000E949B090E94050B18F011F00C94620431
:1008C0000C947404A9E1B1E00D911D912D913C911E
:1008D00041E050E060E070E00E942E0BA9E1B1E041
:1008E0000D931D932D933D93E4E5FAE10E94FC0ADC
:1008F000E5E4F1E00E9496090E940B0AFF27EDE073
:100900000E945809A9E1B1E0EDE0FF270E949F0B8A
:100910004AEF50E060E070E0A9E1B1E00D911D9177
:100920002D913C910E94330B1CF011F00C949A0411
:100930000C94A4040AEF10E020E030E0A9E1B1E05B
:100940000D931D932D933C9345E050E060E070E0E3
:10095000A9E1B1E00D911D912D913C910E94330BC5
:100960000CF402C00C94BE0405E010E020E030E07E
:10097000A9E1B1E00D931D932D933C937894A9E1E7
:10098000B1E00D911D912D913C9142E050E060E06D
:1009900070E00E94CE07A5E2B1E04D935D936D93A8
:1009A0007D93A9E1B1E00D911D912D913C9144E021
:1009B00050E060E070E00E94CE07ADE1B1E04D9301
:1009C0005D936D937D93ADE1B1E00D911D912D91FE
:1009D0003C9143E050E060E070E00E942709ADE107
:1009E000B1E00D931D932D933D93ADE1B1E00D91D9
:1009F0001D912D913C91A1E2B1E00D931D932D939A
:100A00003C9381E090E0A5E1B1E08D939C93A9E156
:100A1000B1E08D919C91A7E1B1E08D939C93AFE003
:100A2000B1E00D911C91013050E0150711F00C94CC
:100A30001B050E943206AFE0B1E00D911C9102301F
:100A400050E0150711F00C9427050E94350681E04F
:100A500090E0A1E0B1E08D939C93A9E1B1E04D91CC
:100A60005D916D917C91A1E0B1E00D911D9117FB1D
:100A70001EF42FEF3FEF02C0222733270E94330BD3
:100A80001CF011F00C949C05A5E1B1E04D915C9136
:100A9000A1E0B1E00D911C910417150711F00C9421
:100AA0006905A1E1B1E00D911C91013050E01507FD
:100AB00011F00C945D050E943206A3E1B1E00D91A6
:100AC0001C91013050E0150711F00C9469050E944B
:100AD0003506A7E1B1E04D915C91A1E0B1E00D9147
:100AE0001C910417150711F00C9478050E942F062D
:100AF00081E090E00E942B08A1E2B1E04D915D9170
:100B00006D917C91A1E0B1E00D911D9117FB1EF458
:100B10002FEF3FEF02C0222733270E94330B1CF038
:100B200011F00C9495050C9496055E98A1E0B1E047
:100B30000E9457070C942D05AFE0B1E00D911C9178
:100B4000013050E0150711F00C94A8050E94320600
:100B5000AFE0B1E00D911C91023050E0150711F0AB
:100B60000C94B4050E94350681E090E0A1E0B1E06C
:100B70008D939C93A9E1B1E04D915D916D917C9134
:100B8000A1E0B1E00D911D9117FB1EF42FEF3FEF97
:100B900002C0222733270E94330B1CF011F00C9463
:100BA0002906A5E1B1E04D915C91A1E0B1E00D9184
:100BB0001C910417150711F00C94F605A1E1B1E0A2
:100BC0000D911C91013050E0150711F00C94EA05CD
:100BD0000E943506A3E1B1E00D911C91013050E077
:100BE000150711F00C94F6050E943206A7E1B1E05A
:100BF0004D915C91A1E0B1E00D911C910417150796
:100C000011F00C9405060E942F0681E090E00E94EE
:100C10002B08ADE1B1E04D915D916D917C91A1E02A
:100C2000B1E00D911D9117FB1EF42FEF3FEF02C0B5
:100C3000222733270E94330B1CF011F00C9422065C
:100C40000C9423065E9AA1E0B1E00E9457070C9431
:100C5000BA050C94D90008955B985C9808955B9A46
:100C60005C9A08955B985C9A08955B9A5C980895E5
:100C70000F921F922F923F924F925F927F92AF926C
:100C8000BF920F931F932F933F934F935F936F9355
:100C90007F938F939F93AF93BF93CF93DF93EF9304
:100CA000FF938FB78F9381E090E0ACE6B1E08D9336
:100CB0009C930027BB27A3E28C9184FB0EF401E0F8
:100CC0004427AEE6B1E08C9186FB0EF44395041701
:100CD00011F40C948E060027BB27A3E28C9184FBB1
:100CE0000EF401E040E0041711F00C947F06A6E436
:100CF000B0E08C91AFE4B1E08D9388278C9300270E
:100D0000BB27A3E28C9184FB0EF401E041E00417C1
:100D100011F00C948E0680E0809346000027BB27DC
:100D2000A3E28C9183FB0EF401E04427AEE6B1E030
:100D30008C9185FB0EF44395041711F40C94E50691
:100D40000027BB27A3E28C9183FB0EF401E040E077
:100D5000041711F00C94D306A4E8B0E08D919C9197
:100D6000ADE4B1E08D939C93A4E8B0E00D911C91AB
:100D70000A3852E0150710F00C94D306A4E8B0E04E
:100D80000D911C910C3251E0150718F011F00C94E4
:100D9000CB060C94D306A4E8B0E08D919C91ADE411
:100DA000B1E08D939C930027BB27A3E28C9183FB3A
:100DB0000EF401E041E0041711F00C94E50680E028
:100DC00090E090938500809384000027BB27A3E2E6
:100DD0008C9180FB0EF401E04427AEE6B1E08C91EB
:100DE00087FB0EF44395041711F40C942007002799
:100DF000BB27A3E28C9180FB0EF401E040E00417D6
:100E000011F00C941107A2EBB0E08C91A5E5B1E0D4
:100E10008D9388278C9380E090E0AFE6B1E08D93CE
:100E20009C930027BB27A3E28C9180FB0EF401E08A
:100E300041E0041711F00C94200780E08093B20089
:100E4000BB27A3E28C9180FBAEE6B1E08C9187F9E1
:100E50008C93BB27A3E28C9184FBAEE6B1E08C912E
:100E600086F98C93BB27A3E28C9183FBAEE6B1E0BD
:100E70008C9185F98C938F918FBFFF91EF91DF91CA
:100E8000CF91BF91AF919F918F917F916F915F9122
:100E90004F913F912F911F910F91BF90AF907F90F5
:100EA0005F904F903F902F901F900F901895ED916D
:100EB000FC91EF5FFF4FFC93EE93089540919F01EB
:100EC0005091A0010DE815E30E94720749E156E335
:100ED000040F151F00939F011093A00149815881B1
:100EE0000C94980709D00E941D0900FC10D00895A9
:100EF00003D01ED001F8F9CF0024E89457FF02C0B8
:100F000009D0689400F80BD010F80124089502D09D
:100F100009D00895509540954F5F5F4F0895E8942C
:100F200017FF0895009510950F5F1F4F689408955F
:100F3000352F242FE894452B11F468940895512FF0
:100F4000402F0027112780E1440F551F001F111F5C
:100F5000021B130B416018F4020F131F4E7F8A957A
:100F600099F70895AEEAB4E08D91882311F00CD082
:100F7000FBCF08950E94EF0A802D11F005D0FACF23
:100F800008958DE001D08AE00090C00005FEFCCFFE
:100F90008093C600089500FC05D0089530D005D098
:100FA00001F8F9CF37D03FD00895842F952FA62F81
:100FB000B72FE894452B462B472B11F468940895DE
:100FC000402F512F622F732F0027112722273327FD
:100FD000F0E2440F551F661F771F001F111F221FCD
:100FE000331F081B190B2A0B3B0B416028F4080F19
:100FF000191F2A1F3B1F4E7FFA9559F708950024A9
:10100000E89477FF02C006D0689400F809D010F881
:101010000124089512D04F5F5F4F6F4F7F4F0895A7
:10102000E89437FF089500951095209530950F5F4F
:101030001F4F2F4F3F4F68940895409550956095EE
:10104000709508953197F1F70895689462F80895BE
:10105000E89462F80895EF93FF93EE27E82BE92BCD
:1010600031F0E8E8F3E13197F1F70197D1F7FF911B
:10107000EF9108958DE207FD8D938F2D881F802FAE
:10108000881F8F57082F6894F7F8802F87FF15C0A7
:1010900080958395082F80E38D938EE28D93802F2A
:1010A000815228F080E38D9399279C9308954427DB
:1010B0000A95802F09F196D01FC0805230F09EE42F
:1010C0009D9381E48D939D93EFCF4427DF92EF9220
:1010D000FF920F938FE1801B11F0082F83D089D0EE
:1010E0009EE29D930F91FF90EF90DF904427039530
:1010F000003209F4D7CF2BD03F93E4E8F1E138E197
:101100002F2D1E2D0D2DFF24EE24DD244427000F4E
:10111000111F221FA8F42F923F920E94EF0A102C59
:101120000E94EF0A202C0E94EF0A302C0E94EF0A46
:101130003197410DD21CE31CF01C3F902F9001C051
:10114000339631963A9519F73F9107D0AFCFDD0C22
:10115000EE1CFF1C0A95D9F70895002719E058D016
:101160008F93802B11F0039501C08F911A95B9F7D9
:10117000802F882309F496CF8F91805D8D930A95F7
:10118000D9F792CF0065CD1D80B2E60E40597307A6
:10119000A0ACB90350D6DC01286BEE009435770083
:1011A000CA9A3B0065CD1D00B2E60E0059730700D8
:1011B000ACB90300D6DC01006BEE0000357700000F
:1011C0009A3B0000CD1D0000E60E000073070000F2
:1011D000B9030000DC010000EE0000007700000011
:1011E0003B000000F694E794D79447950A95D1F711
:1011F000089500270DD08F9303958F2D8E298D296B
:10120000842BC1F78F91805D8D930A95D9F74CCFD0
:101210001F930F93002710E2440FDD1CEE1CFF1CF0
:10122000001F802F9AE0890B10F0082F43951A9524
:1012300099F7802F0F911F9108950F92B801469F43
:101240008001479F100D569F100D0F9008950F922B
:101250001F922F92C801D901489F80014A9F900197
:101260004B9F202C499F100D211D321D5A9F202C71
:10127000589F100D211D321D599F200D311D689F53
:10128000200D311D699F300D789F300D2F901F90DC
:101290000F90089580917A00806C80937A008091FD
:1012A0007A0086FDFCCF80917800909179000895B6
:1012B0003DD0992711278F2D880F80E8F82A802F9D
:1012C000881F08F41FEF41F08F57082F07FD04C057
:1012D000003240F08FEF01C08827982FD82EE82EDB
:1012E000F82E09C08FE1801B082FF694E794D7945D
:1012F00097950A95D1F7112351F09095D094E094E9
:10130000F09481E0980F8827D81EE81EF81E0F2D54
:10131000FE2CED2CD92E0895D094E094F09491E019
:10132000D90E9927E91EF91E10950895D190E190E4
:10133000F190019108952191319141915191089538
:10134000102F90E8FF0C001F0927990FF7941078D1
:10135000652F90E8440F551F5927990F47956078DE
:1013600000380895FF0C90E89027110F9795F79497
:10137000092F0895102FBD2CDE2CEF2CF02E1123F9
:101380004AF4B094D094E094F0949FEFB91AD90A3B
:10139000E90AF90A0EE1FF2039F4FE2CED2CDB2CD2
:1013A000BB240850C2F76BC032F00A95BB0CDD1CA1
:1013B000EE1CFF1CF9CF01D0D5CFB7FE089590E801
:1013C000B91611F4D0FE08959FEFD91AE90AF90A67
:1013D00009F403950895DD92ED92FD920C93089522
:1013E000502F2D2D3E2D4F2D612F08952DEC3CECCF
:1013F0004CEC5DE366270FC099DFF2DFDD24EE24BD
:1014000090E8F92E0FE307C096DF05C022273327A7
:1014100040E251E46627552351F1002381F190DF2A
:1014200071F11627005850580894050B18F407FD61
:1014300003C025C007FD23C0469537952795F69430
:10144000E794D79422D0FF202AF0DD0CEE1CFF1C7D
:10145000015073F09D2D969548F0DD203AF4EE2072
:101460002AF491E0D90E9927E91EF91E7BCF07C017
:101470009FE7092FF92A9FEFD92EE92E0895DD2441
:10148000EE24FF240027112708959F929924AA246F
:10149000BB2488E1D216E306F40628F0D21AE30A48
:1014A000F40A089401C08894991CAA1CBB1CDD0C8A
:1014B000EE1CFF1C8A9571F7D92CEA2CFB2C9F900F
:1014C00008953EDFE1F25038D1F216270058505807
:1014D0000894051F12F418F4CBCF08F0D0CF0AD02F
:1014E000FF202AF0BB0CDD1CEE1CFF1C3BCF0F5F66
:1014F000FBF138CF9F929924AA24BB24992788E135
:10150000990CAA1CBB1CDD1CEE1CFF1C30F4920EB7
:10151000A31EB41ED91EE91EF91E8A9589F79F9055
:10152000089509DF0DDF503829F090E869270CC0D5
:101530000AF045D017CF5FE322273327442701C0A5
:10154000FADEFEDE5038B1F3003899F3902F951B88
:101550008BF312F434D0FACF983118F022273327C6
:101560004427983028F0232F342F44279850F9CF60
:10157000992329F04695379527959A95D9F7912F74
:10158000962742F014D0B0F6F794E794D7940F5F03
:101590008BF66ECF10D051F008F4BEDEFF2052F271
:1015A000DD0CEE1CFF1C0150CBF762CF68CFD20ED2
:1015B000E31EF41E0895D21AE30AF40A0895DF9296
:1015C000EF92FF920F931F93D22EE32EF42E052F4E
:1015D000162F6F915F914F913F912F910895C8956C
:1015E000319600200895FBDFD02CF9DFE02CF7DFE7
:1015F000F02CF5DF002D0895F2DF202DF0DF302DE7
:10160000EEDF402DECDF502D089507FB00680EF44F
:101610000F7757FB50680EF45F7707FD02C057FF46
:1016200005C0D216E306F406050708952D153E05FC
:101630004F055007089500240D280E280F28002A72
:101640000020089591E005C092E003C094E001C03D
:1016500098E0C5DF0D929A95E1F70895040F151FE4
:10166000261F371F08950417150726073707089503
:10167000000F111F221F331F08950095109520950C
:1016800030950F5F1F4F2F4F3F4F089501911081ED
:101690000EC001911191219130810BC001911081F7
:1016A00017FF05C03FEF2FEF04C00081112722274D
:1016B000332737FF03C0E1DF8DE28D93CF93DF93B4
:1016C000CF92DF92EF92AA24BB24CC24DD24EE2417
:1016D00040E2CAE0DD2755E093E38881890F87FD6A
:1016E0009F7083FD907F891B89935A95A9F7C0DF6E
:1016F000AA1CBB1CCC1CDD1CEE1C4A9551F7E894BF
:10170000EFE0FF2782910ED0EB30E0F71EF06894F7
:101710008A2D0CD088278D93EF90DF90CF90DF91AA
:10172000CF910895982F829501D0892F8F70805D79
:1017300026F0803309F4089568948D93089594E019
:1017400081918D939A95E1F70895F0DDF9DD039588
:10175000AAF087E1DD0CEE1CFF1C8A9589F00A9542
:10176000CAF7FF205AF000240D280E280F28002069
:1017700039F00A95DD0CEE1CFF1CDAF70A95F2CD64
:101780007ECED4DD89E017D1802F9F2D990F881F41
:101790008F3718F032DE81E001C080E08087149638
:1017A0001ADE17971DDE8DDE16DE139720E430EE6D
:1017B0004EE65DE386DE2EE432EB43E45FE3E4D005
:1017C0002227332740E85FE3BCDE0ADE3496AEDD35
:1017D000389721DE1496FFDD1797A8DD349725E0B2
:1017E00038EF4CED5EE36DDE2227332740E85FE300
:1017F000A8DE3496A0DD389764DE8085879550F4A6
:101800002BED3FE049EC5FE3802F807800680827EC
:10181000582797DEDDC033CE89DD0023E2F30BDFEE
:1018200019F426DE0068089585E0C5D0FF0C001F7E
:1018300004830FE70695F794F2D0506882DECBDD83
:10184000139721E438E743ED5BEB3BDE27E831ED0E
:1018500043E15DE399D02EE03CE343EC5DEB94D0B3
:1018600022E83DEA4BE25EE38FD02CEE32E846E719
:101870005EEB8AD020E931EE49EA5EE385D020E8CC
:101880003FEE4FEF5EEB80D024EC3FEF4FE75FE39E
:101890007BD0A1DD139784818F5799F02AF4D82E3D
:1018A0000FEFE02EF02E04C0D82EEE24FF240027E8
:1018B00061DD28E132E741E35FE303DE3CDD34979D
:1018C00040DE86C0D5DD84C031DD86E074D005837E
:1018D0000F772BE33AEA48EB5FE3F3DD7CDD139708
:1018E00041D028F4858188236AF7C9DD71C08F77DC
:1018F00084831CDD34972ADF6EDD139723E632E400
:1019000046E357EBDEDD29ED37EA4AE159E33CD007
:1019100026E538E14EEA5AEB37D026E53CE84DE1C2
:101920005CE332D02DEC37E543E65DEB2DD02DEEB8
:101930003DEF45E75EE328D028E132E741E35FEB86
:1019400023D06DD0FEDD4CDDDD24EE24FF240481A8
:101950008FE7080F0695F7945EDD8581881F08F4F0
:101960004CDD36C0EDDC8827039512F48894089589
:1019700007301AF0812F08940895FF1C881F0A95DC
:10198000E2F7812B88940895DCDDD5DC349799CD7E
:1019900052DE81F00F930F772F933F934F935F9316
:1019A0003CDF5F914F913F912F918BDD8EDF8F91C7
:1019B0008078082B08950FB6F8944A925A92E42D35
:1019C000F52DA42DB52D480E8827581E0FBE08955D
:1019D0000FB6F894599049900FBE0895A7DCEA2FEE
:1019E000FB2FA9DC552361F05F930F9314DDCADE52
:1019F0008F919F91991F40F40AD08078582BA1CDE8
:101A0000502F12D05078052B08955FE304C050E4A6
:101A100049E402C050E449EC3FE02BED08955FE358
:101A200040E83327222708950FE305C000E489E446
:101A3000F82E03C000E489ECF82E8FE0E82E8BED41
:101A4000D82E08950000000066661640D7A3703FA8
:101A500014AE873F000000409A99E3410000003F28
:101A600000007A44000070420000803F00003443D0
:101A7000C3F548400000B443000034C300000041F7
:101A80000000C8422C2000006C6173742061636305
:101A9000656C3A004C61737420673A004C61737452
:101AA00020706572696F646D733A000043757272DD
:101AB000656E7420616363656C3A00004E4F52435B
:101AC0003A20000064656C746120616E676C653A51
:021AD0002000F4
:00000001FF
