:100000000C94340018950000189500000C94FD0D18
:10001000189500001895000018950000189500002C
:10002000189500001895000018950000189500001C
:10003000189500001895000018950000189500000C
:1000400018950000189500001895000018950000FC
:1000500018950000189500001895000018950000EC
:1000600018950000189500008FEF8DBFC0EEE6ECEC
:100070004E2E84E08EBFD4E0F4E05F2EEEEFF3E08E
:10008000A0E0B1E088278D933197E9F781E880936C
:10009000C40080E08093C50088E18093C10066249D
:1000A0008FEF8AB980E084B9389887E080937A002E
:1000B00080E480937C0078948091680081608093D4
:1000C000680089E180936B0084E085BD80E084BD99
:1000D00080E08093800083E08093810086E08093BD
:1000E000B10080E08093B0005D9A84E085BD83E03C
:1000F0008093810086E08093B10080916E008E7FB6
:1001000080936E0080916F008E7F80936F0080914E
:1001100070008E7F8093700081E08093000180E00A
:1001200090E0A5E1B1E08D939C930E94F10DAEE8C3
:10013000B1E0E8E6F6E20E94F21102E310E020E00E
:1001400030E0A5E4B1E00D931D932D933C9306E4BC
:1001500010E020E030E0A6E8B1E00D931D932D9370
:100160003C93A6E9B1E0ECE6F6E20E94F211E0E190
:10017000F0E0BB27A0E10E9428120B3252E01507E5
:1001800011F00C94DF00AEE8B1E0E0E0F0E094E0C4
:100190000E942912E4E0F0E0A5E4B1E094E00E94BE
:1001A0002912ECE0F0E0A6E8B1E094E00E94291208
:1001B000A6E9B1E0E8E0F0E094E00E9429125F9A3D
:1001C00070917A00706870937A0001E010E020E08E
:1001D00030E0A1E0B1E00D931D932D933C9344E1F9
:1001E00050E060E070E0A1E0B1E00D911D912D9133
:1001F0003C910E9404121CF011F00C940D018BB183
:1002000090E289278BB984E190E00E94DA0FA1E0A7
:10021000B1E00E94170F0C94EF0000910001013033
:1002200011F00C94F10DADE7B1E00D911C910A3580
:1002300050E0150780E00CF481E08F93ADE7B1E06A
:100240000D911C91083C50E0150780E014F009F076
:1002500081E09F91892B8F93AFE7B1E00D911C91C5
:10026000013050E0150781E009F080E09F91892B73
:10027000882311F40C94AA030E94F10DA9E7B1E0C0
:100280000D911C91023E51E015071CF011F00C94E9
:100290004B010C944F0184E690E00E94DA0FA9E72D
:1002A000B1E00D911C91083D51E015070CF402C01E
:1002B0000C945E0184E690E00E94DA0FABE7B1E0B7
:1002C0000D911C91093650E0150780E00CF481E097
:1002D0008F93ABE7B1E00D911C91003050E0150712
:1002E00080E014F009F081E09F9189238F93A5E1CC
:1002F000B1E00D911C91003050E0150781E009F04C
:1003000080E09F918923882311F40C94DE015D988D
:1003100084EF91E00E94DA0FA5E0B1E0E8E6F6E2B2
:100320000E94F211E5E0F1E00E946210E7E6F1E0E0
:100330000E9467100E94D11118F011F00C94CF01A7
:100340005D9A84E690E00E94DA0F5D988CE291E07D
:100350000E94DA0FADE7B1E00D911C910A3550E033
:1003600015071CF011F00C94B7010C94BD01E7E6E1
:10037000F1E0A5E0B1E00E940912E0E7F6E20E9498
:10038000C811E5E0F1E00E9462100E946D11FF27A4
:10039000EDE0A5E0B1E00E9409120C949201ADE7F6
:1003A000B1E00D911C910A3550E015070CF402C024
:1003B0000C94DE0180ED97E00E94DA0FABE7B1E02C
:1003C0000D911C910D3750E0150780E014F009F0F5
:1003D00081E08F93A9E7B1E00D911C91033052E0C9
:1003E000150780E014F009F081E09F9189238823AC
:1003F00011F40C94770288E795E00E94DA0FABE7DE
:10040000B1E00D911C910D3750E0150780E014F01C
:1004100009F081E08F93A9E7B1E00D911C910330C1
:1004200052E0150780E014F009F081E09F918923E4
:10043000882311F40C947702A5E1B1E00D911C9191
:10044000003050E0150711F00C94440281E090E078
:10045000A5E1B1E08D939C9384E4806480937C005B
:100460000E941610ABE0B1E08D939C93EBE0F1E0BD
:10047000D190E080FF2400270E948610A6E9B1E019
:100480000E94B7100C94730280E090E0A5E1B1E007
:100490008D939C93E0E0F0E0AEE8B1E094E07BE780
:1004A0000E941812E4E0F0E0A5E4B1E094E07BE7FC
:1004B0000E941812ECE0F0E0A6E8B1E094E07BE7DF
:1004C0000E941812E8E0F0E0A6E9B1E094E07BE7D2
:1004D0000E941812E0E1F0E00BE212E0A0E1BB277D
:1004E0007BE70E94171284EF91E00E94DA0FABE7DE
:1004F000B1E00D911C91093650E0150780E00CF435
:1005000081E08F93A9E7B1E00D911C91033052E097
:10051000150780E014F009F081E09F9189238F9303
:10052000A5E1B1E00D911C91013050E0150781E08B
:1005300009F080E09F918923882311F40C946703CC
:1005400088E795E00E94DA0FABE7B1E00D911C91CE
:10055000093650E0150780E00CF481E08F93A9E79D
:10056000B1E00D911C91033052E0150780E014F0CA
:1005700009F081E09F9189238F93A5E1B1E00D916E
:100580001C91013050E0150781E009F080E09F9157
:100590008923882311F40C94070386E480648093F4
:1005A0007C000E941610A6E8B1E08D939D938827E9
:1005B0008D938C9301E010E020E030E0A1E0B1E009
:1005C0000D931D932D933C9346E450E060E070E062
:1005D000A1E0B1E00D911D912D913C910E9404127A
:1005E0001CF011F00C9402038BB190E289278BB9B7
:1005F00084E190E00E94DA0FA1E0B1E00E94170FC1
:100600000C94E4025D9888EE93E00E94DA0FABE769
:10061000B1E00D911C91093650E0150780E00CF413
:1006200081E08F93A9E7B1E00D911C91033052E076
:10063000150780E014F009F081E09F9189238F93E2
:10064000A5E1B1E00D911C91013050E0150781E06A
:1006500009F080E09F918923882311F40C946703AB
:1006600000E010E020E030E0A6E8B1E00D931D933B
:100670002D933C9301E010E020E030E0A1E0B1E0F8
:100680000D931D932D933C9346E450E060E070E0A1
:10069000A1E0B1E00D911D912D913C910E940412B9
:1006A0001CF011F00C9462038BB190E289278BB996
:1006B00084E190E00E94DA0FA1E0B1E00E94170F00
:1006C0000C9444035D9888EE93E00E94DA0F5D98E5
:1006D00082E390E00E94DA0FA5E1B1E00D911C9158
:1006E000013050E0150711F00C94A30301E010E075
:1006F00020E030E0A1E0B1E00D931D932D933C93F9
:100700004AE050E060E070E0A1E0B1E00D911D91A1
:100710002D913C910E9404121CF011F00C949E0348
:100720008EE190E00E94DA0F8BB190E289278BB9BD
:10073000A1E0B1E00E94170F0C9480035D9886E958
:1007400090E00E94DA0F5D9A82E390E00E94DA0F57
:100750000C941301A7E6B1E0E4E7F6E20E94F2117F
:10076000F894ABE7B1E00D911C91083750E0150704
:1007700080E014F009F081E08F93ABE7B1E00D91D8
:100780001C910A3F50E0150780E00CF481E09F9136
:100790008923882311F40C94D50381E090E0A9E12A
:1007A000B1E08D939C930C94DB0380E090E0A9E191
:1007B000B1E08D939C93ABE7B1E00D911C910936AC
:1007C00050E0150780E00CF481E08F93ABE7B1E0D7
:1007D0000D911C91023350E0150780E014F009F0F0
:1007E00081E09F918923882311F40C94FF0381E019
:1007F00090E0ABE1B1E08D939C930C94050480E014
:1008000090E0ABE1B1E08D939C9380E090E0A1E2B9
:10081000B1E08D939C9380E090E0A4E8B1E08D93EB
:100820009C93A6E8B1E00D911D912D913C9142E57C
:1008300050E060E070E00E94F30FAAE8B1E00D9391
:100840001D932D933D93AAE8B1E00D911D912D913B
:100850003C9144E650E060E070E00E947D0FAAE821
:10086000B1E04D935D936D937D9386E480648093B6
:100870007C000E941610A9E0B1E08D939C93AAE839
:10088000B1E04D915D916D917C91A9E0B1E00D9148
:100890001C91222733270E9404120CF402C00C94EE
:1008A000570481E090E0A4E8B1E08D939C9384E448
:1008B000806480937C000E941610ABE0B1E08D93C1
:1008C0009C93EBE0F1E0D190E080FF2400270E94B0
:1008D0008610ADE0B1E00E94B710E6E9F1E00E94B9
:1008E0006710EDE0F1E00E9462100E945E11FF27A8
:1008F000EDE0ADE0B1E00E940912E8E7F6E20E9407
:10090000C811EDE0F1E00E9462100E942D11FF2756
:10091000EDE0AFE5B1E00E940912A3E6B1E0ECE73B
:10092000F6E20E94F211E3E6F1E00E946710EFE5C3
:10093000F1E00E9462100E94D710FF27EDE0A3E6CD
:10094000B1E00E940912E8E7F6E20E94C811E3E66E
:10095000F1E00E9462100E940913FF27EDE0A3E678
:10096000B1E00E940912E0E8F6E20E94C811E3E655
:10097000F1E00E9462100E942D11FF27EDE0A3E636
:10098000B1E00E940912E3E6F1E00E946210E7E69E
:10099000F1E00E9467100E94D11118F011F00C9440
:1009A000D3040C94D904E3E6F1E0A7E6B1E00E9499
:1009B0000912E4E8F6E20E94C811E3E6F1E00E94C1
:1009C00062100E94D710FF27EDE0A3E2B1E00E9481
:1009D0000912E3E2F1E00E946710E8E6F6E20E9405
:1009E000BF110E94D710FF27EDE0A3E2B1E00E9403
:1009F0000912E0E8F6E20E94C811E3E2F1E00E9489
:100A000062100E942D11FF27EDE0A3E2B1E00E94E9
:100A10000912EEE8F1E00E946710E3E2F1E00E94C3
:100A200062100E942D11FF27EDE0A3E2B1E00E94C9
:100A30000912A9E1B1E00D911C91013050E01507B8
:100A400011F00C943305E8E6F6E20E94C811E3E2E7
:100A5000F1E00E9462100E942D11FF27EDE0A3E259
:100A6000B1E00E940912ABE1B1E00D911C9101309F
:100A700050E0150711F00C944D05E8E8F6E20E94ED
:100A8000C811E3E2F1E00E9462100E942D11FF27DD
:100A9000EDE0A3E2B1E00E940912ECE8F6E20E9468
:100AA000C811E3E2F1E00E9462100E945E11FF278C
:100AB000EDE0A3E2B1E00E940912ECE8F6E20E9448
:100AC000C811E3E2F1E00E9462100E945E11FF276C
:100AD000EDE0A3E2B1E00E940912A7E1B1E00D91BF
:100AE0001C91013050E0150711F00C947F0582E055
:100AF00090E0A7E1B1E08D939C930C94850581E093
:100B000090E0A7E1B1E08D939C93E0E9F6E20E94CA
:100B1000C811E3E2F1E00E9462100E94D710FF27A3
:100B2000EDE0ABE2B1E00E940912ADE7B1E00D915A
:100B30001C914AE550E0041B150BADE4B1E00D93A8
:100B40001C93ADE4B1E00D911C9142E050E00E9495
:100B5000E90FADE4B1E00D931C93ADE4B1E00D916C
:100B60001C91043650E015071CF011F00C94BA05E6
:100B70000C94C00584E690E0ADE4B1E08D939C93C5
:100B800080E090E0A3E3B1E08D939C93A5E1B1E018
:100B90000D911C91013050E0150711F00C94D60511
:100BA00085E290E0ADE4B1E08D939C93A5E1B1E0E6
:100BB0000D911C91013050E0150781E009F080E0B3
:100BC0008F93ADE7B1E00D911C91043650E015070D
:100BD00080E00CF481E09F918923882311F40C9428
:100BE0005F0681E090E0A3E3B1E08D939C9381E008
:100BF00090E0A1E2B1E08D939C93A9E7B1E00D9163
:100C00001C91083D51E015070CF402C00C94180625
:100C1000E4E9F6E20E94C811EEE8F1E00E946210F9
:100C20000E946D11FF27EDE0AEE8B1E00E940912CD
:100C3000A9E7B1E00D911C91023E51E015071CF0AF
:100C400011F00C9425060C944806E4E9F6E20E94A3
:100C5000C811EEE8F1E00E9462100E945E11FF27C9
:100C6000EDE0AEE8B1E00E940912EEE8F1E00E948A
:100C70006210E8E9F6E20E94C8110E94D11110F05A
:100C80000C944806AEE8B1E0E8E9F6E20E94F21101
:100C9000ABE7B1E00D911C91093650E015070CF45B
:100CA00002C00C945F06AEE8B1E0E8E6F6E20E940E
:100CB000F21180E090E0ABE1B1E08D939C93A5E16F
:100CC000B1E00D911C91013050E0150781E009F071
:100CD00080E08F93ADE7B1E00D911C910C3850E0AE
:100CE000150780E014F009F081E09F9189238823A3
:100CF00011F40C94050781E090E0A3E3B1E08D933B
:100D00009C9381E090E0A1E2B1E08D939C93A9E7F0
:100D1000B1E00D911C91083D51E015070CF402C0A3
:100D20000C94AA06A5E4B1E00D911D912D913C9182
:100D300041E050E060E070E00E94FA11A5E4B1E00B
:100D40000D931D932D933D9380E090E0A1E2B1E0DF
:100D50008D939C93A9E7B1E00D911C91023E51E067
:100D600015071CF011F00C94B7060C94CF06A5E4FF
:100D7000B1E00D911D912D913C9141E050E060E07A
:100D800070E00E94FF11A5E4B1E00D931D932D9337
:100D90003D9380E090E0A1E2B1E08D939C9341E02F
:100DA00050E060E070E0A5E4B1E00D911D912D915F
:100DB0003C910E9404120CF402C00C94E90604E673
:100DC00010E020E030E0A5E4B1E00D931D932D93F9
:100DD0003C9344E650E060E070E0A5E4B1E00D91A2
:100DE0001D912D913C910E9404121CF011F00C9465
:100DF000FB060C94050701E010E020E030E0A5E4DC
:100E0000B1E00D931D932D933C93A3E3B1E00D91BD
:100E10001C91003050E0150711F00C945807E9E7D9
:100E2000F1E0D190E0808FEFE7FE8827F82E082FC1
:100E30000E9486100E94BC10ECE9F6E20E94BF11ED
:100E40000E945E11FF27EDE0ABE6B1E00E940912BF
:100E5000EBE2F1E00E946710EBE6F1E00E94621025
:100E60000E942D11FF27EDE0ABE6B1E00E940912D0
:100E7000E0EAF6E20E94C811EBE6F1E00E9462109F
:100E80000E94D710FF27EDE0ABE6B1E00E94091207
:100E9000EBE6F1E00E946710EBE2F1E00E946210E5
:100EA0000E946D11FF27EDE0ABE2B1E00E94091254
:100EB000EBE2F1E00E942410AFE2B1E0EDE0FF27A9
:100EC0000E940912EFE2F1E00E9462100E94861077
:100ED0000E94BC10EBE2F1E00E9462100E945E11E1
:100EE000FF27EDE0AFE6B1E00E940912E0E7F6E28D
:100EF0000E94C811EFE6F1E00E9462100E942D11DD
:100F0000FF27EDE0AFE6B1E00E94091284E690E031
:100F10008A939A930E94260F2296A3E7B1E00D933D
:100F20001C93E3E7F1E0D190E0808FEFE7FE8827A4
:100F3000F82E082F0E948610A5E7B1E00E94B71096
:100F4000EFE6F1E00E946210E5E7F1E00E94671031
:100F50000E94D11118F011F00C94B0070C94C20744
:100F6000AFE2B1E00D911D912D913C9141E050E037
:100F700060E070E00E94FA11AFE2B1E00D931D93C2
:100F80002D933D934AEF50E060E070E0AFE2B1E0B6
:100F90000D911D912D913C910E9404121CF011F0B5
:100FA0000C94D4070C94DE070AEF10E020E030E048
:100FB000AFE2B1E00D931D932D933C9345E050E0DB
:100FC00060E070E0AFE2B1E00D911D912D913C9198
:100FD0000E9404120CF402C00C94F80705E010E023
:100FE00020E030E0AFE2B1E00D931D932D933C93F0
:100FF000E5E4F1E00E9462100E9486100E94BC109D
:10100000E3E2F1E00E9462100E942D11FF27EDE063
:101010000E942410ADE3B1E0EDE0FF270E94091229
:10102000ADE3B1E00D911D912D913C9144E650E06E
:1010300060E070E00E947D0FADE3B1E04D935D9301
:101040006D937D93E4EAF6E20E94C811E3E2F1E0D9
:101050000E9462100E94D710FF27EDE00E9424102A
:10106000A1E4B1E0EDE0FF270E940912A1E4B1E0A4
:101070000D911D912D913C91ADE3B1E04D915D91AC
:101080006D917C910E94FA11A1E4B1E00D931D9342
:101090002D933D93E3E2F1E00E942410A7E2B1E03A
:1010A000EDE0FF270E940912A7E2B1E04D915D91AA
:1010B0006D917C91A1E4B1E00D911D912D913C9138
:1010C0000E9404120CF002C00C947A08A1E4B1E072
:1010D0000D911D912D913C91A7E2B1E04D915D9153
:1010E0006D917C910E94FF11A1E4B1E00D931D93DD
:1010F0002D933D9341E050E060E070E0ADE3B1E05E
:101100000D911D912D913C910E9404120CF402C08E
:101110000C94940801E010E020E030E0ADE3B1E091
:101120000D931D932D933C9341E050E060E070E0FF
:10113000A1E4B1E00D911D912D913C910E9404120A
:101140000CF402C00C94AE0801E010E020E030E0A6
:10115000A1E4B1E00D931D932D933C93A7E2B1E080
:101160000D911D912D913C9141E150E060E070E0C6
:101170000E94F30FA5E3B1E00D931D932D933D93D2
:10118000A5E3B1E00D911D912D913C914CE350E010
:1011900060E070E00E947D0FA5E3B1E04D935D93A8
:1011A0006D937D93A5E3B1E00D911D912D913C913F
:1011B000A1E4B1E04D915D916D917C910E94FA1195
:1011C000A5E3B1E00D931D932D933D93A7E2B1E00C
:1011D0000D911D912D913C9146E050E060E070E052
:1011E0000E94F30FA9E3B1E00D931D932D933D935E
:1011F000A9E3B1E00D911D912D913C914CE350E09C
:1012000060E070E00E947D0FA9E3B1E04D935D9333
:101210006D937D93A9E3B1E00D911D912D913C91CA
:10122000A5E3B1E04D915D916D917C910E94FA1121
:10123000A9E3B1E00D931D932D933D93A7E2B1E097
:101240004D915D916D917C91A5E3B1E00D911D9162
:101250002D913C910E9404120CF002C00C944409A0
:10126000A5E3B1E00D911D912D913C91A7E2B1E074
:101270004D915D916D917C910E94FF11A5E3B1E0CC
:101280000D931D932D933D93A7E2B1E04D915D9198
:101290006D917C91A9E3B1E00D911D912D913C914F
:1012A0000E9404120CF002C00C946A09A9E3B1E098
:1012B0000D911D912D913C91A7E2B1E04D915D9171
:1012C0006D917C910E94FF11A9E3B1E00D931D93F4
:1012D0002D933D93EFE5F1E00E946210E8EAF6E21B
:1012E0000E94C8110E94D11118F011F00C947A09D3
:1012F0000C9480098EE190E0ADE4B1E08D939C9375
:10130000ADE4B1E00D911C91023350E015071CF0E3
:1013100011F00C948D090C94190A81E090E0A1E27F
:10132000B1E08D939C93AFE2B1E00D911D912D91B1
:101330003C9149E150E060E070E00E94F30FABE5C2
:10134000B1E00D931D932D933D93ABE5B1E00D916D
:101350001D912D913C91ADE4B1E04D915D9157FB14
:101360001EF46FEF7FEF02C0662777270E947D0F84
:10137000ABE5B1E04D935D936D937D93AFE2B1E04A
:101380000D911C9142E050E00E94400FADE1B1E0B0
:101390004D935C93ADE1B1E00D911C91ABE5B1E0F3
:1013A0004D915C91041B150BADE1B1E00D931C93C5
:1013B000AFE2B1E00D911C9142E050E00E94400F7D
:1013C000AFE1B1E04D935C93AFE1B1E00D911C91C1
:1013D000ABE5B1E04D915C91040F151FAFE1B1E0B9
:1013E0000D931C93ADE1B1E00D911C91013050E0E3
:1013F00015070CF402C00C94030A81E090E0ADE103
:10140000B1E08D939C9300E010E020E030E0A3E594
:10141000B1E00D931D932D933C93AFE2B1E00D919C
:101420001D912D913C91A7E5B1E00D931D932D9356
:101430003C93ADE4B1E00D911C91023350E01507EF
:101440001CF011F00C948F0A81E090E0ADE1B1E066
:101450008D939C93AFE2B1E08D919C91AFE1B1E0AF
:101460008D939C9302E310E020E030E0ADE4B1E026
:101470004D915D9157FB1EF46FEF7FEF02C0662721
:1014800077270E94FF11AFE4B1E00D931D932D93D8
:101490003D93AFE4B1E00D911D912D913C91AFE2F0
:1014A000B1E04D915D916D917C910E94F30FAFE49D
:1014B000B1E00D931D932D933D93AFE4B1E00D91F9
:1014C0001D912D913C9146E950E060E070E00E9452
:1014D0007D0FAFE4B1E04D935D936D937D93AFE4E9
:1014E000B1E00D911D912D913C91A3E5B1E00D93DB
:1014F0001D932D933C93AFE2B1E00D911D912D9181
:101500003C91AFE4B1E04D915D916D917C910E9471
:10151000FF11A7E5B1E00D931D932D933D93A4E832
:10152000B1E00D911C91013050E0150711F00C94C1
:10153000AD0A00E010E020E030E0A5E3B1E00D935B
:101540001D932D933C9300E010E020E030E0A9E3F0
:10155000B1E00D931D932D933C9380E090E0A1E1C9
:10156000B1E08D939C9380E090E0A3E1B1E08D9396
:101570009C93E3E6F1E00E946210ECEAF6E20E943E
:10158000C8110E94D11110F00C94CC0A81E090E0B7
:10159000A1E1B1E08D939C93E3E6F1E00E9462103B
:1015A000E0EBF6E20E94C8110E94D11118F011F090
:1015B0000C94DC0A0C94E20A81E090E0A3E1B1E033
:1015C0008D939C937894A1E1B1E00D911C91013031
:1015D00050E0150711F00C940F0B81E090E0AFE1A3
:1015E000B1E08D939C9380E090E0ADE1B1E08D930C
:1015F0009C9300E010E020E030E0A3E5B1E00D9323
:101600001D932D933C93AFE2B1E00D911D912D916F
:101610003C91A7E5B1E00D931D932D933C9300E021
:1016200010E020E030E0A9E4B1E00D931D932D938C
:101630003C9301E010E020E030E0A1E0B1E00D9348
:101640001D932D933C93AFE2B1E04D915D916D916F
:101650007C91A1E0B1E00D911D912D913C910E94F2
:1016600004121CF011F00C94840C0E94F40DA9E4F7
:10167000B1E00D911D912D913C9141E050E060E071
:1016800070E00E94FA11A9E4B1E00D931D932D932F
:101690003D93ADE1B1E04D915D9157FB1EF46FEFCD
:1016A0007FEF02C066277727A1E0B1E00D911D9181
:1016B0002D913C910E94041280E00CF081E08F9308
:1016C000AFE1B1E04D915D9157FB1EF46FEF7FEFFD
:1016D00002C066277727A1E0B1E00D911D912D9101
:1016E0003C910E94041280E00CF481E09F918923D8
:1016F000882311F40C94AC0BA7E1B1E00D911C917F
:10170000013050E0150711F00C94880B0E94F70D82
:10171000A7E1B1E00D911C91023050E0150711F0E6
:101720000C94940B0E94FA0DA9E1B1E00D911C916B
:10173000013050E0150711F00C94A00B0E94F70D3A
:10174000ABE1B1E00D911C91013050E0150711F0B3
:101750000C94AC0B0E94FA0DAFE1B1E04D915D919C
:1017600057FB1EF46FEF7FEF02C066277727A1E0DB
:10177000B1E00D911D912D913C910E9404120CF04D
:1017800002C00C94C50B0E94F40DA3E5B1E04D918D
:101790005D916D917C91A1E0B1E00D911D912D9134
:1017A0003C910E9404120CF402C00C94D90B0E94CC
:1017B000F10DA7E5B1E04D915D916D917C91A1E0B6
:1017C000B1E00D911D912D913C910E9404121CF0ED
:1017D00011F00C94ED0B0C94EF0B0E94F10DA3E1B2
:1017E000B1E00D911C91013050E0150711F00C94FF
:1017F000FB0B0E94F10DADE3B1E04D915D916D9158
:101800007C91A9E4B1E00D911D912D913C910E9434
:10181000041211F00C94120C81E090E0A2E8B1E007
:101820008D939C93A1E4B1E04D915D916D917C917C
:10183000A9E4B1E00D911D912D913C910E940412FB
:1018400011F00C94290C80E090E0A2E8B1E08D93B7
:101850009C93A2E8B1E00D911C91003050E0150777
:1018600011F00C94340C5D98A2E8B1E00D911C913C
:10187000013050E0150711F00C944F0CA1E2B1E0DB
:101880000D911C91013050E0150711F00C944E0C95
:101890008BB190E289278BB90C944F0C5D9AA5E32C
:1018A000B1E04D915D916D917C91A9E4B1E00D9114
:1018B0001D912D913C910E94041280E00CF081E07A
:1018C0008F93A9E3B1E04D915D916D917C91A9E475
:1018D000B1E00D911D912D913C910E94041281E087
:1018E00014F009F080E09F918923882311F40C946F
:1018F0007A0C5D9A81E090E00E94DA0FA1E0B1E0FD
:101900000E94170F0C94230B01E010E020E030E060
:10191000A1E0B1E00D931D932D933C93AFE2B1E0B4
:101920004D915D916D917C91A1E0B1E00D911D9182
:101930002D913C910E9404121CF011F00C94EF0DBB
:101940000E94F40DA9E4B1E00D911D912D913C91FF
:1019500041E050E060E070E00E94FA11A9E4B1E0DB
:101960000D931D932D933D93ADE1B1E04D915D91AC
:1019700057FB1EF46FEF7FEF02C066277727A1E0C9
:10198000B1E00D911D912D913C910E94041280E0D7
:101990000CF081E08F93AFE1B1E04D915D9157FB89
:1019A0001EF46FEF7FEF02C066277727A1E0B1E05A
:1019B0000D911D912D913C910E94041280E00CF438
:1019C00081E09F918923882311F40C94170DA7E1DE
:1019D000B1E00D911C91013050E0150711F00C940D
:1019E000F30C0E94FA0DA7E1B1E00D911C910230B9
:1019F00050E0150711F00C94FF0C0E94F70DA9E1BF
:101A0000B1E00D911C91013050E0150711F00C94DC
:101A10000B0D0E94FA0DABE1B1E00D911C9101306C
:101A200050E0150711F00C94170D0E94F70DAFE16F
:101A3000B1E04D915D9157FB1EF46FEF7FEF02C057
:101A400066277727A1E0B1E00D911D912D913C9182
:101A50000E9404120CF002C00C94300D0E94F40D90
:101A6000A3E5B1E04D915D916D917C91A1E0B1E074
:101A70000D911D912D913C910E9404120CF402C015
:101A80000C94440D0E94F10DA7E5B1E04D915D91DC
:101A90006D917C91A1E0B1E00D911D912D913C9152
:101AA0000E9404121CF011F00C94580D0C945A0D65
:101AB0000E94F10DA3E1B1E00D911C91013050E0C5
:101AC000150711F00C94660D0E94F10DADE3B1E025
:101AD0004D915D916D917C91A9E4B1E00D911D91C5
:101AE0002D913C910E94041211F00C947D0D81E027
:101AF00090E0A2E8B1E08D939C93A1E4B1E04D9118
:101B00005D916D917C91A9E4B1E00D911D912D91B4
:101B10003C910E94041211F00C94940D80E090E02E
:101B2000A2E8B1E08D939C93A2E8B1E00D911C91E5
:101B3000003050E0150711F00C949F0D5D98A2E85D
:101B4000B1E00D911C91013050E0150711F00C949B
:101B5000BA0DA1E2B1E00D911C91013050E01507E2
:101B600011F00C94B90D8BB190E289278BB90C94CC
:101B7000BA0D5D9AA5E3B1E04D915D916D917C91B7
:101B8000A9E4B1E00D911D912D913C910E940412A8
:101B900080E00CF081E08F93A9E3B1E04D915D917D
:101BA0006D917C91A9E4B1E00D911D912D913C9135
:101BB0000E94041281E014F009F080E09F918923D3
:101BC000882311F40C94E50D5D9A81E090E00E9469
:101BD000DA0FA1E0B1E00E94170F0C948E0C0C9468
:101BE0000D015A985C9808955A9A5C9A08955A9AE9
:101BF0005C9808955A985C9A08950F921F922F92BC
:101C00003F924F925F927F92AF92BF920F931F933A
:101C10002F933F934F935F936F937F938F939F93F4
:101C2000AF93BF93CF93DF93EF93FF938FB78F93D0
:101C30000027BB27A3E28C9184FB0EF401E044272C
:101C4000A1E8B1E08C9186FB0EF44395041711F4E2
:101C50000C944D0E0027BB27A3E28C9184FB0EF45D
:101C600001E040E0041711F00C943E0EA6E4B0E051
:101C70008C91ABE7B1E08D9388278C930027BB272D
:101C8000A3E28C9184FB0EF401E041E0041711F013
:101C90000C944D0E80E0809346000027BB27A3E202
:101CA0008C9183FB0EF401E04427A1E8B1E08C9114
:101CB00085FB0EF44395041711F40C949C0E002739
:101CC000BB27A3E28C9183FB0EF401E040E00417F4
:101CD00011F00C948A0EA4E8B0E00D911C910A3822
:101CE00052E0150710F00C948A0EA4E8B0E00D91B4
:101CF0001C910C3251E0150718F011F00C94820E73
:101D00000C948A0EA4E8B0E08D919C91A9E7B1E013
:101D10008D939C930027BB27A3E28C9183FB0EF449
:101D200001E041E0041711F00C949C0E80E090E07B
:101D300090938500809384000027BB27A3E28C91B9
:101D400080FB0EF401E04427A1E8B1E08C9187FB11
:101D50000EF44395041711F40C94E00E0027BB27F2
:101D6000A3E28C9180FB0EF401E040E0041711F037
:101D70000C94D10E0091B200083C10F00C94D10EDE
:101D80000091B200023318F011F00C94C90E0C94BB
:101D9000D10EA2EBB0E08C91ADE7B1E08D93882736
:101DA0008C930027BB27A3E28C9180FB0EF401E00B
:101DB00041E0041711F00C94E00E80E08093B20033
:101DC000BB27A3E28C9180FBA1E8B1E08C9187F95D
:101DD0008C93BB27A3E28C9184FBA1E8B1E08C91AA
:101DE00086F98C93BB27A3E28C9183FBA1E8B1E039
:101DF0008C9185F98C938F918FBFFF91EF91DF913B
:101E0000CF91BF91AF919F918F917F916F915F9192
:101E10004F913F912F911F910F91BF90AF907F9065
:101E20005F904F903F902F901F900F9018950D91BD
:101E30001D912D913C9181E0080F8827181F281FC4
:101E4000381F3C932E931E930E93089540919A0150
:101E500050919B010DE815E30E943A0F49E156E3CA
:101E6000040F151F00939A0110939B01498158811B
:101E70000C94600F09D00E94E90F00FC10D0089567
:101E800003D01ED001F8F9CF0024E89457FF02C018
:101E900009D0689400F80BD010F80124089502D0FE
:101EA00009D00895509540954F5F5F4F0895E8948D
:101EB00017FF0895009510950F5F1F4F68940895C0
:101EC000352F242FE894452B11F468940895512F51
:101ED000402F0027112780E1440F551F001F111FBD
:101EE000021B130B416018F4020F131F4E7F8A95DB
:101EF00099F7089500FC05D0089530D005D001F879
:101F0000F9CF37D03FD00895842F952FA62FB72F24
:101F1000E894452B462B472B11F468940895402FE5
:101F2000512F622F732F0027112722273327F0E22A
:101F3000440F551F661F771F001F111F221F331FDD
:101F4000081B190B2A0B3B0B416028F4080F191FC3
:101F50002A1F3B1F4E7FFA9559F708950024E894F5
:101F600077FF02C006D0689400F809D010F8012469
:101F7000089512D04F5F5F4F6F4F7F4F0895E894E1
:101F800037FF089500951095209530950F5F1F4FEE
:101F90002F4F3F4F689408954095509560957095E8
:101FA00008953197F1F70895689462F80895E894D8
:101FB00062F80895EF93FF93EE27E82BE92B31F0B9
:101FC000E8E8F3E13197F1F70197D1F7FF91EF914D
:101FD00008950F92B801469F8001479F100D569FAC
:101FE000100D0F9008950F921F922F92C801D901E2
:101FF000489F80014A9F90014B9F202C499F100DC4
:10200000211D321D5A9F202C589F100D211D321D5D
:10201000599F200D311D689F200D311D699F300D86
:10202000789F300D2F901F900F90089580917A0027
:10203000806C80937A0080917A0086FDFCCF80913D
:1020400078009091790008953DD0992711278F2D20
:10205000880F80E8F82A802F881F08F41FEF41F0CE
:102060008F57082F07FD04C0003240F08FEF01C0EA
:102070008827982FD82EE82EF82E09C08FE1801BD4
:10208000082FF694E794D79497950A95D1F71123E2
:1020900051F09095D094E094F09481E0980F8827C7
:1020A000D81EE81EF81E0F2DFE2CED2CD92E0895FB
:1020B000D094E094F09491E0D90E9927E91EF91E8E
:1020C00010950895D190E190F1900191089521919A
:1020D0003191419151910895102F90E8FF0C001F0C
:1020E0000927990FF7941078652F90E8440F551F32
:1020F0005927990F4795607800380895FF0C90E8AC
:102100009027110F9795F794092F0895102FBD2C44
:10211000DE2CEF2CF02E11234AF4B094D094E094EE
:10212000F0949FEFB91AD90AE90AF90A0EE1FF20E3
:1021300039F4FE2CED2CDB2CBB240850C2F76BC00D
:1021400032F00A95BB0CDD1CEE1CFF1CF9CF01D050
:10215000D5CFB7FE089590E8B91611F4D0FE0895D2
:102160009FEFD91AE90AF90A09F403950895DD9257
:10217000ED92FD920C930895502F2D2D3E2D4F2D55
:10218000612F08952DEC3CEC4CEC5DE366270FC00D
:1021900099DFF2DFDD24EE2490E8F92E0FE307C08B
:1021A00096DF05C02227332740E251E466275523F6
:1021B00051F1002381F190DF71F11627005850583A
:1021C0000894050B18F407FD03C025C007FD23C0C4
:1021D000469537952795F694E794D79422D0FF201B
:1021E0002AF0DD0CEE1CFF1C015073F09D2D96951E
:1021F00048F0DD203AF4EE202AF491E0D90E992738
:10220000E91EF91E7BCF07C09FE7092FF92A9FEF30
:10221000D92EE92E0895DD24EE24FF24002711276E
:1022200008959F929924AA24BB2488E1D216E3063C
:10223000F40628F0D21AE30AF40A089401C088943C
:10224000991CAA1CBB1CDD0CEE1CFF1C8A9571F7A7
:10225000D92CEA2CFB2C9F9008953EDFE1F25038F8
:10226000D1F21627005850580894051F12F418F49C
:10227000CBCF08F0D0CF0AD0FF202AF0BB0CDD1C5A
:10228000EE1CFF1C3BCF0F5FFBF138CF9F929924D0
:10229000AA24BB24992788E1990CAA1CBB1CDD1C2D
:1022A000EE1CFF1C30F4920EA31EB41ED91EE91EB4
:1022B000F91E8A9589F79F90089509DF0DDF503840
:1022C00029F090E869270CC00AF045D017CF5FE3EA
:1022D00022273327442701C0FADEFEDE5038B1F34F
:1022E000003899F3902F951B8BF312F434D0FACF6A
:1022F000983118F0222733274427983028F0232FCD
:10230000342F44279850F9CF992329F046953795D3
:1023100027959A95D9F7912F962742F014D0B0F6C9
:10232000F794E794D7940F5F8BF66ECF10D051F0EF
:1023300008F4BEDEFF2052F2DD0CEE1CFF1C015043
:10234000CBF762CF68CFD20EE31EF41E0895D21AE7
:10235000E30AF40A0895DF92EF92FF920F931F931E
:10236000D22EE32EF42E052F162F6F915F914F91F1
:102370003F912F910895C895319600200895FBDF75
:10238000D02CF9DFE02CF7DFF02CF5DF002D0895DD
:10239000F2DF202DF0DF302DEEDF402DECDF502D71
:1023A000089507FB00680EF40F7757FB50680EF492
:1023B0005F7707FD02C057FF05C0D216E306F4069B
:1023C000050708952D153E054F0550070895002473
:1023D0000D280E280F28002A0020089591E005C03E
:1023E00092E003C094E001C098E0C5DF0D929A9599
:1023F000E1F70895040F151F261F371F0895041BCA
:10240000150B260B370B08950417150726073707FA
:10241000089594E081918D939A95E1F70895F99943
:10242000FECFE1BDF2BD3196089591E001C092E08A
:102430007B3751F47FB7F894F2DF8D9180BDFA9A23
:10244000F99A9A95C9F77FBF7727089591E001C05F
:1024500092E0E5DFF89A80B58D939A95D1F70895CB
:1024600031DE3ADE0395AAF087E1DD0CEE1CFF1C9D
:102470008A9589F00A95CAF7FF205AF000240D28A2
:102480000E280F28002039F00A95DD0CEE1CFF1CE9
:10249000DAF70A9533CEBFCEBECE14DE0023E2F3C8
:1024A00096DF19F4B1DE0068089585E0C5D0FF0C11
:1024B000001F04830FE70695F794D1D050680DDF15
:1024C00056DE139721E438E743ED5BEBC6DE27E8E1
:1024D00031ED43E15DE399D02EE03CE343EC5DEB6D
:1024E00094D022E83DEA4BE25EE38FD02CEE32E856
:1024F00046E75EEB8AD020E931EE49EA5EE385D01B
:1025000020E83FEE4FEF5EEB80D024EC3FEF4FE74B
:102510005FE37BD02CDE139784818F5799F02AF4E8
:10252000D82E0FEFE02EF02E04C0D82EEE24FF247C
:102530000027ECDD28E132E741E35FE38EDEC7DD13
:102540003497CBDE86C060DE84C0BCDD86E074D00C
:1025500005830F772BE33AEA48EB5FE37EDE07DE85
:10256000139741D028F4858188236AF754DE71C01F
:102570008F778483A7DD349774DFF9DD139723E623
:1025800032E446E357EB69DE29ED37EA4AE159E3E5
:102590003CD026E538E14EEA5AEB37D026E53CE858
:1025A0004DE15CE332D02DEC37E543E65DEB2DD019
:1025B0002DEE3DEF45E75EE328D028E132E741E329
:1025C0005FEB23D04CD089DED7DDDD24EE24FF2461
:1025D00004818FE7080F0695F794E9DD8581881F50
:1025E00008F4D7DD36C078DD8827039512F4889487
:1025F000089507301AF0812F08940895FF1C881F52
:102600000A95E2F7812B8894089567DE60DD3497A0
:1026100024CEDDDE81F00F930F772F933F934F93FE
:102620005F933CDF5F914F913F912F9116DE8EDFDC
:102630008F918078082B08950FB6F8944A925A9299
:10264000E42DF52DA42DB52D480E8827581E0FBE5C
:1026500008950FB6F894599049900FBE08955FE31E
:1026600040E83327222708950000803F0080F4438C
:102670000000C842000000000000003F42E0654248
:1026800000007A4400007042A4707D3F295C8F3DB9
:10269000000000406F12033B0AD7233D0080EE4349
:1026A00000C00F4500004040000048430000FA43CE
:0426B000005043484B
:00000001FF
