:100000000C94340018950000189500000C94C00959
:10001000189500001895000018950000189500002C
:10002000189500001895000018950000189500001C
:10003000189500001895000018950000189500000C
:1000400018950000189500001895000018950000FC
:1000500018950000189500001895000018950000EC
:1000600018950000189500008FEF8DBFC0EEE6ECEC
:100070004E2E84E08EBFD4E0F4E05F2EEEEFF3E08E
:10008000A0E0B1E088278D933197E9F781E880936C
:10009000C40080E08093C50088E18093C10066249D
:1000A0008FEF8AB980E084B987E080937A0080EC92
:1000B00080937C00789480916800816080936800D0
:1000C00089E180936B0084E085BD80E084BD80E0A1
:1000D0008093800083E08093810086E08093B1006C
:1000E00080E08093B0005D9A84E085BD83E08093DA
:1000F000810086E08093B10080916E008E7F8093B6
:100100006E0080916F008E7F80936F0080917000F1
:100110008E7F80937000AFE6B1E0E0EFFDE10E94DA
:10012000BB0D81E080930001A9E7B1E0E4EFFDE1C0
:100130000E94BB0DE4E0F0E0BB27A0E10E94EC0DC3
:100140000B3252E0150711F00C94AD00A9E7B1E0B5
:10015000E0E0F0E094E00E94ED0D80E090E0A3E7A5
:10016000B1E08D939C935F9A70917A007068709360
:100170007A0000910001013011F00C94B409AFE550
:10018000B1E00D911C910A3550E0150780E00CF4A8
:1001900081E08F93AFE5B1E00D911C91083C50E0F8
:1001A000150780E014F009F081E09F91892B8F936F
:1001B000A1E6B1E00D911C91013050E0150781E0FE
:1001C00009F080E09F91892B882311F40C947E0123
:1001D0000E94B409ADE5B1E00D911C91093650E0E3
:1001E00015070CF402C00C944D01A5E0B1E0E4EF5A
:1001F000FDE10E94BB0DE5E0F1E00E942B0CE9E47B
:10020000F1E00E94300C0E949A0D18F011F00C944D
:1002100038015D9A84E690E00E94A30B5D988CE221
:1002200091E00E94A30BAFE5B1E00D911C910A355E
:1002300050E015071CF011F00C9420010C942601DD
:10024000E9E4F1E0A5E0B1E00E94CD0DE8EFFDE1C9
:100250000E94910DE5E0F1E00E942B0C0E94360D0A
:10026000FF27EDE0A5E0B1E00E94CD0D0C94FB006E
:10027000AFE5B1E00D911C910A3550E015070CF483
:1002800002C00C94470180ED97E00E94A30BAFE6FB
:10029000B1E0E0EFFDE10E94BB0D5D9882E390E0EC
:1002A0000E94A30B5D9A82E390E00E94A30BADE74E
:1002B000B1E0E0E0F0E094E00E94ED0DE9E7F1E06C
:1002C0000E942B0CEDE7F1E00E94300C0E949A0D89
:1002D00011F40C947C01E0E0F0E0A9E7B1E094E0D7
:1002E0007BE70E94DC0DE4E0F0E00BE212E0A0E12D
:1002F000BB277BE70E94DB0D0C94BF00A9E4B1E0B3
:10030000ECEFFDE10E94BB0DF894ADE5B1E00D917D
:100310001C91083750E0150780E014F009F081E0E7
:100320008F93ADE5B1E00D911C910A3F50E01507A8
:1003300080E00CF481E09F918923882311F40C94D0
:10034000A90181E090E0A7E1B1E08D939C930C942A
:10035000AF0180E090E0A7E1B1E08D939C93ADE523
:10036000B1E00D911C91093650E0150780E00CF4C6
:1003700081E08F93ADE5B1E00D911C91023350E027
:10038000150780E014F009F081E09F91892388230C
:1003900011F40C94D30181E090E0A9E1B1E08D93D8
:1003A0009C930C94D90180E090E0A9E1B1E08D9399
:1003B0009C9386EC806C80937C000E94DF0BA9E00C
:1003C000B1E08D939C93A9E0B1E00D911C910332B3
:1003D00050E0150710F00C94F50181E090E0A7E7DC
:1003E000B1E08D939C930C94FB0180E090E0A7E733
:1003F000B1E08D939C9384EC806C80937C000E9490
:10040000DF0BABE0B1E08D939C93EBE0F1E0D1909A
:10041000E080FF2400270E944F0CADE0B1E00E9475
:10042000800CE0E0FEE10E94910DEDE0F1E00E9421
:100430002B0C0E94270DFF27EDE0ADE0B1E00E94FC
:10044000CD0DE4E0FEE10E94910DEDE0F1E00E94AF
:100450002B0C0E94F60CFF27EDE0A1E4B1E00E9416
:10046000CD0DA5E4B1E0E8E0FEE10E94BB0DE5E4BE
:10047000F1E00E94300CE1E4F1E00E942B0C0E94BC
:10048000A00CFF27EDE0A5E4B1E00E94CD0DE4E073
:10049000FEE10E94910DE5E4F1E00E942B0C0E9428
:1004A000CD0EFF27EDE0A5E4B1E00E94CD0DECE01C
:1004B000FEE10E94910DE5E4F1E00E942B0C0E9408
:1004C000F60CFF27EDE0A5E4B1E00E94CD0DE5E4D8
:1004D000F1E00E942B0CE9E4F1E00E94300C0E9454
:1004E0009A0D18F011F00C9477020C947D02E5E45B
:1004F000F1E0A9E4B1E00E94CD0DE0E1FEE10E944F
:10050000910DE5E4F1E00E942B0C0E94A00CFF2766
:10051000EDE0A1E2B1E00E94CD0DE1E2F1E00E9448
:10052000300CE4EFFDE10E94880D0E94A00CFF2733
:10053000EDE0A1E2B1E00E94CD0DECE0FEE10E9411
:10054000910DE1E2F1E00E942B0C0E94F60CFF27D6
:10055000EDE0A1E2B1E00E94CD0DE9E7F1E00E94FB
:10056000300CE1E2F1E00E942B0C0E94F60CFF2718
:10057000EDE0A1E2B1E00E94CD0DA7E1B1E00D9167
:100580001C91013050E0150711F00C94D702E4EFF4
:10059000FDE10E94910DE1E2F1E00E942B0C0E942E
:1005A000F60CFF27EDE0A1E2B1E00E94CD0DA9E13C
:1005B000B1E00D911C91013050E0150711F00C9441
:1005C000F102E4E1FEE10E94910DE1E2F1E00E941E
:1005D0002B0C0E94F60CFF27EDE0A1E2B1E00E9497
:1005E000CD0DE8E1FEE10E94910DE1E2F1E00E9413
:1005F0002B0C0E94270DFF27EDE0A1E2B1E00E9445
:10060000CD0DE8E1FEE10E94910DE1E2F1E00E94F2
:100610002B0C0E94270DFF27EDE0A1E2B1E00E9424
:10062000CD0DA5E1B1E00D911C91013050E0150711
:1006300011F00C94230382E090E0A5E1B1E08D93EA
:100640009C930C94290381E090E0A5E1B1E08D93A7
:100650009C93ECE1FEE10E94910DE1E2F1E00E9449
:100660002B0C0E94A00CFF27EDE0A5E2B1E00E9458
:10067000CD0DAFE5B1E00D911C9140E550E0041BBC
:10068000150BABE3B1E00D931C93ABE3B1E00D911F
:100690001C9142E050E00E94B20BABE3B1E00D933D
:1006A0001C93ABE3B1E00D911C91043650E01507AB
:1006B0001CF011F00C945E030C94640384E690E04B
:1006C000ABE3B1E08D939C93AFE5B1E00D911C914C
:1006D000043650E015070CF402C00C94DF0381E0EF
:1006E00090E0ADE2B1E08D939C938BE490E0ABE3BE
:1006F000B1E08D939C93ABE5B1E00D911C91083D69
:1007000051E015070CF402C00C949603E0E2FEE100
:100710000E94910DE9E7F1E00E942B0C0E94360D3A
:10072000FF27EDE0A9E7B1E00E94CD0DABE5B1E018
:100730000D911C91023E51E015071CF011F00C9434
:10074000A3030C94C603E0E2FEE10E94910DE9E7E9
:10075000F1E00E942B0C0E94270DFF27EDE0A9E796
:10076000B1E00E94CD0DE9E7F1E00E942B0CE4E23C
:10077000FEE10E94910D0E949A0D10F00C94C603A8
:10078000A9E7B1E0E4E2FEE10E94BB0DADE5B1E016
:100790000D911C91093650E015070CF402C00C9421
:1007A000DD03A9E7B1E0E4EFFDE10E94BB0D80E0CD
:1007B00090E0A9E1B1E08D939C930C942E0480E02D
:1007C00090E0ADE2B1E08D939C93EBE5F1E0D19048
:1007D000E0808FEFE7FE8827F82E082F0E944F0C4D
:1007E0000E94850CE8E2FEE10E94880D0E94270D20
:1007F000FF27EDE0ADE4B1E00E94CD0DE5E2F1E0D0
:100800000E94300CEDE4F1E00E942B0C0E94F60CEB
:10081000FF27EDE0ADE4B1E00E94CD0DECE2FEE19A
:100820000E94910DEDE4F1E00E942B0C0E94A00CBF
:10083000FF27EDE0ADE4B1E00E94CD0DEDE4F1E085
:100840000E94300CE5E2F1E00E942B0C0E94360D74
:10085000FF27EDE0A5E2B1E00E94CD0DE5E2F1E079
:100860000E94ED0BA9E2B1E0EDE0FF270E94CD0D63
:10087000E9E2F1E00E942B0C0E944F0C0E94850CD3
:10088000E5E2F1E00E942B0C0E94270DFF27EDE02E
:10089000A1E5B1E00E94CD0DE8EFFDE10E94910DD0
:1008A000E1E5F1E00E942B0C0E94F60CFF27EDE041
:1008B000A1E5B1E00E94CD0D84E690E08A939A9381
:1008C0000E94EF0A2296A5E5B1E00D931C93E5E5A1
:1008D000F1E0D190E0808FEFE7FE8827F82E082F17
:1008E0000E944F0CA7E5B1E00E94800CE1E5F1E029
:1008F0000E942B0CE7E5F1E00E94300C0E949A0D5B
:1009000018F011F00C9486040C949804A9E2B1E05C
:100910000D911D912D913C9141E050E060E070E01F
:100920000E94C30DA9E2B1E00D931D932D933D9359
:100930004AEF50E060E070E0A9E2B1E00D911D9156
:100940002D913C910E94C80D1CF011F00C94AA044A
:100950000C94B4040AEF10E020E030E0A9E2B1E02A
:100960000D931D932D933C9345E050E060E070E0C3
:10097000A9E2B1E00D911D912D913C910E94C80D0D
:100980000CF402C00C94CE0405E010E020E030E04E
:10099000A9E2B1E00D931D932D933C93ABE3B1E03D
:1009A0000D911D9117FB1EF42FEF3FEF02C0222780
:1009B0003327A9E2B1E04D915D916D917C910E9448
:1009C000BC0BADE3B1E00D931D932D933D93ADE3CF
:1009D000B1E00D911D912D913C9144E650E060E015
:1009E00070E00E94460BADE3B1E04D935D936D93D3
:1009F0007D9381E090E0ABE1B1E08D939C93A9E21F
:100A0000B1E08D919C91ADE1B1E08D939C93E0E3D9
:100A1000FEE10E94910DE1E2F1E00E942B0C0E94A8
:100A2000F60CFF27EDE00E94ED0BAFE2B1E0EDE048
:100A3000FF270E94CD0DAFE2B1E00D911D912D91E8
:100A40003C9144E150E060E070E00E94460BAFE270
:100A5000B1E04D935D936D937D93E4E3FEE10E94DD
:100A6000910DE1E2F1E00E942B0C0E94A00CFF2707
:100A7000EDE00E94ED0BA3E3B1E0EDE0FF270E9463
:100A8000CD0DA3E3B1E00D911D912D913C91AFE20D
:100A9000B1E04D915D916D917C910E94C30DA3E3F6
:100AA000B1E00D931D932D933D9380E090E0AFE175
:100AB000B1E08D939C9380E090E0A1E1B1E08D9353
:100AC0009C9380E090E0A3E1B1E08D939C93E5E4FA
:100AD000F1E00E942B0CE8E3FEE10E94910D0E94E0
:100AE0009A0D10F00C947A0581E090E0A1E1B1E05C
:100AF0008D939C93E5E4F1E00E942B0CEFE6F1E08E
:100B00000E94300C0E949A0D18F011F00C948A0586
:100B10000C94900581E090E0A3E1B1E08D939C936B
:100B2000AFE5B1E00D911C91023950E015071CF0C2
:100B300011F00C949D050C94A30581E090E0AFE1C9
:100B4000B1E08D939C93AFE5B1E00D911C9102391A
:100B500050E0150780E014F009F081E08F93A5E1E3
:100B6000B1E00D911C91023050E0150781E009F0D1
:100B700080E09F918923882311F40C94C50581E0BE
:100B800090E0A1E1B1E08D939C937894A3E1B1E072
:100B90000D911C91013050E0150711F00C94D60511
:100BA00080E090E0A1E1B1E08D939C9300E010E043
:100BB00020E030E0A7E3B1E00D931D932D933C932B
:100BC000A1E1B1E00D911C91013050E0150711F049
:100BD0000C9432070E94B70900E010E020E030E0FA
:100BE000A7E3B1E00D931D932D933C9301E010E03A
:100BF00020E030E0A1E0B1E00D931D932D933C93F4
:100C0000A9E2B1E04D915D916D917C91A1E0B1E0DF
:100C10000D911D912D913C910E94C80D1CF011F079
:100C20000C949306A7E3B1E00D911D912D913C9199
:100C300041E050E060E070E00E94C30DA7E3B1E046
:100C40000D931D932D933D93AFE2B1E04D915D91D6
:100C50006D917C91A7E3B1E00D911D912D913C9197
:100C60000E94C80D11F00C943B0681E090E0A5E7CE
:100C7000B1E08D939C93A3E3B1E04D915D916D91B3
:100C80007C91A7E3B1E00D911D912D913C910E94C3
:100C9000C80D11F00C94520680E090E0A5E7B1E099
:100CA0008D939C93A5E7B1E00D911C91003050E02D
:100CB000150711F00C945D065D98A5E7B1E00D9164
:100CC0001C91013050E0150711F00C948906ADE23B
:100CD000B1E00D911C91013050E0150781E009F061
:100CE00080E08F93AFE1B1E00D911C91013050E0B5
:100CF000150781E009F080E09F91892B882311F48A
:100D00000C9488068BB190E289278BB90C948906E4
:100D10005D9A81E090E00E94A30BA1E0B1E00E9407
:100D2000E00A0C94000601E010E020E030E0A1E0D1
:100D3000B1E00D931D932D933C93A9E2B1E04D9149
:100D40005D916D917C91A1E0B1E00D911D912D918E
:100D50003C910E94C80D1CF011F00C943007A7E3E1
:100D6000B1E00D911D912D913C9141E050E060E08A
:100D700070E00E94C30DA7E3B1E00D931D932D9386
:100D80003D93AFE2B1E04D915D916D917C91A7E310
:100D9000B1E00D911D912D913C910E94C80D11F073
:100DA0000C94D80681E090E0A5E7B1E08D939C9388
:100DB000A3E3B1E04D915D916D917C91A7E3B1E02A
:100DC0000D911D912D913C910E94C80D11F00C9434
:100DD000EF0680E090E0A5E7B1E08D939C93A5E756
:100DE000B1E00D911C91003050E0150711F00C940A
:100DF000FA065D98A5E7B1E00D911C91013050E035
:100E0000150711F00C942607ADE2B1E00D911C918D
:100E1000013050E0150781E009F080E08F93AFE1E9
:100E2000B1E00D911C91013050E0150781E009F00F
:100E300080E09F91892B882311F40C9425078BB1B6
:100E400090E289278BB90C9426075D9A81E090E0A7
:100E50000E94A30BA1E0B1E00E94E00A0C949D0661
:100E60000C94B2090E94B70900E010E020E030E0E5
:100E7000A7E3B1E00D931D932D933C9301E010E0A7
:100E800020E030E0A1E0B1E00D931D932D933C9361
:100E9000A9E2B1E04D915D916D917C91A1E0B1E04D
:100EA0000D911D912D913C910E94C80D1CF011F0E7
:100EB0000C947708A7E3B1E00D911D912D913C9121
:100EC00041E050E060E070E00E94C30DA7E3B1E0B4
:100ED0000D931D932D933D93ABE1B1E04D915D9149
:100EE00057FB1EF46FEF7FEF02C066277727A1E064
:100EF000B1E00D911D912D913C910E94C80D11F012
:100F00000C94B207A5E1B1E00D911C91013050E0C5
:100F1000150711F00C948E070E94BA09A5E1B1E003
:100F20000D911C91023050E0150711F00C949A07B6
:100F30000E94BD09A7E1B1E00D911C91013050E084
:100F4000150711F00C94A6070E94BA09A9E1B1E0B7
:100F50000D911C91013050E0150711F00C94B2076F
:100F60000E94BD09ADE1B1E04D915D9157FB1EF4CA
:100F70006FEF7FEF02C066277727A1E0B1E00D9108
:100F80001D912D913C910E94C80D11F00C94CA073F
:100F90000E94B709ADE3B1E04D915D916D917C91F7
:100FA000A1E0B1E00D911D912D913C910E94C80DE1
:100FB0001CF011F00C94DE070C94E0070E94B409B9
:100FC000A3E1B1E00D911C91013050E0150711F043
:100FD0000C94EC070E94B409AFE2B1E04D915D9131
:100FE0006D917C91A7E3B1E00D911D912D913C9104
:100FF0000E94C80D11F00C94030881E090E0A5E771
:10100000B1E08D939C93A3E3B1E04D915D916D911F
:101010007C91A7E3B1E00D911D912D913C910E942F
:10102000C80D11F00C941A0880E090E0A5E7B1E03B
:101030008D939C93A5E7B1E00D911C91003050E099
:10104000150711F00C9425085D98A5E7B1E00D9106
:101050001C91013050E0150711F00C945108ADE2DD
:10106000B1E00D911C91013050E0150781E009F0CD
:1010700080E08F93AFE1B1E00D911C91013050E021
:10108000150781E009F080E09F91892B882311F4F6
:101090000C9450088BB190E289278BB90C945108BD
:1010A0005D9AA7E7B1E00D911C91013050E0150762
:1010B00081E009F080E08F93A5E1B1E00D911C91F2
:1010C000013050E0150781E009F080E09F9189230D
:1010D000882311F40C946D085D9A81E090E00E94E1
:1010E000A30BA1E0B1E00E94E00A0C9448070E9423
:1010F000B70901E010E020E030E0A1E0B1E00D939D
:101100001D932D933C93A9E2B1E04D915D916D91BA
:101110007C91A1E0B1E00D911D912D913C910E9437
:10112000C80D1CF011F00C94B209A7E3B1E00D91C9
:101130001D912D913C9141E050E060E070E00E94F3
:10114000C30DA7E3B1E00D931D932D933D93ABE148
:10115000B1E04D915D9157FB1EF46FEF7FEF02C040
:1011600066277727A1E0B1E00D911D912D913C916B
:101170000E94C80D11F00C94ED08A5E1B1E00D91AD
:101180001C91013050E0150711F00C94C9080E9421
:10119000BD09A5E1B1E00D911C91023050E01507A9
:1011A00011F00C94D5080E94BA09A7E1B1E00D91A5
:1011B0001C91013050E0150711F00C94E1080E94D9
:1011C000BD09A9E1B1E00D911C91013050E0150776
:1011D00011F00C94ED080E94BA09ADE1B1E04D9117
:1011E0005D9157FB1EF46FEF7FEF02C066277727F4
:1011F000A1E0B1E00D911D912D913C910E94C80D8F
:1012000011F00C9405090E94B709ADE3B1E04D91CE
:101210005D916D917C91A1E0B1E00D911D912D91B9
:101220003C910E94C80D1CF011F00C9419090C940B
:101230001B090E94B409A3E1B1E00D911C9101309A
:1012400050E0150711F00C9427090E94B409AFE291
:10125000B1E04D915D916D917C91A7E3B1E00D916D
:101260001D912D913C910E94C80D11F00C943E09E6
:1012700081E090E0A5E7B1E08D939C93A3E3B1E01A
:101280004D915D916D917C91A7E3B1E00D911D9120
:101290002D913C910E94C80D11F00C94550980E0ED
:1012A00090E0A5E7B1E08D939C93A5E7B1E00D91A7
:1012B0001C91003050E0150711F00C9460095D9806
:1012C000A5E7B1E00D911C91013050E0150711F038
:1012D0000C948C09ADE2B1E00D911C91013050E00D
:1012E000150781E009F080E08F93AFE1B1E00D9147
:1012F0001C91013050E0150781E009F080E09F91DA
:10130000892B882311F40C948B098BB190E28927E7
:101310008BB90C948C095D9AA7E7B1E00D911C91F3
:10132000013050E0150781E009F080E08F93A5E1DE
:10133000B1E00D911C91013050E0150781E009F0FA
:1013400080E09F918923882311F40C94A8095D9A69
:1013500081E090E00E94A30BA1E0B1E00E94E00ACE
:101360000C9483080C94B9005B985C9808955B9A80
:101370005C9A08955B985C9A08955B9A5C980895CE
:101380000F921F922F923F924F925F927F92AF9255
:10139000BF920F931F932F933F934F935F936F933E
:1013A0007F938F939F93AF93BF93CF93DF93EF93ED
:1013B000FF938FB78F930027BB27A3E28C9184FB09
:1013C0000EF401E04427AEE6B1E08C9186FB0EF40A
:1013D0004395041711F40C94100A0027BB27A3E2CD
:1013E0008C9184FB0EF401E040E0041711F00C94A2
:1013F000010AA6E4B0E08C91ADE5B1E08D938827B9
:101400008C930027BB27A3E28C9184FB0EF401E0B0
:1014100041E0041711F00C94100A80E0809346001C
:101420000027BB27A3E28C9183FB0EF401E0442745
:10143000AEE6B1E08C9185FB0EF44395041711F4F0
:101440000C945F0A0027BB27A3E28C9183FB0EF468
:1014500001E040E0041711F00C944D0AA4E8B0E05C
:101460000D911C910A3852E0150710F00C944D0AAA
:10147000A4E8B0E00D911C910C3251E0150718F072
:1014800011F00C94450A0C944D0AA4E8B0E08D913B
:101490009C91ABE5B1E08D939C930027BB27A3E221
:1014A0008C9183FB0EF401E041E0041711F00C94E1
:1014B0005F0A80E090E0909385008093840000278D
:1014C000BB27A3E28C9180FB0EF401E04427AEE63B
:1014D000B1E08C9187FB0EF44395041711F40C9442
:1014E000A90A0027BB27A3E28C9180FB0EF401E040
:1014F00040E0041711F00C949A0A0091B200083CE5
:1015000010F00C949A0A0091B200023318F011F016
:101510000C948C0A0C949A0AA2EBB0E08C91AFE583
:10152000B1E08D9388278C9380E090E0A3E7B1E051
:101530008D939C930027BB27A3E28C9180FB0EF434
:1015400001E041E0041711F00C94A90A80E08093B7
:10155000B200BB27A3E28C9180FBAEE6B1E08C9198
:1015600087F98C93BB27A3E28C9184FBAEE6B1E0B4
:101570008C9186F98C93BB27A3E28C9183FBAEE61A
:10158000B1E08C9185F98C938F918FBFFF91EF9192
:10159000DF91CF91BF91AF919F918F917F916F918B
:1015A0005F914F913F912F911F910F91BF90AF90FD
:1015B0007F905F904F903F902F901F900F901895C5
:1015C0000D911D912D913C9181E0080F8827181FE6
:1015D000281F381F3C932E931E930E93089540911D
:1015E0008101509182010DE815E30E94030B49E14E
:1015F00056E3040F151F0093810110938201498166
:1016000058810C94290B09D00E94B20B00FC10D019
:10161000089503D01ED001F8F9CF0024E89457FFB5
:1016200002C009D0689400F80BD010F80124089586
:1016300002D009D00895509540954F5F5F4F0895AF
:10164000E89417FF0895009510950F5F1F4F689459
:101650000895352F242FE894452B11F468940895AC
:10166000512F402F0027112780E1440F551F001FE5
:10167000111F021B130B416018F4020F131F4E7F42
:101680008A9599F7089500FC05D0089530D005D0CB
:1016900001F8F9CF37D03FD00895842F952FA62F8A
:1016A000B72FE894452B462B472B11F468940895E7
:1016B000402F512F622F732F002711272227332706
:1016C000F0E2440F551F661F771F001F111F221FD6
:1016D000331F081B190B2A0B3B0B416028F4080F22
:1016E000191F2A1F3B1F4E7FFA9559F708950024B2
:1016F000E89477FF02C006D0689400F809D010F88B
:101700000124089512D04F5F5F4F6F4F7F4F0895B0
:10171000E89437FF089500951095209530950F5F58
:101720001F4F2F4F3F4F68940895409550956095F7
:10173000709508953197F1F70895689462F80895C7
:10174000E89462F80895EF93FF93EE27E82BE92BD6
:1017500031F0E8E8F3E13197F1F70197D1F7FF9124
:10176000EF9108950F92B801469F8001479F100D99
:10177000569F100D0F9008950F921F922F92C8013F
:10178000D901489F80014A9F90014B9F202C499F7F
:10179000100D211D321D5A9F202C589F100D211D08
:1017A000321D599F200D311D689F200D311D699FED
:1017B000300D789F300D2F901F900F9008958091DD
:1017C0007A00806C80937A0080917A0086FDFCCF4D
:1017D000809178009091790008953DD09927112744
:1017E0008F2D880F80E8F82A802F881F08F41FEFBC
:1017F00041F08F57082F07FD04C0003240F08FEFF3
:1018000001C08827982FD82EE82EF82E09C08FE126
:10181000801B082FF694E794D79497950A95D1F7F3
:10182000112351F09095D094E094F09481E0980FBA
:101830008827D81EE81EF81E0F2DFE2CED2CD92E61
:101840000895D094E094F09491E0D90E9927E91E80
:10185000F91E10950895D190E190F19001910895AD
:1018600021913191419151910895102F90E8FF0CF1
:10187000001F0927990FF7941078652F90E8440FFF
:10188000551F5927990F4795607800380895FF0C28
:1018900090E89027110F9795F794092F0895102F2E
:1018A000BD2CDE2CEF2CF02E11234AF4B094D094F2
:1018B000E094F0949FEFB91AD90AE90AF90A0EE107
:1018C000FF2039F4FE2CED2CDB2CBB240850C2F792
:1018D0006BC032F00A95BB0CDD1CEE1CFF1CF9CF6F
:1018E00001D0D5CFB7FE089590E8B91611F4D0FE17
:1018F00008959FEFD91AE90AF90A09F403950895A2
:10190000DD92ED92FD920C930895502F2D2D3E2DDA
:101910004F2D612F08952DEC3CEC4CEC5DE36627D8
:101920000FC099DFF2DFDD24EE2490E8F92E0FE3FB
:1019300007C096DF05C02227332740E251E466271F
:10194000552351F1002381F190DF71F116270058E2
:1019500050580894050B18F407FD03C025C007FD77
:1019600023C0469537952795F694E794D79422D0CF
:10197000FF202AF0DD0CEE1CFF1C015073F09D2DA2
:10198000969548F0DD203AF4EE202AF491E0D90E45
:101990009927E91EF91E7BCF07C09FE7092FF92A77
:1019A0009FEFD92EE92E0895DD24EE24FF24002791
:1019B000112708959F929924AA24BB2488E1D21666
:1019C000E306F40628F0D21AE30AF40A089401C0E8
:1019D0008894991CAA1CBB1CDD0CEE1CFF1C8A956C
:1019E00071F7D92CEA2CFB2C9F9008953EDFE1F291
:1019F0005038D1F21627005850580894051F12F499
:101A000018F4CBCF08F0D0CF0AD0FF202AF0BB0CBF
:101A1000DD1CEE1CFF1C3BCF0F5FFBF138CF9F920C
:101A20009924AA24BB24992788E1990CAA1CBB1CE1
:101A3000DD1CEE1CFF1C30F4920EA31EB41ED91E3A
:101A4000E91EF91E8A9589F79F90089509DF0DDF39
:101A5000503829F090E869270CC00AF045D017CF1C
:101A60005FE322273327442701C0FADEFEDE503829
:101A7000B1F3003899F3902F951B8BF312F434D007
:101A8000FACF983118F0222733274427983028F0CE
:101A9000232F342F44279850F9CF992329F04695C6
:101AA000379527959A95D9F7912F962742F014D01C
:101AB000B0F6F794E794D7940F5F8BF66ECF10D003
:101AC00051F008F4BEDEFF2052F2DD0CEE1CFF1CCC
:101AD0000150CBF762CF68CFD20EE31EF41E0895FB
:101AE000D21AE30AF40A0895DF92EF92FF920F935D
:101AF0001F93D22EE32EF42E052F162F6F915F9198
:101B00004F913F912F910895C895319600200895E7
:101B1000FBDFD02CF9DFE02CF7DFF02CF5DF002D18
:101B20000895F2DF202DF0DF302DEEDF402DECDFC9
:101B3000502D089507FB00680EF40F7757FB50688F
:101B40000EF45F7707FD02C057FF05C0D216E3060B
:101B5000F406050708952D153E054F055007089515
:101B600000240D280E280F28002A0020089591E057
:101B700005C092E003C094E001C098E0C5DF0D927B
:101B80009A95E1F70895040F151F261F371F089532
:101B90000417150726073707089594E081918D9360
:101BA0009A95E1F70895F999FECFE1BDF2BD31961E
:101BB000089591E001C092E07B3751F47FB7F8942B
:101BC000F2DF8D9180BDFA9AF99A9A95C9F77FBF95
:101BD0007727089591E001C092E0E5DFF89A80B59B
:101BE0008D939A95D1F7089536DE3FDE0395AAF0DE
:101BF00087E1DD0CEE1CFF1C8A9589F00A95CAF777
:101C0000FF205AF000240D280E280F28002039F05C
:101C10000A95DD0CEE1CFF1CDAF70A9538CEC4CE0F
:101C2000C3CE19DE0023E2F39BDF19F4B6DE0068B1
:101C3000089585E0C5D0FF0C001F04830FE70695CB
:101C4000F794D1D0506812DF5BDE139721E438E7B8
:101C500043ED5BEBCBDE27E831ED43E15DE399D06B
:101C60002EE03CE343EC5DEB94D022E83DEA4BE20E
:101C70005EE38FD02CEE32E846E75EEB8AD020E9B7
:101C800031EE49EA5EE385D020E83FEE4FEF5EEBB0
:101C900080D024EC3FEF4FE75FE37BD031DE13973A
:101CA00084818F5799F02AF4D82E0FEFE02EF02E72
:101CB00004C0D82EEE24FF240027F1DD28E132E70E
:101CC00041E35FE393DECCDD3497D0DE86C065DE92
:101CD00084C0C1DD86E074D005830F772BE33AEA38
:101CE00048EB5FE383DE0CDE139741D028F4858157
:101CF00088236AF759DE71C08F778483ACDD34970F
:101D000074DFFEDD139723E632E446E357EB6EDE25
:101D100029ED37EA4AE159E33CD026E538E14EEABD
:101D20005AEB37D026E53CE84DE15CE332D02DECB0
:101D300037E543E65DEB2DD02DEE3DEF45E75EE365
:101D400028D028E132E741E35FEB23D04CD08EDE90
:101D5000DCDDDD24EE24FF2404818FE7080F0695E7
:101D6000F794EEDD8581881F08F4DCDD36C07DDD6B
:101D70008827039512F48894089507301AF0812F6C
:101D800008940895FF1C881F0A95E2F7812B889418
:101D900008956CDE65DD349729CEE2DE81F00F9385
:101DA0000F772F933F934F935F933CDF5F914F915A
:101DB0003F912F911BDE8EDF8F918078082B089545
:101DC0000FB6F8944A925A92E42DF52DA42DB52D14
:101DD000480E8827581E0FBE08950FB6F8945990E4
:101DE00049900FBE08955FE340E833272227089506
:101DF00000409C460000803F0000C84200000000F8
:101E00000080F4430000003FE926E84100007A44E6
:101E100000007042A4707D3F295C8F3D00000040AF
:101E20006F12033B0AD7233D0080EE4300C00F45ED
:0C1E3000000020410000804000002F4412
:00000001FF
