:100000000C94340018950000189500001895000015
:100010000C940E0A18950000189500001895000021
:10002000189500001895000018950000189500001C
:10003000189500001895000018950000189500000C
:1000400018950000189500001895000018950000FC
:1000500018950000189500001895000018950000EC
:1000600018950000189500008FEF8DBFC0EEE6ECEC
:100070004E2E84E08EBFD4E0F4E05F2EEEEFF3E08E
:10008000A0E0B1E088278D933197E9F766248FEFE0
:100090008AB980E084B980E087B98FE088B98FE0C1
:1000A00085B986E080937A0080E480937C00789420
:1000B0008091680082608093680087E080936C0084
:1000C00084E085BD80E084BD80E08093800083E093
:1000D0008093810086E08093B10080E08093B0003F
:1000E0005B9A84E085BD83E08093810086E0809305
:1000F000B10080916E008E7F80936E0080916F00C2
:100100008E7F80936F00809170008E7F809370004F
:1001100070917A00706870937A0080E480648093B4
:100120007C000E94750CA1E8B1E08D939C937091C6
:100130007A007F7770937A00AFE6B1E0ECE1FFE1FF
:100140000E94510E81E080930001A9E7B1E0E0E256
:10015000FFE10E94510EE4E0F0E0BB27A0E10E9425
:10016000820E0B3252E0150711F00C94BE00A9E785
:10017000B1E0E0E0F0E094E00E94830E80E090E0E7
:10018000A3E7B1E08D939C93F89401E010E020E0A8
:1001900030E0A1E0B1E00D931D932D933C9342E339
:1001A00050E060E070E0A1E0B1E00D911D912D9173
:1001B0003C910E945E0E1CF011F00C94ED008BB18E
:1001C00098E089278BB984E690E00E94390CA1E081
:1001D000B1E00E94760B0C94CF0070917A007068A9
:1001E00070937A00789400910001013011F00C9422
:1001F000020AAFE5B1E00D911C910A3550E01507F8
:1002000080E00CF481E08F93AFE5B1E00D911C919B
:10021000083C50E0150780E014F009F081E09F9160
:10022000892B8F93A1E6B1E00D911C91013050E034
:10023000150781E009F080E09F91892B882311F454
:100240000C94D6010E94020AADE5B1E00D911C911B
:10025000093650E0150780E00CF481E08F93AFE59C
:10026000B1E00D911C91023350E0150780E014F0CD
:1002700009F081E09F918923882311F40C9498015F
:10028000A5E0B1E0E0E2FFE10E94510EE5E0F1E01F
:100290000E94C10CE9E4F1E00E94C60C0E94300EFD
:1002A00018F011F00C9483015B9A84E690E00E94B0
:1002B000390C5B988CE291E00E94390CAFE5B1E01B
:1002C0000D911C910A3550E015071CF011F00C94AB
:1002D0006B010C947101E9E4F1E0A5E0B1E00E944A
:1002E000630EE4E2FFE10E94270EE5E0F1E00E94E8
:1002F000C10C0E94CC0DFF27EDE0A5E0B1E00E940B
:10030000630E0C944601AFE5B1E00D911C910A35E6
:1003100050E015070CF402C00C94920180ED97E0B8
:100320000E94390CAFE6B1E0ECE1FFE10E94510E12
:100330005B9AAFE5B1E00D911C91023350E01507D7
:100340001CF011F00C94A6010C94AF0182E390E034
:100350000E94390C5B9882E390E00E94390CADE773
:10036000B1E0E0E0F0E094E00E94830EE9E7F1E024
:100370000E94C10CEDE7F1E00E94C60C0E94300E15
:1003800011F40C94D401E0E0F0E0A9E7B1E094E0CE
:100390007BE70E94720EE4E0F0E00BE212E0A0E1E5
:1003A000BB277BE70E94710E0C94F900A9E4B1E031
:1003B000E8E2FFE10E94510EF894ADE5B1E00D9145
:1003C0001C91083750E0150780E014F009F081E037
:1003D0008F93ADE5B1E00D911C910A3F50E01507F8
:1003E00080E00CF481E09F918923882311F40C9420
:1003F000010281E090E0A7E1B1E08D939C930C9421
:10040000070280E090E0A7E1B1E08D939C93ADE519
:10041000B1E00D911C91093650E0150780E00CF415
:1004200081E08F93ADE5B1E00D911C91023350E076
:10043000150780E014F009F081E09F91892388235B
:1004400011F40C942B0281E090E0A9E1B1E08D93CE
:100450009C930C94310280E090E0A9E1B1E08D938F
:100460009C9384E4806480937C000E94750CABE0D4
:10047000B1E08D939C93EBE0F1E0D190E080FF241C
:1004800000270E94E50CADE0B1E00E94160DECE201
:10049000FFE10E94270EEDE0F1E00E94C10C0E94F6
:1004A000BD0DFF27EDE0ADE0B1E00E94630EE0E39B
:1004B000FFE10E94270EEDE0F1E00E94C10C0E94D6
:1004C0008C0DFF27EDE0A1E4B1E00E94630EA5E4EE
:1004D000B1E0E4E3FFE10E94510EE5E4F1E00E94A7
:1004E000C60CE1E4F1E00E94C10C0E94360DFF272A
:1004F000EDE0A5E4B1E00E94630EE0E3FFE10E94BD
:10050000270EE5E4F1E00E94C10C0E94630FFF2773
:10051000EDE0A5E4B1E00E94630EE8E3FFE10E9494
:10052000270EE5E4F1E00E94C10C0E948C0DFF272C
:10053000EDE0A5E4B1E00E94630EE5E4F1E00E9485
:10054000C10CE9E4F1E00E94C60C0E94300E18F0E4
:1005500011F00C94AD020C94B302E5E4F1E0A9E4CF
:10056000B1E00E94630EECE3FFE10E94270EE5E498
:10057000F1E00E94C10C0E94360DFF27EDE0A1E2E0
:10058000B1E00E94630EE1E2F1E00E94C60CE0E2FD
:10059000FFE10E941E0E0E94360DFF27EDE0A1E252
:1005A000B1E00E94630EE8E3FFE10E94270EE1E262
:1005B000F1E00E94C10C0E948C0DFF27EDE0A1E24A
:1005C000B1E00E94630EE9E7F1E00E94C60CE1E2AF
:1005D000F1E00E94C10C0E948C0DFF27EDE0A1E22A
:1005E000B1E00E94630EA7E1B1E00D911C910130D2
:1005F00050E0150711F00C940D03E0E2FFE10E94BA
:10060000270EE1E2F1E00E94C10C0E948C0DFF2751
:10061000EDE0A1E2B1E00E94630EA9E1B1E00D912D
:100620001C91013050E0150711F00C942703E0E411
:10063000FFE10E94270EE1E2F1E00E94C10C0E945E
:100640008C0DFF27EDE0A1E2B1E00E94630EE4E42F
:10065000FFE10E94270EE1E2F1E00E94C10C0E943E
:10066000BD0DFF27EDE0A1E2B1E00E94630EE4E4DE
:10067000FFE10E94270EE1E2F1E00E94C10C0E941E
:10068000BD0DFF27EDE0A1E2B1E00E94630EA5E100
:10069000B1E00D911C91013050E0150711F00C9460
:1006A000590382E090E0A5E1B1E08D939C930C9416
:1006B0005F0381E090E0A5E1B1E08D939C93E8E4D5
:1006C000FFE10E94270EE1E2F1E00E94C10C0E94CE
:1006D000360DFF27EDE0A5E2B1E00E94630EAFE525
:1006E000B1E00D911C9140E550E0041B150BABE30C
:1006F000B1E00D931C93ABE3B1E00D911C9142E08E
:1007000050E00E94480CABE3B1E00D931C93ABE3C7
:10071000B1E00D911C91043650E015071CF011F06A
:100720000C9494030C949A0384E690E0ABE3B1E05C
:100730008D939C93AFE5B1E00D911C91043650E090
:1007400015070CF402C00C94150481E090E0ADE2B2
:10075000B1E08D939C938BE490E0ABE3B1E08D939B
:100760009C93ABE5B1E00D911C91013D51E0150763
:100770000CF402C00C94CC03ECE4FFE10E94270EC1
:10078000E9E7F1E00E94C10C0E94CC0DFF27EDE0EB
:10079000A9E7B1E00E94630EABE5B1E00D911C91B9
:1007A000093D51E015071CF011F00C94D9030C948D
:1007B000FC03ECE4FFE10E94270EE9E7F1E00E9470
:1007C000C10C0E94BD0DFF27EDE0A9E7B1E00E943A
:1007D000630EE9E7F1E00E94C10CE0E5FFE10E9451
:1007E000270E0E94300E10F00C94FC03A9E7B1E034
:1007F000E0E5FFE10E94510EADE5B1E00D911C91E5
:10080000093650E015070CF402C00C941304A9E754
:10081000B1E0E0E2FFE10E94510E80E090E0A9E14A
:10082000B1E08D939C930C94640480E090E0ADE281
:10083000B1E08D939C93EBE5F1E0D190E0808FEFF8
:10084000E7FE8827F82E082F0E94E50C0E941B0D5A
:10085000E4E5FFE10E941E0E0E94BD0DFF27EDE0C2
:10086000ADE4B1E00E94630EE5E2F1E00E94C60C47
:10087000EDE4F1E00E94C10C0E948C0DFF27EDE039
:10088000ADE4B1E00E94630EE8E5FFE10E94270EAF
:10089000EDE4F1E00E94C10C0E94360DFF27EDE06F
:1008A000ADE4B1E00E94630EEDE4F1E00E94C60CFD
:1008B000E5E2F1E00E94C10C0E94CC0DFF27EDE0C3
:1008C000A5E2B1E00E94630E8BE490E0ABE3B1E0FF
:1008D0008D939C93E5E2F1E00E94830CA9E2B1E0E4
:1008E000EDE0FF270E94630EE9E2F1E00E94C10CF7
:1008F0000E94E50C0E941B0DE5E2F1E00E94C10C94
:100900000E94BD0DFF27EDE0A1E5B1E00E94630E5E
:10091000E4E2FFE10E94270EE1E5F1E00E94C10C54
:100920000E948C0DFF27EDE0A1E5B1E00E94630E6F
:1009300084E690E08A939A930E94850B2296A5E51F
:10094000B1E00D931C93E5E5F1E0D190E0808FEFED
:10095000E7FE8827F82E082F0E94E50CA7E5B1E0F6
:100960000E94160DE1E5F1E00E94C10CE7E5F1E01F
:100970000E94C60C0E94300E18F011F00C94C204B4
:100980000C94D404A9E2B1E00D911D912D913C91FC
:1009900041E050E060E070E00E94590EA9E2B1E051
:1009A0000D931D932D933D934AEF50E060E070E06E
:1009B000A9E2B1E00D911D912D913C910E945E0E36
:1009C0001CF011F00C94E6040C94F0040AEF10E013
:1009D00020E030E0A9E2B1E00D931D932D933C930C
:1009E00045E050E060E070E0A9E2B1E00D911D91BA
:1009F0002D913C910E945E0E0CF402C00C940A05ED
:100A000005E010E020E030E0A9E2B1E00D931D9395
:100A10002D933C93ABE3B1E00D911D9117FB1EF4B8
:100A20002FEF3FEF02C022273327A9E2B1E04D911B
:100A30005D916D917C910E94520CADE3B1E00D93FC
:100A40001D932D933D93ADE3B1E00D911D912D913B
:100A50003C9144E650E060E070E00E94DC0BADE3C6
:100A6000B1E04D935D936D937D9381E090E0ABE1B8
:100A7000B1E08D939C93A9E2B1E08D919C91ADE1A1
:100A8000B1E08D939C9301E010E020E030E0AFE214
:100A9000B1E00D931D932D933C93E8E4FFE10E9498
:100AA000270EE1E2F1E00E94C10C0E94360DFF2703
:100AB000EDE00E94830CA3E3B1E0EDE0FF270E948C
:100AC000630E80E090E0AFE1B1E08D939C93AFE5E1
:100AD000B1E00D911C91083850E015071CF011F0A1
:100AE0000C9474050C94BC0581E090E0AFE1B1E09A
:100AF0008D939C93A9E2B1E00D911C9148E050E0E8
:100B00000E949F0BABE1B1E04D935C93A9E2B1E091
:100B10000D911C9148E050E00E949F0BADE1B1E0C7
:100B20004D935C93ADE1B1E00D911C9147E050E035
:100B30000E94480CADE1B1E00D931C9301E010E080
:100B400020E030E0AFE2B1E00D931D932D933C9394
:100B5000E8E4FFE10E94270EE1E2F1E00E94C10C0F
:100B60000E94360DFF27EDE00E94830CA3E3B1E065
:100B7000EDE0FF270E94630E80E090E0A1E1B1E08C
:100B80008D939C9380E090E0A3E1B1E08D939C93E2
:100B9000E5E4F1E00E94C10CECE5FFE10E94270EC4
:100BA0000E94300E10F00C94DB0581E090E0A1E192
:100BB000B1E08D939C93E5E4F1E00E94C10CEFE677
:100BC000F1E00E94C60C0E94300E18F011F00C9457
:100BD000EB050C94F10581E090E0A3E1B1E08D9389
:100BE0009C93AFE5B1E00D911C91023950E01507DF
:100BF00080E014F009F081E08F93A5E1B1E00D9160
:100C00001C91023050E0150781E009F080E09F91CF
:100C10008923882311F40C94130681E090E0A1E16C
:100C2000B1E08D939C937894A3E1B1E00D911C9178
:100C3000013050E0150711F00C94240680E090E09C
:100C4000A1E1B1E08D939C9300E010E020E030E062
:100C5000A7E3B1E00D931D932D933C93A1E1B1E087
:100C60000D911C91013050E0150711F00C94800794
:100C70000E94050A00E010E020E030E0A7E3B1E0C8
:100C80000D931D932D933C9301E010E020E030E0A4
:100C9000A1E0B1E00D931D932D933C93A9E2B1E047
:100CA0004D915D916D917C91A1E0B1E00D911D910F
:100CB0002D913C910E945E0E1CF011F00C94E10607
:100CC000A7E3B1E00D911D912D913C9141E050E0E1
:100CD00060E070E00E94590EA7E3B1E00D931D9310
:100CE0002D933D93AFE2B1E04D915D916D917C917B
:100CF000A7E3B1E00D911D912D913C910E945E0EF4
:100D000011F00C94890681E090E0A5E7B1E08D93A5
:100D10009C93A3E3B1E04D915D916D917C91A7E32C
:100D2000B1E00D911D912D913C910E945E0E11F04C
:100D30000C94A00680E090E0A5E7B1E08D939C9331
:100D4000A5E7B1E00D911C91003050E0150711F0BE
:100D50000C94AB065B98A5E7B1E00D911C910130B6
:100D600050E0150711F00C94D706ADE2B1E00D91FB
:100D70001C91013050E0150781E009F080E08F936D
:100D8000AFE1B1E00D911C91013050E0150781E019
:100D900009F080E09F91892B882311F40C94D606EA
:100DA0008BB198E089278BB90C94D7065B9A81E0C8
:100DB00090E00E94390CA1E0B1E00E94760B0C9407
:100DC0004E0601E010E020E030E0A1E0B1E00D933C
:100DD0001D932D933C93A9E2B1E04D915D916D91EE
:100DE0007C91A1E0B1E00D911D912D913C910E946B
:100DF0005E0E1CF011F00C947E07A7E3B1E00D919C
:100E00001D912D913C9141E050E060E070E00E9426
:100E1000590EA7E3B1E00D931D932D933D93AFE2DF
:100E2000B1E04D915D916D917C91A7E3B1E00D91A1
:100E30001D912D913C910E945E0E11F00C9426079D
:100E400081E090E0A5E7B1E08D939C93A3E3B1E04E
:100E50004D915D916D917C91A7E3B1E00D911D9154
:100E60002D913C910E945E0E11F00C943D0780E0A4
:100E700090E0A5E7B1E08D939C93A5E7B1E00D91DB
:100E80001C91003050E0150711F00C9448075B9856
:100E9000A5E7B1E00D911C91013050E0150711F06C
:100EA0000C947407ADE2B1E00D911C91013050E05B
:100EB000150781E009F080E08F93AFE1B1E00D917B
:100EC0001C91013050E0150781E009F080E09F910E
:100ED000892B882311F40C9473078BB198E0892730
:100EE0008BB90C9474075B9A81E090E00E94390CF6
:100EF000A1E0B1E00E94760B0C94EB060C94000A82
:100F00000E94050A00E010E020E030E0A7E3B1E035
:100F10000D931D932D933C9301E010E020E030E011
:100F2000A1E0B1E00D931D932D933C93A9E2B1E0B4
:100F30004D915D916D917C91A1E0B1E00D911D917C
:100F40002D913C910E945E0E1CF011F00C94C5088E
:100F5000A7E3B1E00D911D912D913C9141E050E04E
:100F600060E070E00E94590EA7E3B1E00D931D937D
:100F70002D933D93ABE1B1E04D915D9157FB1EF494
:100F80006FEF7FEF02C066277727A1E0B1E00D91F8
:100F90001D912D913C910E945E0E11F00C94000861
:100FA000A5E1B1E00D911C91013050E0150711F061
:100FB0000C94DC070E94080AA5E1B1E00D911C9198
:100FC000023050E0150711F00C94E8070E940B0A5C
:100FD000A7E1B1E00D911C91013050E0150711F02F
:100FE0000C94F4070E94080AA9E1B1E00D911C914C
:100FF000013050E0150711F00C9400080E940B0A14
:10100000ADE1B1E04D915D9157FB1EF46FEF7FEFC5
:1010100002C066277727A1E0B1E00D911D912D91C7
:101020003C910E945E0E11F00C9418080E94050A73
:10103000ADE3B1E04D915D916D917C91A1E0B1E0A6
:101040000D911D912D913C910E945E0E1CF011F0AE
:101050000C942C080C942E080E94020AA3E1B1E023
:101060000D911C91013050E0150711F00C943A08D5
:101070000E94020AAFE2B1E04D915D916D917C91C9
:10108000A7E3B1E00D911D912D913C910E945E0E60
:1010900011F00C94510881E090E0A5E7B1E08D9348
:1010A0009C93A3E3B1E04D915D916D917C91A7E399
:1010B000B1E00D911D912D913C910E945E0E11F0B9
:1010C0000C94680880E090E0A5E7B1E08D939C93D4
:1010D000A5E7B1E00D911C91003050E0150711F02B
:1010E0000C9473085B98A5E7B1E00D911C91013059
:1010F00050E0150711F00C949F08ADE2B1E00D919E
:101100001C91013050E0150781E009F080E08F93D9
:10111000AFE1B1E00D911C91013050E0150781E085
:1011200009F080E09F91892B882311F40C949E088C
:101130008BB198E089278BB90C949F085B9AA7E73D
:10114000B1E00D911C91013050E0150781E009F0EC
:1011500080E08F93A5E1B1E00D911C91013050E04A
:10116000150781E009F080E09F918923882311F41D
:101170000C94BB085B9A81E090E00E94390CA1E0DE
:10118000B1E00E94760B0C9496070E94050A01E0DC
:1011900010E020E030E0A1E0B1E00D931D932D932D
:1011A0003C93A9E2B1E04D915D916D917C91A1E0FC
:1011B000B1E00D911D912D913C910E945E0E1CF0AD
:1011C00011F00C94000AA7E3B1E00D911D912D914F
:1011D0003C9141E050E060E070E00E94590EA7E3CE
:1011E000B1E00D931D932D933D93ABE1B1E04D9193
:1011F0005D9157FB1EF46FEF7FEF02C066277727E4
:10120000A1E0B1E00D911D912D913C910E945E0EE7
:1012100011F00C943B09A5E1B1E00D911C91013056
:1012200050E0150711F00C9417090E940B0AA5E174
:10123000B1E00D911C91023050E0150711F00C94B3
:1012400023090E94080AA7E1B1E00D911C91013029
:1012500050E0150711F00C942F090E940B0AA9E128
:10126000B1E00D911C91013050E0150711F00C9484
:101270003B090E94080AADE1B1E04D915D9157FB39
:101280001EF46FEF7FEF02C066277727A1E0B1E081
:101290000D911D912D913C910E945E0E11F00C94C8
:1012A00053090E94050AADE3B1E04D915D916D9146
:1012B0007C91A1E0B1E00D911D912D913C910E9496
:1012C0005E0E1CF011F00C9467090C9469090E94E1
:1012D000020AA3E1B1E00D911C91013050E0150725
:1012E00011F00C9475090E94020AAFE2B1E04D9131
:1012F0005D916D917C91A7E3B1E00D911D912D91D0
:101300003C910E945E0E11F00C948C0981E090E0FB
:10131000A5E7B1E08D939C93A3E3B1E04D915D917E
:101320006D917C91A7E3B1E00D911D912D913C91C0
:101330000E945E0E11F00C94A30980E090E0A5E7F6
:10134000B1E08D939C93A5E7B1E00D911C91003025
:1013500050E0150711F00C94AE095B98A5E7B1E0D9
:101360000D911C91013050E0150711F00C94DA0931
:10137000ADE2B1E00D911C91013050E0150781E024
:1013800009F080E08F93AFE1B1E00D911C91013045
:1013900050E0150781E009F080E09F91892B8823B8
:1013A00011F40C94D9098BB198E089278BB90C946E
:1013B000DA095B9AA7E7B1E00D911C91013050E08A
:1013C000150781E009F080E08F93A5E1B1E00D9170
:1013D0001C91013050E0150781E009F080E09F91F9
:1013E0008923882311F40C94F6095B9A81E090E03C
:1013F0000E94390CA1E0B1E00E94760B0C94D10858
:101400000C94F30059985A980895599A5A9A089545
:10141000599A5A98089559985A9A08950F921F9276
:101420002F923F924F925F927F92AF92BF920F9313
:101430001F932F933F934F935F936F937F938F935C
:101440009F93AF93BF93CF93DF93EF93FF938FB7A8
:101450008F930027BB27A6E28C9182FB0EF401E05C
:101460004427AEE6B1E08C9186FB0EF44395041759
:1014700011F40C94760A0027BB27A6E28C9182FB1C
:101480000EF401E040E0041711F00C94670AA6E4A2
:10149000B0E08C91ADE5B1E08D9388278C93ADE5FC
:1014A000B1E00D911C9149E150E00E94480CADE57E
:1014B000B1E00D931C93ADE5B1E00D911C914AE0B4
:1014C00050E00E949F0BADE5B1E04D935C93002787
:1014D000BB27A6E28C9182FB0EF401E041E00417E9
:1014E00011F00C94760A80E0809346000027BB2719
:1014F000A6E28C9181FB0EF401E04427AEE6B1E058
:101500008C9185FB0EF44395041711F40C94DD0ABD
:101510000027BB27A6E28C9181FB0EF401E040E09E
:10152000041711F00C94CB0AA4E8B0E00D911C91C3
:10153000043051E0150710F00C94CB0AA4E8B0E099
:101540000D911C91083750E0150718F011F00C941C
:10155000AB0A0C94CB0AA4E8B0E08D919C91ABE56A
:10156000B1E08D939C93ABE5B1E00D911C9149E105
:1015700050E00E94480CABE5B1E00D931C93ABE545
:10158000B1E00D911C914AE050E00E949F0BABE549
:10159000B1E04D935C930027BB27A6E28C9181FBC1
:1015A0000EF401E041E0041711F00C94DD0A80E034
:1015B00090E090938500809384000027BB27A6E2EB
:1015C0008C9180FB0EF401E04427AEE6B1E08C91F3
:1015D00087FB0EF44395041711F40C943F0B00277E
:1015E000BB27A6E28C9180FB0EF401E040E00417DB
:1015F00011F00C94300B0091B200003510F00C94F7
:10160000300B0091B200043118F011F00C940A0B69
:101610000C94300BA2EBB0E08C91AFE5B1E08D9370
:1016200088278C93AFE5B1E00D911C9149E150E022
:101630000E94480CAFE5B1E00D931C93AFE5B1E01B
:101640000D911C914AE050E00E949F0BAFE5B1E084
:101650004D935C9380E090E0A3E7B1E08D939C9381
:101660000027BB27A6E28C9180FB0EF401E041E04D
:10167000041711F00C943F0B80E08093B200BB275D
:10168000A6E28C9180FBAEE6B1E08C9187F98C9359
:10169000BB27A6E28C9181FBAEE6B1E08C9185F987
:1016A0008C93BB27A6E28C9182FBAEE6B1E08C91D5
:1016B00086F98C938F918FBFFF91EF91DF91CF913E
:1016C000BF91AF919F918F917F916F915F914F915A
:1016D0003F912F911F910F91BF90AF907F905F909E
:1016E0004F903F902F901F900F9018950D911D9146
:1016F0002D913C9181E0080F8827181F281F381F63
:101700003C932E931E930E9308954091890150911E
:101710008A010DE815E30E94990B49E156E3040F95
:10172000151F0093890110938A01498158810C94F7
:10173000BF0B09D00E94480C00FC10D0089503D0C4
:101740001ED001F8F9CF0024E89457FF02C009D059
:10175000689400F80BD010F80124089502D009D045
:101760000895509540954F5F5F4F0895E89417FF97
:101770000895009510950F5F1F4F68940895352FB9
:10178000242FE894452B11F468940895512F402F8D
:101790000027112780E1440F551F001F111F021B56
:1017A000130B416018F4020F131F4E7F8A9599F7AF
:1017B000089500FC05D0089530D005D001F8F9CF88
:1017C00037D03FD00895842F952FA62FB72FE894B8
:1017D000452B462B472B11F468940895402F512F29
:1017E000622F732F0027112722273327F0E2440F9F
:1017F000551F661F771F001F111F221F331F081B55
:10180000190B2A0B3B0B416028F4080F191F2A1FE4
:101810003B1F4E7FFA9559F708950024E89477FF0F
:1018200002C006D0689400F809D010F80124089589
:1018300012D04F5F5F4F6F4F7F4F0895E89437FF8F
:10184000089500951095209530950F5F1F4F2F4FED
:101850003F4F689408954095509560957095089510
:101860003197F1F70895689462F80895E89462F862
:101870000895EF93FF93EE27E82BE92B31F0E0ED8D
:10188000F7E03197F1F70197D1F7FF91EF910895C4
:101890000F92B801469F8001479F100D569F100D73
:1018A0000F9008950F921F922F92C801D901489F5F
:1018B00080014A9F90014B9F202C499F100D211DB4
:1018C000321D5A9F202C589F100D211D321D599FEB
:1018D000200D311D689F200D311D699F300D789FAF
:1018E000300D2F901F900F90089580917A00806C9A
:1018F00080937A0080917A0086FDFCCF80917800F9
:101900009091790008953DD0992711278F2D880F48
:1019100080E8F82A802F881F08F41FEF41F08F57C6
:10192000082F07FD04C0003240F08FEF01C0882768
:10193000982FD82EE82EF82E09C08FE1801B082F93
:10194000F694E794D79497950A95D1F7112351F01F
:101950009095D094E094F09481E0980F8827D81E59
:10196000E81EF81E0F2DFE2CED2CD92E0895D094D4
:10197000E094F09491E0D90E9927E91EF91E109594
:101980000895D190E190F1900191089521913191C4
:10199000419151910895102F90E8FF0C001F0927E5
:1019A000990FF7941078652F90E8440F551F592729
:1019B000990F4795607800380895FF0C90E89027BC
:1019C000110F9795F794092F0895102FBD2CDE2C39
:1019D000EF2CF02E11234AF4B094D094E094F094BC
:1019E0009FEFB91AD90AE90AF90A0EE1FF2039F482
:1019F000FE2CED2CDB2CBB240850C2F76BC032F060
:101A00000A95BB0CDD1CEE1CFF1CF9CF01D0D5CF15
:101A1000B7FE089590E8B91611F4D0FE08959FEF2F
:101A2000D91AE90AF90A09F403950895DD92ED92AD
:101A3000FD920C930895502F2D2D3E2D4F2D612F8B
:101A400008952DEC3CEC4CEC5DE366270FC099DF6C
:101A5000F2DFDD24EE2490E8F92E0FE307C096DFD5
:101A600005C02227332740E251E46627552351F170
:101A7000002381F190DF71F1162700585058089427
:101A8000050B18F407FD03C025C007FD23C04695CC
:101A900037952795F694E794D79422D0FF202AF023
:101AA000DD0CEE1CFF1C015073F09D2D969548F047
:101AB000DD203AF4EE202AF491E0D90E9927E91EB0
:101AC000F91E7BCF07C09FE7092FF92A9FEFD92E78
:101AD000E92E0895DD24EE24FF2400271127089520
:101AE0009F929924AA24BB2488E1D216E306F40627
:101AF00028F0D21AE30AF40A089401C08894991CC9
:101B0000AA1CBB1CDD0CEE1CFF1C8A9571F7D92C9E
:101B1000EA2CFB2C9F9008953EDFE1F25038D1F281
:101B20001627005850580894051F12F418F4CBCF0C
:101B300008F0D0CF0AD0FF202AF0BB0CDD1CEE1C31
:101B4000FF1C3BCF0F5FFBF138CF9F929924AA2453
:101B5000BB24992788E1990CAA1CBB1CDD1CEE1C38
:101B6000FF1C30F4920EA31EB41ED91EE91EF91EEE
:101B70008A9589F79F90089509DF0DDF503829F085
:101B800090E869270CC00AF045D017CF5FE3222701
:101B90003327442701C0FADEFEDE5038B1F30038A7
:101BA00099F3902F951B8BF312F434D0FACF983120
:101BB00018F0222733274427983028F0232F342F7A
:101BC00044279850F9CF992329F0469537952795C2
:101BD0009A95D9F7912F962742F014D0B0F6F79442
:101BE000E794D7940F5F8BF66ECF10D051F008F4C6
:101BF000BEDEFF2052F2DD0CEE1CFF1C0150CBF7C5
:101C000062CF68CFD20EE31EF41E0895D21AE30A03
:101C1000F40A0895DF92EF92FF920F931F93D22E52
:101C2000E32EF42E052F162F6F915F914F913F9168
:101C30002F910895C895319600200895FBDFD02C90
:101C4000F9DFE02CF7DFF02CF5DF002D0895F2DF4F
:101C5000202DF0DF302DEEDF402DECDF502D0895EC
:101C600007FB00680EF40F7757FB50680EF45F77A0
:101C700007FD02C057FF05C0D216E306F4060507AC
:101C800008952D153E054F055007089500240D2891
:101C90000E280F28002A0020089591E005C092E048
:101CA00003C094E001C098E0C5DF0D929A95E1F77A
:101CB0000895040F151F261F371F089504171507D1
:101CC00026073707089594E081918D939A95E1F75F
:101CD0000895F999FECFE1BDF2BD3196089591E0E6
:101CE00001C092E07B3751F47FB7F894F2DF8D9119
:101CF00080BDFA9AF99A9A95C9F77FBF7727089518
:101D000091E001C092E0E5DFF89A80B58D939A9555
:101D1000D1F7089536DE3FDE0395AAF087E1DD0CAA
:101D2000EE1CFF1C8A9589F00A95CAF7FF205AF02D
:101D300000240D280E280F28002039F00A95DD0C0C
:101D4000EE1CFF1CDAF70A9538CEC4CEC3CE19DEDE
:101D50000023E2F39BDF19F4B6DE0068089585E006
:101D6000C5D0FF0C001F04830FE70695F794D1D070
:101D7000506812DF5BDE139721E438E743ED5BEB3D
:101D8000CBDE27E831ED43E15DE399D02EE03CE383
:101D900043EC5DEB94D022E83DEA4BE25EE38FD06A
:101DA0002CEE32E846E75EEB8AD020E931EE49EAD4
:101DB0005EE385D020E83FEE4FEF5EEB80D024EC71
:101DC0003FEF4FE75FE37BD031DE139784818F577E
:101DD00099F02AF4D82E0FEFE02EF02E04C0D82E62
:101DE000EE24FF240027F1DD28E132E741E35FE341
:101DF00093DECCDD3497D0DE86C065DE84C0C1DDE5
:101E000086E074D005830F772BE33AEA48EB5FE373
:101E100083DE0CDE139741D028F4858188236AF78E
:101E200059DE71C08F778483ACDD349774DFFEDDBB
:101E3000139723E632E446E357EB6EDE29ED37EAEB
:101E40004AE159E33CD026E538E14EEA5AEB37D077
:101E500026E53CE84DE15CE332D02DEC37E543E686
:101E60005DEB2DD02DEE3DEF45E75EE328D028E178
:101E700032E741E35FEB23D04CD08EDEDCDDDD24A6
:101E8000EE24FF2404818FE7080F0695F794EEDD1A
:101E90008581881F08F4DCDD36C07DDD8827039549
:101EA00012F48894089507301AF0812F0894089549
:101EB000FF1C881F0A95E2F7812B889408956CDE39
:101EC00065DD349729CEE2DE81F00F930F772F93F3
:101ED0003F934F935F933CDF5F914F913F912F91E1
:101EE0001BDE8EDF8F918078082B08950FB6F89453
:101EF0004A925A92E42DF52DA42DB52D480E88272F
:101F0000581E0FBE08950FB6F894599049900FBE11
:101F100008955FE340E833272227089500409C4658
:101F20000000803F0000C842000000000040FC4369
:101F30000000003F0AD74C4200007A440000704283
:101F4000A4707D3F295C8F3D000000406F12033B71
:101F50000AD7233D0080EA430000FA440000C8434A
:00000001FF
