:100000000C94340018950000189500000C94580AC0
:10001000189500001895000018950000189500002C
:10002000189500001895000018950000189500001C
:10003000189500001895000018950000189500000C
:1000400018950000189500001895000018950000FC
:1000500018950000189500001895000018950000EC
:1000600018950000189500008FEF8DBFC0EEE6ECEC
:100070004E2E84E08EBFD4E0F4E05F2EEEEFF3E08E
:10008000A0E0B1E088278D933197E9F781E880936C
:10009000C40080E08093C50088E18093C10066249D
:1000A0008FEF8AB98FEF84B987E080937A0080EC74
:1000B00080937C00789480916800816080936800D0
:1000C00089E180936B0084E085BD80E084BD80E0A1
:1000D0008093800083E08093810086E08093B1006C
:1000E00080E08093B0005E9A84E085BD83E08093D9
:1000F000810086E08093B10080916E008E7F8093B6
:100100006E0080916F008E7F80936F0080917000F1
:100110008E7F80937000AFE6B1E0E4E3FFE10E94E0
:100120005D0E81E080930001A9E7B1E0E8E3FFE123
:100130000E945D0EE4E0F0E0BB27A0E10E948E0E7D
:100140000B3252E0150711F00C94AD00A9E7B1E0B5
:10015000E0E0F0E094E00E948F0E80E090E0A3E702
:10016000B1E08D939C9370917A00706870937A00DF
:1001700000910001013011F00C94CC0029985D9899
:1001800088EC90E00E94450C29985D9A84E690E006
:100190000E94450C0C94B80000910001013011F050
:1001A0000C944C0AAFE5B1E00D911C910A3550E07A
:1001B000150780E00CF481E08F93AFE5B1E00D917D
:1001C0001C91083C50E0150780E014F009F081E034
:1001D0009F91892B8F93A1E6B1E00D911C91013085
:1001E00050E0150781E009F080E09F91892B88237A
:1001F00011F40C9404020E944C0AADE5B1E00D919B
:100200001C91093650E015070CF402C00C946001F3
:10021000A5E0B1E0E8E3FFE10E945D0EE5E0F1E07A
:100220000E94CD0CE9E4F1E00E94D20C0E943C0E49
:1002300018F011F00C944B015E9A84E690E00E9455
:10024000450C5E988CE291E00E94450CAFE5B1E070
:100250000D911C910A3550E015071CF011F00C941B
:1002600033010C943901E9E4F1E0A5E0B1E00E942A
:100270006F0EECE3FFE10E94330EE5E0F1E00E9437
:10028000CD0C0E94D80DFF27EDE0A5E0B1E00E9463
:100290006F0E0C940E01AFE5B1E00D911C910A3583
:1002A00050E015070CF402C00C945A0180ED97E061
:1002B0000E94450CAFE6B1E0E4E3FFE10E945D0E71
:1002C000ADE5B1E00D911C91073850E0150780E0D5
:1002D00014F009F081E08F93ABE5B1E00D911C9132
:1002E0000D3052E0150780E014F009F081E09F9195
:1002F0008923882311F40C94D101A5E0B1E0E8E34F
:10030000FFE10E945D0EE5E0F1E00E94CD0CE0E42B
:10031000FFE10E94330E0E943C0E18F011F00C9485
:10032000C0018BB190E489278BB989E190E00E94EC
:10033000450CAFE5B1E00D911C910A3550E0150771
:100340001CF011F00C94A6010C94AC01A5E0B1E0F6
:10035000E0E4FFE10E945D0EA5E0B1E0E8E3FFE12B
:100360000E94330EE5E0F1E00E94CD0C0E94D80D12
:10037000FF27EDE0A5E0B1E00E946F0E0C94830131
:10038000AFE5B1E00D911C910A3550E015070CF472
:1003900002C00C94D101AFE6B1E0E4E4FFE10E94B9
:1003A0005D0E5E9882E390E00E94450C5E9A82E3C7
:1003B00090E00E94450CADE7B1E0E0E0F0E094E0B1
:1003C0000E948F0EE9E7F1E00E94CD0CEDE7F1E02D
:1003D0000E94D20C0E943C0E11F40C940002E0E04A
:1003E000F0E0A9E7B1E094E07BE70E947E0EE4E054
:1003F000F0E00BE212E0A0E1BB277BE70E947D0E5C
:100400000E94DB0B0C94D200A9E4B1E0E8E4FFE128
:100410000E945D0EF894ADE5B1E00D911C91083796
:1004200050E0150780E014F009F081E08F93ADE50E
:10043000B1E00D911C910A3F50E0150780E00CF4EB
:1004400081E09F918923882311F40C942F0281E08D
:1004500090E0A7E1B1E08D939C930C94350280E08D
:1004600090E0A7E1B1E08D939C93ADE5B1E00D91F3
:100470001C91093650E0150780E00CF481E08F9361
:10048000ADE5B1E00D911C91023350E0150780E01D
:1004900014F009F081E09F918923882311F40C94D2
:1004A000590281E090E0A9E1B1E08D939C930C9416
:1004B0005F0280E090E0A9E1B1E08D939C9386EC2F
:1004C000806C80937C000E94810CA9E0B1E08D9348
:1004D0009C93A9E0B1E00D911C91013851E0150702
:1004E00010F00C947B0281E090E0A7E7B1E08D93DF
:1004F0009C930C94810280E090E0A7E7B1E08D939B
:100500009C9384EC806C80937C000E94810CABE017
:10051000B1E08D939C93EBE0F1E0D190E080FF247B
:1005200000270E94F10CADE0B1E00E94220DECE446
:10053000FFE10E94330EEDE0F1E00E94CD0C0E943D
:10054000C90DFF27EDE0ADE0B1E00E946F0EE0E5E0
:10055000FFE10E94330EEDE0F1E00E94CD0C0E941D
:10056000980DFF27EDE0A1E4B1E00E946F0EA5E435
:10057000B1E0E4E5FFE10E945D0EE5E4F1E00E94F8
:10058000D20CE1E4F1E00E94CD0C0E94420DFF2765
:10059000EDE0A5E4B1E00E946F0EE0E5FFE10E940E
:1005A000330EE5E4F1E00E94CD0C0E946F0FFF27AF
:1005B000EDE0A5E4B1E00E946F0EE8E5FFE10E94E6
:1005C000330EE5E4F1E00E94CD0C0E94980DFF2768
:1005D000EDE0A5E4B1E00E946F0EE5E4F1E00E94D9
:1005E000CD0CE9E4F1E00E94D20C0E943C0E18F020
:1005F00011F00C94FD020C940303E5E4F1E0A9E48E
:10060000B1E00E946F0EE0E4FFE10E94330EE5E4EA
:10061000F1E00E94CD0C0E94420DFF27EDE0A1E227
:10062000B1E00E946F0EE1E2F1E00E94D20CE8E33B
:10063000FFE10E942A0E0E94420DFF27EDE0A1E299
:10064000B1E00E946F0EE8E5FFE10E94330EE1E2A7
:10065000F1E00E94CD0C0E94980DFF27EDE0A1E291
:10066000B1E00E946F0EE9E7F1E00E94D20CE1E2F6
:10067000F1E00E94CD0C0E94980DFF27EDE0A1E271
:10068000B1E00E946F0EA7E1B1E00D911C91013025
:1006900050E0150711F00C945D03E8E3FFE10E94C0
:1006A000330EE1E2F1E00E94CD0C0E94980DFF278D
:1006B000EDE0A1E2B1E00E946F0EA9E1B1E00D9181
:1006C0001C91013050E0150711F00C947703ECE514
:1006D000FFE10E94330EE1E2F1E00E94CD0C0E94A6
:1006E000980DFF27EDE0A1E2B1E00E946F0EE0E679
:1006F000FFE10E94330EE1E2F1E00E94CD0C0E9486
:10070000C90DFF27EDE0A1E2B1E00E946F0EE0E627
:10071000FFE10E94330EE1E2F1E00E94CD0C0E9465
:10072000C90DFF27EDE0A1E2B1E00E946F0EA5E147
:10073000B1E00D911C91013050E0150711F00C94BF
:10074000A90382E090E0A5E1B1E08D939C930C9425
:10075000AF0381E090E0A5E1B1E08D939C93E4E6E6
:10076000FFE10E94330EE1E2F1E00E94CD0C0E9415
:10077000420DFF27EDE0A5E2B1E00E946F0EAFE56C
:10078000B1E00D911C9140E550E0041B150BABE36B
:10079000B1E00D931C93ABE3B1E00D911C9142E0ED
:1007A00050E00E94540CABE3B1E00D931C93ABE31B
:1007B000B1E00D911C91043650E015071CF011F0CA
:1007C0000C94E4030C94EA0384E690E0ABE3B1E01C
:1007D0008D939C93AFE5B1E00D911C91043650E0F0
:1007E00015070CF402C00C94650481E090E0ADE2C2
:1007F000B1E08D939C938BE490E0ABE3B1E08D93FB
:100800009C93ABE5B1E00D911C91013D51E01507C2
:100810000CF402C00C941C04E8E6FFE10E94330EC5
:10082000E9E7F1E00E94CD0C0E94D80DFF27EDE032
:10083000A9E7B1E00E946F0EABE5B1E00D911C910C
:10084000093D51E015071CF011F00C9429040C949B
:100850004C04E8E6FFE10E94330EE9E7F1E00E9474
:10086000CD0C0E94C90DFF27EDE0A9E7B1E00E9481
:100870006F0EE9E7F1E00E94CD0CECE6FFE10E948B
:10088000330E0E943C0E10F00C944C04A9E7B1E02A
:10089000ECE6FFE10E945D0EADE5B1E00D911C912B
:1008A000093650E015070CF402C00C946304A9E764
:1008B000B1E0E8E3FFE10E945D0E80E090E0A9E195
:1008C000B1E08D939C930C94B40480E090E0ADE291
:1008D000B1E08D939C93EBE5F1E0D190E0808FEF58
:1008E000E7FE8827F82E082F0E94F10C0E94270DA2
:1008F000E0E7FFE10E942A0E0E94C90DFF27EDE00C
:10090000ADE4B1E00E946F0EE5E2F1E00E94D20C8E
:10091000EDE4F1E00E94CD0C0E94980DFF27EDE080
:10092000ADE4B1E00E946F0EE4E7FFE10E94330EF8
:10093000EDE4F1E00E94CD0C0E94420DFF27EDE0B6
:10094000ADE4B1E00E946F0EEDE4F1E00E94D20C44
:10095000E5E2F1E00E94CD0C0E94D80DFF27EDE00A
:10096000A5E2B1E00E946F0EE5E2F1E00E948F0C7B
:10097000A9E2B1E0EDE0FF270E946F0EE9E2F1E0AD
:100980000E94CD0C0E94F10C0E94270DE5E2F1E0DF
:100990000E94CD0C0E94C90DFF27EDE0A1E5B1E05A
:1009A0000E946F0EECE3FFE10E94330EE1E5F1E0FF
:1009B0000E94CD0C0E94980DFF27EDE0A1E5B1E06B
:1009C0000E946F0E84E690E08A939A930E94870BB0
:1009D0002296A5E5B1E00D931C93E5E5F1E0D190F9
:1009E000E0808FEFE7FE8827F82E082F0E94F10C99
:1009F000A7E5B1E00E94220DE1E5F1E00E94CD0CF7
:100A0000E7E5F1E00E94D20C0E943C0E18F011F0D4
:100A10000C940C050C941E05A9E2B1E00D911D91FA
:100A20002D913C9141E050E060E070E00E94650E45
:100A3000A9E2B1E00D931D932D933D934AEF50E051
:100A400060E070E0A9E2B1E00D911D912D913C9123
:100A50000E946A0E1CF011F00C9430050C943A05BB
:100A60000AEF10E020E030E0A9E2B1E00D931D9321
:100A70002D933C9345E050E060E070E0A9E2B1E0E6
:100A80000D911D912D913C910E946A0E0CF402C0B3
:100A90000C94540505E010E020E030E0A9E2B1E05C
:100AA0000D931D932D933C93ABE3B1E00D911D91FC
:100AB00017FB1EF42FEF3FEF02C022273327A9E2D6
:100AC000B1E04D915D916D917C910E945E0CADE322
:100AD000B1E00D931D932D933D93ADE3B1E00D91E6
:100AE0001D912D913C9144E650E060E070E00E9441
:100AF000E80BADE3B1E04D935D936D937D9381E0A1
:100B000090E0ABE1B1E08D939C93A9E2B1E08D91CF
:100B10009C91ADE1B1E08D939C9301E010E020E069
:100B200030E0AFE2B1E00D931D932D933C93E4E6EA
:100B3000FFE10E94330EE1E2F1E00E94CD0C0E9441
:100B4000420DFF27EDE00E948F0CA3E3B1E0EDE042
:100B5000FF270E946F0E80E090E0AFE1B1E08D933F
:100B60009C93AFE5B1E00D911C91083850E015075A
:100B70001CF011F00C94BE050C94060681E090E088
:100B8000AFE1B1E08D939C93A9E2B1E00D911C918E
:100B900048E050E00E94A10BABE1B1E04D935C93C3
:100BA000A9E2B1E00D911C9148E050E00E94A10B38
:100BB000ADE1B1E04D935C93ADE1B1E00D911C91DD
:100BC00047E050E00E94540CADE1B1E00D931C935E
:100BD00001E010E020E030E0AFE2B1E00D931D93C2
:100BE0002D933C93E4E6FFE10E94330EE1E2F1E055
:100BF0000E94CD0C0E94420DFF27EDE00E948F0C59
:100C0000A3E3B1E0EDE0FF270E946F0E80E090E0EB
:100C1000A1E1B1E08D939C9380E090E0A3E1B1E08D
:100C20008D939C93E5E4F1E00E94CD0CE8E7FFE1B1
:100C30000E94330E0E943C0E10F00C94250681E0B9
:100C400090E0A1E1B1E08D939C93E5E4F1E00E9496
:100C5000CD0CEFE6F1E00E94D20C0E943C0E18F0A1
:100C600011F00C9435060C943B0681E090E0A3E172
:100C7000B1E08D939C93AFE5B1E00D911C910239E9
:100C800050E0150780E014F009F081E08F93A5E1B2
:100C9000B1E00D911C91023050E0150781E009F0A0
:100CA00080E09F918923882311F40C945D0681E0F4
:100CB00090E0A1E1B1E08D939C937894A3E1B1E041
:100CC0000D911C91013050E0150711F00C946E0647
:100CD00080E090E0A1E1B1E08D939C9300E010E012
:100CE00020E030E0A7E3B1E00D931D932D933C93FA
:100CF000A1E1B1E00D911C91013050E0150711F018
:100D00000C94CA070E944F0A00E010E020E030E097
:100D1000A7E3B1E00D931D932D933C9301E010E008
:100D200020E030E0A1E0B1E00D931D932D933C93C2
:100D3000A9E2B1E04D915D916D917C91A1E0B1E0AE
:100D40000D911D912D913C910E946A0E1CF011F0A5
:100D50000C942B07A7E3B1E00D911D912D913C91CF
:100D600041E050E060E070E00E94650EA7E3B1E072
:100D70000D931D932D933D93AFE2B1E04D915D91A5
:100D80006D917C91A7E3B1E00D911D912D913C9166
:100D90000E946A0E11F00C94D30681E090E0A5E762
:100DA000B1E08D939C93A3E3B1E04D915D916D9182
:100DB0007C91A7E3B1E00D911D912D913C910E9492
:100DC0006A0E11F00C94EA0680E090E0A5E7B1E02D
:100DD0008D939C93A5E7B1E00D911C91003050E0FC
:100DE000150711F00C94F5065E98A5E7B1E00D919A
:100DF0001C91013050E0150711F00C942107ADE271
:100E0000B1E00D911C91013050E0150781E009F02F
:100E100080E08F93AFE1B1E00D911C91013050E083
:100E2000150781E009F080E09F91892B882311F458
:100E30000C9420078BB190E489278BB90C9421077F
:100E40005E9A81E090E00E94450CA1E0B1E00E9432
:100E5000780B0C94980601E010E020E030E0A1E06F
:100E6000B1E00D931D932D933C93A9E2B1E04D9118
:100E70005D916D917C91A1E0B1E00D911D912D915D
:100E80003C910E946A0E1CF011F00C94C807A7E375
:100E9000B1E00D911D912D913C9141E050E060E059
:100EA00070E00E94650EA7E3B1E00D931D932D93B2
:100EB0003D93AFE2B1E04D915D916D917C91A7E3DF
:100EC000B1E00D911D912D913C910E946A0E11F09F
:100ED0000C94700781E090E0A5E7B1E08D939C93BE
:100EE000A3E3B1E04D915D916D917C91A7E3B1E0F9
:100EF0000D911D912D913C910E946A0E11F00C9460
:100F0000870780E090E0A5E7B1E08D939C93A5E78B
:100F1000B1E00D911C91003050E0150711F00C94D8
:100F200092075E98A5E7B1E00D911C91013050E069
:100F3000150711F00C94BE07ADE2B1E00D911C91C4
:100F4000013050E0150781E009F080E08F93AFE1B8
:100F5000B1E00D911C91013050E0150781E009F0DE
:100F600080E09F91892B882311F40C94BD078BB1ED
:100F700090E489278BB90C94BE075E9A81E090E0DB
:100F80000E94450CA1E0B1E00E94780B0C9435075B
:100F90000C944A0A0E944F0A00E010E020E030E082
:100FA000A7E3B1E00D931D932D933C9301E010E076
:100FB00020E030E0A1E0B1E00D931D932D933C9330
:100FC000A9E2B1E04D915D916D917C91A1E0B1E01C
:100FD0000D911D912D913C910E946A0E1CF011F013
:100FE0000C940F09A7E3B1E00D911D912D913C9157
:100FF00041E050E060E070E00E94650EA7E3B1E0E0
:101000000D931D932D933D93ABE1B1E04D915D9117
:1010100057FB1EF46FEF7FEF02C066277727A1E032
:10102000B1E00D911D912D913C910E946A0E11F03D
:101030000C944A08A5E1B1E00D911C91013050E0FB
:10104000150711F00C9426080E94520AA5E1B1E0A0
:101050000D911C91023050E0150711F00C943208EC
:101060000E94550AA7E1B1E00D911C91013050E0BA
:10107000150711F00C943E080E94520AA9E1B1E054
:101080000D911C91013050E0150711F00C944A08A5
:101090000E94550AADE1B1E04D915D9157FB1EF400
:1010A0006FEF7FEF02C066277727A1E0B1E00D91D7
:1010B0001D912D913C910E946A0E11F00C946208D2
:1010C0000E944F0AADE3B1E04D915D916D917C912D
:1010D000A1E0B1E00D911D912D913C910E946A0E0D
:1010E0001CF011F00C9476080C9478080E944C0ABD
:1010F000A3E1B1E00D911C91013050E0150711F012
:101100000C9484080E944C0AAFE2B1E04D915D91CD
:101110006D917C91A7E3B1E00D911D912D913C91D2
:101120000E946A0E11F00C949B0881E090E0A5E704
:10113000B1E08D939C93A3E3B1E04D915D916D91EE
:101140007C91A7E3B1E00D911D912D913C910E94FE
:101150006A0E11F00C94B20880E090E0A5E7B1E0CF
:101160008D939C93A5E7B1E00D911C91003050E068
:10117000150711F00C94BD085E98A5E7B1E00D913C
:101180001C91013050E0150711F00C94E908ADE214
:10119000B1E00D911C91013050E0150781E009F09C
:1011A00080E08F93AFE1B1E00D911C91013050E0F0
:1011B000150781E009F080E09F91892B882311F4C5
:1011C0000C94E8088BB190E489278BB90C94E9085A
:1011D0005E9AA7E7B1E00D911C91013050E0150730
:1011E00081E009F080E08F93A5E1B1E00D911C91C1
:1011F000013050E0150781E009F080E09F918923DC
:10120000882311F40C9405095E9A81E090E00E9415
:10121000450CA1E0B1E00E94780B0C94E0070E941D
:101220004F0A01E010E020E030E0A1E0B1E00D93D2
:101230001D932D933C93A9E2B1E04D915D916D9189
:101240007C91A1E0B1E00D911D912D913C910E9406
:101250006A0E1CF011F00C944A0AA7E3B1E00D915C
:101260001D912D913C9141E050E060E070E00E94C2
:10127000650EA7E3B1E00D931D932D933D93ABE174
:10128000B1E04D915D9157FB1EF46FEF7FEF02C00F
:1012900066277727A1E0B1E00D911D912D913C913A
:1012A0000E946A0E11F00C948509A5E1B1E00D9140
:1012B0001C91013050E0150711F00C9461090E9457
:1012C000550AA5E1B1E00D911C91023050E01507DF
:1012D00011F00C946D090E94520AA7E1B1E00D9142
:1012E0001C91013050E0150711F00C9479090E940F
:1012F000550AA9E1B1E00D911C91013050E01507AC
:1013000011F00C9485090E94520AADE1B1E04D91B3
:101310005D9157FB1EF46FEF7FEF02C066277727C2
:10132000A1E0B1E00D911D912D913C910E946A0EBA
:1013300011F00C949D090E944F0AADE3B1E04D916C
:101340005D916D917C91A1E0B1E00D911D912D9188
:101350003C910E946A0E1CF011F00C94B1090C949F
:10136000B3090E944C0AA3E1B1E00D911C91013038
:1013700050E0150711F00C94BF090E944C0AAFE22F
:10138000B1E04D915D916D917C91A7E3B1E00D913C
:101390001D912D913C910E946A0E11F00C94D6097A
:1013A00081E090E0A5E7B1E08D939C93A3E3B1E0E9
:1013B0004D915D916D917C91A7E3B1E00D911D91EF
:1013C0002D913C910E946A0E11F00C94ED0980E081
:1013D00090E0A5E7B1E08D939C93A5E7B1E00D9176
:1013E0001C91003050E0150711F00C94F8095E983C
:1013F000A5E7B1E00D911C91013050E0150711F007
:101400000C94240AADE2B1E00D911C91013050E042
:10141000150781E009F080E08F93AFE1B1E00D9115
:101420001C91013050E0150781E009F080E09F91A8
:10143000892B882311F40C94230A8BB190E489271B
:101440008BB90C94240A5E9AA7E7B1E00D911C9128
:10145000013050E0150781E009F080E08F93A5E1AD
:10146000B1E00D911C91013050E0150781E009F0C9
:1014700080E09F918923882311F40C94400A5E9A9E
:1014800081E090E00E94450CA1E0B1E00E94780B61
:101490000C941B090C94CC005B985C9808955B9AA3
:1014A0005C9A08955B985C9A08955B9A5C9808959D
:1014B0000F921F922F923F924F925F927F92AF9224
:1014C000BF920F931F932F933F934F935F936F930D
:1014D0007F938F939F93AF93BF93CF93DF93EF93BC
:1014E000FF938FB78F930027BB27A3E28C9184FBD8
:1014F0000EF401E04427AEE6B1E08C9186FB0EF4D9
:101500004395041711F40C94A80A0027BB27A3E203
:101510008C9184FB0EF401E040E0041711F00C9470
:10152000990AA6E4B0E08C91ADE5B1E08D938827EF
:101530008C930027BB27A3E28C9184FB0EF401E07F
:1015400041E0041711F00C94A80A80E08093460053
:101550000027BB27A3E28C9183FB0EF401E0442714
:10156000AEE6B1E08C9185FB0EF44395041711F4BF
:101570000C94F70A0027BB27A3E28C9183FB0EF49F
:1015800001E040E0041711F00C94E50AA4E8B0E093
:101590000D911C910A3852E0150710F00C94E50AE1
:1015A000A4E8B0E00D911C910C3251E0150718F041
:1015B00011F00C94DD0A0C94E50AA4E8B0E08D91DA
:1015C0009C91ABE5B1E08D939C930027BB27A3E2F0
:1015D0008C9183FB0EF401E041E0041711F00C94B0
:1015E000F70A80E090E090938500809384000027C4
:1015F000BB27A3E28C9180FB0EF401E04427AEE60A
:10160000B1E08C9187FB0EF44395041711F40C9410
:10161000410B0027BB27A3E28C9180FB0EF401E075
:1016200040E0041711F00C94320B0091B200083C1A
:1016300010F00C94320B0091B200023318F011F04C
:101640000C94240B0C94320BA2EBB0E08C91AFE520
:10165000B1E08D9388278C9380E090E0A3E7B1E020
:101660008D939C930027BB27A3E28C9180FB0EF403
:1016700001E041E0041711F00C94410B80E08093ED
:10168000B200BB27A3E28C9180FBAEE6B1E08C9167
:1016900087F98C93BB27A3E28C9184FBAEE6B1E083
:1016A0008C9186F98C93BB27A3E28C9183FBAEE6E9
:1016B000B1E08C9185F98C938F918FBFFF91EF9161
:1016C000DF91CF91BF91AF919F918F917F916F915A
:1016D0005F914F913F912F911F910F91BF90AF90CC
:1016E0007F905F904F903F902F901F900F90189594
:1016F0000D911D912D913C9181E0080F8827181FB5
:10170000281F381F3C932E931E930E9308954091EB
:101710008101509182010DE815E30E949B0B49E184
:1017200056E3040F151F0093810110938201498134
:1017300058810C94C10B09D00E94540C00FC10D0AD
:10174000089503D01ED001F8F9CF0024E89457FF84
:1017500002C009D0689400F80BD010F80124089555
:1017600002D009D00895509540954F5F5F4F08957E
:10177000E89417FF0895009510950F5F1F4F689428
:101780000895352F242FE894452B11F4689408957B
:10179000512F402F0027112780E1440F551F001FB4
:1017A000111F021B130B416018F4020F131F4E7F11
:1017B0008A9599F708958DE001D08AE00090C000E5
:1017C00005FEFCCF8093C600089500FC05D0089567
:1017D00030D005D001F8F9CF37D03FD00895842F0D
:1017E000952FA62FB72FE894452B462B472B11F4A6
:1017F00068940895402F512F622F732F00271127CF
:1018000022273327F0E2440F551F661F771F001F62
:10181000111F221F331F081B190B2A0B3B0B4160A2
:1018200028F4080F191F2A1F3B1F4E7FFA9559F7FE
:1018300008950024E89477FF02C006D0689400F869
:1018400009D010F80124089512D04F5F5F4F6F4FF9
:101850007F4F0895E89437FF0895009510952095DF
:1018600030950F5F1F4F2F4F3F4F6894089540955D
:1018700050956095709508953197F1F708956894A3
:1018800062F80895E89462F80895EF93FF93EE27C5
:10189000E82BE92B31F0E8E8F3E13197F1F7019714
:1018A000D1F7FF91EF9108950F92B801469F800103
:1018B000479F100D569F100D0F9008950F921F9285
:1018C0002F92C801D901489F80014A9F90014B9FE8
:1018D000202C499F100D211D321D5A9F202C589FEE
:1018E000100D211D321D599F200D311D689F200DA7
:1018F000311D699F300D789F300D2F901F900F90F4
:10190000089580917A00806C80937A0080917A00AB
:1019100086FDFCCF809178009091790008953DD0AC
:10192000992711278F2D880F80E8F82A802F881F8C
:1019300008F41FEF41F08F57082F07FD04C0003255
:1019400040F08FEF01C08827982FD82EE82EF82E70
:1019500009C08FE1801B082FF694E794D7949795E0
:101960000A95D1F7112351F09095D094E094F0941A
:1019700081E0980F8827D81EE81EF81E0F2DFE2C38
:10198000ED2CD92E0895D094E094F09491E0D90EE6
:101990009927E91EF91E10950895D190E190F190D4
:1019A0000191089521913191419151910895102F04
:1019B00090E8FF0C001F0927990FF7941078652F06
:1019C00090E8440F551F5927990F479560780038C4
:1019D0000895FF0C90E89027110F9795F794092F21
:1019E0000895102FBD2CDE2CEF2CF02E11234AF47D
:1019F000B094D094E094F0949FEFB91AD90AE90A10
:101A0000F90A0EE1FF2039F4FE2CED2CDB2CBB246F
:101A10000850C2F76BC032F00A95BB0CDD1CEE1CFF
:101A2000FF1CF9CF01D0D5CFB7FE089590E8B916C5
:101A300011F4D0FE08959FEFD91AE90AF90A09F4C2
:101A400003950895DD92ED92FD920C930895502F29
:101A50002D2D3E2D4F2D612F08952DEC3CEC4CEC9F
:101A60005DE366270FC099DFF2DFDD24EE2490E806
:101A7000F92E0FE307C096DF05C02227332740E287
:101A800051E46627552351F1002381F190DF71F174
:101A90001627005850580894050B18F407FD03C08A
:101AA00025C007FD23C0469537952795F694E79402
:101AB000D79422D0FF202AF0DD0CEE1CFF1C015031
:101AC00073F09D2D969548F0DD203AF4EE202AF42F
:101AD00091E0D90E9927E91EF91E7BCF07C09FE739
:101AE000092FF92A9FEFD92EE92E0895DD24EE243F
:101AF000FF240027112708959F929924AA24BB242C
:101B000088E1D216E306F40628F0D21AE30AF40AB2
:101B1000089401C08894991CAA1CBB1CDD0CEE1C07
:101B2000FF1C8A9571F7D92CEA2CFB2C9F90089505
:101B30003EDFE1F25038D1F2162700585058089491
:101B4000051F12F418F4CBCF08F0D0CF0AD0FF2035
:101B50002AF0BB0CDD1CEE1CFF1C3BCF0F5FFBF122
:101B600038CF9F929924AA24BB24992788E1990C05
:101B7000AA1CBB1CDD1CEE1CFF1C30F4920EA31E25
:101B8000B41ED91EE91EF91E8A9589F79F90089503
:101B900009DF0DDF503829F090E869270CC00AF002
:101BA00045D017CF5FE322273327442701C0FADE51
:101BB000FEDE5038B1F3003899F3902F951B8BF36C
:101BC00012F434D0FACF983118F022273327442763
:101BD000983028F0232F342F44279850F9CF992399
:101BE00029F04695379527959A95D9F7912F9627FD
:101BF00042F014D0B0F6F794E794D7940F5F8BF6C9
:101C00006ECF10D051F008F4BEDEFF2052F2DD0C92
:101C1000EE1CFF1C0150CBF762CF68CFD20EE31E43
:101C2000F41E0895D21AE30AF40A0895DF92EF929F
:101C3000FF920F931F93D22EE32EF42E052F162F13
:101C40006F915F914F913F912F910895C895319673
:101C500000200895FBDFD02CF9DFE02CF7DFF02C1B
:101C6000F5DF002D0895F2DF202DF0DF302DEEDFBF
:101C7000402DECDF502D089507FB00680EF40F7720
:101C800057FB50680EF45F7707FD02C057FF05C091
:101C9000D216E306F406050708952D153E054F05F7
:101CA0005007089500240D280E280F28002A002030
:101CB000089591E005C092E003C094E001C098E06F
:101CC000C5DF0D929A95E1F70895040F151F261FA1
:101CD000371F08950417150726073707089594E05E
:101CE00081918D939A95E1F70895F999FECFE1BD21
:101CF000F2BD3196089591E001C092E07B3751F436
:101D00007FB7F894F2DF8D9180BDFA9AF99A9A958F
:101D1000C9F77FBF7727089591E001C092E0E5DF22
:101D2000F89A80B58D939A95D1F7089536DE3FDE07
:101D30000395AAF087E1DD0CEE1CFF1C8A9589F063
:101D40000A95CAF7FF205AF000240D280E280F2804
:101D5000002039F00A95DD0CEE1CFF1CDAF70A951D
:101D600038CEC4CEC3CE19DE0023E2F39BDF19F4D4
:101D7000B6DE0068089585E0C5D0FF0C001F04831F
:101D80000FE70695F794D1D0506812DF5BDE13970A
:101D900021E438E743ED5BEBCBDE27E831ED43E1AF
:101DA0005DE399D02EE03CE343EC5DEB94D022E878
:101DB0003DEA4BE25EE38FD02CEE32E846E75EEB85
:101DC0008AD020E931EE49EA5EE385D020E83FEE93
:101DD0004FEF5EEB80D024EC3FEF4FE75FE37BD02B
:101DE00031DE139784818F5799F02AF4D82E0FEFA4
:101DF000E02EF02E04C0D82EEE24FF240027F1DDC3
:101E000028E132E741E35FE393DECCDD3497D0DEB7
:101E100086C065DE84C0C1DD86E074D005830F779F
:101E20002BE33AEA48EB5FE383DE0CDE139741D005
:101E300028F4858188236AF759DE71C08F778483FF
:101E4000ACDD349774DFFEDD139723E632E446E31E
:101E500057EB6EDE29ED37EA4AE159E33CD026E53F
:101E600038E14EEA5AEB37D026E53CE84DE15CE339
:101E700032D02DEC37E543E65DEB2DD02DEE3DEF76
:101E800045E75EE328D028E132E741E35FEB23D06A
:101E90004CD08EDEDCDDDD24EE24FF2404818FE7D0
:101EA000080F0695F794EEDD8581881F08F4DCDDC8
:101EB00036C07DDD8827039512F488940895073095
:101EC0001AF0812F08940895FF1C881F0A95E2F7E5
:101ED000812B889408956CDE65DD349729CEE2DE8F
:101EE00081F00F930F772F933F934F935F933CDFD6
:101EF0005F914F913F912F911BDE8EDF8F91807804
:101F0000082B08950FB6F8944A925A92E42DF52DB5
:101F1000A42DB52D480E8827581E0FBE08950FB664
:101F2000F894599049900FBE08955FE340E8332735
:101F30002227089500409C460000803F0000C842D0
:101F40000000704200006144000000000040FC43BB
:101F50000000003FE862824200007A44A4707D3FA6
:101F6000295C8F3D000000406F12033B0AD7233DE0
:0C1F70000080EA430000FA4400002F4407
:00000001FF
