:100000000C94340018950000189500000C948E1084
:10001000189500001895000018950000189500002C
:10002000189500001895000018950000189500001C
:10003000189500001895000018950000189500000C
:1000400018950000189500001895000018950000FC
:1000500018950000189500001895000018950000EC
:1000600018950000189500008FEF8DBFC0EEE6ECEC
:100070004E2E84E08EBFD4E0F4E05F2EEEEFF3E08E
:10008000A0E0B1E088278D933197E9F781E880936C
:10009000C40080E08093C50088E18093C10066249D
:1000A0008FEF8AB980E084B9389887E080937A002E
:1000B00080E480937C0078948091680081608093D4
:1000C000680089E180936B0084E085BD80E084BD99
:1000D00080E08093800083E08093810086E08093BD
:1000E000B10080E08093B0005D9A84E085BD83E03C
:1000F0008093810086E08093B10080916E008E7FB6
:1001000080936E0080916F008E7F80936F0080914E
:1001100070008E7F8093700081E08093000180E00A
:1001200090E0A5E1B1E08D939C930E948210A6EA35
:10013000B1E0EAE8FBE20E94831402E310E020E071
:1001400030E0A5E4B1E00D931D932D933C9306E4BC
:1001500010E020E030E0AEE9B1E00D931D932D9367
:100160003C93AEEAB1E0EEE8FBE20E948314E0E1EA
:10017000F0E0BB27A0E10E94B9140B3252E0150752
:1001800011F00C94DF00A6EAB1E0E0E0F0E094E0CA
:100190000E94BA14E4E0F0E0A5E4B1E094E00E942B
:1001A000BA14ECE0F0E0AEE9B1E094E00E94BA14D9
:1001B000AEEAB1E0E8E0F0E094E00E94BA145F9AA1
:1001C00070917A00706870937A0001E010E020E08E
:1001D00030E0A1E0B1E00D931D932D933C9344E1F9
:1001E00050E060E070E0A1E0B1E00D911D912D9133
:1001F0003C910E9495141CF011F00C940D018BB1F0
:1002000090E289278BB984E190E00E946B12A1E013
:10021000B1E00E94A8110C94EF00009100010130A0
:1002200011F00C948210A5E9B1E00D911C910A35F2
:1002300050E0150780E00CF481E08F93A5E9B1E070
:100240000D911C91083C50E0150780E014F009F076
:1002500081E09F91892B8F93A7E9B1E00D911C91CB
:10026000013050E0150781E009F080E09F91892B73
:10027000882311F40C94AA030E948210A1E9B1E032
:100280000D911C91023E51E015071CF011F00C94E9
:100290004B010C944F0184E690E00E946B12A1E99F
:1002A000B1E00D911C91083D51E015070CF402C01E
:1002B0000C945E0184E690E00E946B12A3E9B1E029
:1002C0000D911C91093650E0150780E00CF481E097
:1002D0008F93A3E9B1E00D911C91003050E0150718
:1002E00080E014F009F081E09F9189238F93A5E1CC
:1002F000B1E00D911C91003050E0150781E009F04C
:1003000080E09F918923882311F40C94DE015D988D
:1003100084EF91E00E946B12A5E0B1E0EAE8FBE215
:100320000E948314E5E0F1E00E94F312EFE7F1E0B0
:100330000E94F8120E94621418F011F00C94CF0180
:100340005D9A84E690E00E946B125D988CE291E0E9
:100350000E946B12A5E9B1E00D911C910A3550E0A5
:1003600015071CF011F00C94B7010C94BD01EFE7D8
:10037000F1E0A5E0B1E00E949A14E2E9FBE20E94FC
:100380005914E5E0F1E00E94F3120E94FE13FF27EA
:10039000EDE0A5E0B1E00E949A140C949201A5E969
:1003A000B1E00D911C910A3550E015070CF402C024
:1003B0000C94DE0180ED97E00E946B12A3E9B1E09E
:1003C0000D911C910D3750E0150780E014F009F0F5
:1003D00081E08F93A1E9B1E00D911C91033052E0CF
:1003E000150780E014F009F081E09F9189238823AC
:1003F00011F40C94770288E795E00E946B12A3E950
:10040000B1E00D911C910D3750E0150780E014F01C
:1004100009F081E08F93A1E9B1E00D911C910330C7
:1004200052E0150780E014F009F081E09F918923E4
:10043000882311F40C947702A5E1B1E00D911C9191
:10044000003050E0150711F00C94440281E090E078
:10045000A5E1B1E08D939C9384E4806480937C005B
:100460000E94A712ABE0B1E08D939C93EBE0F1E02A
:10047000D190E080FF2400270E941713AEEAB1E07C
:100480000E9448130C94730280E090E0A5E1B1E073
:100490008D939C93E0E0F0E0A6EAB1E094E07BE786
:1004A0000E94A914E4E0F0E0A5E4B1E094E07BE769
:1004B0000E94A914ECE0F0E0AEE9B1E094E07BE743
:1004C0000E94A914E8E0F0E0AEEAB1E094E07BE736
:1004D0000E94A914E0E1F0E00BE212E0A0E1BB27EA
:1004E0007BE70E94A81484EF91E00E946B12A3E9BD
:1004F000B1E00D911C91093650E0150780E00CF435
:1005000081E08F93A1E9B1E00D911C91033052E09D
:10051000150780E014F009F081E09F9189238F9303
:10052000A5E1B1E00D911C91013050E0150781E08B
:1005300009F080E09F918923882311F40C946703CC
:1005400088E795E00E946B12A3E9B1E00D911C9140
:10055000093650E0150780E00CF481E08F93A1E9A3
:10056000B1E00D911C91033052E0150780E014F0CA
:1005700009F081E09F9189238F93A5E1B1E00D916E
:100580001C91013050E0150781E009F080E09F9157
:100590008923882311F40C94070386E480648093F4
:1005A0007C000E94A712AEE9B1E08D939D9388274D
:1005B0008D938C9301E010E020E030E0A1E0B1E009
:1005C0000D931D932D933C9346E450E060E070E062
:1005D000A1E0B1E00D911D912D913C910E949514E7
:1005E0001CF011F00C9402038BB190E289278BB9B7
:1005F00084E190E00E946B12A1E0B1E00E94A8119A
:100600000C94E4025D9888EE93E00E946B12A3E9DB
:10061000B1E00D911C91093650E0150780E00CF413
:1006200081E08F93A1E9B1E00D911C91033052E07C
:10063000150780E014F009F081E09F9189238F93E2
:10064000A5E1B1E00D911C91013050E0150781E06A
:1006500009F080E09F918923882311F40C946703AB
:1006600000E010E020E030E0AEE9B1E00D931D9332
:100670002D933C9301E010E020E030E0A1E0B1E0F8
:100680000D931D932D933C9346E450E060E070E0A1
:10069000A1E0B1E00D911D912D913C910E94951426
:1006A0001CF011F00C9462038BB190E289278BB996
:1006B00084E190E00E946B12A1E0B1E00E94A811D9
:1006C0000C9444035D9888EE93E00E946B125D9851
:1006D00082E390E00E946B12A5E1B1E00D911C91C4
:1006E000013050E0150711F00C94A30301E010E075
:1006F00020E030E0A1E0B1E00D931D932D933C93F9
:100700004AE050E060E070E0A1E0B1E00D911D91A1
:100710002D913C910E9495141CF011F00C949E03B5
:100720008EE190E00E946B128BB190E289278BB929
:10073000A1E0B1E00E94A8110C9480035D9886E9C5
:1007400090E00E946B125D9A82E390E00E946B122F
:100750000C941301AFE7B1E0E6E9FBE20E948314D9
:10076000F894A3E9B1E00D911C91083750E015070A
:1007700080E014F009F081E08F93A3E9B1E00D91DE
:100780001C910A3F50E0150780E00CF481E09F9136
:100790008923882311F40C94D50381E090E0A9E12A
:1007A000B1E08D939C930C94DB0380E090E0A9E191
:1007B000B1E08D939C93A3E9B1E00D911C910936B2
:1007C00050E0150780E00CF481E08F93A3E9B1E0DD
:1007D0000D911C91023350E0150780E014F009F0F0
:1007E00081E09F918923882311F40C94FF0381E019
:1007F00090E0ABE1B1E08D939C930C94050480E014
:1008000090E0ABE1B1E08D939C9380E090E0A1E2B9
:10081000B1E08D939C9380E090E0ACE9B1E08D93E2
:100820009C93AEE9B1E00D911D912D913C9148E46E
:1008300050E060E070E00E948412A2EAB1E00D9303
:100840001D932D933D93A2EAB1E00D911D912D9141
:100850003C9144E650E060E070E00E940E12A2EA93
:10086000B1E04D935D936D937D9386E480648093B6
:100870007C000E94A712A9E0B1E08D939C9384E4D0
:10088000806480937C000E94A712ABE0B1E08D935E
:100890009C93EBE0F1E0D190E080FF2400270E94E0
:1008A0001713ADE0B1E00E944813EEEAF1E00E94B8
:1008B000F812EDE0F1E00E94F3120E94EF13FF271F
:1008C000EDE0ADE0B1E00E949A14EAE9FBE20E949B
:1008D0005914EDE0F1E00E94F3120E94BE13FF27CD
:1008E000EDE0A7E7B1E00E949A14ABE7B1E0EEE9D2
:1008F000FBE20E948314EBE7F1E00E94F812E7E7C5
:10090000F1E00E94F3120E946813FF27EDE0ABE7CD
:10091000B1E00E949A14EAE9FBE20E945914EBE765
:10092000F1E00E94F3120E949A15FF27EDE0ABE779
:10093000B1E00E949A14E2EAFBE20E945914EBE74C
:10094000F1E00E94F3120E94BE13FF27EDE0ABE737
:10095000B1E00E949A14EBE7F1E00E94F312EFE796
:10096000F1E00E94F8120E94621418F011F00C9449
:10097000BB040C94C104EBE7F1E0AFE7B1E00E94E7
:100980009A14E6EAFBE20E945914EBE7F1E00E94B8
:10099000F3120E946813FF27EDE0A3E2B1E00E948A
:1009A0009A14E3E2F1E00E94F812EAE8FBE20E9406
:1009B00050140E946813FF27EDE0A3E2B1E00E940B
:1009C0009A14E2EAFBE20E945914E3E2F1E00E9489
:1009D000F3120E94BE13FF27EDE0A3E2B1E00E94F4
:1009E0009A14E6EAF1E00E94F812E3E2F1E00E94D4
:1009F000F3120E94BE13FF27EDE0A3E2B1E00E94D4
:100A00009A14A9E1B1E00D911C91013050E0150755
:100A100011F00C941B05EAE8FBE20E945914E3E292
:100A2000F1E00E94F3120E94BE13FF27EDE0A3E263
:100A3000B1E00E949A14ABE1B1E00D911C9101303C
:100A400050E0150711F00C943505EAEAFBE20E942C
:100A50005914E3E2F1E00E94F3120E94BE13FF2753
:100A6000EDE0A3E2B1E00E949A14EEEAFBE20E94FC
:100A70005914E3E2F1E00E94F3120E94EF13FF2702
:100A8000EDE0A3E2B1E00E949A14EEEAFBE20E94DC
:100A90005914E3E2F1E00E94F3120E94EF13FF27E2
:100AA000EDE0A3E2B1E00E949A14A7E1B1E00D915C
:100AB0001C91013050E0150711F00C94670582E09D
:100AC00090E0A7E1B1E08D939C930C946D0581E0DB
:100AD00090E0A7E1B1E08D939C93E2EBFBE20E94F2
:100AE0005914E3E2F1E00E94F3120E946813FF2719
:100AF000EDE0ABE2B1E00E949A14A5E9B1E00D91FE
:100B00001C914AE550E0041B150BADE4B1E00D93D8
:100B10001C93ADE4B1E00D911C9142E050E00E94C5
:100B20007A12ADE4B1E00D931C93ADE4B1E00D9108
:100B30001C91043650E015071CF011F00C94A2052E
:100B40000C94A80584E690E0ADE4B1E08D939C930D
:100B500080E090E0A3E3B1E08D939C93A5E1B1E048
:100B60000D911C91013050E0150711F00C94BE0559
:100B700082E390E0ADE4B1E08D939C93A5E1B1E018
:100B80000D911C91013050E0150781E009F080E0E3
:100B90008F93A5E9B1E00D911C91043650E0150743
:100BA00080E00CF481E09F918923882311F40C9458
:100BB000470681E090E0A3E3B1E08D939C9381E050
:100BC00090E0A1E2B1E08D939C93A1E9B1E00D9199
:100BD0001C91083D51E015070CF402C00C9400066E
:100BE000E6EBFBE20E945914E6EAF1E00E94F31200
:100BF0000E94FE13FF27EDE0A6EAB1E00E949A14DE
:100C0000A1E9B1E00D911C91023E51E015071CF0E5
:100C100011F00C940D060C943006E6EBFBE20E94FA
:100C20005914E6EAF1E00E94F3120E94EF13FF2745
:100C3000EDE0A6EAB1E00E949A14E6EAF1E00E9433
:100C4000F312EAEBFBE20E9459140E94621410F0C6
:100C50000C943006A6EAB1E0EAEBFBE20E948314B2
:100C6000A3E9B1E00D911C91093650E015070CF491
:100C700002C00C944706A6EAB1E0EAE8FBE20E9453
:100C8000831480E090E0ABE1B1E08D939C93A5E10B
:100C9000B1E00D911C91013050E0150781E009F0A1
:100CA00080E08F93A5E9B1E00D911C910C3850E0E4
:100CB000150780E014F009F081E09F9189238823D3
:100CC00011F40C94ED0681E090E0A3E3B1E08D9384
:100CD0009C9381E090E0A1E2B1E08D939C93A1E927
:100CE000B1E00D911C91083D51E015070CF402C0D4
:100CF0000C949206A5E4B1E00D911D912D913C91CB
:100D000041E050E060E070E00E948B14A5E4B1E0A7
:100D10000D931D932D933D9380E090E0A1E2B1E00F
:100D20008D939C93A1E9B1E00D911C91023E51E09D
:100D300015071CF011F00C949F060C94B706A5E45F
:100D4000B1E00D911D912D913C9141E050E060E0AA
:100D500070E00E949014A5E4B1E00D931D932D93D3
:100D60003D9380E090E0A1E2B1E08D939C9341E05F
:100D700050E060E070E0A5E4B1E00D911D912D918F
:100D80003C910E9495140CF402C00C94D10604E628
:100D900010E020E030E0A5E4B1E00D931D932D9329
:100DA0003C9344E650E060E070E0A5E4B1E00D91D2
:100DB0001D912D913C910E9495141CF011F00C9402
:100DC000E3060C94ED0601E010E020E030E0A5E43D
:100DD000B1E00D931D932D933C93A3E3B1E00D91EE
:100DE0001C91003050E0150711F00C944007E1E928
:100DF000F1E0D190E0808FEFE7FE8827F82E082FF2
:100E00000E9417130E944D13EEEBFBE20E94501458
:100E10000E94EF13FF27EDE0A3E8B1E00E949A14CF
:100E2000EBE2F1E00E94F812E3E8F1E00E94F31235
:100E30000E94BE13FF27EDE0A3E8B1E00E949A14E0
:100E4000E2ECFBE20E945914E3E8F1E00E94F312A5
:100E50000E946813FF27EDE0A3E8B1E00E949A1416
:100E6000E3E8F1E00E94F812EBE2F1E00E94F312F5
:100E70000E94FE13FF27EDE0ABE2B1E00E949A145E
:100E8000EBE2F1E00E94B512AFE2B1E0EDE0FF2746
:100E90000E949A14EFE2F1E00E94F3120E941713ED
:100EA0000E944D13EBE2F1E00E94F3120E94EF1357
:100EB000FF27EDE0A7E8B1E00E949A14E2E9FBE227
:100EC0000E945914E7E8F1E00E94F3120E94BE1359
:100ED000FF27EDE0A7E8B1E00E949A1484E690E0D5
:100EE0008A939A930E94B7112296ABE8B1E00D93D2
:100EF0001C93EBE8F1E0D190E0808FEFE7FE8827CC
:100F0000F82E082F0E941713ADE8B1E00E94481395
:100F1000E7E8F1E00E94F312EDE8F1E00E94F81238
:100F20000E94621418F011F00C9498070C94AA0710
:100F3000AFE2B1E00D911D912D913C9141E050E067
:100F400060E070E00E948B14AFE2B1E00D931D935E
:100F50002D933D934AEF50E060E070E0AFE2B1E0E6
:100F60000D911D912D913C910E9495141CF011F052
:100F70000C94BC070C94C6070AEF10E020E030E0A8
:100F8000AFE2B1E00D931D932D933C9345E050E00B
:100F900060E070E0AFE2B1E00D911D912D913C91C8
:100FA0000E9495140CF402C00C94E00705E010E0D8
:100FB00020E030E0AFE2B1E00D931D932D933C9320
:100FC000E5E4F1E00E94F3120E9417130E944D1312
:100FD000E3E2F1E00E94F3120E94BE13FF27EDE06E
:100FE0000E94B512ADE3B1E0EDE0FF270E949A1434
:100FF000ADE3B1E00D911D912D913C9144E650E09F
:1010000060E070E00E940E12ADE3B1E04D935D939D
:101010006D937D93E6ECFBE20E945914E3E2F1E06C
:101020000E94F3120E946813FF27EDE00E94B512A0
:10103000A1E4B1E0EDE0FF270E949A14A1E4B1E041
:101040000D911D912D913C91ADE3B1E04D915D91DC
:101050006D917C910E948B14A1E4B1E00D931D93DE
:101060002D933D93E3E2F1E00E94B512A7E2B1E0D7
:10107000EDE0FF270E949A1440E050E060E070E04D
:10108000AFE5B1E00D911D912D913C910E94951419
:1010900081E009F480E08F93A5E1B1E00D911C910E
:1010A000003050E0150781E009F080E09F9189232E
:1010B000882311F40C949709A7E2B1E00D911D91DA
:1010C0002D913C9147E050E060E070E00E94841276
:1010D000ABE5B1E00D931D932D933D93ABE5B1E0EE
:1010E0000D911D912D913C9144E150E060E070E044
:1010F0000E940E12ABE5B1E04D935D936D937D932D
:10110000ABE5B1E00D911D912D913C91AFE5B1E0C2
:101110004D915D916D917C910E948B14ABE5B1E096
:101120000D931D932D933D93A7E2B1E04D915D91F9
:101130006D917C91ABE5B1E00D911D912D913C91AC
:101140000E9495141CF011F00C94A8080C94BC0893
:10115000ABE5B1E00D911D912D913C91A7E2B1E07D
:101160004D915D916D917C910E949014ABE5B1E041
:101170000D931D932D933D93ABE5B1E00D911D9122
:101180002D913C91ADE3B1E04D915D916D917C91DC
:101190000E949014A3E6B1E00D931D932D933D930F
:1011A00040E050E060E070E0A3E6B1E00D911D91F9
:1011B0002D913C910E9495140CF402C00C94F208FD
:1011C000A3E6B1E00D911D912D913C914FEF5FEFA2
:1011D0006FEF7FEF0E948412A3E6B1E00D931D93A1
:1011E0002D933D9340E050E060E070E0ABE5B1E06E
:1011F0000D911D912D913C910E94951411F40C9428
:101200009709ADE3B1E04D915D916D917C91A3E6BD
:10121000B1E00D911D912D913C910E9495141CF00F
:1012200011F00C9415090C944D09AFE2B1E04D9109
:101230005D916D917C91A3E6B1E00D911D912D9191
:101240003C910E9495140CF402C00C943B09AFE24F
:10125000B1E00D911D912D913C9141E050E060E095
:1012600070E00E948B14AFE2B1E00D931D932D93BB
:101270003D930C944D09AFE2B1E00D911D912D917C
:101280003C9141E050E060E070E00E949014AFE2D9
:10129000B1E00D931D932D933D93ADE3B1E04D91DE
:1012A0005D916D917C91A3E6B1E00D911D912D9121
:1012B0003C910E9495140CF402C00C949709AFE283
:1012C000B1E04D915D916D917C91A3E6B1E00D91FE
:1012D0001D912D913C910E9495140CF402C00C9428
:1012E0008509AFE2B1E00D911D912D913C9141E056
:1012F00050E060E070E00E949014AFE2B1E00D9326
:101300001D932D933D930C949709AFE2B1E00D919D
:101310001D912D913C9141E050E060E070E00E9411
:101320008B14AFE2B1E00D931D932D933D9300E03C
:1013300010E020E030E0AFE5B1E00D931D932D9378
:101340003C93A7E2B1E04D915D916D917C91A1E458
:10135000B1E00D911D912D913C910E9495140CF0DE
:1013600002C00C94C709A1E4B1E00D911D912D912B
:101370003C91A7E2B1E04D915D916D917C910E940D
:101380009014A1E4B1E00D931D932D933D9341E0A2
:1013900050E060E070E0ADE3B1E00D911D912D9162
:1013A0003C910E9495140CF402C00C94E10901E0F8
:1013B00010E020E030E0ADE3B1E00D931D932D93FC
:1013C0003C9341E050E060E070E0A1E4B1E00D91B9
:1013D0001D912D913C910E9495140CF402C00C9427
:1013E000FB0901E010E020E030E0A1E4B1E00D9362
:1013F0001D932D933C93A7E2B1E00D911D912D918A
:101400003C9141E150E060E070E00E948412A5E36D
:10141000B1E00D931D932D933D93A5E3B1E00D91A4
:101420001D912D913C914CE350E060E070E00E94F2
:101430000E12A5E3B1E04D935D936D937D93A5E30B
:10144000B1E00D911D912D913C91A1E4B1E04D9140
:101450005D916D917C910E948B14A5E3B1E00D9399
:101460001D932D933D93A7E2B1E00D911D912D9118
:101470003C9146E050E060E070E00E948412A9E3F5
:10148000B1E00D931D932D933D93A9E3B1E00D9130
:101490001D912D913C914CE350E060E070E00E9482
:1014A0000E12A9E3B1E04D935D936D937D93A9E393
:1014B000B1E00D911D912D913C91A5E3B1E04D91CD
:1014C0005D916D917C910E948B14A9E3B1E00D9325
:1014D0001D932D933D93A7E2B1E04D915D916D91E8
:1014E0007C91A5E3B1E00D911D912D913C910E945D
:1014F00095140CF002C00C94910AA5E3B1E00D9193
:101500001D912D913C91A7E2B1E04D915D916D91BE
:101510007C910E949014A5E3B1E00D931D932D934F
:101520003D93A7E2B1E04D915D916D917C91A9E36E
:10153000B1E00D911D912D913C910E9495140CF0FC
:1015400002C00C94B70AA9E3B1E00D911D912D9151
:101550003C91A7E2B1E04D915D916D917C910E942B
:101560009014A9E3B1E00D931D932D933D93E7E70C
:10157000F1E00E94F312EAECFBE20E9459140E948F
:10158000621418F011F00C94C70A0C94CD0A8EE185
:1015900090E0ADE4B1E08D939C93ADE4B1E00D91AA
:1015A0001C91023350E015071CF011F00C94DA0A7C
:1015B0000C94660B81E090E0A1E2B1E08D939C93E6
:1015C000AFE2B1E00D911D912D913C9149E150E0C8
:1015D00060E070E00E948412A3E7B1E00D931D93D8
:1015E0002D933D93A3E7B1E00D911D912D913C9179
:1015F000ADE4B1E04D915D9157FB1EF46FEF7FEFCD
:1016000002C0662777270E940E12A3E7B1E04D9330
:101610005D936D937D93AFE2B1E00D911C9142E03B
:1016200050E00E94D111ADE1B1E04D935C93ADE18A
:10163000B1E00D911C91A3E7B1E04D915C91041BC9
:10164000150BADE1B1E00D931C93AFE2B1E00D914C
:101650001C9142E050E00E94D111AFE1B1E04D9306
:101660005C93AFE1B1E00D911C91A3E7B1E04D9126
:101670005C91040F151FAFE1B1E00D931C93ADE138
:10168000B1E00D911C91013050E015070CF402C03F
:101690000C94500B81E090E0ADE1B1E08D939C9310
:1016A00000E010E020E030E0A3E5B1E00D931D93F1
:1016B0002D933C93AFE2B1E00D911D912D913C91A2
:1016C000A7E5B1E00D931D932D933C93ADE4B1E0FC
:1016D0000D911C91023350E015071CF011F00C9491
:1016E000DC0B81E090E0ADE1B1E08D939C93AFE243
:1016F000B1E08D919C91AFE1B1E08D939C9302E3B9
:1017000010E020E030E0ADE4B1E04D915D9157FB99
:101710001EF46FEF7FEF02C0662777270E949014B8
:10172000AFE4B1E00D931D932D933D93AFE4B1E091
:101730000D911D912D913C91AFE2B1E04D915D91E4
:101740006D917C910E948412AFE4B1E00D931D93E2
:101750002D933D93AFE4B1E00D911D912D913C91FE
:1017600046E950E060E070E00E940E12AFE4B1E0A4
:101770004D935D936D937D93AFE4B1E00D911D9119
:101780002D913C91A3E5B1E00D931D932D933C93D6
:10179000AFE2B1E00D911D912D913C91AFE4B1E02C
:1017A0004D915D916D917C910E949014A7E5B1E0FF
:1017B0000D931D932D933D93ACE9B1E00D911C91D8
:1017C000013050E0150711F00C94FA0B00E010E026
:1017D00020E030E0A5E3B1E00D931D932D933C9301
:1017E00000E010E020E030E0A9E3B1E00D931D93AC
:1017F0002D933C9380E090E0A1E1B1E08D939C9328
:1018000080E090E0A3E1B1E08D939C93EBE7F1E001
:101810000E94F312EEECFBE20E9459140E94621443
:1018200010F00C94190C81E090E0A1E1B1E08D93EF
:101830009C93EBE7F1E00E94F312E2EDFBE20E94E1
:1018400059140E94621418F011F00C94290C0C9495
:101850002F0C81E090E0A3E1B1E08D939C9378940C
:10186000A1E1B1E00D911C91013050E0150711F09C
:101870000C945C0C81E090E0AFE1B1E08D939C931F
:1018800080E090E0ADE1B1E08D939C9300E010E04A
:1018900020E030E0A3E5B1E00D931D932D933C9340
:1018A000AFE2B1E00D911D912D913C91A7E5B1E022
:1018B0000D931D932D933C9300E010E020E030E069
:1018C000AFE6B1E00D931D932D933C9300E010E043
:1018D00020E030E0ABE6B1E00D931D932D933C93F7
:1018E00000E010E020E030E0A9E4B1E00D931D93AA
:1018F0002D933C9301E010E020E030E0A1E0B1E066
:101900000D931D932D933C93AFE2B1E04D915D910A
:101910006D917C91A1E0B1E00D911D912D913C91D3
:101920000E9495141CF011F00C947D0E0E948510FD
:10193000A9E4B1E00D911D912D913C9141E050E061
:1019400060E070E00E948B14A9E4B1E00D931D9358
:101950002D933D93ADE1B1E04D915D9157FB1EF4A8
:101960006FEF7FEF02C066277727A1E0B1E00D910E
:101970001D912D913C910E94951480E00CF081E026
:101980008F93AFE1B1E04D915D9157FB1EF46FEF86
:101990007FEF02C066277727A1E0B1E00D911D918E
:1019A0002D913C910E94951480E00CF481E09F9170
:1019B0008923882311F40C940D0DA7E1B1E00D915A
:1019C0001C91013050E0150711F00C94E90C0E94B5
:1019D0008810A7E1B1E00D911C91023050E015078D
:1019E00011F00C94F50C0E948B10A9E1B1E00D915F
:1019F0001C91013050E0150711F00C94010D0E946C
:101A00008810ABE1B1E00D911C91013050E0150759
:101A100011F00C940D0D0E948B10AFE1B1E04D91CF
:101A20005D9157FB1EF46FEF7FEF02C066277727AB
:101A3000A1E0B1E00D911D912D913C910E94951472
:101A40000CF002C00C94260D0E948510A3E5B1E0B5
:101A50004D915D916D917C91A1E0B1E00D911D9151
:101A60002D913C910E9495140CF402C00C943A0DF7
:101A70000E948210A7E5B1E04D915D916D917C913E
:101A8000A1E0B1E00D911D912D913C910E94951422
:101A90001CF011F00C944E0D0C94500D0E9482100D
:101AA000A3E1B1E00D911C91013050E0150711F058
:101AB0000C945C0D0E948210ADE3B1E04D915D91FC
:101AC0006D917C91A9E4B1E00D911D912D913C9116
:101AD0000E94951411F00C94730D81E090E0AAE936
:101AE000B1E08D939C93A1E4B1E04D915D916D9136
:101AF0007C91A9E4B1E00D911D912D913C910E9442
:101B0000951411F00C948A0D80E090E0AAE9B1E000
:101B10008D939C93AAE9B1E00D911C91003050E0A7
:101B2000150711F00C94950D5D98AAE9B1E00D919F
:101B30001C91013050E0150711F00C94B00DA1E29A
:101B4000B1E00D911C91013050E0150711F00C949B
:101B5000AF0D8BB190E289278BB90C94B00D5D9AD3
:101B6000A5E3B1E04D915D916D917C91A9E4B1E067
:101B70000D911D912D913C910E94951480E00CF0E7
:101B800081E08F93A9E3B1E04D915D916D917C91DE
:101B9000A9E4B1E00D911D912D913C910E94951405
:101BA00081E014F009F080E09F918923882311F4EB
:101BB0000C94DB0D5D9AA5E1B1E00D911C91003014
:101BC00050E0150711F00C94730E0027BB27A6E216
:101BD0008C9180FB0EF401E040E0041711F00C94AE
:101BE000690EABE6B1E00D911D912D913C9141E064
:101BF00050E060E070E00E948B14ABE6B1E00D9322
:101C00001D932D933D93AFE6B1E04D915D916D91A4
:101C10007C91ABE6B1E00D911D912D913C910E941C
:101C200095141CF011F00C94170E0C94670EABE693
:101C3000B1E00D911D912D913C91AFE6B1E00D9376
:101C40001D932D933C93AFE6B1E00D911D912D9125
:101C50003C9142E050E060E070E00E940E12AFE57F
:101C6000B1E04D935D936D937D93AFE5B1E00D9140
:101C70001D912D913C914FEF5FEF6FEF7FEF0E9431
:101C80008412AFE5B1E00D931D932D933D93AFE525
:101C9000B1E00D911D912D913C91A9E4B1E04D91E0
:101CA0005D916D917C910E948B14AFE5B1E00D9335
:101CB0001D932D933D93A9E4B1E00D911D912D91BC
:101CC0003C91AFE5B1E00D931D932D933C930C94A3
:101CD000730E00E010E020E030E0ABE6B1E00D93E1
:101CE0001D932D933C9381E090E00E946B12A1E044
:101CF000B1E00E94A8110C94840C01E010E020E0F7
:101D000030E0A1E0B1E00D931D932D933C93AFE241
:101D1000B1E04D915D916D917C91A1E0B1E00D91AB
:101D20001D912D913C910E9495141CF011F00C9482
:101D300080100E948510A9E4B1E00D911D912D91B4
:101D40003C9141E050E060E070E00E948B14A9E417
:101D5000B1E00D931D932D933D93ADE1B1E04D9115
:101D60005D9157FB1EF46FEF7FEF02C06627772768
:101D7000A1E0B1E00D911D912D913C910E9495142F
:101D800080E00CF081E08F93AFE1B1E04D915D9187
:101D900057FB1EF46FEF7FEF02C066277727A1E0A5
:101DA000B1E00D911D912D913C910E94951480E020
:101DB0000CF481E09F918923882311F40C94100F77
:101DC000A7E1B1E00D911C91013050E0150711F031
:101DD0000C94EC0E0E948B10A7E1B1E00D911C91C8
:101DE000023050E0150711F00C94F80E0E94881094
:101DF000A9E1B1E00D911C91013050E0150711F0FF
:101E00000C94040F0E948B10ABE1B1E00D911C917A
:101E1000013050E0150711F00C94100F0E9488104B
:101E2000AFE1B1E04D915D9157FB1EF46FEF7FEF95
:101E300002C066277727A1E0B1E00D911D912D9199
:101E40003C910E9495140CF002C00C94290F0E9442
:101E50008510A3E5B1E04D915D916D917C91A1E07C
:101E6000B1E00D911D912D913C910E9495140CF4BF
:101E700002C00C943D0F0E948210A7E5B1E04D9185
:101E80005D916D917C91A1E0B1E00D911D912D913D
:101E90003C910E9495141CF011F00C94510F0C947D
:101EA000530F0E948210A3E1B1E00D911C9101300B
:101EB00050E0150711F00C945F0F0E948210ADE303
:101EC000B1E04D915D916D917C91A9E4B1E00D91EE
:101ED0001D912D913C910E94951411F00C94760F58
:101EE00081E090E0AAE9B1E08D939C93A1E4B1E098
:101EF0004D915D916D917C91A9E4B1E00D911D91A1
:101F00002D913C910E94951411F00C948D0F80E05E
:101F100090E0AAE9B1E08D939C93AAE9B1E00D911C
:101F20001C91003050E0150711F00C94980F5D984B
:101F3000AAE9B1E00D911C91013050E0150711F0B4
:101F40000C94B30FA1E2B1E00D911C91013050E06F
:101F5000150711F00C94B20F8BB190E289278BB961
:101F60000C94B30F5D9AA5E3B1E04D915D916D9135
:101F70007C91A9E4B1E00D911D912D913C910E94BD
:101F8000951480E00CF081E08F93A9E3B1E04D91CE
:101F90005D916D917C91A9E4B1E00D911D912D9120
:101FA0003C910E94951481E014F009F080E09F912B
:101FB0008923882311F40C94DE0F5D9AA5E1B1E02A
:101FC0000D911C91003050E0150711F00C94761023
:101FD0000027BB27A6E28C9180FB0EF401E040E0D5
:101FE000041711F00C946C10ABE6B1E00D911D914B
:101FF0002D913C9141E050E060E070E00E948B1434
:10200000ABE6B1E00D931D932D933D93AFE6B1E0A8
:102010004D915D916D917C91ABE6B1E00D911D917B
:102020002D913C910E9495141CF011F00C941A1003
:102030000C946A10ABE6B1E00D911D912D913C918D
:10204000AFE6B1E00D931D932D933C93AFE6B1E065
:102050000D911D912D913C9142E050E060E070E0C7
:102060000E940E12AFE5B1E04D935D936D937D93A9
:10207000AFE5B1E00D911D912D913C914FEF5FEFD8
:102080006FEF7FEF0E948412AFE5B1E00D931D93D7
:102090002D933D93AFE5B1E00D911D912D913C91B4
:1020A000A9E4B1E04D915D916D917C910E948B14FA
:1020B000AFE5B1E00D931D932D933D93A9E4B1E0FD
:1020C0000D911D912D913C91AFE5B1E00D931D93C4
:1020D0002D933C930C94761000E010E020E030E06B
:1020E000ABE6B1E00D931D932D933C9381E090E01E
:1020F0000E946B12A1E0B1E00E94A8110C94870E1F
:102100000C940D015A985C9808955A9A5C9A089517
:102110005A9A5C9808955A985C9A08950F921F9263
:102120002F923F924F925F927F92AF92BF920F9306
:102130001F932F933F934F935F936F937F938F934F
:102140009F93AF93BF93CF93DF93EF93FF938FB79B
:102150008F930027BB27A3E28C9184FB0EF401E050
:102160004427A9E9B1E08C9186FB0EF4439504174E
:1021700011F40C94DE100027BB27A3E28C9184FBA2
:102180000EF401E040E0041711F00C94CF10A6E427
:10219000B0E08C91A3E9B1E08D9388278C93002760
:1021A000BB27A3E28C9184FB0EF401E041E004170D
:1021B00011F00C94DE1080E0809346000027BB27CE
:1021C000A3E28C9183FB0EF401E04427A9E9B1E07E
:1021D0008C9185FB0EF44395041711F40C942D118A
:1021E0000027BB27A3E28C9183FB0EF401E040E0C3
:1021F000041711F00C941B11A4E8B0E00D911C9190
:102200000A3852E0150710F00C941B11A4E8B0E056
:102210000D911C910C3251E0150718F011F00C943F
:1022200013110C941B11A4E8B0E08D919C91A1E9CD
:10223000B1E08D939C930027BB27A3E28C9183FB95
:102240000EF401E041E0041711F00C942D1180E030
:1022500090E090938500809384000027BB27A3E241
:102260008C9180FB0EF401E04427A9E9B1E08C9148
:1022700087FB0EF44395041711F40C947111002799
:10228000BB27A3E28C9180FB0EF401E040E0041731
:1022900011F00C9462110091B200083C10F00C9403
:1022A00062110091B200023318F011F00C945A112F
:1022B0000C946211A2EBB0E08C91A5E9B1E08D9392
:1022C00088278C930027BB27A3E28C9180FB0EF418
:1022D00001E041E0041711F00C94711180E080934B
:1022E000B200BB27A3E28C9180FBA9E9B1E08C91FD
:1022F00087F98C93BB27A3E28C9184FBA9E9B1E019
:102300008C9186F98C93BB27A3E28C9183FBA9E97E
:10231000B1E08C9185F98C938F918FBFFF91EF91F4
:10232000DF91CF91BF91AF919F918F917F916F91ED
:102330005F914F913F912F911F910F91BF90AF905F
:102340007F905F904F903F902F901F900F90189527
:102350000D911D912D913C9181E0080F8827181F48
:10236000281F381F3C932E931E930E93089540917F
:10237000B2015091B3010DE815E30E94CB1149E180
:1023800056E3040F151F0093B2011093B301498166
:1023900058810C94F11109D00E947A1200FC10D0DF
:1023A000089503D01ED001F8F9CF0024E89457FF18
:1023B00002C009D0689400F80BD010F801240895E9
:1023C00002D009D00895509540954F5F5F4F089512
:1023D000E89417FF0895009510950F5F1F4F6894BC
:1023E0000895352F242FE894452B11F4689408950F
:1023F000512F402F0027112780E1440F551F001F48
:10240000111F021B130B416018F4020F131F4E7FA4
:102410008A9599F7089500FC05D0089530D005D02D
:1024200001F8F9CF37D03FD00895842F952FA62FEC
:10243000B72FE894452B462B472B11F46894089549
:10244000402F512F622F732F002711272227332768
:10245000F0E2440F551F661F771F001F111F221F38
:10246000331F081B190B2A0B3B0B416028F4080F84
:10247000191F2A1F3B1F4E7FFA9559F70895002414
:10248000E89477FF02C006D0689400F809D010F8ED
:102490000124089512D04F5F5F4F6F4F7F4F089513
:1024A000E89437FF089500951095209530950F5FBB
:1024B0001F4F2F4F3F4F689408954095509560955A
:1024C000709508953197F1F70895689462F808952A
:1024D000E89462F80895EF93FF93EE27E82BE92B39
:1024E00031F0E8E8F3E13197F1F70197D1F7FF9187
:1024F000EF9108950F92B801469F8001479F100DFC
:10250000569F100D0F9008950F921F922F92C801A1
:10251000D901489F80014A9F90014B9F202C499FE1
:10252000100D211D321D5A9F202C589F100D211D6A
:10253000321D599F200D311D689F200D311D699F4F
:10254000300D789F300D2F901F900F90089580913F
:102550007A00806C80937A0080917A0086FDFCCFAF
:10256000809178009091790008953DD099271127A6
:102570008F2D880F80E8F82A802F881F08F41FEF1E
:1025800041F08F57082F07FD04C0003240F08FEF55
:1025900001C08827982FD82EE82EF82E09C08FE189
:1025A000801B082FF694E794D79497950A95D1F756
:1025B000112351F09095D094E094F09481E0980F1D
:1025C0008827D81EE81EF81E0F2DFE2CED2CD92EC4
:1025D0000895D094E094F09491E0D90E9927E91EE3
:1025E000F91E10950895D190E190F1900191089510
:1025F00021913191419151910895102F90E8FF0C54
:10260000001F0927990FF7941078652F90E8440F61
:10261000551F5927990F4795607800380895FF0C8A
:1026200090E89027110F9795F794092F0895102F90
:10263000BD2CDE2CEF2CF02E11234AF4B094D09454
:10264000E094F0949FEFB91AD90AE90AF90A0EE169
:10265000FF2039F4FE2CED2CDB2CBB240850C2F7F4
:102660006BC032F00A95BB0CDD1CEE1CFF1CF9CFD1
:1026700001D0D5CFB7FE089590E8B91611F4D0FE79
:1026800008959FEFD91AE90AF90A09F40395089504
:10269000DD92ED92FD920C930895502F2D2D3E2D3D
:1026A0004F2D612F08952DEC3CEC4CEC5DE366273B
:1026B0000FC099DFF2DFDD24EE2490E8F92E0FE35E
:1026C00007C096DF05C02227332740E251E4662782
:1026D000552351F1002381F190DF71F11627005845
:1026E00050580894050B18F407FD03C025C007FDDA
:1026F00023C0469537952795F694E794D79422D032
:10270000FF202AF0DD0CEE1CFF1C015073F09D2D04
:10271000969548F0DD203AF4EE202AF491E0D90EA7
:102720009927E91EF91E7BCF07C09FE7092FF92AD9
:102730009FEFD92EE92E0895DD24EE24FF240027F3
:10274000112708959F929924AA24BB2488E1D216C8
:10275000E306F40628F0D21AE30AF40A089401C04A
:102760008894991CAA1CBB1CDD0CEE1CFF1C8A95CE
:1027700071F7D92CEA2CFB2C9F9008953EDFE1F2F3
:102780005038D1F21627005850580894051F12F4FB
:1027900018F4CBCF08F0D0CF0AD0FF202AF0BB0C22
:1027A000DD1CEE1CFF1C3BCF0F5FFBF138CF9F926F
:1027B0009924AA24BB24992788E1990CAA1CBB1C44
:1027C000DD1CEE1CFF1C30F4920EA31EB41ED91E9D
:1027D000E91EF91E8A9589F79F90089509DF0DDF9C
:1027E000503829F090E869270CC00AF045D017CF7F
:1027F0005FE322273327442701C0FADEFEDE50388C
:10280000B1F3003899F3902F951B8BF312F434D069
:10281000FACF983118F0222733274427983028F030
:10282000232F342F44279850F9CF992329F0469528
:10283000379527959A95D9F7912F962742F014D07E
:10284000B0F6F794E794D7940F5F8BF66ECF10D065
:1028500051F008F4BEDEFF2052F2DD0CEE1CFF1C2E
:102860000150CBF762CF68CFD20EE31EF41E08955D
:10287000D21AE30AF40A0895DF92EF92FF920F93BF
:102880001F93D22EE32EF42E052F162F6F915F91FA
:102890004F913F912F910895C8953196002008954A
:1028A000FBDFD02CF9DFE02CF7DFF02CF5DF002D7B
:1028B0000895F2DF202DF0DF302DEEDF402DECDF2C
:1028C000502D089507FB00680EF40F7757FB5068F2
:1028D0000EF45F7707FD02C057FF05C0D216E3066E
:1028E000F406050708952D153E054F055007089578
:1028F00000240D280E280F28002A0020089591E0BA
:1029000005C092E003C094E001C098E0C5DF0D92DD
:102910009A95E1F70895040F151F261F371F089594
:10292000041B150B260B370B0895041715072607F4
:102930003707089594E081918D939A95E1F7089572
:10294000F999FECFE1BDF2BD3196089591E001C045
:1029500092E07B3751F47FB7F894F2DF8D9180BD20
:10296000FA9AF99A9A95C9F77FBF7727089591E067
:1029700001C092E0E5DFF89A80B58D939A95D1F782
:10298000089531DE3ADE0395AAF087E1DD0CEE1CF6
:10299000FF1C8A9589F00A95CAF7FF205AF0002497
:1029A0000D280E280F28002039F00A95DD0CEE1CAA
:1029B000FF1CDAF70A9533CEBFCEBECE14DE00235D
:1029C000E2F396DF19F4B1DE0068089585E0C5D022
:1029D000FF0C001F04830FE70695F794D1D05068D1
:1029E0000DDF56DE139721E438E743ED5BEBC6DEDF
:1029F00027E831ED43E15DE399D02EE03CE343EC81
:102A00005DEB94D022E83DEA4BE25EE38FD02CEE02
:102A100032E846E75EEB8AD020E931EE49EA5EE330
:102A200085D020E83FEE4FEF5EEB80D024EC3FEF07
:102A30004FE75FE37BD02CDE139784818F5799F0AB
:102A40002AF4D82E0FEFE02EF02E04C0D82EEE245C
:102A5000FF240027ECDD28E132E741E35FE38EDE6F
:102A6000C7DD3497CBDE86C060DE84C0BCDD86E087
:102A700074D005830F772BE33AEA48EB5FE37EDE01
:102A800007DE139741D028F4858188236AF754DE46
:102A900071C08F778483A7DD349774DFF9DD1397D6
:102AA00023E632E446E357EB69DE29ED37EA4AE1F3
:102AB00059E33CD026E538E14EEA5AEB37D026E51B
:102AC0003CE84DE15CE332D02DEC37E543E65DEBCD
:102AD0002DD02DEE3DEF45E75EE328D028E132E72B
:102AE00041E35FEB23D04CD089DED7DDDD24EE243B
:102AF000FF2404818FE7080F0695F794E9DD8581AF
:102B0000881F08F4D7DD36C078DD8827039512F4D6
:102B10008894089507301AF0812F08940895FF1CB7
:102B2000881F0A95E2F7812B8894089567DE60DD9F
:102B3000349724CEDDDE81F00F930F772F933F93F0
:102B40004F935F933CDF5F914F913F912F9116DE42
:102B50008EDF8F918078082B08950FB6F8944A92F3
:102B60005A92E42DF52DA42DB52D480E8827581E18
:102B70000FBE08950FB6F894599049900FBE08956E
:102B80005FE340E83327222708950000803F00805C
:102B9000F4430000C842000000000000003F42E093
:102BA000654200007A4400007042A4707D3F295CB9
:102BB0008F3D000000406F12033B0AD7233D008089
:102BC000EE4300C00F4500004040000048430000B5
:062BD000FA4300504348E7
:00000001FF
