:100000000C94340018950000189500000C94A20779
:10001000189500001895000018950000189500002C
:10002000189500001895000018950000189500001C
:10003000189500001895000018950000189500000C
:1000400018950000189500001895000018950000FC
:1000500018950000189500001895000018950000EC
:1000600018950000189500008FEF8DBFC0EEE6ECEC
:100070004E2E84E08EBFD4E0F4E05F2EEEEFF3E08E
:10008000A0E0B1E088278D933197E9F781E880936C
:10009000C40080E08093C50088E18093C10066249D
:1000A0008FEF8AB980E084B987E080937A0080E49A
:1000B00080937C00789480916800816080936800D0
:1000C00089E180936B0084E085BD80E084BD80E0A1
:1000D0008093800083E08093810086E08093B1006C
:1000E00080E08093B0005D9A84E085BD83E08093DA
:1000F000810086E08093B10080916E008E7F8093B6
:100100006E0080916F008E7F80936F0080917000F1
:100110008E7F80937000A2E8B1E0EEE1F6E10E94EC
:10012000C90A81E0809300010E949607A5E1B1E031
:100130000E94D10AA2E9B1E0E2E2F6E10E94C90A16
:10014000A5E4B1E0E6E2F6E10E94C90AAAE8B1E05E
:10015000EAE2F6E10E94C90AAAE9B1E0EEE2F6E1BC
:100160000E94C90AE0E1F0E0BB27A0E10E94070B72
:100170000B3252E0150711F00C94DA00A2E9B1E05D
:10018000E0E0F0E094E00E94080BE4E0F0E0A5E499
:10019000B1E094E00E94080BECE0F0E0AAE8B1E0E6
:1001A00094E00E94080BAAE9B1E0E8E0F0E094E0F6
:1001B0000E94080B5F9A70917A00706870937A00C1
:1001C000A1E0B1E0E2E3F6E10E94C90A44E150E0B7
:1001D00060E070E0A1E0B1E00D911D912D913C91A6
:1001E0000E94E30A1CF011F00C9404018BB190E220
:1001F00089278BB984E190E00E94F508A1E0B1E085
:100200000E9486080C94E60000910001013011F074
:100210000C949607ADE7B1E00D911C910A3550E0C2
:10022000150780E00CF481E08F93ADE7B1E00D910C
:100230001C91083C50E0150780E014F009F081E0C3
:100240009F91892B8F93AFE7B1E00D911C91013005
:1002500050E0150781E009F080E09F91892B882309
:1002600011F40C948D030E949607A9E7B1E00D915B
:100270001C91023E51E015071CF011F00C94420154
:100280000C94460184E690E00E94F508A9E7B1E0ED
:100290000D911C91083D51E015070CF402C00C941F
:1002A000550184E690E00E94F508ABE7B1E00D91BE
:1002B0001C91093650E0150780E00CF481E08F9323
:1002C000ABE7B1E00D911C91003050E0150780E0E4
:1002D00014F009F081E09F9189238F93A5E1B1E0AB
:1002E0000D911C91003050E0150781E009F080E08D
:1002F0009F918923882311F40C94D5015D9884EF94
:1003000091E00E94F508A5E0B1E0E2E2F6E10E948A
:10031000C90AE5E0F1E00E945009E7E6F1E00E9439
:1003200055090E94AF0A18F011F00C94C6015D9AAD
:1003300084E690E00E94F5085D988CE291E00E94CE
:10034000F508ADE7B1E00D911C910A3550E01507B5
:100350001CF011F00C94AE010C94B401E7E6F1E04E
:10036000A5E0B1E00E94E80AE6E3F6E10E94A60AF1
:10037000E5E0F1E00E9450090E94540AFF27EDE0F9
:10038000A5E0B1E00E94E80A0C948901ADE7B1E074
:100390000D911C910A3550E015070CF402C00C9425
:1003A000D50180ED97E00E94F508ABE7B1E00D9133
:1003B0001C910D3750E0150780E014F009F081E042
:1003C0008F93A9E7B1E00D911C91033052E015071E
:1003D00080E014F009F081E09F918923882311F4D3
:1003E0000C946C0288E795E00E94F508ABE7B1E059
:1003F0000D911C910D3750E0150780E014F009F0C5
:1004000081E08F93A9E7B1E00D911C91033052E098
:10041000150780E014F009F081E09F91892388237B
:1004200011F40C946C02A5E1B1E00D911C91003027
:1004300050E0150711F00C943B0281E090E0A5E13B
:10044000B1E08D939C9384E4806480937C000E944F
:100450000409ABE0B1E08D939C93EBE0F1E0D19027
:10046000E080FF2400270E947409AAE9B1E00E94FD
:10047000A5090C946802A5E1B1E00E94D10AE0E070
:10048000F0E0A2E9B1E094E07BE70E94F70AE4E043
:10049000F0E0A5E4B1E094E07BE70E94F70AECE02D
:1004A000F0E0AAE8B1E094E07BE70E94F70AE8E018
:1004B000F0E0AAE9B1E094E07BE70E94F70AE0E10E
:1004C000F0E00BE212E0A0E1BB277BE70E94F60A16
:1004D00084EF91E00E94F508ABE7B1E00D911C912B
:1004E000093650E0150780E00CF481E08F93A9E70E
:1004F000B1E00D911C91033052E0150780E014F03B
:1005000009F081E09F9189238F93A5E1B1E00D91DE
:100510001C91013050E0150781E009F080E09F91C7
:100520008923882311F40C944E0388E795E00E94F8
:10053000F508ABE7B1E00D911C91093650E01507C5
:1005400080E00CF481E08F93A9E7B1E00D911C915C
:10055000033052E0150780E014F009F081E09F912C
:1005600089238F93A5E1B1E00D911C91013050E0FA
:10057000150781E009F080E09F918923882311F419
:100580000C94F80286E4806480937C000E94040945
:10059000AAE8B1E08D939D9388278D938C93A1E079
:1005A000B1E0E2E3F6E10E94C90A46E450E060E00F
:1005B00070E0A1E0B1E00D911D912D913C910E9460
:1005C000E30A1CF011F00C94F3028BB190E289273E
:1005D0008BB984E190E00E94F508A1E0B1E00E94AF
:1005E00086080C94D5025D9888EE93E00E94F50889
:1005F000ABE7B1E00D911C91093650E0150780E0A2
:100600000CF481E08F93A9E7B1E00D911C910330C8
:1006100052E0150780E014F009F081E09F918923F2
:100620008F93A5E1B1E00D911C91013050E01507C9
:1006300081E009F080E09F918923882311F40C94D4
:100640004E03AAE8B1E00E94D30AA1E0B1E0E2E3E0
:10065000F6E10E94C90A46E450E060E070E0A1E0E3
:10066000B1E00D911D912D913C910E94E30A1CF087
:1006700011F00C9449038BB190E289278BB984E186
:1006800090E00E94F508A1E0B1E00E9486080C9479
:100690002B035D9888EE93E00E94F5085D9882E355
:1006A00090E00E94F508A5E1B1E00D911C910130A8
:1006B00050E0150711F00C948603A1E0B1E0E2E3ED
:1006C000F6E10E94C90A4AE050E060E070E0A1E073
:1006D000B1E00D911D912D913C910E94E30A1CF017
:1006E00011F00C9481038EE190E00E94F5088BB12B
:1006F00090E289278BB9A1E0B1E00E9486080C94B2
:1007000063035D9886E990E00E94F5085D9A82E3B4
:1007100090E00E94F5080C940A01A7E6B1E0EAE334
:10072000F6E10E94C90AF8944AEF50E060E070E0F8
:10073000AFE2B1E00D911D912D913C910E94E30A31
:100740001CF011F00C94A6030C94AC03AFE2B1E0E2
:10075000EEE3F6E10E94C90A45E050E060E070E097
:10076000AFE2B1E00D911D912D913C910E94E30A01
:100770000CF402C00C94C203AFE2B1E0E2E4F6E193
:100780000E94C90AE5E4F1E00E9450090E94740940
:100790000E94AA09E3E2F1E00E9450090E941B0AAC
:1007A000FF27EDE00E941209ADE3B1E0EDE0FF2785
:1007B0000E94E80AADE3B1E00D911D912D913C91AD
:1007C00044E650E060E070E00E949808ADE3B1E0DC
:1007D0004D935D936D937D93E6E4F6E10E94A60A46
:1007E000E3E2F1E00E9450090E94C509FF27EDE015
:1007F0000E941209A1E4B1E0EDE0FF270E94E80A9F
:10080000A1E4B1E00D911D912D913C91ADE3B1E0DA
:100810004D915D916D917C910E94D90AA1E4B1E066
:100820000D931D932D933D93E3E2F1E00E94120995
:10083000A7E2B1E0EDE0FF270E94E80AA7E2B1E0FD
:100840004D915D916D917C91A1E4B1E00D911D916F
:100850002D913C910E94E30A0CF002C00C944404D8
:10086000A1E4B1E00D911D912D913C91A7E2B1E081
:100870004D915D916D917C910E94DE0AA1E4B1E001
:100880000D931D932D933D9341E050E060E070E0A7
:10089000ADE3B1E00D911D912D913C910E94E30AD1
:1008A0000CF402C00C945A04ADE3B1E0E2E3F6E1CB
:1008B0000E94C90A41E050E060E070E0A1E4B1E0CC
:1008C0000D911D912D913C910E94E30A0CF402C000
:1008D0000C947004A1E4B1E0E2E3F6E10E94C90ADD
:1008E000A1E1B1E00E94D10AA3E1B1E00E94D10AE6
:1008F000E3E6F1E00E945009EAE4F6E10E94A60A6C
:100900000E94AF0A10F00C948B0481E090E0A1E10A
:10091000B1E08D939C93E3E6F1E00E945009E2E898
:10092000F1E00E9455090E94AF0A18F011F00C94F2
:100930009B040C94A10481E090E0A3E1B1E08D93CD
:100940009C937894A1E1B1E00D911C91013050E0AD
:10095000150711F00C94C60481E090E0AFE1B1E01E
:100960008D939C93ADE1B1E00E94D10AA3E5B1E083
:100970000E94D30AAFE2B1E00D911D912D913C91FF
:10098000A7E5B1E00D931D932D933C93A9E4B1E04D
:100990000E94D30AA1E0B1E0E2E3F6E10E94C90AB5
:1009A000AFE2B1E04D915D916D917C91A1E0B1E03C
:1009B0000D911D912D913C910E94E30A1CF011F0C4
:1009C0000C942F060E949907A9E4B1E00D911D91A6
:1009D0002D913C9141E050E060E070E00E94D90A26
:1009E000A9E4B1E00D931D932D933D93ADE1B1E0EA
:1009F0004D915D9157FB1EF46FEF7FEF02C06627AC
:100A00007727A1E0B1E00D911D912D913C910E94BD
:100A1000E30A80E00CF081E08F93AFE1B1E04D910B
:100A20005D9157FB1EF46FEF7FEF02C066277727BB
:100A3000A1E0B1E00D911D912D913C910E94E30A3E
:100A400080E00CF481E09F918923882311F40C94B9
:100A50005905A7E1B1E00D911C91013050E0150757
:100A600011F00C9435050E949C07A7E1B1E00D91AF
:100A70001C91023050E0150711F00C9441050E94C2
:100A80009F07A9E1B1E00D911C91013050E01507DD
:100A900011F00C944D050E949C07ABE1B1E00D9163
:100AA0001C91013050E0150711F00C9459050E947B
:100AB0009F07AFE1B1E04D915D9157FB1EF46FEFE1
:100AC0007FEF02C066277727A1E0B1E00D911D916D
:100AD0002D913C910E94E30A0CF002C00C94720527
:100AE0000E949907A3E5B1E04D915D916D917C91D4
:100AF000A1E0B1E00D911D912D913C910E94E30A7E
:100B00000CF402C00C9486050E949607A7E5B1E09C
:100B10004D915D916D917C91A1E0B1E00D911D91A0
:100B20002D913C910E94E30A1CF011F00C949A055F
:100B30000C949C050E949607A3E1B1E00D911C91D5
:100B4000013050E0150711F00C94A8050E9496079B
:100B5000ADE3B1E04D915D916D917C91A9E4B1E07F
:100B60000D911D912D913C910E94E30A11F00C947E
:100B7000BF0581E090E0A6E8B1E08D939C93A1E4ED
:100B8000B1E04D915D916D917C91A9E4B1E00D9141
:100B90001D912D913C910E94E30A11F00C94D40513
:100BA000A6E8B1E00E94D10AA6E8B1E00D911C913F
:100BB000003050E0150711F00C94DF055D98A6E8B1
:100BC000B1E00D911C91013050E0150711F00C942B
:100BD000FA05A1E2B1E00D911C91013050E015073A
:100BE00011F00C94F9058BB190E289278BB90C9424
:100BF000FA055D9AA5E3B1E04D915D916D917C910F
:100C0000A9E4B1E00D911D912D913C910E94E30A60
:100C100080E00CF081E08F93A9E3B1E04D915D910C
:100C20006D917C91A9E4B1E00D911D912D913C91C4
:100C30000E94E30A81E014F009F080E09F9189238B
:100C4000882311F40C9425065D9A81E090E00E94BF
:100C5000F508A1E0B1E00E9486080C94D004A1E060
:100C6000B1E0E2E3F6E10E94C90AAFE2B1E04D91E2
:100C70005D916D917C91A1E0B1E00D911D912D915F
:100C80003C910E94E30A1CF011F00C9494070E941E
:100C90009907A9E4B1E00D911D912D913C9141E09E
:100CA00050E060E070E00E94D90AA9E4B1E00D9341
:100CB0001D932D933D93ADE1B1E04D915D9157FBB7
:100CC0001EF46FEF7FEF02C066277727A1E0B1E047
:100CD0000D911D912D913C910E94E30A80E00CF052
:100CE00081E08F93AFE1B1E04D915D9157FB1EF430
:100CF0006FEF7FEF02C066277727A1E0B1E00D918B
:100D00001D912D913C910E94E30A80E00CF481E05A
:100D10009F918923882311F40C94BE06A7E1B1E0CA
:100D20000D911C91013050E0150711F00C949A06BA
:100D30000E949F07A7E1B1E00D911C91023050E0A5
:100D4000150711F00C94A6060E949C07A9E1B1E0DA
:100D50000D911C91013050E0150711F00C94B20672
:100D60000E949F07ABE1B1E00D911C91013050E072
:100D7000150711F00C94BE060E949C07AFE1B1E08C
:100D80004D915D9157FB1EF46FEF7FEF02C0662718
:100D90007727A1E0B1E00D911D912D913C910E942A
:100DA000E30A0CF002C00C94D7060E949907A3E551
:100DB000B1E04D915D916D917C91A1E0B1E00D911B
:100DC0001D912D913C910E94E30A0CF402C00C94F9
:100DD000EB060E949607A7E5B1E04D915D916D91FC
:100DE0007C91A1E0B1E00D911D912D913C910E946B
:100DF000E30A1CF011F00C94FF060C9401070E940A
:100E00009607A3E1B1E00D911C91013050E0150768
:100E100011F00C940D070E949607ADE3B1E04D91DF
:100E20005D916D917C91A9E4B1E00D911D912D91A1
:100E30003C910E94E30A11F00C94240781E090E0B9
:100E4000A6E8B1E08D939C93A1E4B1E04D915D9152
:100E50006D917C91A9E4B1E00D911D912D913C9192
:100E60000E94E30A11F00C943907A6E8B1E00E9451
:100E7000D10AA6E8B1E00D911C91003050E01507B1
:100E800011F00C9444075D98A6E8B1E00D911C9117
:100E9000013050E0150711F00C945F07A1E2B1E0BA
:100EA0000D911C91013050E0150711F00C945E0774
:100EB0008BB190E289278BB90C945F075D9AA5E30B
:100EC000B1E04D915D916D917C91A9E4B1E00D91FE
:100ED0001D912D913C910E94E30A80E00CF081E08D
:100EE0008F93A9E3B1E04D915D916D917C91A9E45F
:100EF000B1E00D911D912D913C910E94E30A81E09A
:100F000014F009F080E09F918923882311F40C9458
:100F10008A075D9A81E090E00E94F508A1E0B1E0C7
:100F20000E9486080C9435060C9404015A985C982B
:100F300008955A9A5C9A08955A985C9A08955A9A14
:100F40005C9808950F921F922F923F924F925F925A
:100F50007F92AF92BF920F931F932F933F934F9324
:100F60005F936F937F938F939F93AF93BF93CF9331
:100F7000DF93EF93FF938FB78F930027BB27A3E2F5
:100F80008C9184FB0EF401E04427A1E8B1E08C9140
:100F900086FB0EF44395041711F40C94E0071C999A
:100FA0000C94DA07A6E4B0E08C91ABE7B1E08D9346
:100FB00088278C931C9B0C94E00780E0809346006C
:100FC0000027BB27A3E28C9183FB0EF401E04427AA
:100FD000A1E8B1E08C9185FB0EF44395041711F460
:100FE0000C941D081B990C941408A4E8B0E00D9112
:100FF0001C910A3852E0150710F00C941408A4E86C
:10100000B0E00D911C910C3251E0150718F011F071
:101010000C940C080C941408A4E8B0E08D919C91F9
:10102000A9E7B1E08D939C931B9B0C941D0880E075
:1010300090E090938500809384000027BB27A3E273
:101040008C9180FB0EF401E04427A1E8B1E08C9183
:1010500087FB0EF44395041711F40C944F0818996C
:101060000C9449080091B200083C10F00C94490817
:101070000091B200023318F011F00C9441080C9466
:101080004908A2EBB0E08C91ADE7B1E08D938827E1
:101090008C93189B0C944F0880E08093B200BB2780
:1010A000A3E28C9180FBA1E8B1E08C9187F98C934D
:1010B000BB27A3E28C9184FBA1E8B1E08C9186F977
:1010C0008C93BB27A3E28C9183FBA1E8B1E08C91C8
:1010D00085F98C938F918FBFFF91EF91DF91CF9125
:1010E000BF91AF919F918F917F916F915F914F9140
:1010F0003F912F911F910F91BF90AF907F905F9084
:101100004F903F902F901F900F9018950D911D912B
:101110002D913C9181E0080F8827181F281F381F48
:101120003C932E931E930E93089500FC05D00895D2
:1011300030D005D001F8F9CF37D03FD00895842FB3
:10114000952FA62FB72FE894452B462B472B11F44C
:1011500068940895402F512F622F732F0027112775
:1011600022273327F0E2440F551F661F771F001F09
:10117000111F221F331F081B190B2A0B3B0B416049
:1011800028F4080F191F2A1F3B1F4E7FFA9559F7A5
:1011900008950024E89477FF02C006D0689400F810
:1011A00009D010F80124089512D04F5F5F4F6F4FA0
:1011B0007F4F0895E89437FF089500951095209586
:1011C00030950F5F1F4F2F4F3F4F68940895409504
:1011D00050956095709508953197F1F7089568944A
:1011E00062F80895E89462F80895EF93FF93EE276C
:1011F000E82BE92B31F0E8E8F3E13197F1F70197BB
:10120000D1F7FF91EF91089580917A00806C8093DF
:101210007A0080917A0086FDFCCF809178009091D1
:10122000790008953DD0992711278F2D880F80E8E8
:10123000F82A802F881F08F41FEF41F08F57082FDE
:1012400007FD04C0003240F08FEF01C08827982FBF
:10125000D82EE82EF82E09C08FE1801B082FF694B7
:10126000E794D79497950A95D1F7112351F090956B
:10127000D094E094F09481E0980F8827D81EE81E5F
:10128000F81E0F2DFE2CED2CD92E0895D094E0944D
:10129000F09491E0D90E9927E91EF91E1095089552
:1012A000D190E190F1900191089521913191419176
:1012B00051910895102F90E8FF0C001F0927990FF6
:1012C000F7941078652F90E8440F551F5927990F10
:1012D0004795607800380895FF0C90E89027110F2B
:1012E0009795F794092F0895102FBD2CDE2CEF2C25
:1012F000F02E11234AF4B094D094E094F0949FEF30
:10130000B91AD90AE90AF90A0EE1FF2039F4FE2CCC
:10131000ED2CDB2CBB240850C2F76BC032F00A95D1
:10132000BB0CDD1CEE1CFF1CF9CF01D0D5CFB7FEE6
:10133000089590E8B91611F4D0FE08959FEFD91AD8
:10134000E90AF90A09F403950895DD92ED92FD92F8
:101350000C930895502F2D2D3E2D4F2D612F089564
:101360002DEC3CEC4CEC5DE366270FC099DFF2DF1F
:10137000DD24EE2490E8F92E0FE307C096DF05C0C8
:101380002227332740E251E46627552351F10023F9
:1013900081F190DF71F11627005850580894050B21
:1013A00018F407FD03C025C007FD23C046953795F7
:1013B0002795F694E794D79422D0FF202AF0DD0CED
:1013C000EE1CFF1C015073F09D2D969548F0DD201A
:1013D0003AF4EE202AF491E0D90E9927E91EF91E7D
:1013E0007BCF07C09FE7092FF92A9FEFD92EE92E5F
:1013F0000895DD24EE24FF240027112708959F92ED
:101400009924AA24BB2488E1D216E306F40628F026
:10141000D21AE30AF40A089401C08894991CAA1C01
:10142000BB1CDD0CEE1CFF1C8A9571F7D92CEA2C35
:10143000FB2C9F9008953EDFE1F25038D1F2162741
:10144000005850580894051F12F418F4CBCF08F038
:10145000D0CF0AD0FF202AF0BB0CDD1CEE1CFF1CF5
:101460003BCF0F5FFBF138CF9F929924AA24BB2476
:10147000992788E1990CAA1CBB1CDD1CEE1CFF1CE3
:1014800030F4920EA31EB41ED91EE91EF91E8A95D1
:1014900089F79F9008950AF045D01ECF5FE3222779
:1014A0003327442701C001DF05DF5038B1F300388E
:1014B00099F3902F951B8BF312F434D0FACF983117
:1014C00018F0222733274427983028F0232F342F71
:1014D00044279850F9CF992329F0469537952795B9
:1014E0009A95D9F7912F962742F014D0B0F6F79439
:1014F000E794D7940F5F8BF675CF10D051F008F4B6
:10150000C5DEFF2052F2DD0CEE1CFF1C0150CBF7B4
:1015100069CF6FCFD20EE31EF41E0895D21AE30AEC
:10152000F40A0895DF92EF92FF920F931F93D22E49
:10153000E32EF42E052F162F6F915F914F913F915F
:101540002F910895C895319600200895FBDF202D36
:10155000F9DF302DF7DF402DF5DF502D089507FB23
:1015600000680EF40F7757FB50680EF45F7707FDA5
:1015700002C057FF05C0D216E306F406050708951A
:101580002D153E054F055007089591E005C092E0E6
:1015900003C094E001C098E0D5DF0D929A95E1F781
:1015A000089582E001C084E099279D938A95E9F728
:1015B0000895040F151F261F371F0895041B150BD0
:1015C000260B370B089504171507260737070895CC
:1015D00094E081918D939A95E1F70895F999FECF62
:1015E000E1BDF2BD3196089591E001C092E07B37F4
:1015F00051F47FB7F894F2DF8D9180BDFA9AF99A91
:101600009A95C9F77FBF7727089591E001C092E0CE
:10161000E5DFF89A80B58D939A95D1F7089500404B
:101620009C460000803F3200000046000000008021
:10163000F443010000000000C84200000000FA006E
:0E164000000005000000000040400000FA43DA
:00000001FF
