:100000000C94340018950000189500000C941F0EF5
:10001000189500001895000018950000189500002C
:10002000189500001895000018950000189500001C
:10003000189500001895000018950000189500000C
:1000400018950000189500001895000018950000FC
:1000500018950000189500001895000018950000EC
:1000600018950000189500008FEF8DBFC0EEE6ECEC
:100070004E2E84E08EBFD4E0F4E05F2EEEEFF3E08E
:10008000A0E0B1E088278D933197E9F781E880936C
:10009000C40080E08093C50088E18093C10066249D
:1000A0008FEF8AB980E084B9389887E080937A002E
:1000B00080E480937C0078948091680081608093D4
:1000C000680089E380936B0084E085BD80E084BD97
:1000D00080E08093800083E08093810086E08093BD
:1000E000B10080E08093B0005D9A84E085BD83E03C
:1000F0008093810086E08093B10080916E008E7FB6
:1001000080936E0080916F008E7F80936F0080914E
:1001100070008E7F8093700081E08093000180E00A
:1001200090E0A5E1B1E08D939C93AFE6B1E0EEE7FE
:10013000F7E20E946E120E94130EA8E9B1E0E2E815
:10014000F7E20E946E1202E310E020E030E0A5E446
:10015000B1E00D931D932D933C9306E410E020E055
:1001600030E0A0E9B1E00D931D932D933C93A0EAFC
:10017000B1E0E6E8F7E20E946E12E0E1F0E0BB27B2
:10018000A0E10E94A4120B3252E0150711F00C946A
:10019000E500A8E9B1E0E0E0F0E094E00E94A512FB
:1001A000E4E0F0E0A5E4B1E094E00E94A512ECE008
:1001B000F0E0A0E9B1E094E00E94A512A0EAB1E06D
:1001C000E8E0F0E094E00E94A5125F9A70917A0056
:1001D000706870937A0001E010E020E030E0A1E068
:1001E000B1E00D931D932D933C9344E150E060E00A
:1001F00070E0A1E0B1E00D911D912D913C910E9424
:1002000080121CF011F00C9413018BB190E289273D
:100210008BB984E190E00E945610A1E0B1E00E9409
:10022000930F0C94F50000910001013011F00C9433
:10023000130EA3E8B1E00D911C910A3550E01507AB
:1002400080E00CF481E08F93A3E8B1E00D911C9164
:10025000083C50E0150780E014F009F081E09F9120
:10026000892B8F93A6E8B1E00D911C91013050E0ED
:10027000150781E009F080E09F91892B882311F414
:100280000C94B0030E94130EADE7B1E00D911C91E8
:100290000F3D51E015071CF011F00C9451010C9426
:1002A000550188EC90E00E945610ADE7B1E00D9149
:1002B0001C910B3D51E015070CF402C00C94640135
:1002C00088EC90E00E945610A1E8B1E00D911C91DD
:1002D000093650E0150780E00CF481E08F93A1E827
:1002E000B1E00D911C91003050E0150780E014F052
:1002F00009F081E09F9189238F93A5E1B1E00D91F1
:100300001C91003050E0150781E009F080E09F91DA
:100310008923882311F40C94E4015D9884EF91E023
:100320000E945610A5E0B1E0E2E8F7E20E946E12EA
:10033000E5E0F1E00E94DE10E7E6F1E00E94E31064
:100340000E944D1218F011F00C94D5015D9A84E6CC
:1003500090E00E9456105D988CE291E00E94561049
:10036000A3E8B1E00D911C910A3550E015071CF08F
:1003700011F00C94BD010C94C301E7E6F1E0A5E097
:10038000B1E00E948512EAE8F7E20E944412E5E03B
:10039000F1E00E94DE100E94E911FF27EDE0A5E0E8
:1003A000B1E00E9485120C949801A3E8B1E00D9190
:1003B0001C910A3550E015070CF402C00C94E401BE
:1003C00080ED97E00E945610A1E8B1E00D911C91DC
:1003D0000D3750E0150780E014F009F081E08F93AD
:1003E000ADE7B1E00D911C91033052E0150780E0BC
:1003F00014F009F081E09F918923882311F40C9473
:100400007D0288E795E00E945610A1E8B1E00D91C9
:100410001C910D3750E0150780E014F009F081E0E1
:100420008F93ADE7B1E00D911C91033052E01507B9
:1004300080E014F009F081E09F918923882311F472
:100440000C947D02A5E1B1E00D911C91003050E0CB
:10045000150711F00C944A0281E090E0A5E1B1E0AB
:100460008D939C9384E4806480937C000E9492101E
:10047000ABE0B1E08D939C93EBE0F1E0D190E080B4
:10048000FF2400270E940211A0EAB1E00E9433116C
:100490000C94790280E090E0A5E1B1E08D939C930B
:1004A000E0E0F0E0A8E9B1E094E07BE70E9494127C
:1004B000E4E0F0E0A5E4B1E094E07BE70E94941270
:1004C000ECE0F0E0A0E9B1E094E07BE70E94941258
:1004D000E8E0F0E0A0EAB1E094E07BE70E9494124B
:1004E000E0E1F0E00BE212E0A0E1BB277BE70E9435
:1004F000931284EF91E00E945610A1E8B1E00D91B3
:100500001C91093650E0150780E00CF481E08F93D0
:10051000ADE7B1E00D911C91033052E0150780E08A
:1005200014F009F081E09F9189238F93A5E1B1E058
:100530000D911C91013050E0150781E009F080E039
:100540009F918923882311F40C946D0388E795E02B
:100550000E945610A1E8B1E00D911C91093650E0BF
:10056000150780E00CF481E08F93ADE7B1E00D91C9
:100570001C91033052E0150780E014F009F081E08F
:100580009F9189238F93A5E1B1E00D911C910130DA
:1005900050E0150781E009F080E09F9189238823CE
:1005A00011F40C940D0386E4806480937C000E9417
:1005B0009210A0E9B1E08D939D9388278D938C9341
:1005C00001E010E020E030E0A1E0B1E00D931D93E8
:1005D0002D933C9346E450E060E070E0A1E0B1E090
:1005E0000D911D912D913C910E9480121CF011F0F3
:1005F0000C9408038BB190E289278BB984E190E0D9
:100600000E945610A1E0B1E00E94930F0C94EA0200
:100610005D9888EE93E00E945610A1E8B1E00D913C
:100620001C91093650E0150780E00CF481E08F93AF
:10063000ADE7B1E00D911C91033052E0150780E069
:1006400014F009F081E09F9189238F93A5E1B1E037
:100650000D911C91013050E0150781E009F080E018
:100660009F918923882311F40C946D0300E010E01E
:1006700020E030E0A0E9B1E00D931D932D933C9371
:1006800001E010E020E030E0A1E0B1E00D931D9327
:100690002D933C9346E450E060E070E0A1E0B1E0CF
:1006A0000D911D912D913C910E9480121CF011F032
:1006B0000C9468038BB190E289278BB984E190E0B8
:1006C0000E945610A1E0B1E00E94930F0C944A03DF
:1006D0005D9888EE93E00E9456105D9882E390E06A
:1006E0000E945610A5E1B1E00D911C91013050E03F
:1006F000150711F00C94A90301E010E020E030E0B0
:10070000A1E0B1E00D931D932D933C934AE050E09E
:1007100060E070E0A1E0B1E00D911D912D913C9160
:100720000E9480121CF011F00C94A4038EE190E062
:100730000E9456108BB190E289278BB9A1E0B1E0FD
:100740000E94930F0C9486035D9886E990E00E94C6
:1007500056105D9A82E390E00E9456100C941901A5
:10076000A7E6B1E0EEE8F7E20E946E12F894A1E885
:10077000B1E00D911C91083750E0150780E014F0AE
:1007800009F081E08F93A1E8B1E00D911C910A3F3F
:1007900050E0150780E00CF481E09F9189238823C5
:1007A00011F40C94DB0381E090E0A9E1B1E08D93BA
:1007B0009C930C94E10380E090E0A9E1B1E08D937B
:1007C0009C93A1E8B1E00D911C91093650E015070A
:1007D00080E00CF481E08F93A1E8B1E00D911C91D1
:1007E000023350E0150780E014F009F081E09F919A
:1007F0008923882311F40C94050481E090E0ABE197
:10080000B1E08D939C930C940B0480E090E0ABE1FD
:10081000B1E08D939C9380E090E0A1E2B1E08D93F4
:100820009C9380E090E0AEE8B1E08D939C93A0E9CA
:10083000B1E00D911D912D913C914BE450E060E0B1
:1008400070E00E946F10A4E9B1E00D931D932D9309
:100850003D93A4E9B1E00D911D912D913C9144E6A9
:1008600050E060E070E00E94F90FA4E9B1E04D9320
:100870005D936D937D9386E4806480937C000E94F9
:100880009210A9E0B1E08D939C93A4E9B1E04D9161
:100890005D916D917C91A9E0B1E00D911C912227B1
:1008A00033270E9480120CF402C00C945D0481E096
:1008B00090E0AEE8B1E08D939C9384E480648093F3
:1008C0007C000E949210ABE0B1E08D939C93EBE032
:1008D000F1E0D190E080FF2400270E940211ADE0FA
:1008E000B1E00E943311E0EAF1E00E94E310EDE094
:1008F000F1E00E94DE100E94DA11FF27EDE0ADE08A
:10090000B1E00E948512E2E9F7E20E944412EDE0B4
:10091000F1E00E94DE100E94A911FF27EDE0AFE593
:10092000B1E00E948512A3E6B1E0E6E9F7E20E9499
:100930006E12E3E6F1E00E94E310EFE5F1E00E94C1
:10094000DE100E945311FF27EDE0A3E6B1E00E9404
:100950008512E2E9F7E20E944412E3E6F1E00E9428
:10096000DE100E948513FF27EDE0A3E6B1E00E94B0
:100970008512EAE9F7E20E944412E3E6F1E00E9400
:10098000DE100E94A911FF27EDE0A3E6B1E00E946E
:100990008512E3E6F1E00E94DE10E7E6F1E00E9456
:1009A000E3100E944D1218F011F00C94D9040C942D
:1009B000DF04E3E6F1E0A7E6B1E00E948512EEE98C
:1009C000F7E20E944412E3E6F1E00E94DE100E948A
:1009D0005311FF27EDE0A3E2B1E00E948512E3E2AC
:1009E000F1E00E94E310E2E8F7E20E943B120E946D
:1009F0005311FF27EDE0A3E2B1E00E948512EAE97E
:100A0000F7E20E944412E3E2F1E00E94DE100E944D
:100A1000A911FF27EDE0A3E2B1E00E948512E8E909
:100A2000F1E00E94E310E3E2F1E00E94DE100E9498
:100A3000A911FF27EDE0A3E2B1E00E948512A9E130
:100A4000B1E00D911C91013050E0150711F00C94AC
:100A50003905E2E8F7E20E944412E3E2F1E00E9485
:100A6000DE100E94A911FF27EDE0A3E2B1E00E9491
:100A70008512ABE1B1E00D911C91013050E01507FA
:100A800011F00C945305E2EAF7E20E944412E3E20B
:100A9000F1E00E94DE100E94A911FF27EDE0A3E221
:100AA000B1E00E948512E6EAF7E20E944412E3E216
:100AB000F1E00E94DE100E94DA11FF27EDE0A3E2D0
:100AC000B1E00E948512E6EAF7E20E944412E3E2F6
:100AD000F1E00E94DE100E94DA11FF27EDE0A3E2B0
:100AE000B1E00E948512A7E1B1E00D911C910130A7
:100AF00050E0150711F00C94850582E090E0A7E125
:100B0000B1E08D939C930C948B0581E090E0A7E17C
:100B1000B1E08D939C93EAEAF7E20E944412E3E28B
:100B2000F1E00E94DE100E945311FF27EDE0ABE2DE
:100B3000B1E00E948512A3E8B1E00D911C914AE555
:100B400050E0041B150BADE4B1E00D931C93ADE434
:100B5000B1E00D911C9142E050E00E946510ADE4BF
:100B6000B1E00D931C93ADE4B1E00D911C910436FE
:100B700050E015071CF011F00C94C0050C94C6054C
:100B800084E690E0ADE4B1E08D939C9380E090E04A
:100B9000A3E3B1E08D939C93A5E1B1E00D911C918D
:100BA000013050E0150711F00C94DC0584E290E070
:100BB000ADE4B1E08D939C93A5E1B1E00D911C9162
:100BC000013050E0150781E009F080E08F93A3E841
:100BD000B1E00D911C91043650E0150780E00CF453
:100BE00081E09F918923882311F40C94650681E0AC
:100BF00090E0A3E3B1E08D939C9381E090E0A1E2CB
:100C0000B1E08D939C93ADE7B1E00D911C910B3D4C
:100C100051E015070CF402C00C941E06EEEAF7E250
:100C20000E944412E8E9F1E00E94DE100E94E911FE
:100C3000FF27EDE0A8E9B1E00E948512ADE7B1E041
:100C40000D911C910F3D51E015071CF011F00C9413
:100C50002B060C944E06EEEAF7E20E944412E8E9F5
:100C6000F1E00E94DE100E94DA11FF27EDE0A8E912
:100C7000B1E00E948512E8E9F1E00E94DE10E2EBAB
:100C8000F7E20E9444120E944D1210F00C944E069E
:100C9000A8E9B1E0E2EBF7E20E946E12A1E8B1E050
:100CA0000D911C91093650E015070CF402C00C940C
:100CB0006506A8E9B1E0E2E8F7E20E946E1280E082
:100CC00090E0ABE1B1E08D939C93A5E1B1E00D9193
:100CD0001C91013050E0150781E009F080E08F930E
:100CE000A3E8B1E00D911C910C3850E0150780E0AD
:100CF00014F009F081E09F918923882311F40C946A
:100D00000B0781E090E0A3E3B1E08D939C9381E039
:100D100090E0A1E2B1E08D939C93ADE7B1E00D913D
:100D20001C910B3D51E015070CF402C00C94B00669
:100D3000A5E4B1E00D911D912D913C9141E050E071
:100D400060E070E00E947612A5E4B1E00D931D937F
:100D50002D933D9380E090E0A1E2B1E08D939C93D0
:100D6000ADE7B1E00D911C910F3D51E015071CF06E
:100D700011F00C94BD060C94D506A5E4B1E00D91DC
:100D80001D912D913C9141E050E060E070E00E94A7
:100D90007B12A5E4B1E00D931D932D933D9380E06C
:100DA00090E0A1E2B1E08D939C9341E050E060E0DF
:100DB00070E0A5E4B1E00D911D912D913C910E9450
:100DC00080120CF402C00C94EF0604E610E020E060
:100DD00030E0A5E4B1E00D931D932D933C9344E6E0
:100DE00050E060E070E0A5E4B1E00D911D912D911F
:100DF0003C910E9480121CF011F00C9401070C949D
:100E00000B0701E010E020E030E0A5E4B1E00D9335
:100E10001D932D933C93A3E3B1E00D911C91003001
:100E200050E0150711F00C946A07EDE7F1E0D1905E
:100E3000E0808FEFE7FE8827F82E082F0E9402112E
:100E40000E943811E6EBF7E20E943B120E94DA1191
:100E5000FF27EDE0ABE6B1E00E948512EBE2F1E0A6
:100E60000E94E310EBE6F1E00E94DE100E94A9115F
:100E7000FF27EDE0ABE6B1E00E948512EBE6F1E082
:100E8000AFE6B1E00E949813FF27EDE0ABE6B1E0DA
:100E90000E948512EAEBF7E20E944412EBE6F1E0D1
:100EA0000E94DE100E945311FF27EDE0ABE6B1E097
:100EB0000E948512EBE6F1E00E94E310EBE2F1E024
:100EC0000E94DE100E94E911FF27EDE0ABE2B1E0E5
:100ED0000E948512EBE2F1E00E94A010AFE2B1E0C7
:100EE000EDE0FF270E948512EFE2F1E00E94DE10A4
:100EF0000E9402110E943811EBE2F1E00E94DE1024
:100F00000E94DA11FF27EDE0A3E7B1E00E9485120D
:100F1000EAE8F7E20E944412E3E7F1E00E94DE1003
:100F20000E94A911FF27EDE0A3E7B1E00E9485121E
:100F300084E690E08A939A930E94A20F2296A7E7F4
:100F4000B1E00D931C93E7E7F1E0D190E0808FEFE3
:100F5000E7FE8827F82E082F0E940211A9E7B1E0CA
:100F60000E943311E3E7F1E00E94DE10E9E7F1E0CF
:100F70000E94E3100E944D1218F011F00C94C20769
:100F80000C94D407AFE2B1E00D911D912D913C91ED
:100F900041E050E060E070E00E947612AFE2B1E024
:100FA0000D931D932D933D934AEF50E060E070E068
:100FB000AFE2B1E00D911D912D913C910E94801204
:100FC0001CF011F00C94E6070C94F0070AEF10E007
:100FD00020E030E0AFE2B1E00D931D932D933C9300
:100FE00045E050E060E070E0AFE2B1E00D911D91AE
:100FF0002D913C910E9480120CF402C00C940A08BE
:1010000005E010E020E030E0AFE2B1E00D931D9389
:101010002D933C93E5E4F1E00E94DE100E94021162
:101020000E943811E3E2F1E00E94DE100E94A91153
:10103000FF27EDE00E94A010ADE3B1E0EDE0FF2757
:101040000E948512ADE3B1E00D911D912D913C916F
:1010500044E650E060E070E00E94F90FADE3B1E0DB
:101060004D935D936D937D93EEEBF7E20E944412F6
:10107000E3E2F1E00E94DE100E945311FF27EDE051
:101080000E94A010A1E4B1E0EDE0FF270E948512CC
:10109000A1E4B1E00D911D912D913C91ADE3B1E042
:1010A0004D915D916D917C910E947612A1E4B1E029
:1010B0000D931D932D933D93E3E2F1E00E94A01068
:1010C000A7E2B1E0EDE0FF270E948512A7E2B1E0C0
:1010D0004D915D916D917C91A1E4B1E00D911D91D7
:1010E0002D913C910E9480120CF002C00C948C084F
:1010F000A1E4B1E00D911D912D913C91A7E2B1E0E9
:101100004D915D916D917C910E947B12A1E4B1E0C3
:101110000D931D932D933D9341E050E060E070E00E
:10112000ADE3B1E00D911D912D913C910E94801293
:101130000CF402C00C94A60801E010E020E030E0BE
:10114000ADE3B1E00D931D932D933C9341E050E04E
:1011500060E070E0A1E4B1E00D911D912D913C9112
:101160000E9480120CF402C00C94C00801E010E050
:1011700020E030E0A1E4B1E00D931D932D933C936A
:10118000A7E2B1E00D911D912D913C9141E150E01C
:1011900060E070E00E946F10A5E3B1E00D931D9335
:1011A0002D933D93A5E3B1E00D911D912D913C91BF
:1011B0004CE350E060E070E00E94F90FA5E3B1E07D
:1011C0004D935D936D937D93A5E3B1E00D911D91DA
:1011D0002D913C91A1E4B1E04D915D916D917C9197
:1011E0000E947612A5E3B1E00D931D932D933D93DC
:1011F000A7E2B1E00D911D912D913C9146E050E0A8
:1012000060E070E00E946F10A9E3B1E00D931D93C0
:101210002D933D93A9E3B1E00D911D912D913C914A
:101220004CE350E060E070E00E94F90FA9E3B1E008
:101230004D935D936D937D93A9E3B1E00D911D9165
:101240002D913C91A5E3B1E04D915D916D917C9123
:101250000E947612A9E3B1E00D931D932D933D9367
:10126000A7E2B1E04D915D916D917C91A5E3B1E074
:101270000D911D912D913C910E9480120CF002C0A5
:101280000C945609A5E3B1E00D911D912D913C916F
:10129000A7E2B1E04D915D916D917C910E947B122E
:1012A000A5E3B1E00D931D932D933D93A7E2B1E02B
:1012B0004D915D916D917C91A9E3B1E00D911D91EE
:1012C0002D913C910E9480120CF002C00C947C097C
:1012D000A9E3B1E00D911D912D913C91A7E2B1E000
:1012E0004D915D916D917C910E947B12A9E3B1E0DB
:1012F0000D931D932D933D93EFE5F1E00E94DE10D9
:10130000E2ECF7E20E9444120E944D1280E010F0DD
:1013100009F081E08F93ADE4B1E00D911C910832AA
:1013200050E0150780E014F009F081E09F918923D7
:10133000882311F40C94A20988E290E0ADE4B1E0B6
:101340008D939C93ADE4B1E00D911C91023350E07C
:1013500015071CF011F00C94AF090C943B0A81E0C6
:1013600090E0A1E2B1E08D939C93AFE2B1E00D91EA
:101370001D912D913C9149E150E060E070E00E94A8
:101380006F10ABE5B1E00D931D932D933D93ABE54D
:10139000B1E00D911D912D913C91ADE4B1E04D91E5
:1013A0005D9157FB1EF46FEF7FEF02C06627772732
:1013B0000E94F90FABE5B1E04D935D936D937D9382
:1013C000AFE2B1E00D911C9142E050E00E94BC0FF1
:1013D000ADE1B1E04D935C93ADE1B1E00D911C91B5
:1013E000ABE5B1E04D915C91041B150BADE1B1E0B3
:1013F0000D931C93AFE2B1E00D911C9142E050E0DF
:101400000E94BC0FAFE1B1E04D935C93AFE1B1E05E
:101410000D911C91ABE5B1E04D915C91040F151F4E
:10142000AFE1B1E00D931C93ADE1B1E00D911C91E2
:10143000013050E015070CF402C00C94250A81E03D
:1014400090E0ADE1B1E08D939C9300E010E020E0EE
:1014500030E0A3E5B1E00D931D932D933C93AFE2F3
:10146000B1E00D911D912D913C91A7E5B1E00D9357
:101470001D932D933C93ADE4B1E00D911C9102338B
:1014800050E015071CF011F00C94B10A81E090E0D7
:10149000ADE1B1E08D939C93AFE2B1E08D919C9171
:1014A000AFE1B1E08D939C9302E310E020E030E0E7
:1014B000ADE4B1E04D915D9157FB1EF46FEF7FEF0E
:1014C00002C0662777270E947B12AFE4B1E00D933C
:1014D0001D932D933D93AFE4B1E00D911D912D919E
:1014E0003C91AFE2B1E04D915D916D917C910E9494
:1014F0006F10AFE4B1E00D931D932D933D93AFE4D6
:10150000B1E00D911D912D913C9146E950E060E0D4
:1015100070E00E94F90FAFE4B1E04D935D936D93DD
:101520007D93AFE4B1E00D911D912D913C91A3E528
:10153000B1E00D931D932D933C93AFE2B1E00D917B
:101540001D912D913C91AFE4B1E04D915D916D9174
:101550007C910E947B12A7E5B1E00D931D932D9322
:101560003D93AEE8B1E00D911C91013050E01507BC
:1015700011F00C94CF0A00E010E020E030E0A5E389
:10158000B1E00D931D932D933C9300E010E020E01B
:1015900030E0A9E3B1E00D931D932D933C9380E0DF
:1015A00090E0A1E1B1E08D939C9380E090E0A3E115
:1015B000B1E08D939C93E3E6F1E00E94DE10E6EC4F
:1015C000F7E20E9444120E944D1210F00C94EE0AB1
:1015D00081E090E0A1E1B1E08D939C93E3E6F1E03E
:1015E0000E94DE10EAECF7E20E9444120E944D12C3
:1015F00018F011F00C94FE0A0C94040B81E090E0BA
:10160000A3E1B1E08D939C937894A1E1B1E00D91B9
:101610001C91013050E0150711F00C94310B81E062
:1016200090E0AFE1B1E08D939C9380E090E0ADE17C
:10163000B1E08D939C9300E010E020E030E0A3E562
:10164000B1E00D931D932D933C93AFE2B1E00D916A
:101650001D912D913C91A7E5B1E00D931D932D9324
:101660003C9300E010E020E030E0A9E4B1E00D930D
:101670001D932D933C9301E010E020E030E0A1E0C9
:10168000B1E00D931D932D933C93AFE2B1E04D91EA
:101690005D916D917C91A1E0B1E00D911D912D9135
:1016A0003C910E9480121CF011F00C94A60C0E9438
:1016B000160EA9E4B1E00D911D912D913C9141E0F0
:1016C00050E060E070E00E947612A9E4B1E00D9372
:1016D0001D932D933D93ADE1B1E04D915D9157FB8D
:1016E0001EF46FEF7FEF02C066277727A1E0B1E01D
:1016F0000D911D912D913C910E94801280E00CF083
:1017000081E08F93AFE1B1E04D915D9157FB1EF405
:101710006FEF7FEF02C066277727A1E0B1E00D9160
:101720001D912D913C910E94801280E00CF481E08B
:101730009F918923882311F40C94CE0BA7E1B1E08B
:101740000D911C91013050E0150711F00C94AA0B7B
:101750000E94190EA7E1B1E00D911C91023050E0FA
:10176000150711F00C94B60B0E941C0EA9E1B1E014
:101770000D911C91013050E0150711F00C94C20B33
:101780000E94190EABE1B1E00D911C91013050E0C7
:10179000150711F00C94CE0B0E941C0EAFE1B1E0C6
:1017A0004D915D9157FB1EF46FEF7FEF02C06627EE
:1017B0007727A1E0B1E00D911D912D913C910E9400
:1017C00080120CF002C00C94E70B0E94160EA3E5E9
:1017D000B1E04D915D916D917C91A1E0B1E00D91F1
:1017E0001D912D913C910E9480120CF402C00C942A
:1017F000FB0B0E94130EA7E5B1E04D915D916D9139
:101800007C91A1E0B1E00D911D912D913C910E9440
:1018100080121CF011F00C940F0C0C94110C0E940F
:10182000130EA3E1B1E00D911C91013050E01507BA
:1018300011F00C941D0C0E94130EADE3B1E04D911C
:101840005D916D917C91A9E4B1E00D911D912D9177
:101850003C910E94801211F00C94340C81E090E0D5
:10186000ACE8B1E08D939C93A1E4B1E04D915D9122
:101870006D917C91A9E4B1E00D911D912D913C9168
:101880000E94801211F00C944B0C80E090E0ACE8C8
:10189000B1E08D939C93ACE8B1E00D911C910030C8
:1018A00050E0150711F00C94560C5D98ACE8B1E0CF
:1018B0000D911C91013050E0150711F00C94710C42
:1018C000A1E2B1E00D911C91013050E0150711F03B
:1018D0000C94700C8BB190E289278BB90C94710C2D
:1018E0005D9AA5E3B1E04D915D916D917C91A9E484
:1018F000B1E00D911D912D913C910E94801280E0EC
:101900000CF081E08F93A9E3B1E04D915D916D9171
:101910007C91A9E4B1E00D911D912D913C910E9423
:10192000801281E014F009F080E09F9189238823E0
:1019300011F40C949C0C5D9A81E090E00E9456108A
:10194000A1E0B1E00E94930F0C94450B01E010E080
:1019500020E030E0A1E0B1E00D931D932D933C9386
:10196000AFE2B1E04D915D916D917C91A1E0B1E06C
:101970000D911D912D913C910E9480121CF011F04F
:101980000C94110E0E94160EA9E4B1E00D911D9168
:101990002D913C9141E050E060E070E00E947612B1
:1019A000A9E4B1E00D931D932D933D93ADE1B1E01A
:1019B0004D915D9157FB1EF46FEF7FEF02C06627DC
:1019C0007727A1E0B1E00D911D912D913C910E94EE
:1019D000801280E00CF081E08F93AFE1B1E04D9197
:1019E0005D9157FB1EF46FEF7FEF02C066277727EC
:1019F000A1E0B1E00D911D912D913C910E948012CA
:101A000080E00CF481E09F918923882311F40C94E9
:101A1000390DA7E1B1E00D911C91013050E015079F
:101A200011F00C94150D0E941C0EA7E1B1E00D9170
:101A30001C91023050E0150711F00C94210D0E940A
:101A4000190EA9E1B1E00D911C91013050E015078C
:101A500011F00C942D0D0E941C0EABE1B1E00D9124
:101A60001C91013050E0150711F00C94390D0E94C3
:101A7000190EAFE1B1E04D915D9157FB1EF46FEF90
:101A80007FEF02C066277727A1E0B1E00D911D919D
:101A90002D913C910E9480120CF002C00C94520DCA
:101AA0000E94160EA3E5B1E04D915D916D917C9180
:101AB000A1E0B1E00D911D912D913C910E94801209
:101AC0000CF402C00C94660D0E94130EA7E5B1E061
:101AD0004D915D916D917C91A1E0B1E00D911D91D1
:101AE0002D913C910E9480121CF011F00C947A0D03
:101AF0000C947C0D0E94130EA3E1B1E00D911C919A
:101B0000013050E0150711F00C94880D0E94130E5F
:101B1000ADE3B1E04D915D916D917C91A9E4B1E0AF
:101B20000D911D912D913C910E94801211F00C9409
:101B30009F0D81E090E0ACE8B1E08D939C93A1E42F
:101B4000B1E04D915D916D917C91A9E4B1E00D9171
:101B50001D912D913C910E94801211F00C94B60DB4
:101B600080E090E0ACE8B1E08D939C93ACE8B1E00C
:101B70000D911C91003050E0150711F00C94C10D2F
:101B80005D98ACE8B1E00D911C91013050E0150773
:101B900011F00C94DC0DA1E2B1E00D911C9101302B
:101BA00050E0150711F00C94DB0D8BB190E2892702
:101BB0008BB90C94DC0D5D9AA5E3B1E04D915D917C
:101BC0006D917C91A9E4B1E00D911D912D913C9115
:101BD0000E94801280E00CF081E08F93A9E3B1E0D5
:101BE0004D915D916D917C91A9E4B1E00D911D91B4
:101BF0002D913C910E94801281E014F009F080E068
:101C00009F918923882311F40C94070E5D9A81E03B
:101C100090E00E945610A1E0B1E00E94930F0C9456
:101C2000B00C0C9413015A985C9808955A9A5C9AD7
:101C300008955A9A5C9808955A985C9A08950F925C
:101C40001F922F923F924F925F927F92AF92BF92DC
:101C50000F931F932F933F934F935F936F937F93B4
:101C60008F939F93AF93BF93CF93DF93EF93FF93A4
:101C70008FB78F930027BB27A3E28C9184FB0EF4D0
:101C800001E04427A5E8B1E08C9184FB0EF4439574
:101C9000041711F40C946F0E0027BB27A3E28C915C
:101CA00084FB0EF401E040E0041711F00C94600E88
:101CB000A6E4B0E08C91A1E8B1E08D9388278C93E5
:101CC0000027BB27A3E28C9184FB0EF401E041E0E6
:101CD000041711F00C946F0E80E0809346000027EB
:101CE000BB27A3E28C9180FB0EF401E04427A5E81A
:101CF000B1E08C9185FB0EF44395041711F40C941C
:101D0000B30E0027BB27A3E28C9180FB0EF401E009
:101D100040E0041711F00C94A40E0091B200083CAE
:101D200010F00C94A40E0091B200023318F011F0E0
:101D30000C949C0E0C94A40EA2EBB0E08C91A3E842
:101D4000B1E08D9388278C930027BB27A3E28C9169
:101D500080FB0EF401E041E0041711F00C94B30E87
:101D600080E08093B2000027BB27A3E28C9183FB25
:101D70000EF401E04427A5E8B1E08C9183FB0EF45A
:101D80004395041711F40C94030F0027BB27A3E21B
:101D90008C9183FB0EF401E040E0041711F00C94E9
:101DA000EF0EA8E8B1E04D915C91A4E8B0E00D9190
:101DB0001C91041715071CF011F00C94E10E0C9403
:101DC000EF0EA4E8B0E00D911C91A8E8B1E04D91B0
:101DD0005C91041B150BADE7B1E00D931C9300273C
:101DE000BB27A3E28C9183FB0EF401E041E00417D2
:101DF00011F00C94030FA4E8B0E08D919C91A8E839
:101E0000B1E08D939C930027BB27A3E28C9185FBC7
:101E10000EF401E04427A5E8B1E08C9182FB0EF4BA
:101E20004395041711F40C94530F0027BB27A3E22A
:101E30008C9185FB0EF401E040E0041711F00C9446
:101E40003F0FAFE7B1E04D915C91A4E8B0E00D9198
:101E50001C91041715071CF011F00C94310F0C9411
:101E60003F0FA4E8B0E00D911C91AAE8B1E04D91BC
:101E70005C91041B150BAFE7B1E00D931C93002799
:101E8000BB27A3E28C9185FB0EF401E041E004172F
:101E900011F00C94530FA4E8B0E08D919C91AAE846
:101EA000B1E08D939C93BB27A3E28C9180FBA5E8C6
:101EB000B1E08C9185F98C93BB27A3E28C9184FBD4
:101EC000A5E8B1E08C9184F98C93BB27A3E28C91B7
:101ED00083FBA5E8B1E08C9183F98C93BB27A3E247
:101EE0008C9185FBA5E8B1E08C9182F98C938F9160
:101EF0008FBFFF91EF91DF91CF91BF91AF919F91F4
:101F00008F917F916F915F914F913F912F911F9191
:101F10000F91BF90AF907F905F904F903F902F9028
:101F20001F900F9018950D911D912D913C9181E07E
:101F3000080F8827181F281F381F3C932E931E93C5
:101F40000E9308954091A4015091A5010DE815E369
:101F50000E94B60F49E156E3040F151F0093A40138
:101F60001093A501498158810C94DC0F09D00E947F
:101F7000651000FC10D0089503D01ED001F8F9CFF1
:101F80000024E89457FF02C009D0689400F80BD0F1
:101F900010F80124089502D009D008955095409575
:101FA0004F5F5F4F0895E89417FF089500951095CF
:101FB0000F5F1F4F68940895352F242FE894452B09
:101FC00011F468940895512F402F0027112780E1C4
:101FD000440F551F001F111F021B130B416018F403
:101FE000020F131F4E7F8A9599F7089500FC05D0C4
:101FF000089530D005D001F8F9CF37D03FD00895FB
:10200000842F952FA62FB72FE894452B462B472BCF
:1020100011F468940895402F512F622F732F0027D9
:10202000112722273327F0E2440F551F661F771F21
:10203000001F111F221F331F081B190B2A0B3B0BFC
:10204000416028F4080F191F2A1F3B1F4E7FFA9585
:1020500059F708950024E89477FF02C006D06894E9
:1020600000F809D010F80124089512D04F5F5F4F97
:102070006F4F7F4F0895E89437FF089500951095AE
:10208000209530950F5F1F4F2F4F3F4F6894089555
:10209000409550956095709508953197F1F70895A2
:1020A000689462F80895E89462F80895EF93FF93B6
:1020B000EE27E82BE92B31F0E8E8F3E13197F1F76F
:1020C0000197D1F7FF91EF9108950F92B801469FC4
:1020D0008001479F100D569F100D0F9008950F928D
:1020E0001F922F92C801D901489F80014A9F9001F9
:1020F0004B9F202C499F100D211D321D5A9F202CD3
:10210000589F100D211D321D599F200D311D689FB4
:10211000200D311D699F300D789F300D2F901F903D
:102120000F90089580917A00806C80937A0080915E
:102130007A0086FDFCCF8091780090917900089517
:102140003DD0992711278F2D880F80E8F82A802FFE
:10215000881F08F41FEF41F08F57082F07FD04C0B8
:10216000003240F08FEF01C08827982FD82EE82E3C
:10217000F82E09C08FE1801B082FF694E794D794BE
:1021800097950A95D1F7112351F09095D094E0944A
:10219000F09481E0980F8827D81EE81EF81E0F2DB6
:1021A000FE2CED2CD92E0895D094E094F09491E07B
:1021B000D90E9927E91EF91E10950895D190E19046
:1021C000F19001910895219131914191519108959A
:1021D000102F90E8FF0C001F0927990FF794107833
:1021E000652F90E8440F551F5927990F4795607840
:1021F00000380895FF0C90E89027110F9795F794F9
:10220000092F0895102FBD2CDE2CEF2CF02E11235A
:102210004AF4B094D094E094F0949FEFB91AD90A9C
:10222000E90AF90A0EE1FF2039F4FE2CED2CDB2C33
:10223000BB240850C2F76BC032F00A95BB0CDD1C02
:10224000EE1CFF1CF9CF01D0D5CFB7FE089590E862
:10225000B91611F4D0FE08959FEFD91AE90AF90AC8
:1022600009F403950895DD92ED92FD920C93089583
:10227000502F2D2D3E2D4F2D612F08952DEC3CEC30
:102280004CEC5DE366270FC099DFF2DFDD24EE241E
:1022900090E8F92E0FE307C096DF05C02227332709
:1022A00040E251E46627552351F1002381F190DF8C
:1022B00071F11627005850580894050B18F407FDC3
:1022C00003C025C007FD23C0469537952795F69492
:1022D000E794D79422D0FF202AF0DD0CEE1CFF1CDF
:1022E000015073F09D2D969548F0DD203AF4EE20D4
:1022F0002AF491E0D90E9927E91EF91E7BCF07C079
:102300009FE7092FF92A9FEFD92EE92E0895DD24A2
:10231000EE24FF240027112708959F929924AA24D0
:10232000BB2488E1D216E306F40628F0D21AE30AA9
:10233000F40A089401C08894991CAA1CBB1CDD0CEB
:10234000EE1CFF1C8A9571F7D92CEA2CFB2C9F9070
:1023500008953EDFE1F25038D1F216270058505868
:102360000894051F12F418F4CBCF08F0D0CF0AD090
:10237000FF202AF0BB0CDD1CEE1CFF1C3BCF0F5FC7
:10238000FBF138CF9F929924AA24BB24992788E196
:10239000990CAA1CBB1CDD1CEE1CFF1C30F4920E19
:1023A000A31EB41ED91EE91EF91E8A9589F79F90B7
:1023B000089509DF0DDF503829F090E869270CC037
:1023C0000AF045D017CF5FE322273327442701C007
:1023D000FADEFEDE5038B1F3003899F3902F951BEA
:1023E0008BF312F434D0FACF983118F02227332728
:1023F0004427983028F0232F342F44279850F9CFC2
:10240000992329F04695379527959A95D9F7912FD5
:10241000962742F014D0B0F6F794E794D7940F5F64
:102420008BF66ECF10D051F008F4BEDEFF2052F2D2
:10243000DD0CEE1CFF1C0150CBF762CF68CFD20E33
:10244000E31EF41E0895D21AE30AF40A0895DF92F7
:10245000EF92FF920F931F93D22EE32EF42E052FAF
:10246000162F6F915F914F913F912F910895C895CD
:10247000319600200895FBDFD02CF9DFE02CF7DF48
:10248000F02CF5DF002D0895F2DF202DF0DF302D48
:10249000EEDF402DECDF502D089507FB00680EF4B1
:1024A0000F7757FB50680EF45F7707FD02C057FFA8
:1024B00005C0D216E306F406050708952D153E055E
:1024C0004F055007089500240D280E280F28002AD4
:1024D0000020089591E005C092E003C094E001C09F
:1024E00098E0C5DF0D929A95E1F70895040F151F46
:1024F000261F371F0895041B150B260B370B089555
:102500000417150726073707089594E081918D93E6
:102510009A95E1F70895F999FECFE1BDF2BD3196A4
:10252000089591E001C092E07B3751F47FB7F894B1
:10253000F2DF8D9180BDFA9AF99A9A95C9F77FBF1B
:102540007727089591E001C092E0E5DFF89A80B521
:102550008D939A95D1F7089531DE3ADE0395AAF06E
:1025600087E1DD0CEE1CFF1C8A9589F00A95CAF7FD
:10257000FF205AF000240D280E280F28002039F0E3
:102580000A95DD0CEE1CFF1CDAF70A9533CEBFCEA0
:10259000BECE14DE0023E2F396DF19F4B1DE00684C
:1025A000089585E0D4D0FF0C001F04830FE7069543
:1025B000F794E0D050680DDF56DE139721E438E73A
:1025C00043ED5BEBC6DE27E831ED43E15DE399D0F7
:1025D0002EE03CE343EC5DEB94D022E83DEA4BE295
:1025E0005EE38FD02CEE32E846E75EEB8AD020E93E
:1025F00031EE49EA5EE385D020E83FEE4FEF5EEB37
:1026000080D024EC3FEF4FE75FE37BD02CDE1397C5
:1026100084818F5799F02AF4D82E0FEFE02EF02EF8
:1026200004C0D82EEE24FF240027ECDD28E132E799
:1026300041E35FE38EDEC7DD3497CBDE95C060DE1D
:1026400093C0BCDD86E083D005830F772BE33AEAA5
:1026500048EB5FE37EDE07DE139741D028F48581E7
:1026600088236AF754DE80C08F778483A7DD349790
:1026700074DFF9DD139723E632E446E357EB69DEB6
:1026800029ED37EA4AE159E33CD026E538E14EEA44
:102690005AEB37D026E53CE84DE15CE332D02DEC37
:1026A00037E543E65DEB2DD02DEE3DEF45E75EE3EC
:1026B00028D028E132E741E35FEB23D05BD089DE0D
:1026C000D7DDDD24EE24FF2404818FE7080F069573
:1026D000F794E9DD8581881F08F4D7DD45C078DDF2
:1026E0008827039512F48894089507301AF0812FF3
:1026F00008940895FF1C881F0A95E2F7812B88949F
:10270000089567DE60DD349724CEDDDE81F00F931F
:102710000F772F933F934F935F933CDF5F914F91E0
:102720003F912F9116DE8EDF8F918078082B0895D0
:1027300045DD0F93AF93BF930F772CDFFF91EF91A0
:1027400042DD07DE7FDF8F918078082B08950FB67A
:10275000F8944A925A92E42DF52DA42DB52D480EE9
:102760008827581E0FBE08950FB6F89459904990C7
:102770000FBE08955FE340E833272227089585EBD5
:10278000913F0000803F0080F4430000C8420000F9
:1027900000000000003F42E0654200007A44000073
:1027A0007042A4707D3F295C8F3D000000406F1295
:1027B000033B0AD7233D0080EE4300A0F045000014
:0E27C0004040000048430000FA4300504348E8
:00000001FF
