:100000000C94340018950000189500000C94DB0344
:10001000189500001895000018950000189500002C
:10002000189500001895000018950000189500001C
:10003000189500001895000018950000189500000C
:1000400018950000189500001895000018950000FC
:1000500018950000189500001895000018950000EC
:1000600018950000189500008FEF8DBFC0EEE6ECEC
:100070004E2E84E08EBFD4E0F4E05F2EEEEFF3E08E
:10008000A0E0B1E088278D933197E9F766248FEFE0
:100090008AB980E084B987E080937A0080E4809315
:1000A0007C0078948091680081608093680089E189
:1000B00080936B0084E085BD80E084BD80E0809308
:1000C000800083E08093810086E08093B10080E02F
:1000D0008093B00084E085BD83E08093810086E05A
:1000E0008093B10080916E008E7F80936E0080912E
:1000F0006F008E7F80936F00809170008E7F809361
:10010000700081E08093000170917A0070687093B4
:100110007A0000910001013011F00C94CF03A1E4AA
:10012000B1E00D911C910A3550E0150780E00CF408
:1001300081E08F93A1E4B1E00D911C91083C50E067
:10014000150780E014F009F081E09F91892B882346
:1001500011F40C94B0005D9A0E94CF030C948F00B0
:10016000F894AFE3B1E00D911C91083750E015070A
:100170001CF011F00C94BE000C94C60081E090E0DD
:10018000ADE0B1E08D939C930C94CA00ADE0B1E07A
:100190000E949106AFE3B1E00D911C91093650E049
:1001A00015070CF402C00C94DD0081E090E0AFE094
:1001B000B1E08D939C930C94E100AFE0B1E00E941C
:1001C000910684E4806480937C000E94C304A5E0CF
:1001D000B1E08D939C93E5E0F1E0D190E080FF24C5
:1001E00000270E943305A7E0B1E00E946405EAE51C
:1001F000FFE00E947506E7E0F1E00E940F050E9413
:100200000B06FF27EDE0A7E0B1E00E94A306EEE5B4
:10021000FFE00E947506E7E0F1E00E940F050E94F2
:10022000DA05FF27EDE0A1E3B1E00E94A306A5E314
:10023000B1E0E2E6FFE00E948906E5E3F1E00E941A
:100240001405E1E3F1E00E940F050E948405FF27F9
:10025000EDE0A5E3B1E00E94A306EEE5FFE00E9419
:100260007506E5E3F1E00E940F050E948207FF2773
:10027000EDE0A5E3B1E00E94A306E6E6FFE00E9400
:100280007506E5E3F1E00E940F050E94DA05FF27FD
:10029000EDE0A5E3B1E00E94A306EAE6FFE00E94DC
:1002A0007506E5E3F1E00E940F050E948405FF2733
:1002B000EDE0A5E1B1E00E94A306E5E1F1E00E94D6
:1002C0001405EEE6FFE00E946C060E948405FF27FD
:1002D000EDE0A5E1B1E00E94A306E6E6FFE00E94A2
:1002E0007506E5E1F1E00E940F050E94DA05FF279F
:1002F000EDE0A5E1B1E00E94A306ABE0B1E00D9115
:100300001C91013050E0150711F00C948F0182E030
:1003100090E0ABE0B1E08D939C930C94950181E06B
:1003200090E0ABE0B1E08D939C93E2E7FFE00E94A8
:100330007506E5E1F1E00E940F050E948405FF27A4
:10034000EDE0ADE1B1E00E94A306EDE3F1E0D19074
:10035000E0808FEFE7FE8827F82E082F0E943305F4
:100360000E946905E6E7FFE00E946C060E940B060A
:10037000FF27EDE0A9E3B1E00E94A306EDE1F1E083
:100380000E941405E9E3F1E00E940F050E94DA05DE
:10039000FF27EDE0A9E3B1E00E94A306EAE7FFE052
:1003A0000E947506E9E3F1E00E940F050E948405B2
:1003B000FF27EDE0A9E3B1E00E94A306E9E3F1E045
:1003C0000E941405EDE1F1E00E940F050E941A065B
:1003D000FF27EDE0ADE1B1E00E94A306EDE1F1E021
:1003E0000E94D104A1E2B1E0EDE0FF270E94A30644
:1003F000A5E2B1E0EEE7FFE00E948906E2E8FFE057
:100400000E947506E5E1F1E00E940F050E94840557
:10041000FF27EDE00E94D104A9E2B1E0EDE0FF2763
:100420000E94A30681E090E0A1E1B1E08D939C934E
:10043000A1E2B1E08D919C91A3E1B1E08D939C93F9
:100440007894ADE2B1E00E949306A1E0B1E0EEE75E
:10045000FFE00E948906A1E2B1E04D915D916D91AE
:100460007C91A1E0B1E00D911D912D913C910E94F4
:100470009E061CF011F00C94F9020E94D203ADE22A
:10048000B1E00D911D912D913C9141E050E060E073
:1004900070E00E949906ADE2B1E00D931D932D939B
:1004A0003D93A1E1B1E04D915D9157FB1EF46FEFDB
:1004B0007FEF02C066277727A1E0B1E00D911D9183
:1004C0002D913C910E949E0680E00CF081E08F937C
:1004D000A3E1B1E04D915D9157FB1EF46FEF7FEF0B
:1004E00002C066277727A1E0B1E00D911D912D9103
:1004F0003C910E949E0680E00CF481E09F9189234C
:10050000882311F40C94AC02ABE0B1E00D911C9186
:10051000013050E0150711F00C9492020E94D503AF
:100520000C9494020E94D803ADE0B1E00D911C91AF
:10053000013050E0150711F00C94A0020E94D50381
:10054000AFE0B1E00D911C91013050E0150711F0C2
:100550000C94AC020E94D803A3E1B1E04D915D91EF
:1005600057FB1EF46FEF7FEF02C066277727A1E0ED
:10057000B1E00D911D912D913C910E949E060CF0D1
:1005800002C00C94C5020E94D203A5E2B1E04D91D5
:100590005D916D917C91ADE2B1E00D911D912D9138
:1005A0003C910E949E061CF011F00C94D9020C9410
:1005B000DA025D9AA9E2B1E04D915D916D917C9175
:1005C000ADE2B1E00D911D912D913C910E949E06EE
:1005D0001CF011F00C94EE020C94EF025D9881E097
:1005E00090E00E94B404A1E0B1E00E949C040C944D
:1005F0002B02A1E0B1E0EEE7FFE00E948906A1E254
:10060000B1E04D915D916D917C91A1E0B1E00D91D2
:100610001D912D913C910E949E061CF011F00C94AE
:10062000CD030E94D203ADE2B1E00D911D912D9159
:100630003C9141E050E060E070E00E949906ADE23C
:10064000B1E00D931D932D933D93A1E1B1E04D9148
:100650005D9157FB1EF46FEF7FEF02C0662777278F
:10066000A1E0B1E00D911D912D913C910E949E065B
:1006700080E00CF081E08F93A3E1B1E04D915D91BA
:1006800057FB1EF46FEF7FEF02C066277727A1E0CC
:10069000B1E00D911D912D913C910E949E0680E04C
:1006A0000CF481E09F918923882311F40C9480033A
:1006B000ABE0B1E00D911C91013050E0150711F055
:1006C0000C9466030E94D8030C9468030E94D5031F
:1006D000ADE0B1E00D911C91013050E0150711F033
:1006E0000C9474030E94D803AFE0B1E00D911C910B
:1006F000013050E0150711F00C9480030E94D503DF
:10070000A3E1B1E04D915D9157FB1EF46FEF7FEFD8
:1007100002C066277727A1E0B1E00D911D912D91D0
:100720003C910E949E060CF002C00C9499030E941A
:10073000D203A5E2B1E04D915D916D917C91ADE266
:10074000B1E00D911D912D913C910E949E061CF0EF
:1007500011F00C94AD030C94AE035D9AA9E2B1E0E4
:100760004D915D916D917C91ADE2B1E00D911D9146
:100770002D913C910E949E061CF011F00C94C20336
:100780000C94C3035D9881E090E00E94B404A1E062
:10079000B1E00E949C040C94FF020C9489005A98CA
:1007A0005C9808955A9A5C9A08955A9A5C980895AC
:1007B0005A985C9A08950F921F922F923F924F92EF
:1007C0005F927F92AF92BF920F931F932F933F93AD
:1007D0004F935F936F937F938F939F93AF93BF9349
:1007E000CF93DF93EF93FF938FB78F930027BB27B0
:1007F000A3E28C9184FB0EF401E04427A3E4B1E072
:100800008C9186FB0EF44395041711F40C94180494
:100810001C990C941504A6E4B0E08C91AFE3B1E010
:100820008D9388278C930C94180480E08093460065
:100830000027BB27A3E28C9183FB0EF401E0442741
:10084000A3E4B1E08C9185FB0EF44395041711F4F9
:100850000C943D041B990C943704A4E8B0E08D91EE
:100860009C91ADE3B1E08D939C930C943D0480E0AA
:1008700090E090938500809384000027BB27A3E23B
:100880008C9180FB0EF401E04427A3E4B1E08C914D
:1008900087FB0EF44395041711F40C946504189922
:1008A0000C9462040091B200083C10F00C946004B7
:1008B000A2EBB0E08C91A1E4B1E08D9388278C93FA
:1008C0000C94650480E08093B200BB27A3E28C9176
:1008D00080FBA3E4B1E08C9187F98C93BB27A3E262
:1008E0008C9184FBA3E4B1E08C9186F98C93BB27B7
:1008F000A3E28C9183FBA3E4B1E08C9185F98C9306
:100900008F918FBFFF91EF91DF91CF91BF91AF9109
:100910009F918F917F916F915F914F913F912F9117
:100920001F910F91BF90AF907F905F904F903F903D
:100930002F901F900F9018950D911D912D913C9126
:1009400081E0080F8827181F281F381F3C932E931B
:100950001E930E9308953197F1F70895689462F805
:100960000895E89462F80895EF93FF93EE27E82B3B
:10097000E92B31F0E8E8F3E13197F1F70197D1F78E
:10098000FF91EF91089580917A00806C80937A00B6
:1009900080917A0086FDFCCF80917800909179005B
:1009A00008953DD0992711278F2D880F80E8F82AC8
:1009B000802F881F08F41FEF41F08F57082F07FD85
:1009C00004C0003240F08FEF01C08827982FD82E46
:1009D000E82EF82E09C08FE1801B082FF694E794CB
:1009E000D79497950A95D1F7112351F09095D0940B
:1009F000E094F09481E0980F8827D81EE81EF81E36
:100A00000F2DFE2CED2CD92E0895D094E094F09467
:100A100091E0D90E9927E91EF91E10950895D190FD
:100A2000E190F1900191089521913191419151917D
:100A30000895102F90E8FF0C001F0927990FF794D5
:100A40001078652F90E8440F551F5927990F479547
:100A5000607800380895FF0C90E89027110F979563
:100A6000F794092F0895102FBD2CDE2CEF2CF02EBB
:100A700011234AF4B094D094E094F0949FEFB91A03
:100A8000D90AE90AF90A0EE1FF2039F4FE2CED2C0F
:100A9000DB2CBB240850C2F76BC032F00A95BB0CAC
:100AA000DD1CEE1CFF1CF9CF01D0D5CFB7FE089599
:100AB00090E8B91611F4D0FE08959FEFD91AE90A0B
:100AC000F90A09F403950895DD92ED92FD920C93D5
:100AD0000895502F2D2D3E2D4F2D612F08952DEC73
:100AE0003CEC4CEC5DE366270FC099DFF2DFDD24C0
:100AF000EE2490E8F92E0FE307C096DF05C0222709
:100B0000332740E251E46627552351F1002381F158
:100B100090DF71F11627005850580894050B18F40F
:100B200007FD03C025C007FD23C0469537952795CF
:100B3000F694E794D79422D0FF202AF0DD0CEE1C27
:100B4000FF1C015073F09D2D969548F0DD203AF47E
:100B5000EE202AF491E0D90E9927E91EF91E7BCFE9
:100B600007C09FE7092FF92A9FEFD92EE92E089594
:100B7000DD24EE24FF240027112708959F92992455
:100B8000AA24BB2488E1D216E306F40628F0D21A80
:100B9000E30AF40A089401C08894991CAA1CBB1C9F
:100BA000DD0CEE1CFF1C8A9571F7D92CEA2CFB2C6E
:100BB0009F9008953EDFE1F25038D1F21627005899
:100BC00050580894051F12F418F4CBCF08F0D0CF7A
:100BD0000AD0FF202AF0BB0CDD1CEE1CFF1C3BCF13
:100BE0000F5FFBF138CF9F929924AA24BB24992749
:100BF00088E1990CAA1CBB1CDD1CEE1CFF1C30F408
:100C0000920EA31EB41ED91EE91EF91E8A9589F7FD
:100C10009F90089509DF0DDF503829F090E869278B
:100C20000CC00AF045D017CF5FE3222733274427B3
:100C300001C0FADEFEDE5038B1F3003899F3902F90
:100C4000951B8BF312F434D0FACF983118F0222789
:100C500033274427983028F0232F342F44279850E7
:100C6000F9CF992329F04695379527959A95D9F785
:100C7000912F962742F014D0B0F6F794E794D794CA
:100C80000F5F8BF66ECF10D051F008F4BEDEFF2060
:100C900052F2DD0CEE1CFF1C0150CBF762CF68CF87
:100CA000D20EE31EF41E0895D21AE30AF40A089540
:100CB000DF92EF92FF920F931F93D22EE32EF42E2A
:100CC000052F162F6F915F914F913F912F910895AE
:100CD000C895319600200895FBDFD02CF9DFE02C79
:100CE000F7DFF02CF5DF002D0895F2DF202DF0DF87
:100CF000302DEEDF402DECDF502D089500240D281F
:100D00000E280F28002A0020089591E005C092E0E7
:100D100003C094E001C098E0DBDF0D929A95E1F703
:100D2000089582E001C084E099279D938A95E9F7B0
:100D30000895040F151F261F371F08950417150760
:100D400026073707089594E081918D939A95E1F7EE
:100D5000089565DE6EDE0395AAF087E1DD0CEE1CDA
:100D6000FF1C8A9589F00A95CAF7FF205AF00024E3
:100D70000D280E280F28002039F00A95DD0CEE1CF6
:100D8000FF1CDAF70A9567CEF3CEF2CE48DE0023D9
:100D9000E2F3B4DF19F4E5DE0068089585E0C5D01C
:100DA000FF0C001F04830FE70695F794D1D050681D
:100DB00041DF8ADE139721E438E743ED5BEBFADE8F
:100DC00027E831ED43E15DE399D02EE03CE343ECCD
:100DD0005DEB94D022E83DEA4BE25EE38FD02CEE4F
:100DE00032E846E75EEB8AD020E931EE49EA5EE37D
:100DF00085D020E83FEE4FEF5EEB80D024EC3FEF54
:100E00004FE75FE37BD060DE139784818F5799F0C3
:100E10002AF4D82E0FEFE02EF02E04C0D82EEE24A8
:100E2000FF24002720DE28E132E741E35FE3C2DE52
:100E3000FBDD3497FFDE86C094DE84C0F0DD86E003
:100E400074D005830F772BE33AEA48EB5FE3B2DE19
:100E50003BDE139741D028F4858188236AF788DE2A
:100E600071C08F778483DBDD349774DF2DDE1397B9
:100E700023E632E446E357EB9DDE29ED37EA4AE10B
:100E800059E33CD026E538E14EEA5AEB37D026E567
:100E90003CE84DE15CE332D02DEC37E543E65DEB19
:100EA0002DD02DEE3DEF45E75EE328D028E132E777
:100EB00041E35FEB23D04CD0BDDE0BDEDD24EE241E
:100EC000FF2404818FE7080F0695F7941DDE8581C6
:100ED000881F08F40BDE36C0ACDD8827039512F4BA
:100EE0008894089507301AF0812F08940895FF1C04
:100EF000881F0A95E2F7812B889408959BDE94DD84
:100F0000349758CEFBDE81F00F930F772F933F93EA
:100F10004F935F933CDF5F914F913F912F914ADE5A
:100F20008EDF8F918078082B08950FB6F8944A923F
:100F30005A92E42DF52DA42DB52D480E8827581E64
:100F40000FBE08950FB6F894599049900FBE0895BA
:100F50005FE340E833272227089500C013440000D0
:100F6000003F0AB7854200007A440000704200004A
:100F7000803F000000400080EE4300C00F450100AC
:060F8000000000004040EB
:00000001FF
