:100000000C9462000C948A000C948A000C941901E0
:100010000C943E010C9463010C948A000C948A00A9
:100020000C948A000C948A000C948A000C948A0028
:100030000C948A000C9488010C948A000C948A0019
:100040000C943A0F0C948A000C948A000C948A0049
:100050000C948A000C948A000C948A000C948A00F8
:100060000C948A000C948A000000000024002700F1
:100070002A0000000000250028002B0000000000DE
:1000800023002600290004040404040404040202DA
:100090000202020203030303030301020408102007
:1000A0004080010204081020010204081020000012
:1000B0000007000201000003040600000000000029
:1000C0000000920111241FBECFEFD4E0DEBFCDBFF0
:1000D00011E0A0E0B1E0E2E0F8E202C005900D928C
:1000E000A235B107D9F712E0A2E5B1E001C01D9237
:1000F000AB32B107E1F710E0C4ECD0E004C02297C6
:10010000FE010E94FB13C23CD107C9F70E94330FC6
:100110000C94FF130C940000282F482F50E0CA01C4
:1001200086569F4FFC0134914A575F4FFA01449124
:10013000442341F1425050E0FA01EE0FFF1FE0501E
:10014000FF4FA081B181CA0153E0880F991F5A95D2
:10015000E1F72770280FE22FF0E0EE0FFF1FE151CB
:10016000FE4F718360838C91832B8C932091680068
:1001700081E090E002C0880F991F4A95E2F7282B92
:10018000209368000895DF92EF92FF920F931F93E0
:10019000CF93DF93282F30E0C901880F991F805833
:1001A0009F4FFC01A591B4918C91F901E451FE4F50
:1001B000908198278083F901EE0FFF1FE050FF4FD9
:1001C0000190F081E02D8081982359F1D22EDD0C31
:1001D000DD0CDD0CC0E0D0E011E0E12EF12C092FA8
:1001E00010E0C7010C2E02C0880F991F0A94E2F795
:1001F00090E080239123892B81F08D2D8C0FE82FA7
:10020000F0E0EE0FFF1FE151FE4F80819181892BBD
:1002100021F00190F081E02D09952196C830D1059B
:1002200001F7DF91CF911F910F91FF90EF90DF9039
:1002300008951F920F920FB60F9211242F933F93A0
:100240004F935F936F937F938F939F93AF93BF93DE
:10025000EF93FF9380E00E94C300FF91EF91BF9165
:10026000AF919F918F917F916F915F914F913F914E
:100270002F910F900FBE0F901F9018951F920F9205
:100280000FB60F9211242F933F934F935F936F9369
:100290007F938F939F93AF93BF93EF93FF9381E0EF
:1002A0000E94C300FF91EF91BF91AF919F918F91F9
:1002B0007F916F915F914F913F912F910F900FBE62
:1002C0000F901F9018951F920F920FB60F92112446
:1002D0002F933F934F935F936F937F938F939F934E
:1002E000AF93BF93EF93FF9382E00E94C300FF910F
:1002F000EF91BF91AF919F918F917F916F915F919E
:100300004F913F912F910F900FBE0F901F90189516
:100310001F920F920FB60F9211240F900FBE0F90E5
:100320001F9018958091360190913701A091380166
:10033000B09139018093E6019093E701A093E80121
:10034000B093E9010895809144010E94A71001979C
:1003500041F480918400909185009093E301809313
:10036000E201809144010E94A710892BC1F42091E1
:10037000E2013091E3012115310589F0809184007B
:10038000909185002817390750F48091840090914E
:100390008500821B930B9093CB018093CA018091BF
:1003A00044010E94A7109093DB018093DA01089525
:1003B000809142010E94A710019741F4809184002E
:1003C000909185009093DF018093DE01809142013E
:1003D0000E94A710892BC1F42091DE013091DF012A
:1003E0002115310589F080918400909185002817AE
:1003F000390750F48091840090918500821B930B03
:100400009093CD018093CC01809142010E94A7106E
:100410009093D7018093D6010895809140010E9466
:10042000A710019741F480918400909185009093EA
:10043000E1018093E001809140010E94A710892B87
:10044000C1F42091E0013091E1012115310589F0DD
:1004500080918400909185002817390750F480918D
:10046000840090918500821B930B9093C901809327
:10047000C801809140010E94A7109093D9018093F8
:10048000D801089580913E010E94A710019741F480
:1004900080918400909185009093DD018093DC0130
:1004A00080913E010E94A710892BC1F42091DC01AC
:1004B0003091DD012115310589F080918400909102
:1004C00085002817390750F48091840090918500A9
:1004D000821B930B9093CF018093CE0180913E01BC
:1004E0000E94A7109093D5018093D4010895809124
:1004F0004A0160E00E945A1080914C0161E00E9424
:100500005A10089580914A0161E00E945A1080912A
:100510004C0160E00E945A10089580914A0161E008
:100520000E945A1080914C0161E00E945A10089577
:1005300080914A0160E00E945A1080914C0160E075
:100540000E945A1008956F927F928F929F92AF925D
:10055000BF92CF92DF92EF92FF920F931F93CF93B0
:10056000DF930F2EF0E08F2EF0E09F2EF0E8AF2EFD
:10057000FFE3BF2EF02DC1E0D0E0F1E0CF2ED12C73
:10058000E12CF12CFDC10E9498022091C80130910C
:10059000C90180911201909113018217930734F4DD
:1005A00068EC70E080E090E00E94AA0F2091C80102
:1005B0003091C901809110019091110128173907DC
:1005C00034F468EC70E080E090E00E94AA0F209183
:1005D000CC013091CD0180910C0190910D01281733
:1005E00039070CF088C080916C0190916D01892BC6
:1005F00009F081C08091480160E00E945A1064EFC8
:1006000071E080E090E00E94AA0F809256019092E3
:100610005701A0925801B092590147C080914801FA
:1006200061E00E945A1064E670E080E090E00E9471
:10063000AA0F8091480160E00E945A106CE271E0BC
:1006400080E090E00E94AA0F2091CE013091CF016E
:1006500080910601909107012817390784F0809155
:10066000BC019091BD01A091BE01B091BF018093EA
:10067000560190935701A0935801B093590160918E
:10068000560170915701809158019091590120E0D5
:1006900030E048EC52E40E94F710609356017093EA
:1006A00057018093580190935901609156017091C0
:1006B000570180915801909159012091BC013091CE
:1006C000BD014091BE015091BF010E945B111816FF
:1006D0000CF0A4CF2091CE013091CF018091060182
:1006E000909107012817390734F460ED77E080E036
:1006F00090E00E94AA0F2091CC013091CD01809111
:100700000A0190910B01821793070CF048C02091C9
:10071000C8013091C901809114019091150182178F
:100720009307ECF568E775E080E090E00E94AA0F7F
:100730002091CC013091CD0180910A0190910B0163
:100740008217930764F52091C8013091C901809107
:10075000140190911501821793070CF580916C019B
:1007600090916D01892B89F4D0936D01C0936C0138
:1007700080914E010E941C1090935B0180935A015E
:1007800090933B0180933A0104C010926D01109246
:100790006C0164EF71E080E090E00E94AA0F20916C
:1007A000CC013091CD0180910C0190910D01281761
:1007B00039070CF083C02091C8013091C9018091A4
:1007C000160190911701281739070CF077C0809116
:1007D0006C0190916D01019709F070C068E775E0B8
:1007E00080E090E00E94AA0F2091CC013091CD01D1
:1007F00080910C0190910D01281739070CF05EC013
:100800002091C8013091C901809116019091170182
:10081000281739070CF052C080916C0190916D013E
:100820008130910509F04AC09093350180933401DD
:10083000C0925201D0925301E0925401F0925501BE
:1008400025C010914801812F0E94A71060E0892BDC
:1008500009F461E0812F0E945A1064E170E080E0A9
:1008600090E00E94AA0F8091520190915301A091B3
:100870005401B09155010196A11DB11D8093520103
:1008800090935301A0935401B0935501809152016C
:1008900090915301A0915401B09155018734910575
:1008A000A105B10574F28091480160E00E945A10E0
:1008B00068EE73E080E090E00E94AA0F809148010A
:1008C00060E00E945A1062E370E080E090E00E94D5
:1008D000AA0F80916C0190916D01019709F045C0BC
:1008E000C0925201D0925301E0925401F09255010E
:1008F00025C06EE170E080E090E00E94AA0F1091A8
:100900004801812F0E94A71060E0892B09F461E063
:10091000812F0E945A108091520190915301A09111
:100920005401B09155010196A11DB11D8093520152
:1009300090935301A0935401B093550180915201BB
:1009400090915301A0915401B09155010B97A105CD
:10095000B1057CF28091480160E00E945A1066E97E
:1009600070E080E090E00E94AA0F8091480161E071
:100970000E945A1062E370E080E090E00E94AA0FAB
:100980002091CE013091CF01809106019091070115
:10099000281739070CF4F7CD8091080190910901CF
:1009A0008C599F4F821793070CF4EDCD8091640111
:1009B00090916501A0916601B09167010196A11D1A
:1009C000B11D8093640190936501A0936601B0937B
:1009D000670185369105A105B10564F084E690E0D4
:1009E000A0E0B0E08093640190936501A09366015C
:1009F000B09367018091640190916501A0916601B7
:100A0000B09167010697A105B10524F01092CF01BE
:100A10001092CE0180E090E0A0E0B0E08093BC01B5
:100A20009093BD01A093BE01B093BF01F8942091B3
:100A3000CC013091CD0180910A0190910B01821778
:100A400093073CF481E090E09093710180937001F2
:100A500004C010927101109270012091CC0130916C
:100A6000CD0180910C0190910D01281739073CF4BC
:100A700081E090E0909373018093720104C0109222
:100A80007301109272011092790110927801809195
:100A90004E010E941C1090935B0180935A01AA277B
:100AA00097FDA095BA2FBC01CD010E94FA117B01E0
:100AB0008C0160913A0170913B01882777FD809508
:100AC000982F0E94FA119B01AC01C801B7010E9446
:100AD000F61060935C0170935D0180935E019093CA
:100AE0005F01209124013091250140912601509110
:100AF00027010E94AE126093B4017093B5018093F8
:100B0000B6019093B701609120017091210180910D
:100B10002201909123012AE939E943EE51E40E9430
:100B2000AE126093B8017093B9018093BA019093AB
:100B3000BB0120E030E040E050E00E945B118823E0
:100B400061F480E090E0A0E8BFE38093B801909367
:100B5000B901A093BA01B093BB016091B401709147
:100B6000B5018091B6019091B7012091B801309103
:100B7000B9014091BA015091BB010E945F110E94DE
:100B800015139B01AC01CA01B90120E030E04AE72E
:100B900054E40E94AE127B018C016093B801709303
:100BA000B9018093BA019093BB012091BC013091AF
:100BB000BD014091BE015091BF010E94AA121816BA
:100BC00044F4E092BC01F092BD010093BE01109389
:100BD000BF016091B8017091B9018091BA01909103
:100BE000BB0120E030E040E752E40E945F1120E0CA
:100BF00030E040E050E00E945B1180E090E0A0EF28
:100C0000B1E480937A0190937B01A0937C01B0932F
:100C10007D0180916E0190916F01019719F482E03E
:100C200090E002C081E090E090936F0180936E01AC
:100C30008091180190911901892B09F001C18091CF
:100C4000A0019091A101019729F41092A1011092A5
:100C5000A001F6C01092A1011092A0018091E601BE
:100C60009091E701A091E801B091E90180933601EC
:100C700090933701A0933801B09339012091CA01B4
:100C80003091CB0180911401909115010091D00118
:100C90001091D101821793070CF040C0012BE1F4B1
:100CA00060917A0170917B0180917C0190917D012E
:100CB00020E030E040EA5FE30E94AE1260937A01E8
:100CC00070937B0180937C0190937D0181E090E0A3
:100CD0009093A1018093A0018091360190913701FA
:100CE000A0913801B09139014997A109B1098093C8
:100CF000360190933701A0933801B093390181E018
:100D000090E09093D1018093D001909371018093F2
:100D10007001109273011092720121C0013011050F
:100D2000D1F460917A0170917B0180917C01909166
:100D30007D0120E030E040E45FE30E94AE1260936A
:100D40007A0170937B0180937C0190937D011093D5
:100D5000A1010093A0011092D1011092D001209125
:100D6000CA013091CB018091160190911701009139
:100D7000D2011091D301281739070CF040C0012B84
:100D8000E1F460917A0170917B0180917C019091F6
:100D90007D0120E030E040E45FE30E94AE1260930A
:100DA0007A0170937B0180937C0190937D0181E0B7
:100DB00090E09093A1018093A001809136019091E1
:100DC0003701A0913801B09139014996A11DB11D9B
:100DD0008093360190933701A0933801B093390185
:100DE00081E090E09093D3018093D20190937101C0
:100DF00080937001109273011092720121C0013032
:100E00001105D1F460917A0170917B0180917C0190
:100E100090917D0120E030E040EA5FE30E94AE1255
:100E200060937A0170937B0180937C0190937D01A4
:100E30001093A1010093A0011092D3011092D2014E
:100E400080917001909171010197D1F460917A01C4
:100E500070917B0180917C0190917D0120912C010A
:100E600030912D0140912E0150912F010E94AE1220
:100E700060937A0170937B0180937C0190937D0154
:100E800080917201909173010197D1F460917A0180
:100E900070917B0180917C0190917D0120913001C6
:100EA0003091310140913201509133010E94AE12D4
:100EB00060937A0170937B0180937C0190937D0114
:100EC00060917A0170917B0180917C0190917D010C
:100ED000209128013091290140912A0150912B0144
:100EE0000E94F61060937A0170937B0180937C01DD
:100EF00090937D018091360190913701A091380146
:100F0000B0913901181619061A061B0664F08C599F
:100F10009F4FAF4FBF4F8093360190933701A093FF
:100F20003801B09339018091360190913701A09139
:100F30003801B091390185369105A105B10564F0FC
:100F400084569040A040B040809336019093370182
:100F5000A0933801B093390160917A0170917B01BF
:100F600080917C0190917D0120E030E040E05FE3E2
:100F70000E94AE126093820170938301809384017A
:100F8000909385018091CE019091CF018896209118
:100F9000060130910701821B930B62E070E00E9412
:100FA00095137093A3016093A2016536710534F027
:100FB00084E690E09093A3018093A20110928B01AC
:100FC00010928A0120916C0130916D012130310520
:100FD00009F072C08091700190917101892B09F024
:100FE0006BC08091720190917301892B09F064C0EC
:100FF0008091A2019091A301C2970CF05DC0309343
:101000008B0120938A0130937901209378012091FC
:10101000C8013091C901809112019091130182178A
:10102000930744F08091100190911101281739071E
:101030000CF042C0109279011092780160910E017B
:1010400070910F012091C8013091C901621B730B8F
:10105000882777FD8095982F0E94FA1120918201B0
:101060003091830140918401509185010E94AE121C
:1010700020E036EE4AEA59E40E945F117B018C01C0
:101080006093C0017093C1018093C2019093C3012A
:101090006091340170913501882777FD8095982FF4
:1010A0000E94FA11A80197010E94F7100E94C7112F
:1010B000709335016093340140916C0150916D0142
:1010C0004130510509F0A9C08091700190917101E2
:1010D000892B09F0A2C08091720190917301892B34
:1010E00009F09BC08091A2019091A301C2970CF4DA
:1010F00094C050938B0140938A0110927901109211
:1011000078012091C8013091C9018091100190911E
:10111000110128173907BCF48091360190913701ED
:10112000A0913801B09139010196A11DB11D8093A4
:10113000360190933701A0933801B0933901509351
:101140007901409378012091C8013091C9018091C3
:1011500012019091130182179307CCF4809136010C
:1011600090913701A0913801B09139010197A109FF
:10117000B1098093360190933701A0933801B09361
:10118000390181E090E0909379018093780180911A
:10119000360190913701A0913801B09139011816AC
:1011A00019061A061B0664F084E690E0A0E0B0E0A1
:1011B0008093360190933701A0933801B0933901A1
:1011C0008091360190913701A0913801B091390199
:1011D00085369105A105B10564F081E090E0A0E0BD
:1011E000B0E08093360190933701A0933801B0931B
:1011F0003901109273011092720180913601909121
:101200003701A0913801B09139018093E6019093A4
:10121000E701A093E801B093E90180918A019091E0
:101220008B01892B09F04AC02091C8013091C90176
:101230008091120190911301821793073CF08091E5
:1012400010019091110128173907C4F560910E0122
:1012500070910F01621B730B882777FD8095982F83
:101260000E94FA1120918201309183014091840102
:10127000509185010E94AE1220E030E04FE254E42C
:101280000E945F119B01AC016093C0017093C1018A
:101290008093C2019093C301609182017091830198
:1012A00080918401909185010E94F71060938201E2
:1012B00070938301809384019093850180916C01E8
:1012C00090916D01019731F482E390E09093A30136
:1012D0008093A201609182017091830180918401C9
:1012E000909185010E94C7116093860170938701D8
:1012F00080938801909389010E94FA119B01AC01AF
:1013000060918201709183018091840190918501A7
:101310000E94F61020E030E040E251E40E94AE125C
:101320006093C4017093C5018093C6019093C70177
:1013300080E090E0A0E8BFE38093600190936101BA
:10134000A0936201B093630110C0C801B70120E00F
:1013500030E040E85FE30E94F71060936001709313
:1013600061018093620190936301E0906001F090CD
:1013700061010091620110916301C801B7012091E0
:10138000C4013091C5014091C6015091C7010E942E
:101390005B111816D4F68091860190918701A09177
:1013A0008801B0918901855F9140A040B04064F010
:1013B00084EF91E0A0E0B0E08093860190938701F4
:1013C000A0938801B0938901809186019091870153
:1013D000A0918801B09189010597A105B10564F438
:1013E00085E090E0A0E0B0E08093860190938701D3
:1013F000A0938801B0938901609186017091870163
:101400008091880190918901660F771F881F991F2D
:101410000E94FA117B018C0160937A0170937B0129
:1014200080937C0190937D010E94C7113B014C0188
:1014300060937E0170937F0180938001909381017E
:101440006091360170913701809138019091390196
:101450000E94FA11A80197010E94AE120E94C711C2
:1014600024E630E040E050E00E94A81359016A01F0
:1014700020939401309395014093960150939701E6
:10148000C801B70120E030E040E450E40E945F1161
:101490000E94C7116A0D7B1D8C1D9D1D60939801D4
:1014A0007093990180939A0190939B01661577053B
:1014B0008805990564F06619770988099909609388
:1014C00098017093990180939A0190939B012091C8
:1014D00098013091990140919A0150919B01121607
:1014E000130614061506A4F080917E0190917F01E9
:1014F000A0918001B0918101820F931FA41FB51F9D
:101500008093980190939901A0939A01B0939B01C5
:10151000A0907E01B0907F01C0908001D0908101A9
:10152000C601B50154E0660F771F881F991F5A95B1
:10153000D1F76A0D7B1D8C1D9D1D2CE330E040E032
:1015400050E00E94A813C901DA01E0909801F090E0
:10155000990100919A0110919B01E80EF91E0A1F52
:101560001B1FE0928C01F0928D0100938E0110936D
:101570008F01C601B50126E030E040E050E00E9456
:1015800076132CE330E040E050E00E94A813C9013C
:10159000DA018E0D9F1DA01FB11F809390019093C3
:1015A0009101A0939201B0939301EA14FB040C05FE
:1015B0001D0564F0EA18FB080C091D09E0928C0176
:1015C000F0928D0100938E0110938F018091900114
:1015D00090919101A0919201B091930120917E018F
:1015E00030917F01409180015091810182179307D2
:1015F000A407B50764F0821B930BA40BB50B809373
:10160000900190939101A0939201B0939301609106
:101610001E0170911F01882777FD8095982F0E94E9
:10162000FA119B01AC016091B4017091B5018091F8
:10163000B6019091B7010E94AA12181664F4809125
:10164000A2019091A301459734F084E190E090933A
:10165000A3018093A20120913C0130913D01809132
:10166000A2019091A3012817390724F43093A30114
:101670002093A2012091EA013091EB018091A20117
:101680009091A3018217930724F43093A301209330
:10169000A201109269011092680110926B011092E0
:1016A0006A0160911A0170911B01882777FD80956E
:1016B000982F0E94FA119B01AC016091B8017091C2
:1016C000B9018091BA019091BB010E945B118823FE
:1016D00034F481E090E09093690180936801609117
:1016E0001C0170911D01882777FD8095982F0E941D
:1016F000FA119B01AC016091B8017091B901809120
:10170000BA019091BB010E94AA12181634F486E027
:1017100090E09093A3018093A2010091A201109107
:10172000A301033311050CF455C0C1E0D0E0D09300
:101730007901C0937801C0908601D0908701E09034
:101740008801F0908901C701B60129E130E040E04D
:1017500050E00E9476139801442737FD4095542F9E
:101760000E94A813122F032F2093B0013093B101D0
:101770004093B2015093B301C701B60122E030E0BB
:1017800040E050E00E94A813812F902FB901681B00
:10179000790B7093750160937401280F391F309392
:1017A00077012093760116161706A4F0D0937501E1
:1017B000C09374011092A8011092A9011092AA017D
:1017C0001092AB01C092AC01D092AD01E092AE019B
:1017D000F092AF012091A2013091A3012333310592
:1017E0000CF04CC081E090E09093750180937401FF
:1017F0008091860190918701909377018093760183
:1018000062E370E0621B730B882777FD8095982F49
:10181000E0908601F0908701009188011091890184
:10182000A80197010E94761326E930E040E050E0DD
:101830000E94A8132093A4013093A5014093A60110
:101840005093A7012093A8013093A9014093AA01C6
:101850005093AB018091A4019091A501A091A601A4
:10186000B091A701E81AF90A0A0B1B0BE092AC0130
:10187000F092AD010093AE011093AF018091A001F1
:101880009091A101019781F410928C0110928D0129
:1018900010928E0110928F0110929001109291017E
:1018A0001092920110929301789480916801909126
:1018B00069018130910501F590937701809376015C
:1018C00010927501109274011092A8011092A90152
:1018D0001092AA011092AB0180918601909187012C
:1018E000A0918801B09189018093AC019093AD01E2
:1018F000A093AE01B093AF0110929C0110929D0194
:1019000010929E0110929F0181E090E0A0E0B0E073
:101910008093520190935301A0935401B0935501C9
:10192000C1E0D0E0DDC00E948D0280919C019091C9
:101930009D01A0919E01B0919F010196A11DB11D35
:1019400080939C0190939D01A0939E01B0939F0171
:101950002091520130915301409154015091550111
:101960008091740190917501AA2797FDA095BA2FD7
:10197000281739074A075B07CCF1809176019091CF
:101980007701AA2797FDA095BA2F281739074A078C
:101990005B0764F58091700190917101892BB1F41E
:1019A0008091720190917301892B81F480916E0175
:1019B00090916F01019711F40E94820280916E0153
:1019C00090916F01029711F40E947702809170014B
:1019D00090917101019711F40E948202809172012D
:1019E00090917301019711F40E94770220919C015C
:1019F00030919D0140919E0150919F0180919401F1
:101A000090919501A0919601B091970128173907FF
:101A10004A075B0721F4D093E501C093E4012091CC
:101A20009C0130919D0140919E0150919F018091B8
:101A3000980190919901A0919A01B0919B0128176A
:101A400039074A075B0721F41092E5011092E4017F
:101A50008091A0019091A101019721F41092E501DC
:101A60001092E4018091E4019091E5010197B1F4B5
:101A70008091780190917901019759F41091480172
:101A8000812F0E94A71060E0892B09F461E0812F6B
:101A900003C08091480161E00E945A108091E401E6
:101AA0009091E501892B29F48091480160E00E9422
:101AB0005A1082EE94E00E94D40F809152019091CE
:101AC0005301A0915401B09155010196A11DB11D82
:101AD0008093520190935301A0935401B093550108
:101AE0002091520130915301409154015091550180
:101AF0008091860190918701A0918801B091890120
:101B000082179307A407B5070CF00DCF80E090E093
:101B1000A0E8BFE38093600190936101A09362010C
:101B2000B093630110C0C801B70120E030E040E885
:101B30005FE30E94F71060936001709361018093EE
:101B4000620190936301E0906001F0906101009167
:101B5000620110916301C801B7012091C401309165
:101B6000C5014091C6015091C7010E945B1187FDDC
:101B7000DACF81E090E0A0E0B0E080935201909352
:101B80005301A0935401B0935501C1E0D0E0AFC020
:101B900080919C0190919D01A0919E01B0919F0127
:101BA0000196A11DB11D80939C0190939D01A0936E
:101BB0009E01B0939F018091740190917501AA27B5
:101BC00097FDA095BA2F281739074A075B07ACF095
:101BD0008091760190917701AA2797FDA095BA2F61
:101BE000281739074A075B0744F4D0937101C09363
:101BF0007001D0937301C093720120919C013091C8
:101C00009D0140919E0150919F018091940190917E
:101C10009501A0919601B0919701281739074A07BD
:101C20005B0721F4D093E501C093E40120919C016E
:101C300030919D0140919E0150919F0180919801AA
:101C400090919901A0919A01B0919B0128173907B1
:101C50004A075B0721F41092E5011092E40180919C
:101C6000A0019091A101019721F41092E501109239
:101C7000E4018091E4019091E5010197B1F4809134
:101C8000780190917901019759F410914801812FC1
:101C90000E94A71060E0892B09F461E0812F03C046
:101CA0008091480161E00E945A108091E401909176
:101CB000E501892B29F48091480160E00E945A10C7
:101CC00082EE94E00E94D40F8091520190915301D2
:101CD000A0915401B09155010196A11DB11D8093B1
:101CE000520190935301A0935401B0935501209158
:101CF000520130915301409154015091550180910E
:101D0000860190918701A0918801B0918901821785
:101D10009307A407B5070CF03BCFDF91CF911F913C
:101D20000F91FF90EF90DF90CF90BF90AF909F907A
:101D30008F907F906F9008951F9380913E0160E097
:101D40000E943A108091400160E00E943A10809118
:101D5000420160E00E943A108091440160E00E94DC
:101D60003A1080914E0160E00E943A108091460145
:101D700061E00E943A108091480161E00E943A10AF
:101D800080914A0161E00E943A1080914C0161E02B
:101D90000E943A108091480161E00E945A1080919F
:101DA000460161E00E945A1080913E0162E472E0B7
:101DB0000E948C00809140016DE072E00E948C00D6
:101DC0008091420168ED71E00E948C008091440195
:101DD00063EA71E00E948C001092800083E080939F
:101DE000810010926D0110926C010E949802109275
:101DF000CF011092CE0181E090E0A0E0B0E01DC0E4
:101E000010914801812F0E94A71060E0892B09F4EE
:101E100061E0812F0E945A1064E170E080E090E060
:101E20000E94AA0F8091520190915301A0915401F8
:101E3000B09155010196A11DB11D8093520190935F
:101E40005301A0935401B093550180915201909198
:101E50005301A0915401B09155014597A105B105D9
:101E60007CF21F9108950E94E20F0E949C0E0E9436
:101E7000A302FDCF1F920F920FB60F9211242F9342
:101E80008F939F93AF93BF9380911F0290912002F5
:101E9000A0912102B09122020196A11DB11D809353
:101EA0001F0290932002A0932102B09322028091FE
:101EB000230290912402A0912502B0912602805025
:101EC000904CAF4FBF4F8093230290932402A09376
:101ED0002502B093260227C080912302909124020C
:101EE000A0912502B091260280529E44A040B040AD
:101EF0008093230290932402A0932502B09326029C
:101F00008091270290912802A0912902B0912A0283
:101F10000196A11DB11D8093270290932802A093E2
:101F20002902B0932A028091230290912402A09169
:101F30002502B091260281529E44A040B04060F636
:101F4000BF91AF919F918F912F910F900FBE0F90E6
:101F50001F901895EF92FF920F931F937B018C01B6
:101F60008FB7F8944091270250912802609129027E
:101F700070912A028FBF2FB7F89480912702909119
:101F80002802A0912902B0912A022FBF841B950B31
:101F9000A60BB70BE816F9060A071B0760F71F9197
:101FA0000F91FF90EF900895019759F0FC01EE0F0B
:101FB000FF1FEE0FFF1F32978FB7F8943197F1F79D
:101FC0008FBF0895789484B5826084BD84B58160A4
:101FD00084BD85B5826085BD85B5816085BDEEE631
:101FE000F0E0808181608083E1E8F0E080818260C0
:101FF0008083808181608083E0E8F0E0808181607F
:102000008083E1EBF0E0808184608083E0EBF0E0AE
:10201000808181608083EAE7F0E080818460808352
:1020200080818260808380818160808380818068FC
:1020300080831092C100089587709091500192950D
:10204000990F990F907C982B90937C0080917A0047
:10205000806480937A0080917A0086FDFCCF209185
:10206000780040917900942F80E030E0282B392BC4
:10207000C9010895282F30E0C90186569F4FFC0101
:1020800094912A573F4FF9018491882391F0E82FCA
:10209000F0E0EE0FFF1FE859FF4FA591B4916623C2
:1020A00029F48C91909589238C9308958C91892B98
:1020B0008C930895482F50E0CA0182559F4FFC0130
:1020C0002491CA0186569F4FFC0194914A575F4F55
:1020D000FA0134913323D1F1222331F1233021F459
:1020E000809180008F7705C0243031F4809180008A
:1020F0008F7D8093800018C0213019F484B58F77CC
:1021000004C0223021F484B58F7D84BD0DC02630FB
:1021100021F48091B0008F7705C0273029F4809199
:10212000B0008F7D8093B000E32FF0E0EE0FFF1F33
:10213000EE58FF4FA591B491662329F48C919095A8
:1021400089238C9308958C91892B8C930895682F03
:1021500070E0CB0182559F4FFC012491CB01865644
:102160009F4FFC0144916A577F4FFB019491992343
:1021700019F420E030E038C0222331F1233021F47B
:10218000809180008F7705C0243031F480918000E9
:102190008F7D8093800018C0213019F484B58F772B
:1021A00004C0223021F484B58F7D84BD0DC026305B
:1021B00021F48091B0008F7705C0273029F48091F9
:1021C000B0008F7D8093B000892F90E0880F991F19
:1021D00084589F4FFC01A591B4918C9120E030E090
:1021E000842311F021E030E0C90108955058BB2745
:1021F000AA270ED075C166D130F06BD120F031F432
:102200009F3F11F41EF45BC10EF4E095E7FB51C152
:10221000E92F77D180F3BA17620773078407950710
:1022200018F071F49EF58FC10EF4E0950B2EBA2FC5
:10223000A02D0B01B90190010C01CA01A0011124CC
:10224000FF27591B99F0593F50F4503E68F11A1678
:10225000F040A22F232F342F4427585FF3CF469509
:1022600037952795A795F0405395C9F77EF41F162B
:10227000BA0B620B730B840BBAF09150A1F0FF0FF5
:10228000BB1F661F771F881FC2F70EC0BA0F621FE1
:10229000731F841F48F4879577956795B795F795D1
:1022A0009E3F08F0B3CF9395880F08F09927EE0F63
:1022B000979587950895D9D008F481E008950CD0BA
:1022C0000FC107D140F0FED030F021F45F3F19F08C
:1022D000F0C0511139C1F3C014D198F39923C9F357
:1022E0005523B1F3951B550BBB27AA27621773071C
:1022F000840738F09F5F5F4F220F331F441FAA1FD0
:10230000A9F333D00E2E3AF0E0E830D0915050408F
:10231000E695001CCAF729D0FE2F27D0660F771F3D
:10232000881FBB1F261737074807AB07B0E809F01F
:10233000BB0B802DBF01FF2793585F4F2AF09E3FB4
:10234000510568F0B6C000C15F3FECF3983EDCF386
:10235000869577956795B795F7959F5FC9F7880F2D
:10236000911D9695879597F90895E1E0660F771F7F
:10237000881FBB1F621773078407BA0720F0621B10
:10238000730B840BBA0BEE1F88F7E095089504D009
:102390006894B111D9C00895BCD088F09F5790F0CF
:1023A000B92F9927B751A0F0D1F0660F771F881F7A
:1023B000991F1AF0BA95C9F712C0B13081F0C3D095
:1023C000B1E00895C0C0672F782F8827B85F39F033
:1023D000B93FCCF3869577956795B395D9F73EF4D9
:1023E00090958095709561957F4F8F4F9F4F089581
:1023F000E89409C097FB3EF490958095709561959F
:102400007F4F8F4F9F4F9923A9F0F92F96E9BB2754
:102410009395F695879577956795B795F111F8CFD0
:10242000FAF4BB0F11F460FF1BC06F5F7F4F8F4F3B
:102430009F4F16C0882311F096E911C0772321F031
:102440009EE8872F762F05C0662371F096E8862FC9
:1024500070E060E02AF09A95660F771F881FDAF720
:10246000880F9695879597F90895990F0008550F4D
:10247000AA0BE0E8FEEF16161706E807F907C0F00A
:1024800012161306E407F50798F0621B730B840B12
:10249000950B39F40A2661F0232B242B252B21F4EC
:1024A00008950A2609F4A140A6958FEF811D811D8C
:1024B000089597F99F6780E870E060E008959FEFC6
:1024C00080EC089500240A941616170618060906CB
:1024D000089500240A94121613061406050608959A
:1024E000092E0394000C11F4882352F0BB0F40F422
:1024F000BF2B11F460FF04C06F5F7F4F8F4F9F4F62
:10250000089557FD9058440F551F59F05F3F71F0E3
:102510004795880F97FB991F61F09F3F79F087954A
:102520000895121613061406551FF2CF4695F1DFD3
:1025300008C0161617061806991FF1CF8695710563
:10254000610508940895E894BB2766277727CB0197
:1025500097F908958ADF08F48FEF08950BD0C0CF64
:10256000B1DF28F0B6DF18F0952309F0A2CFA7CF8E
:102570001124EACFC6DFA0F3959FD1F3950F50E069
:10258000551F629FF001729FBB27F00DB11D639F25
:10259000AA27F00DB11DAA1F649F6627B00DA11DCB
:1025A000661F829F2227B00DA11D621F739FB00D71
:1025B000A11D621F839FA00D611D221F749F3327E1
:1025C000A00D611D231F849F600D211D822F762F7A
:1025D0006A2F11249F5750408AF0E1F088234AF077
:1025E000EE0FFF1FBB1F661F771F881F91505040C3
:1025F000A9F79E3F510570F05CCFA6CF5F3FECF38B
:10260000983EDCF3869577956795B795F795E795AE
:102610009F5FC1F7FE2B880F911D9695879597F9BF
:10262000089511F40EF44BCF4AC073DFD0F3992311
:10263000D9F3CEF39F57550B87FF51D056959795F9
:10264000B0E020F4660F771F881FBB1F1F930F9306
:1026500000249001A0018001F001A0E80E0F1F1FCF
:102660000A1E511D601B710B8009B50B48F4600FE9
:10267000711F801DB51F0E1B1F0B0A0A510907C0D1
:102680002E0F3F1F4A1F0E0F1F1F0A1E511D660FE0
:10269000771F881FBB1FA695F795E795F8F60617D5
:1026A000170708065B07211D311D411D0F911F9162
:1026B000B901842F9158880F9695879508959F3F6B
:1026C00049F0915028F4869577956795B7959F5F67
:1026D00080389F4F880F9695879597F90895915068
:1026E0005040660F771F881FD2F70895629FD00170
:1026F000739FF001829FE00DF11D649FE00DF11DBD
:10270000929FF00D839FF00D749FF00D659FF00D6B
:102710009927729FB00DE11DF91F639FB00DE11D58
:10272000F91FBD01CF011124089597FB092E07263B
:102730000AD077FD04D027D006D000201AF4709577
:1027400061957F4F0895F6F7909581959F4F089575
:1027500097FB092E05260ED057FD04D028D00AD0AD
:10276000001C38F450954095309521953F4F4F4FC0
:102770005F4F0895F6F790958095709561957F4F1E
:102780008F4F9F4F0895AA1BBB1B51E107C0AA1F83
:10279000BB1FA617B70710F0A61BB70B881F991F02
:1027A0005A95A9F780959095BC01CD010895A1E2B5
:1027B0001A2EAA1BBB1BFD010DC0AA1FBB1FEE1FBB
:1027C000FF1FA217B307E407F50720F0A21BB30B06
:1027D000E40BF50B661F771F881F991F1A9469F782
:1027E00060957095809590959B01AC01BD01CF01DE
:1027F0000895EE0FFF1F0590F491E02D0994F894D1
:02280000FFCF08
:102802006B006C006D0090013002EB01CD01D40130
:10281200CD01DB01FE01AE0101002C01BE0A8813CD
:102822000000A040CDCC4C3E713D0A3F0000803FED
:10283200A4707D3F010027000000F701640008003A
:102842000B000C000D00040005000700040004004A
:02285200010083
:00000001FF
