:100000000C9434000C9451000C9451000C94300A60
:100010000C9451000C9451000C9451000C9451001C
:100020000C9451000C9451000C9451000C9451000C
:100030000C9451000C9451000C9451000C945100FC
:100040000C9451000C9451000C9451000C945100EC
:100050000C9451000C9451000C9451000C945100DC
:100060000C9451000C94510011241FBECFEFD4E02A
:10007000DEBFCDBF11E0A0E0B1E0E6E0F3E202C0F8
:1000800005900D92AA33B107D9F711E0AAE3B1E0C8
:1000900001C01D92A83CB107E1F70E94080E0C9424
:1000A00081110C9400009C01F999FECF32BD21BD55
:1000B000F89A80B508959C01F999FECF1FBA32BD18
:1000C00021BD60BD0FB6F894FA9AF99A0FBE089553
:1000D000CF93DF9360E070E020E030E040E050E05C
:1000E000C4EFD1E015C08091900190919101A09151
:1000F0009201B0919301680F791F88EC90E0FE01A6
:100100003197F1F70197D9F72F5F3F4F4F4F5F4F6F
:10011000243131054105510534F3209366013093B4
:1001200067014093680150936901CB0164E170E07D
:100130000E94311170930B0160930A01DF91CF91FE
:100140000895AF92BF92CF92DF92EF92FF920F93FA
:100150001F93CF93DF93A090B401B090B501C090EE
:10016000B601D090B701C601B50120E030E048E407
:1001700052E40E94480F88230CF0B7C01092A501EA
:100180001092A4012091900130919101409192012F
:1001900050919301C0910A01D0910B0180910C0103
:1001A00090910D018C0F9D1FAA2797FDA095BA2F46
:1001B00082179307A407B50724F5E0902C01F0906F
:1001C0002D0100912E0110912F01C801B70126EADF
:1001D0003BE944E45BE30E949B109B01AC01C80136
:1001E000B7010E94E40E60932C0170932D0180935F
:1001F0002E0190932F0181E090E09093A5018093D0
:10020000A40120919001309191014091920150916F
:10021000930180910E0190910F01C80FD91FCE015B
:10022000AA2797FDA095BA2F281739074A075B0719
:1002300024F5E0902C01F0902D0100912E011091F9
:100240002F01C801B70126EA3BE944E45BEB0E94B9
:100250009B109B01AC01C801B7010E94E40E6093A2
:100260002C0170932D0180932E0190932F0181E03A
:1002700090E09093A5018093A40160912C0170916E
:100280002D0180912E0190912F012DEC3CEC4CEC36
:100290005DE30E94480F882364F48DEC9CECACEC89
:1002A000BDE380932C0190932D01A0932E01B09378
:1002B0002F0160912C0170912D0180912E01909160
:1002C0002F0120E030E040E251E40E949710181620
:1002D00064F480E090E0A0E2B1E480932C0190937C
:1002E0002D01A0932E01B0932F01C601B50120E08E
:1002F00030E048E452E40E94971088230CF4B0C028
:10030000C601B50120E030E044EB52E40E94480F02
:1003100088230CF0A5C081E090E09093A501809324
:10032000A40120919001309191014091920150914E
:100330009301C0910A01D0910B0180910C01909121
:100340000D018C0F9D1FAA2797FDA095BA2F82172C
:100350009307A407B507D4F460913001709131017F
:10036000809132019091330120E030E040E85FE37A
:100370000E94E40E6093300170933101809332014A
:10038000909333011092A5011092A4012091900145
:1003900030919101409192015091930180910E0111
:1003A00090910F01C80FD91FCE01AA2797FDA095E4
:1003B000BA2F281739074A075B07D4F46091300138
:1003C00070913101809132019091330120E030E051
:1003D00040E85FE30E94E30E6093300170933101C7
:1003E00080933201909333011092A5011092A401E1
:1003F000609130017091310180913201909133010F
:1004000020E030E040E050E00E94480F882364F490
:1004100080E090E0A8ECB2E4809330019093310149
:10042000A0933201B093330160913001709131019A
:10043000809132019091330120E030E048EC52E4A9
:100440000E949710181664F480E090E0A0E0B0E0FD
:100450008093300190933101A0933201B093330126
:10046000DF91CF911F910F91FF90EF90DF90CF9090
:10047000BF90AF90089510927B0086E880937A0039
:1004800084E080937C002098239824983C98509A8C
:10049000589A559A529A549A5D9A8FEF80936B00AE
:1004A00081E0809368001092800083E08093810057
:1004B0005A985C9821E030E040E050E0E0E268E8E3
:1004C00073E10AC08BB18E278BB9CB010197F1F78D
:1004D0002F5F3F4F4F4F5F4F2B3F31054105510578
:1004E0008CF321E030E040E050E0A0E264EF71E006
:1004F0000EC08BB18A278BB986E990E0FB0131975A
:10050000F1F70197D9F72F5F3F4F4F4F5F4F2031E2
:100510003105410551056CF3209366013093670165
:1005200040936801509369011092880110928901EB
:1005300010928A0110928B0108952F923F924F9250
:100540005F926F927F928F929F92AF92BF92CF9263
:10055000DF92EF92FF920F931F93DF93CF9300D020
:1005600000D000D0CDB7DEB710924A0110924B01F7
:1005700010924C0110924D011092520110925301B1
:10058000109254011092550110924E0110924F0199
:100590001092500110925101109285001092840027
:1005A000F89420916E0130916F014091700150914B
:1005B0007101609104017091050180910601909193
:1005C0000701860F971FAA2797FDA095BA2F8217BC
:1005D0009307A407B5073CF481E090E09093A30152
:1005E0008093A20104C01092A3011092A201209155
:1005F0006E0130916F0140917001509171018091B5
:10060000080190910901680F791FCB01AA2797FD76
:10061000A095BA2F281739074A075B073CF481E0F9
:1006200090E09093B3018093B20104C01092B301A3
:100630001092B2011092A5011092A401C09056012F
:10064000D0905701D092A101C092A001A090340196
:10065000B0903501B60180E090E00E94E50F7B018B
:100660008C01B501882777FD8095982F0E94E70FB0
:100670009B01AC01C801B7010E94E30E60939C018D
:1006800070939D0180939E0190939F012091200182
:100690003091210140912201509123010E949B1031
:1006A000609378017093790180937A0190937B0134
:1006B000CA18DB088CEC99E2B6010E943111882738
:1006C00077FD8095982F0E94E70F7B018C01609346
:1006D0005E0170935F01809360019093610120E05F
:1006E00030E04AE754E40E944C0F6093A6017093F7
:1006F000A7018093A8019093A9018091A2019091F4
:10070000A3010197A1F4C801B70120912401309100
:10071000250140912601509127010E949B10609372
:100720005E0170935F0180936001909361018091FD
:10073000B2019091B3010197D1F460915E01709183
:100740005F018091600190916101209128013091B9
:10075000290140912A0150912B010E949B10609326
:100760005E0170935F0180936001909361016091DD
:1007700088017091890180918A0190918B0100918B
:100780000001109101019801442737FD4095542F35
:10079000621B730B840B950B24E630E040E050E0C5
:1007A0000E94FE102091020130910301201B310BA9
:1007B000442737FD4095542F0E944411CA01B901C6
:1007C0000E94E70F6093AE017093AF018093B00178
:1007D0009093B10120E030E040E451E40E94480FE2
:1007E000882364F480E090E0A0E4B1E48093AE015B
:1007F0009093AF01A093B001B093B1016091AE01AD
:100800007091AF018091B0019091B10120E030E092
:1008100048EC52E40E949710181664F480E090E0CF
:10082000A8ECB2E48093AE019093AF01A093B00125
:10083000B093B1012091AE013091AF014091B00170
:100840005091B1012093B4013093B5014093B601AA
:100850005093B7018091C2019091C3019E838D8313
:10086000019769F480E090E0A8E4B2E48093AE01DF
:100870009093AF01A093B001B093B10104C0AD81DA
:10088000BE81AB2B59F0CA01B90120E030E044EB46
:1008900052E40E94971018160CF044C02091900169
:1008A00030919101409192015091930160910A0120
:1008B00070910B01882777FD8095982F621B730B31
:1008C000840B950B0E94E70F209136013091370180
:1008D00040913801509139010E949B109B01AC015D
:1008E00060E070E080E89FE30E94E30E9B01AC01B2
:1008F000609358017093590180935A0190935B0162
:1009000060915E0170915F01809160019091610141
:100910000E949B1060935E0170935F018093600161
:1009200090936101A0905E01B0905F01C090600162
:10093000D0906101C601B50120E030E040E05FE306
:100940000E949B1060938C0170938D0180938E01A7
:1009500090938F0120E030E048E453E40E94971028
:10096000181664F480E090E0A8E4B3E480938C016E
:1009700090938D01A0938E01B0938F0160918C01B3
:1009800070918D0180918E0190918F0120E030E077
:1009900040EA50E40E94480F882364F480E090E02D
:1009A000A0EAB0E480938C0190938D01A0938E0116
:1009B000B0938F01C601B501209130013091310112
:1009C00040913201509133010E949B1020E030E0B1
:1009D00048EC52E40E944C0F7B018C01609398011B
:1009E0007093990180939A0190939B01C601B50180
:1009F00020E030E040E450E40E944C0FA801970151
:100A00000E94E40E7B018C016093BA017093BB01DC
:100A10008093BC019093BD01A60195010E9497109F
:100A2000882374F0C801B701A60195010E94E30E66
:100A30006093BA017093BB018093BC019093BD0198
:100A4000E090BA01F090BB010091BC011091BD0192
:100A5000C801B70120E030E040E85FE30E94480FA2
:100A6000882374F4C801B701A60195010E94E40E21
:100A70006093BA017093BB018093BC019093BD0158
:100A80001092BF011092BE018091AE019091AF0112
:100A9000A091B001B091B10189839A83AB83BC83EB
:100AA000BC01CD0120E030E048E452E40E94971000
:100AB00018160CF076C081E090E09093A501809329
:100AC000A40120908C0130908D0140908E015090B7
:100AD0008F01C201B10120E030E048EC51E40E94F6
:100AE0009B1029813A814B815C810E944C0F7B01D4
:100AF0008C01609362017093630180936401909311
:100B00006501C201B10120E030E040E05FE30E94F6
:100B10009B105B016C01A80197010E94E30E3B0151
:100B20004C016093C4017093C5018093C6019093FA
:100B3000C701C601B501A80197010E94E40E6093A8
:100B40009401709395018093960190939701C4014D
:100B5000B30120E030E040E85FE30E94480F8823C3
:100B600064F480E090E0A0E8BFE38093C401909338
:100B7000C501A093C601B093C70180E090E0A0E05A
:100B8000B0E08093840190938501A0938601B09397
:100B9000870120927C0130927D0140927E0150922B
:100BA0007F0169817A818B819C8120E030E048E47B
:100BB00052E40E94480F18160CF44EC080E090E0FA
:100BC000A0E8BFE38093C4019093C501A093C60140
:100BD000B093C701E0908C01F0908D0100918E01DF
:100BE00010918F01E0929401F0929501009396018B
:100BF0001093970160E070E088E492E429813A81E3
:100C00004B815C810E94E30EA80197010E949B101A
:100C100020E030E046E153E40E944C0F9B01AC0120
:100C20006093AA017093AB018093AC019093AD01E6
:100C3000609384017093850180938601909387016E
:100C4000C801B7010E94E30E60937C0170937D019F
:100C500080937E0190937F01AD81BE81119711F445
:100C60000E94A100609198017091990180919A0170
:100C700090919B0120E030E44CE953E40E949B10EA
:100C8000609398017093990180939A0190939B01CE
:100C90006091BA017091BB018091BC019091BD013E
:100CA00020E030E44CE953E40E949B106093BA01C9
:100CB0007093BB018093BC019093BD0160918C0146
:100CC00070918D0180918E0190918F0120E030E430
:100CD0004CE953E40E949B1060938C0170938D014A
:100CE00080938E0190938F016091840170918501B2
:100CF000809186019091870120E030E44CE953E433
:100D00000E949B10609384017093850180938601FB
:100D10009093870160917C0170917D0180917E01AB
:100D200090917F0120E030E44CE953E40E949B1055
:100D300060937C0170937D0180937E0190937F018D
:100D40006091C4017091C5018091C6019091C70165
:100D500020E030E44CE953E40E949B106093C4010E
:100D60007093C5018093C6019093C701609194016F
:100D700070919501809196019091970120E030E467
:100D80004CE953E40E949B10609394017093950189
:100D90008093960190939701789426960FB6F894D5
:100DA000DEBF0FBECDBFCF91DF911F910F91FF909E
:100DB000EF90DF90CF90BF90AF909F908F907F90FB
:100DC0006F905F904F903F902F9008952F923F9299
:100DD0004F925F926F927F928F929F92AF92BF924B
:100DE000CF92DF92EF92FF920F931F93DF93CF93F7
:100DF000CDB7DEB7A2970FB6F894DEBF0FBECDBF5A
:100E00005C0120918C0130918D0140918E015091B7
:100E10008F0129833A834B835C838091C401909135
:100E2000C501A091C601B091C7018D8F9E8FAF8F74
:100E3000B8A320916A0130916B0140916C015091EF
:100E40006D01298F3A8F4B8F5C8F80919401909127
:100E50009501A0919601B09197018D8B9E8BAF8BE0
:100E6000B88FA091A201B091A301BC8BAB8BE09194
:100E7000B201F091B301FA8BE98B20913E013091E0
:100E80003F01388B2F878091840190918501A0913B
:100E90008601B09187018B879C87AD87BE872091A3
:100EA0007C0130917D0140917E0150917F012F8323
:100EB000388749875A87209098013090990140904F
:100EC0009A0150909B016090BA017090BB01809094
:100ED000BC019090BD014091A4015091A5015E8399
:100EE0004D83C0907401D0907501E0907601F09030
:100EF000770180917201909173019AA389A301E017
:100F000031C1609184007091850080E090E00E9482
:100F1000E50F2D8D3E8D4F8D58A10E94480F8823DF
:100F200014F45A9A5C9A609184007091850080E074
:100F300090E00E94E50F2D8D3E8D4F8D58A10E94AF
:100F40009710181614F45A9A5C9A60918400709164
:100F5000850080E090E0298D3A8D4B8D5C8D620F8D
:100F6000731F841F951F0E94E70F6B017C01609126
:100F700084007091850080E090E00E94E50F2D8D47
:100F80003E8D4F8D58A10E94971018160CF056C038
:100F9000609184007091850080E090E00E94E50FF0
:100FA0002D893E894F89588D0E94480F88230CF067
:100FB00045C04B895C89452BF9F489899A89892B2D
:100FC00061F5AF85B889AB2B49F4B1E0AB16B1043C
:100FD000D9F0E2E0AE16B10401F51DC02F853889C5
:100FE00021303105D1F431E0A316B104A1F042E083
:100FF000A416B10491F408C08B899C89019769F407
:1010000091E0A916B10419F45A9A5C9806C0A2E0BE
:10101000AA16B10411F45A985C9AE989FA893197B1
:1010200069F4F1E0AF16B10419F45A985C9A06C05D
:1010300022E0A216B10411F45A9A5C9860918400DF
:101040007091850080E090E00E94E50F2D893E8937
:101050004F89588D0E949710181614F45A9A5C9A6A
:10106000609184007091850080E090E00E94E50F1F
:101070002B853C854D855E850E94480F882314F49E
:101080005A985C98609184007091850080E090E0AF
:101090000E94E50F2F81388549855A850E94971057
:1010A000181614F45A985C98C201B101A401930176
:1010B0000E9497101816DCF410E0C701B601A401D5
:1010C00093010E94971018160CF411E01027412F7D
:1010D00050E05AA349A3C701B601A20191010E94A1
:1010E0009710181624F481E090E09AA389A3C40114
:1010F000B301A20191010E9497101816C4F41AA21C
:1011000019A2C701B601A20191010E9497101816F9
:1011100024F4A1E0B0E0BAA3A9A3C701B601A401D9
:1011200093010E949710181614F41AA219A229A16B
:101130003AA12130310589F44D815E81413051055C
:1011400051F4809184009091850060EA70E00E94E3
:101150001D1160FD06C05D9A05C089A19AA1892B69
:1011600009F45D98609184007091850080E090E0C2
:101170000E94E50F29813A814B815C810E94480FD2
:1011800087FDBFCEC0927401D0927501E0927601C6
:10119000F0927701A9A1BAA1B0937301A093720153
:1011A000A2960FB6F894DEBF0FBECDBFCF91DF91F0
:1011B0001F910F91FF90EF90DF90CF90BF90AF9075
:1011C0009F908F907F906F905F904F903F902F9067
:1011D00008955A985C9808955A9A5C9A08955A9A74
:1011E0005C9808955A985C9A089510924A0110925A
:1011F0004B0110924C0110924D011092520110922D
:101200005301109254011092550110924E01109208
:101210004F0110925001109251010895EF92FF92E8
:101220000F931F93189B0EC08091840090918500AE
:10123000A0E0B0E080934A0190934B01A0934C0151
:10124000B0934D01189959C0E0904A01F0904B01BC
:1012500000914C0110914D01E114F10401051105BB
:1012600009F44BC08091840090918500A0E0B0E02B
:10127000E816F9060A071B070CF03FC060918801C9
:101280007091890180918A0190918B012091840055
:101290003091850040E050E02E193F09400B510B82
:1012A00079018A01E4E0EE0CFF1C001F111FEA9592
:1012B000D1F7E21AF30A040B150B25E530E040E004
:1012C00050E00E94FE10E60EF71E081F191FC8010D
:1012D000B70124E630E040E050E00E944411C9012B
:1012E000DA018093880190938901A0938A01B093D9
:1012F0008B01109243011092420183B190E0817002
:1013000090709093C1018093C0011F910F91FF9045
:10131000EF900895EF92FF920F931F931B9B0EC0C7
:101320008091840090918500A0E0B0E0809352010C
:1013300090935301A0935401B09355011B993EC063
:10134000E0905201F0905301009154011091550129
:10135000E114F1040105110589F180918400909157
:101360008500A0E0B0E0E816F9060A071B0734F58F
:1013700020919001309191014091920150919301FF
:10138000609184007091850080E090E06E197F0983
:10139000800B910B620F731F841F951F22E030E0BA
:1013A00040E050E00E944411C901DA0180939001AD
:1013B00090939101A0939201B093930183B190E037
:1013C0008870907090935D0180935C011F910F91E4
:1013D000FF90EF9008951C9B0EC080918400909127
:1013E0008500A0E0B0E080934E0190934F01A09360
:1013F0005001B09351011C992AC020914E013091A7
:101400004F01409150015091510121153105410585
:101410005105E9F08091840090918500A0E0B0E052
:10142000281739074A075B0794F48091840090914C
:101430008500A0E0B0E0821B930BA40BB50B80935A
:101440006E0190936F01A0937001B093710183B10D
:1014500090E0807190709093B9018093B8010895E5
:101460001F920F920FB60F9211242F933F934F9319
:101470005F936F937F938F939F93AF93BF93EF93FC
:10148000FF9383B190E0817090702091C001309102
:10149000C1012817390711F00E940E0983B190E0AD
:1014A0008870907020915C0130915D012817390798
:1014B00011F00E948A0983B190E0807190702091B0
:1014C000B8013091B9012817390711F00E94EB09D2
:1014D000FF91EF91BF91AF919F918F917F916F910C
:1014E0005F914F913F912F910F900FBE0F901F90E2
:1014F00018951092800083E08093810008951092E7
:101500007B0086E880937A0084E080937C000895D5
:1015100080917A00806480937A0080917A0086FDC1
:10152000FCCF9091780080917900382F20E0290F2E
:10153000311DC90108956F927F928F929F92AF9251
:10154000BF92CF92DF92EF92FF920F931F93609121
:101550002C0170912D0180912E0190912F0120E09E
:1015600030E04AE754E40E949B107B018C010E940A
:10157000B40F5B016C010E94E70F9B01AC01C80135
:10158000B7010E94E30E3B014C010BE510E080E047
:1015900090E060E870E0A8010E94CE0E60913001FA
:1015A0007091310180913201909133010E94B90F05
:1015B0009B01AC0182E090E0B901A8010E94CE0E2F
:1015C00084E090E0B501A8010E94CE0EC401B301F1
:1015D00020E030E44CE156E40E949B100E94B90FD9
:1015E0009B01AC0186E090E0B901A8010E94CE0EFB
:1015F00060910A0170910B0188E090E0A8010E94BF
:10160000CE0E60913401709135018AE090E0A8011E
:101610000E94CE0E1F910F91FF90EF90DF90CF9020
:10162000BF90AF909F908F907F906F9008952F9272
:101630003F924F925F926F927F928F929F92AF9262
:10164000BF92CF92DF92EF92FF920F931F93CF93AF
:10165000DF937894C4EFD1E0A0E54A2EA3EC5A2E94
:10166000F1E02F2E312CFBC15A985C9880918801B3
:1016700090918901A0918A01B0918B018E159F05EF
:10168000A007B107BCF020918801309189014091F9
:101690008A0150918B0180910201909103018C5934
:1016A0009F4FAA2797FDA095BA2F82179307A407EB
:1016B000B50724F4109245011092440180918801ED
:1016C00090918901A0918A01B0918B01E816F906E9
:1016D0000A071B0704F52091880130918901409188
:1016E0008A0150918B0180910201909103018C59E4
:1016F0009F4FAA2797FDA095BA2F281739074A07A9
:101700005B074CF4809144019091450101969093C0
:1017100045018093440120919001309191014091C5
:1017200092015091930160910A0170910B01809197
:101730000C0190910D01860F971FAA2797FDA09588
:10174000BA2F82179307A407B50744F45D9A80ED7A
:1017500097E0FE013197F1F70197D9F720919001B9
:1017600030919101409192015091930180910E012D
:1017700090910F01680F791FCB01AA2797FDA095C3
:10178000BA2F281739074A075B0744F45D9A80EDA2
:1017900097E0FE013197F1F70197D9F78BB190E20D
:1017A00089278BB98CE291E0FE013197F1F701971F
:1017B000D9F78090C2019090C30181E0881691040E
:1017C00041F45D9880ED97E0FE013197F1F70197C4
:1017D000D9F720916E0130916F01409170015091C5
:1017E000710160910401709105018091080190914F
:1017F0000901860F971F7C010027F7FC0095102F29
:10180000E216F30604071507CCF520916E0130911E
:101810006F0140917001509171018091060190918A
:101820000701680F791F5B01CC24B7FCC094DC2C46
:101830002A153B054C055D050CF5C2010197F1F732
:1018400080916E0190916F01A0917001B091710132
:10185000E816F9060A071B078CF480916E01909137
:101860006F01A0917001B09171018A159B05AC05C3
:10187000BD0524F4309241012092400180916E0117
:1018800090916F01A0917001B09171018E159F052B
:10189000A007B1070CF098C08091400190914101E0
:1018A000019709F091C080E197E2FE013197F1F7CD
:1018B0000197D9F780916E0190916F01A09170010D
:1018C000B09171018E159F05A007B1070CF07CC087
:1018D00020E030E0892811F421E030E03093C301AA
:1018E0002093C20188E99AE3FE013197F1F701974D
:1018F000D9F7F8942130310511F40E9468008091E5
:10190000C2019091C301892B11F40E949B0A789423
:101910005BC05D98E114F10401051105A1F420E01C
:1019200030E05D9A88EA91E60197F1F75D988CE2E4
:1019300091E0FE013197F1F70197D9F72F5F3F4F03
:101940002F30310571F780E49FE1FE013197F1F707
:101950000197D9F721E330E040E050E014C02C5962
:101960003F4F4F4F5F4F5D9A84EF91E0FE013197FB
:10197000F1F70197D9F75D9880EA9FE0FE01319772
:10198000F1F70197D9F72E153F05400751070CF0E5
:1019900043C080916E0190916F01A0917001B09150
:1019A0007101681679068A069B06B4F58091880154
:1019B00090918901A0918A01B0918B018A159B05B4
:1019C000AC05BD054CF5CBCF809106019091070188
:1019D0002091040130910501820F931F3C0188245E
:1019E00077FC8094982C80910001909101015C011A
:1019F000CC24B7FCC094DC2CE0904601F090470169
:101A000000914801109149012091660130916701D0
:101A1000409168015091690180916E0190916F0130
:101A2000A0917001B0917101681679068A069B0633
:101A300074F48091880190918901A0918A01B091FC
:101A40008B018A159B05AC05BD050CF462CF209374
:101A500066013093670140936801509369012091BA
:101A600088013091890140918A0150918B018091C8
:101A70000001909101017C010027F7FC0095102FD7
:101A80002E153F05400751070CF4EECD209188013B
:101A90003091890140918A0150918B01809102011E
:101AA000909103018C599F4FAA2797FDA095BA2FBB
:101AB00082179307A407B5070CF4D6CD8091420195
:101AC000909143010C970CF0CFCD809144019091FF
:101AD000450104970CF4C8CDDF91CF911F910F9170
:101AE000FF90EF90DF90CF90BF90AF909F908F903E
:101AF0007F906F905F904F903F902F900895AF929E
:101B0000BF92CF92DF92EF92FF920F931F9380E0EC
:101B100090E063E570E00E94B80E8038910509F00E
:101B20006EC082E090E063E570E00E94B80EA0E035
:101B3000B0E0BC01CD010E94E50F609330017093CD
:101B40003101809332019093330184E090E063E5AA
:101B500070E00E94B80EA0E0B0E0BC01CD010E9490
:101B6000E50F5B016C0186E090E063E570E00E94A8
:101B7000B80EA0E0B0E0BC01CD010E94E50F7B01F2
:101B80008C0188E090E063E570E00E94B80E9093CD
:101B90000B0180930A018AE090E063E570E00E9407
:101BA000B80E9093350180933401C801B70120E04D
:101BB00030E04AE754E40E944C0F7B018C01C601DF
:101BC000B50120E030E04AE754E40E944C0F5B018D
:101BD0006C01C801B70120E030E44CE156E40E94FA
:101BE0004C0F9B01AC01C601B5010E94E40E60934D
:101BF0002C0170932D0180932E0190932F011F9142
:101C00000F91FF90EF90DF90CF90BF90AF9008952D
:101C1000CF93DF930E943B020E947F0D80917A0058
:101C2000806480937A0080917A0086FDFCCF3091A9
:101C3000780020917900922F80E0830F911D90937E
:101C400035018093340180917A00806480937A001A
:101C500080917A0086FDFCCF809178008091790098
:101C6000609156017091570121E030E040E050E072
:101C700018C080917A00806480937A0080917A0005
:101C800086FDFCCF9091780080917900D82FC0E03C
:101C9000FE01E90FF11D6E0F7F1F2F5F3F4F4F4F6A
:101CA0005F4F2A303105410551051CF32093660131
:101CB000309367014093680150936901CB016AE05A
:101CC00070E00E943111709357016093560180912A
:101CD0004201909143010196909343018093420108
:101CE00080913A0190913B01A0913C01B0913D015E
:101CF0000196A11DB11D80933A0190933B01A093E1
:101D00003C01B0933D010E94170B20E030E0809130
:101D10003E0190913F01892B11F421E030E0309396
:101D20003F0120933E0110926A0110926B011092C4
:101D30006C0110926D01589A0E949D0281E090E022
:101D40000E94E60658988091840090918500A0E05A
:101D5000B0E080936A0190936B01A0936C01B09303
:101D60006D010E949D0282E090E00E94E60678CF1D
:101D7000DF92EF92FF920F931F937B018C01FB0187
:101D80000995D82EC8010196F7010995982F8D2D38
:101D90001F910F91FF90EF90DF900895DF92EF92E7
:101DA000FF920F931F93D72E7A018C01FA010995A8
:101DB000C80101966D2DF70109951F910F91FF90B4
:101DC000EF90DF9008955058BB27AA270ED075C119
:101DD00066D130F06BD120F031F49F3F11F41EF446
:101DE0005BC10EF4E095E7FB51C1E92F77D180F399
:101DF000BA17620773078407950718F071F49EF508
:101E00008FC10EF4E0950B2EBA2FA02D0B01B90156
:101E100090010C01CA01A0011124FF27591B99F060
:101E2000593F50F4503E68F11A16F040A22F232F6C
:101E3000342F4427585FF3CF469537952795A795BC
:101E4000F0405395C9F77EF41F16BA0B620B730B63
:101E5000840BBAF09150A1F0FF0FBB1F661F771FD4
:101E6000881FC2F70EC0BA0F621F731F841F48F489
:101E7000879577956795B795F7959E3F08F0B3CF0F
:101E80009395880F08F09927EE0F979587950895F9
:101E9000D9D008F481E008950CD00FC107D140F0EB
:101EA000FED030F021F45F3F19F0F0C0511139C17C
:101EB000F3C014D198F39923C9F35523B1F3951BBB
:101EC000550BBB27AA2762177307840738F09F5F5B
:101ED0005F4F220F331F441FAA1FA9F333D00E2ECA
:101EE0003AF0E0E830D091505040E695001CCAF737
:101EF00029D0FE2F27D0660F771F881FBB1F2617FC
:101F000037074807AB07B0E809F0BB0B802DBF01CE
:101F1000FF2793585F4F2AF09E3F510568F0B6C0E7
:101F200000C15F3FECF3983EDCF3869577956795AB
:101F3000B795F7959F5FC9F7880F911D969587957F
:101F400097F90895E1E0660F771F881FBB1F62179E
:101F500073078407BA0720F0621B730B840BBA0B5C
:101F6000EE1F88F7E095089504D06894B111D9C0A8
:101F70000895BCD088F09F5790F0B92F9927B7519A
:101F8000A0F0D1F0660F771F881F991F1AF0BA953D
:101F9000C9F712C0B13081F0C3D0B1E00895C0C01C
:101FA000672F782F8827B85F39F0B93FCCF3869533
:101FB00077956795B395D9F73EF490958095709590
:101FC00061957F4F8F4F9F4F0895E89409C097FB0D
:101FD0003EF490958095709561957F4F8F4F9F4F00
:101FE0009923A9F0F92F96E9BB279395F695879544
:101FF00077956795B795F111F8CFFAF4BB0F11F407
:1020000060FF1BC06F5F7F4F8F4F9F4F16C08823AD
:1020100011F096E911C0772321F09EE8872F762FE3
:1020200005C0662371F096E8862F70E060E02AF024
:102030009A95660F771F881FDAF7880F9695879510
:1020400097F90895990F0008550FAA0BE0E8FEEFE5
:1020500016161706E807F907C0F012161306E4076C
:10206000F50798F0621B730B840B950B39F40A2665
:1020700061F0232B242B252B21F408950A2609F443
:10208000A140A6958FEF811D811D089597F99F6747
:1020900080E870E060E008959FEF80EC08950024F0
:1020A0000A941616170618060906089500240A94BD
:1020B00012161306140605060895092E0394000C43
:1020C00011F4882352F0BB0F40F4BF2B11F460FFD2
:1020D00004C06F5F7F4F8F4F9F4F089557FD9058FB
:1020E000440F551F59F05F3F71F04795880F97FBDC
:1020F000991F61F09F3F79F0879508951216130696
:102100001406551FF2CF4695F1DF08C016161706C4
:102110001806991FF1CF86957105610508940895F9
:10212000E894BB2766277727CB0197F908958ADFC4
:1021300008F48FEF08950BD0C0CFB1DF28F0B6DFE1
:1021400018F0952309F0A2CFA7CF1124EACFC6DF5C
:10215000A0F3959FD1F3950F50E0551F629FF001BA
:10216000729FBB27F00DB11D639FAA27F00DB11D13
:10217000AA1F649F6627B00DA11D661F829F22279C
:10218000B00DA11D621F739FB00DA11D621F839F23
:10219000A00D611D221F749F3327A00D611D231FF9
:1021A000849F600D211D822F762F6A2F11249F5747
:1021B00050408AF0E1F088234AF0EE0FFF1FBB1F6A
:1021C000661F771F881F91505040A9F79E3F510509
:1021D00070F05CCFA6CF5F3FECF3983EDCF38695C2
:1021E00077956795B795F795E7959F5FC1F7FE2BB4
:1021F000880F911D9695879597F90895629FD00154
:10220000739FF001829FE00DF11D649FE00DF11DB1
:10221000929FF00D839FF00D749FF00D659FF00D60
:102220009927729FB00DE11DF91F639FB00DE11D4D
:10223000F91FBD01CF0111240895AA1BBB1B51E159
:1022400007C0AA1FBB1FA617B70710F0A61BB70B26
:10225000881F991F5A95A9F780959095BC01CD01CB
:10226000089597FB092E07260AD077FD04D0E5DFF5
:1022700006D000201AF4709561957F4F0895F6F707
:10228000909581959F4F089597FB092E05260ED0B6
:1022900057FD04D014D00AD0001C38F45095409556
:1022A000309521953F4F4F4F5F4F0895F6F790952A
:1022B0008095709561957F4F8F4F9F4F0895A1E254
:1022C0001A2EAA1BBB1BFD010DC0AA1FBB1FEE1FB0
:1022D000FF1FA217B307E407F50720F0A21BB30BFB
:1022E000E40BF50B661F771F881F991F1A9469F777
:1022F00060957095809590959B01AC01BD01CF01D3
:062300000895F894FFCFE0
:1023060086012B02DB011E00E2FFDB011400ECFF5D
:102316000000484300002F4400281146CDCCAC40B5
:102326000000003F0000803F0000803F0000803F2B
:0A23360000007C42F201FAED6B3A60
:00000001FF
